{
  "address": "0x111A005D5036B28577AF4a76915Db97678D472eE",
  "abi": [
    {
      "anonymous": false,
      "inputs": [
        {
          "indexed": false,
          "internalType": "address",
          "name": "oldAdmin",
          "type": "address"
        },
        {
          "indexed": false,
          "internalType": "address",
          "name": "newAdmin",
          "type": "address"
        }
      ],
      "name": "NewAdmin",
      "type": "event"
    },
    {
      "anonymous": false,
      "inputs": [
        {
          "indexed": false,
          "internalType": "address",
          "name": "oldPendingAdmin",
          "type": "address"
        },
        {
          "indexed": false,
          "internalType": "address",
          "name": "newPendingAdmin",
          "type": "address"
        }
      ],
      "name": "NewPendingAdmin",
      "type": "event"
    },
    {
      "anonymous": false,
      "inputs": [
        {
          "indexed": true,
          "internalType": "address",
          "name": "voucher",
          "type": "address"
        },
        {
          "indexed": false,
          "internalType": "address",
          "name": "oldVoucherSVG",
          "type": "address"
        },
        {
          "indexed": false,
          "internalType": "address",
          "name": "newVoucherSVG",
          "type": "address"
        }
      ],
      "name": "SetVoucherSVG",
      "type": "event"
    },
    {
      "inputs": [],
      "name": "_admin",
      "outputs": [
        {
          "internalType": "address",
          "name": "",
          "type": "address"
        }
      ],
      "stateMutability": "view",
      "type": "function"
    },
    {
      "inputs": [],
      "name": "acceptAdmin",
      "outputs": [],
      "stateMutability": "nonpayable",
      "type": "function"
    },
    {
      "inputs": [],
      "name": "contractURI",
      "outputs": [
        {
          "internalType": "string",
          "name": "",
          "type": "string"
        }
      ],
      "stateMutability": "view",
      "type": "function"
    },
    {
      "inputs": [
        {
          "internalType": "address",
          "name": "defaultVoucherSVG_",
          "type": "address"
        }
      ],
      "name": "initialize",
      "outputs": [],
      "stateMutability": "nonpayable",
      "type": "function"
    },
    {
      "inputs": [],
      "name": "pendingAdmin",
      "outputs": [
        {
          "internalType": "address",
          "name": "",
          "type": "address"
        }
      ],
      "stateMutability": "view",
      "type": "function"
    },
    {
      "inputs": [
        {
          "internalType": "address",
          "name": "newPendingAdmin_",
          "type": "address"
        }
      ],
      "name": "setPendingAdmin",
      "outputs": [],
      "stateMutability": "nonpayable",
      "type": "function"
    },
    {
      "inputs": [
        {
          "internalType": "address",
          "name": "voucher_",
          "type": "address"
        },
        {
          "internalType": "address",
          "name": "voucherSVG_",
          "type": "address"
        }
      ],
      "name": "setVoucherSVG",
      "outputs": [],
      "stateMutability": "nonpayable",
      "type": "function"
    },
    {
      "inputs": [
        {
          "internalType": "uint256",
          "name": "slot_",
          "type": "uint256"
        }
      ],
      "name": "slotURI",
      "outputs": [
        {
          "internalType": "string",
          "name": "",
          "type": "string"
        }
      ],
      "stateMutability": "view",
      "type": "function"
    },
    {
      "inputs": [
        {
          "internalType": "uint256",
          "name": "tokenId_",
          "type": "uint256"
        }
      ],
      "name": "tokenURI",
      "outputs": [
        {
          "internalType": "string",
          "name": "",
          "type": "string"
        }
      ],
      "stateMutability": "view",
      "type": "function"
    },
    {
      "inputs": [
        {
          "internalType": "address",
          "name": "",
          "type": "address"
        }
      ],
      "name": "voucherSVGs",
      "outputs": [
        {
          "internalType": "address",
          "name": "",
          "type": "address"
        }
      ],
      "stateMutability": "view",
      "type": "function"
    }
  ],
  "transactionHash": "0xb752649d1e539c56cbb8a9ecbc1d1a786a66712cc8f804a213148d7683c2a1d8",
  "args": [],
  "numDeployments": 1,
  "solcInputHash": "66bc8bd68af0ee74d391b6f495762ba9",
  "bytecode": "0x608060405234801561001057600080fd5b50612ab1806100206000396000f3fe608060405234801561001057600080fd5b506004361061008e5760003560e01c806301bc45c91461009357806309c3dd87146100b15780630e18b681146100d157806326782247146100db5780634b996300146100e35780634dd18bf5146100f6578063c4d66de814610109578063c87b56dd1461011c578063d4df91e41461012f578063e8a3d48514610142575b600080fd5b61009b61014a565b6040516100a8919061266d565b60405180910390f35b6100c46100bf366004611e0f565b610159565b6040516100a891906126b4565b6100d9610347565b005b61009b61041e565b6100d96100f1366004611c5d565b61042d565b6100d9610104366004611c25565b610510565b6100d9610117366004611c25565b6105d6565b6100c461012a366004611e0f565b610694565b61009b61013d366004611c25565b610a5f565b6100c4610a7a565b6033546001600160a01b031681565b60606000610165610ba9565b90506000816001600160a01b031663360454c56040518163ffffffff1660e01b815260040160206040518083038186803b1580156101a257600080fd5b505afa1580156101b6573d6000803e3d6000fd5b505050506040513d601f19601f820116820180604052508101906101da9190611c41565b90506000816001600160a01b031663d3ceafb9866040518263ffffffff1660e01b815260040161020a91906126e7565b6101a06040518083038186803b15801561022357600080fd5b505afa158015610237573d6000803e3d6000fd5b505050506040513d601f19601f8201168201806040525081019061025b9190611d15565b90506102e1836001600160a01b031663076d948c876040518263ffffffff1660e01b815260040161028c91906126e7565b60206040518083038186803b1580156102a457600080fd5b505afa1580156102b8573d6000803e3d6000fd5b505050506040513d601f19601f820116820180604052508101906102dc9190611e27565b610bad565b60405163a880042560e01b8152610311906001600160a01b0386169063a88004259061028c908a906004016126e7565b61031b8484610c87565b60405160200161032d93929190612295565b60405160208183030381529060405293505050505b919050565b6034546001600160a01b031661035b610ba9565b6001600160a01b0316146103ab576040805162461bcd60e51b815260206004820152601260248201527137b7363c903832b73234b7339030b236b4b760711b604482015290519081900360640190fd5b603354603454604080516001600160a01b03938416815292909116602083015280517ff9ffabca9c8276e99321725bcb43fb076a6c66a54b7f21c4e8146d8519b417dc9281900390910190a160348054603380546001600160a01b03199081166001600160a01b03841617909155169055565b6034546001600160a01b031681565b6033546001600160a01b0316610441610ba9565b6001600160a01b031614610489576040805162461bcd60e51b815260206004820152600a60248201526937b7363c9030b236b4b760b11b604482015290519081900360640190fd5b6001600160a01b038083166000818152603560205260409081902054905191927fa9319254799bc553e8c0a5138132bcee5051f4d6d2524ae1ebee1356a82eda05926104da9290911690859061269a565b60405180910390a26001600160a01b03918216600090815260356020526040902080546001600160a01b03191691909216179055565b6033546001600160a01b0316610524610ba9565b6001600160a01b03161461056c576040805162461bcd60e51b815260206004820152600a60248201526937b7363c9030b236b4b760b11b604482015290519081900360640190fd5b603454604080516001600160a01b039283168152918316602083015280517fca4f2f25d0898edd99413412fb94012f9e54ec8142f9b093e7720646a95b16a99281900390910190a1603480546001600160a01b0319166001600160a01b0392909216919091179055565b600054610100900460ff16806105ef57506105ef610f28565b806105fd575060005460ff16155b6106385760405162461bcd60e51b815260040180806020018281038252602e8152602001806128c9602e913960400191505060405180910390fd5b600054610100900460ff16158015610663576000805460ff1961ff0019909116610100171660011790555b61067361066e610ba9565b610f39565b61067e60008361042d565b8015610690576000805461ff00191690555b5050565b606060006106a0610ba9565b90506000816001600160a01b031663360454c56040518163ffffffff1660e01b815260040160206040518083038186803b1580156106dd57600080fd5b505afa1580156106f1573d6000803e3d6000fd5b505050506040513d601f19601f820116820180604052508101906107159190611c41565b90506000826001600160a01b031663263f3e7e866040518263ffffffff1660e01b815260040161074591906126e7565b60206040518083038186803b15801561075d57600080fd5b505afa158015610771573d6000803e3d6000fd5b505050506040513d601f19601f820116820180604052508101906107959190611e27565b90506000826001600160a01b031663d3ceafb9836040518263ffffffff1660e01b81526004016107c591906126e7565b6101a06040518083038186803b1580156107de57600080fd5b505afa1580156107f2573d6000803e3d6000fd5b505050506040513d601f19601f820116820180604052508101906108169190611d15565b90506000846001600160a01b03166306fdde036040518163ffffffff1660e01b815260040160006040518083038186803b15801561085357600080fd5b505afa158015610867573d6000803e3d6000fd5b505050506040513d6000823e601f3d908101601f1916820160405261088f9190810190611c95565b61089888610bad565b6040516020016108a9929190611ef7565b60405160208183030381529060405290506000603560006108c8610ba9565b6001600160a01b0390811682526020820192909252604001600020541690508061092257506000805260356020527f842397100357c7bc9e13c9e286c8970fd4253dcc8e63c78c74e0f9bb8b96fef4546001600160a01b03165b6000816001600160a01b0316633d4ebb9861093b610ba9565b8b6040518363ffffffff1660e01b8152600401610959929190612681565b60006040518083038186803b15801561097157600080fd5b505afa158015610985573d6000803e3d6000fd5b505050506040513d6000823e601f3d908101601f191682016040526109ad9190810190611c95565b9050610a32836109be898c88610ff6565b6109c7846111e8565b6109f68b6001600160a01b031663becef6078f6040518263ffffffff1660e01b815260040161028c91906126e7565b6109ff8a610bad565b610a098c8b610c87565b604051602001610a1e96959493929190611f34565b6040516020818303038152906040526111e8565b604051602001610a429190612427565b604051602081830303815290604052975050505050505050919050565b6035602052600090815260409020546001600160a01b031681565b60606000610a86610ba9565b9050806001600160a01b03166306fdde036040518163ffffffff1660e01b815260040160006040518083038186803b158015610ac157600080fd5b505afa158015610ad5573d6000803e3d6000fd5b505050506040513d6000823e601f3d908101601f19168201604052610afd9190810190611c95565b610b0682611335565b610b82836001600160a01b03166305271a2a6040518163ffffffff1660e01b815260040160206040518083038186803b158015610b4257600080fd5b505afa158015610b56573d6000803e3d6000fd5b505050506040513d601f19601f82011682018060405250810190610b7a9190611e3f565b60ff16610bad565b604051602001610b9493929190612040565b60405160208183030381529060405291505090565b3390565b606081610bd257506040805180820190915260018152600360fc1b6020820152610342565b8160005b8115610bea57600101600a82049150610bd6565b6000816001600160401b0381118015610c0257600080fd5b506040519080825280601f01601f191660200182016040528015610c2d576020820181803683370190505b50859350905060001982015b8315610c7e57600a840660300160f81b82828060019003935081518110610c5c57fe5b60200101906001600160f81b031916908160001a905350600a84049350610c39565b50949350505050565b6060610d0b836001600160a01b0316632495a5996040518163ffffffff1660e01b815260040160206040518083038186803b158015610cc557600080fd5b505afa158015610cd9573d6000803e3d6000fd5b505050506040513d601f19601f82011682018060405250810190610cfd9190611c41565b6001600160a01b0316611463565b610d2183602001516001600160a01b0316611463565b8351610d35906001600160a01b0316611463565b610db38560400151876001600160a01b0316633e7e86696040518163ffffffff1660e01b815260040160206040518083038186803b158015610d7657600080fd5b505afa158015610d8a573d6000803e3d6000fd5b505050506040513d601f19601f82011682018060405250810190610dae9190611e3f565b6115d7565b604051602001610dc69493929190612359565b604051602081830303815290604052610e1f83608001516001600160801b0316856001600160a01b03166305300b286040518163ffffffff1660e01b815260040160206040518083038186803b158015610d7657600080fd5b610e6984606001516001600160801b0316866001600160a01b03166305300b286040518163ffffffff1660e01b815260040160206040518083038186803b158015610d7657600080fd5b610eb38560a001516001600160801b0316876001600160a01b03166305300b286040518163ffffffff1660e01b815260040160206040518083038186803b158015610d7657600080fd5b610ec98660c001516001600160401b0316611603565b610edf8760e001516001600160401b0316611603565b604051602001610ef395949392919061246c565b60408051601f1981840301815290829052610f119291602001611ec8565b604051602081830303815290604052905092915050565b6000610f3330611609565b15905090565b600054610100900460ff1680610f525750610f52610f28565b80610f60575060005460ff16155b610f9b5760405162461bcd60e51b815260040180806020018281038252602e8152602001806128c9602e913960400191505060405180910390fd5b600054610100900460ff16158015610fc6576000805460ff1961ff0019909116610100171660011790555b603380546001600160a01b0319166001600160a01b0384161790558015610690576000805461ff00191690555050565b60606000846001600160a01b0316636f307dc36040518163ffffffff1660e01b815260040160206040518083038186803b15801561103357600080fd5b505afa158015611047573d6000803e3d6000fd5b505050506040513d601f19601f8201168201806040525081019061106b9190611c41565b6001600160a01b03166395d89b416040518163ffffffff1660e01b815260040160006040518083038186803b1580156110a357600080fd5b505afa1580156110b7573d6000803e3d6000fd5b505050506040513d6000823e601f3d908101601f191682016040526110df9190810190611c95565b90506110e961160f565b6110f285610bad565b826110fb611632565b61110d896001600160a01b0316611463565b6111498a6001600160a01b031663360454c56040518163ffffffff1660e01b815260040160206040518083038186803b158015610cc557600080fd5b6111858b6001600160a01b0316636f307dc36040518163ffffffff1660e01b815260040160206040518083038186803b158015610cc557600080fd5b61119b8a602001516001600160a01b0316611463565b6040516020016111ae949392919061257b565b60408051601f19818403018152908290526111cf95949392916020016121bd565b6040516020818303038152906040529150509392505050565b60608151600014156112095750604080516020810190915260008152610342565b60006040518060600160405280604081526020016128f76040913990506000600384516002018161123657fe5b0460040290506000816020016001600160401b038111801561125757600080fd5b506040519080825280601f01601f191660200182016040528015611282576020820181803683370190505b509050818152600183018586518101602084015b818310156112f05760039283018051603f601282901c811687015160f890811b8552600c83901c8216880151811b6001860152600683901c8216880151811b60028601529116860151901b93820193909352600401611296565b60038951066001811461130a576002811461131b57611327565b613d3d60f01b600119830152611327565b603d60f81b6000198301525b509398975050505050505050565b60606000826001600160a01b0316636f307dc36040518163ffffffff1660e01b815260040160206040518083038186803b15801561137257600080fd5b505afa158015611386573d6000803e3d6000fd5b505050506040513d601f19601f820116820180604052508101906113aa9190611c41565b6001600160a01b03166395d89b416040518163ffffffff1660e01b815260040160006040518083038186803b1580156113e257600080fd5b505afa1580156113f6573d6000803e3d6000fd5b505050506040513d6000823e601f3d908101601f1916820160405261141e9190810190611c95565b905061142861160f565b81611431611632565b611439611644565b60405160200161144c9493929190612108565b604051602081830303815290604052915050919050565b604080518082018252601081526f181899199a1a9b1b9c1cb0b131b232b360811b60208201528151602a80825260608281019094526001600160a01b0385169291600091602082018180368337019050509050600360fc1b816000815181106114c857fe5b60200101906001600160f81b031916908160001a905350600f60fb1b816001815181106114f157fe5b60200101906001600160f81b031916908160001a90535060005b6014811015610c7e578260048583600c016020811061152657fe5b1a60f81b6001600160f81b031916901c60f81c60ff168151811061154657fe5b602001015160f81c60f81b82826002026002018151811061156357fe5b60200101906001600160f81b031916908160001a905350828482600c016020811061158a57fe5b825191901a600f1690811061159b57fe5b602001015160f81c60f81b8282600202600301815181106115b857fe5b60200101906001600160f81b031916908160001a90535060010161150b565b60606115fc6115f760ff6001198501166115f18686611667565b90611874565b611912565b9392505050565b50606090565b3b151590565b606060405180610180016040528061014581526020016129376101459139905090565b60408051602081019091526000815290565b6060604051806101a0016040528061016d815260200161275c61016d9139905090565b606060ff8216600a0a600061168461167f8684611a36565b611a9a565b9050600061169561167f8785611b6b565b90506000815190506000836040516020018082805190602001908083835b602083106116d25780518252601f1990920191602091820191016116b3565b6001836020036101000a03801982511681845116808217855250505050505090500180601760f91b81525060010191505060405160208183030381529060405290508660ff168210156117b65760005b828860ff16038160ff1610156117b457816040516020018082805190602001908083835b602083106117655780518252601f199092019160209182019101611746565b6001836020036101000a03801982511681845116808217855250505050505090500180600360fc1b81525060010191505060405160208183030381529060405291508080600101915050611722565b505b80836040516020018083805190602001908083835b602083106117ea5780518252601f1990920191602091820191016117cb565b51815160209384036101000a600019018019909216911617905285519190930192850191508083835b602083106118325780518252601f199092019160209182019101611813565b6001836020036101000a038019825116818451168082178552505050505050905001925050506040516020818303038152906040529550505050505092915050565b6060818351036001600160401b038111801561188f57600080fd5b506040519080825280601f01601f1916602001820160405280156118ba576020820181803683370190505b5080519091505b6000198101901561190b578381815181106118d857fe5b602001015160f81c60f81b8282815181106118ef57fe5b60200101906001600160f81b031916908160001a9053506118c1565b5092915050565b60606006825111611924575080610342565b600360048351038161193257fe5b048251016001600160401b038111801561194b57600080fd5b506040519080825280601f01601f191660200182016040528015611976576020820181803683370190505b5082518151919250600019908101910160005b8451811015611a2e57600681101580156119a4575060038106155b156119d957600b60fa1b848380600190039450815181106119c157fe5b60200101906001600160f81b031916908160001a9053505b8451600019840193869181106119eb57fe5b016020015184516000198401936001600160f81b03199092169186918110611a0f57fe5b60200101906001600160f81b031916908160001a905350600101611989565b505050919050565b6000808211611a89576040805162461bcd60e51b815260206004820152601a602482015279536166654d6174683a206469766973696f6e206279207a65726f60301b604482015290519081900360640190fd5b818381611a9257fe5b049392505050565b606081611abf57506040805180820190915260018152600360fc1b6020820152610342565b8160005b8115611ad757600101600a82049150611ac3565b6000816001600160401b0381118015611aef57600080fd5b506040519080825280601f01601f191660200182016040528015611b1a576020820181803683370190505b50859350905060001982015b8315610c7e57600a840660300160f81b82828060019003935081518110611b4957fe5b60200101906001600160f81b031916908160001a905350600a84049350611b26565b6000808211611bbc576040805162461bcd60e51b8152602060048201526018602482015277536166654d6174683a206d6f64756c6f206279207a65726f60401b604482015290519081900360640190fd5b818381611bc557fe5b069392505050565b805161034281612743565b8051801515811461034257600080fd5b80516002811061034257600080fd5b80516001600160801b038116811461034257600080fd5b80516001600160401b038116811461034257600080fd5b600060208284031215611c36578081fd5b81356115fc81612743565b600060208284031215611c52578081fd5b81516115fc81612743565b60008060408385031215611c6f578081fd5b8235611c7a81612743565b91506020830135611c8a81612743565b809150509250929050565b600060208284031215611ca6578081fd5b81516001600160401b0380821115611cbc578283fd5b818401915084601f830112611ccf578283fd5b815181811115611cdb57fe5b611cee601f8201601f19166020016126f0565b9150808252856020828501011115611d04578384fd5b610c7e816020840160208601612713565b60006101a0808385031215611d28578182fd5b611d31816126f0565b9050611d3c83611bcd565b8152611d4a60208401611bcd565b602082015260408301516040820152611d6560608401611bf7565b6060820152611d7660808401611bf7565b6080820152611d8760a08401611bf7565b60a0820152611d9860c08401611c0e565b60c0820152611da960e08401611c0e565b60e0820152610100611dbc818501611be8565b90820152610120611dce848201611bd8565b90820152610140611de0848201611bd8565b90820152610160611df2848201611bd8565b90820152610180611e04848201611bd8565b908201529392505050565b600060208284031215611e20578081fd5b5035919050565b600060208284031215611e38578081fd5b5051919050565b600060208284031215611e50578081fd5b815160ff811681146115fc578182fd5b60008151611e72818560208601612713565b9290920192915050565b6911161139b637ba111d1160b11b8152600a0190565b61227d60f01b815260020190565b607d60f81b815260010190565b6e111611383937b832b93a34b2b9911d60891b8152600f0190565b60008351611eda818460208801612713565b835190830190611eee818360208801612713565b01949350505050565b60008351611f09818460208801612713565b61202360f01b9083019081528351611f28816002840160208801612713565b01600201949350505050565b683d913730b6b2911d1160b91b81528651600090611f59816009850160208c01612713565b701116113232b9b1b934b83a34b7b7111d1160791b6009918401918201528751611f8a81601a840160208c01612713565b7f222c22696d616765223a22646174613a696d6167652f7376672b786d6c3b6261601a9290910191820152641cd94d8d0b60da1b603a8201528651611fd681603f840160208b01612713565b6a1116113ab734ba39911d1160a91b603f9290910191820152855161200281604a840160208a01612713565b61203261202d61202761202261201c604a86880101611e7c565b8a611e60565b611ead565b87611e60565b611ea0565b9a9950505050505050505050565b60007f646174613a6170706c69636174696f6e2f6a736f6e3b7b226e616d65223a22008252845161207881601f850160208901612713565b701116113232b9b1b934b83a34b7b7111d1160791b601f9184019182015284516120a9816030840160208901612713565b711116113ab734ba2232b1b4b6b0b639911d1160711b6030929091019182015283516120dc816042840160208801612713565b71222c2270726f70657274696573223a7b7d7d60701b6042929091019182015260540195945050505050565b660714d5077dc47960cd1b8152845160009061212b816007850160208a01612713565b8083019050632e372e3760e11b80600783015276021b7b73b32b93a34b13632902b37bab1b432b91037b31604d1b600b8301528651612171816022850160208b01612713565b61017160f51b602293909101928301528551612194816024850160208a01612713565b602492019182015283516121af816028840160208801612713565b016028019695505050505050565b660714d5077dc47960cd1b8152855160009060206121e18260078601838c01612713565b8184019150632e372e3760e11b80600784015274436f6e7665727469626c6520566f7563686572202360581b600b840152885161222381848601858d01612713565b6301037b3160e51b930182810193909352875161224681602486018b8601612713565b61017160f51b6024949091019384015286516122688160268601858b01612713565b6026930192830152845161228281602a8501848901612713565b91909101602a0198975050505050505050565b60007f646174613a6170706c69636174696f6e2f6a736f6e3b7b22756e697473496e538252653637ba111d1160d11b602083015284516122dc816026850160208901612713565b711116113a37b5b2b739a4b729b637ba111d1160711b602691840191820152845161230e816038840160208901612713565b6e111611383937b832b93a34b2b9911d60891b60389290910191820152835161233e816047840160208801612713565b607d60f81b6047929091019182015260480195945050505050565b733d913ab73232b9363cb4b733aa37b5b2b7111d1160611b81528451600090612389816014850160208a01612713565b71111611333ab73221bab93932b731bc911d1160711b60149184019182015285516123bb816026840160208a01612713565b6b11161134b9b9bab2b9111d1160a11b6026929091019182015284516123e8816032840160208901612713565b6f1116113a37ba30b62b30b63ab2911d1160811b603292909101918201528351612419816042840160208801612713565b016042019695505050505050565b60007f646174613a6170706c69636174696f6e2f6a736f6e3b6261736536342c0000008252825161245f81601d850160208701612713565b91909101601d0192915050565b711116113434b3b432b9ba283934b1b2911d1160711b8152855160009061249a816012850160208b01612713565b701116113637bbb2b9ba283934b1b2911d1160791b60129184019182015286516124cb816023840160208b01612713565b7011161139b2ba3a3632a83934b1b2911d1160791b6023929091019182015285516124fd816034840160208a01612713565b7211161132b33332b1ba34bb32aa34b6b2911d1160691b603492909101918201528451612531816047840160208901612713565b6d11161136b0ba3ab934ba3c911d1160911b604792909101918201528351612560816055840160208801612713565b61256e605582840101611e92565b9998505050505050505050565b600072016902b37bab1b432b91020b2323932b9b99d1606d1b825285516125a9816013850160208a01612713565b8083019050612e3760f11b8060138301526f016902837b7b61020b2323932b9b99d160851b601583015286516125e6816025850160208b01612713565b6025920191820181905275016902ab73232b9363cb4b7339020b2323932b9b99d160551b6027830152855161262281603d850160208a01612713565b603d9201918201527801690233ab7321021bab93932b731bc9020b2323932b9b99d1603d1b603f820152835161265f816058840160208801612713565b016058019695505050505050565b6001600160a01b0391909116815260200190565b6001600160a01b03929092168252602082015260400190565b6001600160a01b0392831681529116602082015260400190565b60006020825282518060208401526126d3816040850160208701612713565b601f01601f19169190910160400192915050565b90815260200190565b6040518181016001600160401b038111828210171561270b57fe5b604052919050565b60005b8381101561272e578181015183820152602001612716565b8381111561273d576000848401525b50505050565b6001600160a01b038116811461275857600080fd5b5056fe536f6c762050726f746f636f6c2069732074686520646563656e7472616c697a656420706c6174666f726d20666f72206372656174696e672c206d616e6167696e6720616e642074726164696e672046696e616e6369616c204e4654732e204173206974732066697273742046696e616e6369616c204e46542070726f647563742c2056657374696e6720566f75636865727320617265206672616374696f6e616c697a6564204e46547320726570726573656e74696e67206c6f636b2d75702076657374696e6720746f6b656e732c20746875732072656c656173696e67207468656972206c697175696469747920616e6420656e61626c696e672066696e616e6369616c207363656e6172696f7320737563682061732066756e6472616973696e672c20636f6d6d756e697479206275696c64696e672c20616e6420746f6b656e206c6971756964697479206d616e6167656d656e7420666f722063727970746f2070726f6a656374732e496e697469616c697a61626c653a20636f6e747261637420697320616c726561647920696e697469616c697a65644142434445464748494a4b4c4d4e4f505152535455565758595a6162636465666768696a6b6c6d6e6f707172737475767778797a303132333435363738392b2f2a2a416c6572742a2a3a2054686520616d6f756e74206f6620746f6b656e7320696e207468697320566f7563686572204e4654206d61792068617665206265656e206f7574206f6620646174652064756520746f206365727461696e206d656368616e69736d73206f662074686972642d7061727479206d61726b6574706c616365732c2074687573206c656164696e6720796f7520746f206d69732d707269636564204e4654206f6e207468697320706167652e20506c65617365206265207375726520796f752772652076696577696e67206f6e207468697320566f7563686572206f6e205b536f6c762050726f746f636f6c20644170705d2868747470733a2f2f6170702e736f6c762e66696e616e63652920666f722064657461696c73207768656e20796f75206d616b65206f66666572206f722070757263686173652069742ea264697066735822122003223b745ecd0d7ae0451e7f6e0537f0d7aecfffef46110658a9b11e37f874f364736f6c63430007060033"
}