{
  "address": "0x984D691279946cDeb7CDe6064a24a821E5149730",
  "abi": [
    {
      "inputs": [
        {
          "internalType": "string[]",
          "name": "linearBgColors_",
          "type": "string[]"
        },
        {
          "internalType": "string[]",
          "name": "onetimeBgColors_",
          "type": "string[]"
        },
        {
          "internalType": "string[]",
          "name": "stagedBgColors_",
          "type": "string[]"
        }
      ],
      "stateMutability": "nonpayable",
      "type": "constructor"
    },
    {
      "anonymous": false,
      "inputs": [
        {
          "indexed": false,
          "internalType": "address",
          "name": "oldAdmin",
          "type": "address"
        },
        {
          "indexed": false,
          "internalType": "address",
          "name": "newAdmin",
          "type": "address"
        }
      ],
      "name": "NewAdmin",
      "type": "event"
    },
    {
      "anonymous": false,
      "inputs": [
        {
          "indexed": false,
          "internalType": "address",
          "name": "oldPendingAdmin",
          "type": "address"
        },
        {
          "indexed": false,
          "internalType": "address",
          "name": "newPendingAdmin",
          "type": "address"
        }
      ],
      "name": "NewPendingAdmin",
      "type": "event"
    },
    {
      "inputs": [],
      "name": "_admin",
      "outputs": [
        {
          "internalType": "address",
          "name": "",
          "type": "address"
        }
      ],
      "stateMutability": "view",
      "type": "function"
    },
    {
      "inputs": [],
      "name": "acceptAdmin",
      "outputs": [],
      "stateMutability": "nonpayable",
      "type": "function"
    },
    {
      "inputs": [
        {
          "internalType": "address",
          "name": "voucher_",
          "type": "address"
        },
        {
          "internalType": "uint256",
          "name": "tokenId_",
          "type": "uint256"
        }
      ],
      "name": "generateSVG",
      "outputs": [
        {
          "internalType": "string",
          "name": "",
          "type": "string"
        }
      ],
      "stateMutability": "view",
      "type": "function"
    },
    {
      "inputs": [],
      "name": "pendingAdmin",
      "outputs": [
        {
          "internalType": "address",
          "name": "",
          "type": "address"
        }
      ],
      "stateMutability": "view",
      "type": "function"
    },
    {
      "inputs": [
        {
          "internalType": "address",
          "name": "newPendingAdmin_",
          "type": "address"
        }
      ],
      "name": "setPendingAdmin",
      "outputs": [],
      "stateMutability": "nonpayable",
      "type": "function"
    },
    {
      "inputs": [
        {
          "internalType": "address",
          "name": "voucher_",
          "type": "address"
        },
        {
          "internalType": "string[]",
          "name": "linearBgColors_",
          "type": "string[]"
        },
        {
          "internalType": "string[]",
          "name": "onetimeBgColors_",
          "type": "string[]"
        },
        {
          "internalType": "string[]",
          "name": "stagedBgColors_",
          "type": "string[]"
        }
      ],
      "name": "setVoucherBgColors",
      "outputs": [],
      "stateMutability": "nonpayable",
      "type": "function"
    },
    {
      "inputs": [
        {
          "internalType": "address",
          "name": "",
          "type": "address"
        },
        {
          "internalType": "uint8",
          "name": "",
          "type": "uint8"
        },
        {
          "internalType": "uint256",
          "name": "",
          "type": "uint256"
        }
      ],
      "name": "voucherBgColors",
      "outputs": [
        {
          "internalType": "string",
          "name": "",
          "type": "string"
        }
      ],
      "stateMutability": "view",
      "type": "function"
    }
  ],
  "transactionHash": "0x558767b461c5c401fadf336619049dfb126cbf692e96afb4550e5a12d6714d43",
  "args": [
    [
      "#C53DAB",
      "#973DC5"
    ],
    [
      "#973DC5",
      "#0041FF"
    ],
    [
      "#C53DAB",
      "#973DC5"
    ]
  ],
  "numDeployments": 1,
  "solcInputHash": "dcf4b7e6c4594688aacd4aaa79109aae",
  "bytecode": "0x60806040523480156200001157600080fd5b5060405162003c5538038062003c558339810160408190526200003491620004b7565b620000486200004262000060565b62000064565b6200005760008484846200012a565b50505062000568565b3390565b600054610100900460ff1680620000805750620000806200022d565b806200008f575060005460ff16155b620000cc5760405162461bcd60e51b815260040180806020018281038252602e81526020018062003c27602e913960400191505060405180910390fd5b600054610100900460ff16158015620000f8576000805460ff1961ff0019909116610100171660011790555b603380546001600160a01b0319166001600160a01b038416179055801562000126576000805461ff00191690555b5050565b6033546001600160a01b03166200014062000060565b6001600160a01b03161462000189576040805162461bcd60e51b815260206004820152600a60248201526937b7363c9030b236b4b760b11b604482015290519081900360640190fd5b6001600160a01b038416600090815260356020908152604080832083805282529091208451620001bc9286019062000251565b506001600160a01b03841660009081526035602090815260408083206001845282529091208351620001f19285019062000251565b506001600160a01b03841660009081526035602090815260408083206002845282529091208251620002269284019062000251565b5050505050565b600062000245306200024b60201b620009611760201c565b15905090565b3b151590565b828054828255906000526020600020908101928215620002a3579160200282015b82811115620002a3578251805162000292918491602090910190620002b5565b509160200191906001019062000272565b50620002b192915062000346565b5090565b828054600181600116156101000203166002900490600052602060002090601f016020900481019282620002ed576000855562000338565b82601f106200030857805160ff191683800117855562000338565b8280016001018555821562000338579182015b82811115620003385782518255916020019190600101906200031b565b50620002b192915062000367565b80821115620002b15760006200035d82826200037e565b5060010162000346565b5b80821115620002b1576000815560010162000368565b50805460018160011615610100020316600290046000825580601f10620003a65750620003c6565b601f016020900490600052602060002090810190620003c6919062000367565b50565b6000601f8381840112620003db578182fd5b825160206001600160401b0380831115620003f257fe5b62000401828385020162000544565b83815282810190878401875b86811015620004a85781518a018b603f8201126200042957898afd5b86810151868111156200043857fe5b6200044b818b01601f1916890162000544565b81815260408e8184860101111562000461578c8dfd5b8c5b8381101562000480578481018201518382018c01528a0162000463565b8381111562000491578d8b85850101525b50508652505092850192908501906001016200040d565b50909998505050505050505050565b600080600060608486031215620004cc578283fd5b83516001600160401b0380821115620004e3578485fd5b620004f187838801620003c9565b9450602086015191508082111562000507578384fd5b6200051587838801620003c9565b935060408601519150808211156200052b578283fd5b506200053a86828701620003c9565b9150509250925092565b6040518181016001600160401b03811182821017156200056057fe5b604052919050565b6136af80620005786000396000f3fe608060405234801561001057600080fd5b506004361061006d5760003560e01c806301bc45c9146100725780630e18b68114610090578063267822471461009a5780633aa51a8e146100a25780633d4ebb98146100b55780634dd18bf5146100d5578063f9bb05c5146100e8575b600080fd5b61007a6100fb565b60405161008791906133f1565b60405180910390f35b61009861010a565b005b61007a6101e1565b6100986100b036600461186c565b6101f0565b6100c86100c3366004611902565b6102ea565b6040516100879190613405565b6100986100e3366004611834565b6107d7565b6100c86100f636600461192d565b61089d565b6033546001600160a01b031681565b6034546001600160a01b031661011e61096b565b6001600160a01b03161461016e576040805162461bcd60e51b815260206004820152601260248201527137b7363c903832b73234b7339030b236b4b760711b604482015290519081900360640190fd5b603354603454604080516001600160a01b03938416815292909116602083015280517ff9ffabca9c8276e99321725bcb43fb076a6c66a54b7f21c4e8146d8519b417dc9281900390910190a160348054603380546001600160a01b03199081166001600160a01b03841617909155169055565b6034546001600160a01b031681565b6033546001600160a01b031661020461096b565b6001600160a01b03161461024c576040805162461bcd60e51b815260206004820152600a60248201526937b7363c9030b236b4b760b11b604482015290519081900360640190fd5b6001600160a01b03841660009081526035602090815260408083208380528252909120845161027d92860190611566565b506001600160a01b038416600090815260356020908152604080832060018452825290912083516102b092850190611566565b506001600160a01b038416600090815260356020908152604080832060028452825290912082516102e392840190611566565b5050505050565b606060008390506000816001600160a01b031663360454c56040518163ffffffff1660e01b815260040160206040518083038186803b15801561032c57600080fd5b505afa158015610340573d6000803e3d6000fd5b505050506040513d601f19601f820116820180604052508101906103649190611850565b90506000816001600160a01b0316632495a5996040518163ffffffff1660e01b815260040160206040518083038186803b1580156103a157600080fd5b505afa1580156103b5573d6000803e3d6000fd5b505050506040513d601f19601f820116820180604052508101906103d99190611850565b90506000836001600160a01b03166376f10ad0876040518263ffffffff1660e01b81526004016104099190613438565b6101e06040518083038186803b15801561042257600080fd5b505afa158015610436573d6000803e3d6000fd5b505050506040513d601f19601f8201168201806040525081019061045a91906119df565b80516020015190915061046b6115c3565b6001600160a01b03808a168252604080516395d89b4160e01b81529051918616916395d89b4191600480820192600092909190829003018186803b1580156104b257600080fd5b505afa1580156104c6573d6000803e3d6000fd5b505050506040513d6000823e601f3d908101601f191682016040526104ee919081019061196d565b8160200181905250816001600160a01b03166395d89b416040518163ffffffff1660e01b815260040160006040518083038186803b15801561052f57600080fd5b505afa158015610543573d6000803e3d6000fd5b505050506040513d6000823e601f3d908101601f1916820160405261056b919081019061196d565b60408083019190915260608083018a9052848201516080808501919091528551909101516001600160801b0390811660c08501528551909101511660a0830152835160e0908101516001600160401b0316908301528051633e7e866960e01b815290516001600160a01b03871691633e7e8669916004808301926020929190829003018186803b1580156105fe57600080fd5b505afa158015610612573d6000803e3d6000fd5b505050506040513d601f19601f820116820180604052508101906106369190611b1e565b60ff166101008201526040805162a6016560e31b815290516001600160a01b038716916305300b28916004808301926020929190829003018186803b15801561067e57600080fd5b505afa158015610692573d6000803e3d6000fd5b505050506040513d601f19601f820116820180604052508101906106b69190611b1e565b60ff166101208201526040805163313ce56760e01b815290516001600160a01b0386169163313ce567916004808301926020929190829003018186803b1580156106ff57600080fd5b505afa158015610713573d6000803e3d6000fd5b505050506040513d601f19601f820116820180604052508101906107379190611b1e565b60ff166101408201526040805163313ce56760e01b815290516001600160a01b0384169163313ce567916004808301926020929190829003018186803b15801561078057600080fd5b505afa158015610794573d6000803e3d6000fd5b505050506040513d601f19601f820116820180604052508101906107b89190611b1e565b60ff166101608201526107ca8161096f565b9998505050505050505050565b6033546001600160a01b03166107eb61096b565b6001600160a01b031614610833576040805162461bcd60e51b815260206004820152600a60248201526937b7363c9030b236b4b760b11b604482015290519081900360640190fd5b603454604080516001600160a01b039283168152918316602083015280517fca4f2f25d0898edd99413412fb94012f9e54ec8142f9b093e7720646a95b16a99281900390910190a1603480546001600160a01b0319166001600160a01b0392909216919091179055565b603560205282600052604060002060205281600052604060002081815481106108c557600080fd5b600091825260209182902001805460408051601f60026000196101006001871615020190941693909304928301859004850281018501909152818152955090935091508301828280156109595780601f1061092e57610100808354040283529160200191610959565b820191906000526020600020905b81548152906001019060200180831161093c57829003601f168201915b505050505081565b803b15155b919050565b3390565b606061097a826109c7565b610982610ca1565b61098b84610cc6565b61099485610d21565b61099d86610d49565b6040516020016109b1959493929190612ba8565b6040516020818303038152906040529050919050565b80516001600160a01b031660009081526035602090815260408083206001845290915281205460609190610a37576001600090815260008051602061357a83398151915260205260008051602061353a8339815191528054909190610a2857fe5b90600052602060002001610a72565b82516001600160a01b031660009081526035602090815260408083206001845290915281208054909190610a6757fe5b906000526020600020015b805460408051602060026001851615610100026000190190941693909304601f81018490048402820184019092528181529291830182828015610af65780601f10610acb57610100808354040283529160200191610af6565b820191906000526020600020905b815481529060010190602001808311610ad957829003601f168201915b505086516001600160a01b03166000908152603560209081526040808320600180855292528220549596509094119250610b71915050576001600081905260008051602061357a83398151915260205260008051602061353a83398151915280549091908110610b6257fe5b90600052602060002001610baf565b83516001600160a01b031660009081526035602090815260408083206001808552925290912080549091908110610ba457fe5b906000526020600020015b805460408051602060026001851615610100026000190190941693909304601f81018490048402820184019092528181529291830182828015610c335780601f10610c0857610100808354040283529160200191610c33565b820191906000526020600020905b815481529060010190602001808311610c1657829003601f168201915b505050505090508181604051602001610c4d92919061270a565b604051602081830303815290604052604051602001610c6b90612a53565b60408051601f1981840301815290829052610c899291602001612e8d565b60405160208183030381529060405292505050919050565b6060604051602001610cb290612d06565b604051602081830303815290604052905090565b60606000610cd78360600151610ef4565b90506000815160120261020e0390508360200151610cfe8560800151866101000151610fce565b8560400151610d0c84610ef4565b85604051602001610c899594939291906132bd565b6060610d398260e001516001600160401b0316610ffa565b6040516020016109b19190612868565b606060008260a001516001600160801b0316836080015181610d6757fe5b04905060008360c001516001600160801b0316846080015181610d8657fe5b049050600084610140015160060160ff16600a0a8310610dd657610db283866101400151600601610fce565b604051602001610dc291906126e5565b604051602081830303815290604052610de5565b610de583866101400151610fce565b9050600085610140015160060160ff16600a0a8310610e3457610e1083876101400151600601610fce565b604051602001610e2091906126e5565b604051602081830303815290604052610e43565b610e4383876101400151610fce565b9050610e618660a001516001600160801b0316876101200151610fce565b828760200151604051602001610e7993929190613184565b604051602081830303815290604052610ea48760c001516001600160801b0316886101200151610fce565b828860200151604051602001610ebc93929190612910565b60408051601f1981840301815290829052610eda9291602001612ee5565b604051602081830303815290604052945050505050919050565b606081610f1957506040805180820190915260018152600360fc1b6020820152610966565b8160005b8115610f3157600101600a82049150610f1d565b6000816001600160401b0381118015610f4957600080fd5b506040519080825280601f01601f191660200182016040528015610f74576020820181803683370190505b50859350905060001982015b8315610fc557600a840660300160f81b82828060019003935081518110610fa357fe5b60200101906001600160f81b031916908160001a905350600a84049350610f80565b50949350505050565b6060610ff3610fee60ff600119850116610fe88686611000565b9061120d565b6112ab565b9392505050565b50606090565b606060ff8216600a0a600061101d61101886846113cf565b611433565b9050600061102e6110188785611504565b90506000815190506000836040516020018082805190602001908083835b6020831061106b5780518252601f19909201916020918201910161104c565b6001836020036101000a03801982511681845116808217855250505050505090500180601760f91b81525060010191505060405160208183030381529060405290508660ff1682101561114f5760005b828860ff16038160ff16101561114d57816040516020018082805190602001908083835b602083106110fe5780518252601f1990920191602091820191016110df565b6001836020036101000a03801982511681845116808217855250505050505090500180600360fc1b815250600101915050604051602081830303815290604052915080806001019150506110bb565b505b80836040516020018083805190602001908083835b602083106111835780518252601f199092019160209182019101611164565b51815160209384036101000a600019018019909216911617905285519190930192850191508083835b602083106111cb5780518252601f1990920191602091820191016111ac565b6001836020036101000a038019825116818451168082178552505050505050905001925050506040516020818303038152906040529550505050505092915050565b6060818351036001600160401b038111801561122857600080fd5b506040519080825280601f01601f191660200182016040528015611253576020820181803683370190505b5080519091505b600019810190156112a45783818151811061127157fe5b602001015160f81c60f81b82828151811061128857fe5b60200101906001600160f81b031916908160001a90535061125a565b5092915050565b606060068251116112bd575080610966565b60036004835103816112cb57fe5b048251016001600160401b03811180156112e457600080fd5b506040519080825280601f01601f19166020018201604052801561130f576020820181803683370190505b5082518151919250600019908101910160005b84518110156113c7576006811015801561133d575060038106155b1561137257600b60fa1b8483806001900394508151811061135a57fe5b60200101906001600160f81b031916908160001a9053505b84516000198401938691811061138457fe5b016020015184516000198401936001600160f81b031990921691869181106113a857fe5b60200101906001600160f81b031916908160001a905350600101611322565b505050919050565b6000808211611422576040805162461bcd60e51b815260206004820152601a602482015279536166654d6174683a206469766973696f6e206279207a65726f60301b604482015290519081900360640190fd5b81838161142b57fe5b049392505050565b60608161145857506040805180820190915260018152600360fc1b6020820152610966565b8160005b811561147057600101600a8204915061145c565b6000816001600160401b038111801561148857600080fd5b506040519080825280601f01601f1916602001820160405280156114b3576020820181803683370190505b50859350905060001982015b8315610fc557600a840660300160f81b828280600190039350815181106114e257fe5b60200101906001600160f81b031916908160001a905350600a840493506114bf565b6000808211611555576040805162461bcd60e51b8152602060048201526018602482015277536166654d6174683a206d6f64756c6f206279207a65726f60401b604482015290519081900360640190fd5b81838161155e57fe5b069392505050565b8280548282559060005260206000209081019282156115b3579160200282015b828111156115b357825180516115a3918491602090910190611628565b5091602001919060010190611586565b506115bf9291506116b0565b5090565b604080516101808101825260008082526060602083018190529282018390529181018290526080810182905260a0810182905260c0810182905260e0810182905261010081018290526101208101829052610140810182905261016081019190915290565b828054600181600116156101000203166002900490600052602060002090601f01602090048101928261165e57600085556116a4565b82601f1061167757805160ff19168380011785556116a4565b828001600101855582156116a4579182015b828111156116a4578251825591602001919060010190611689565b506115bf9291506116cd565b808211156115bf5760006116c482826116e2565b506001016116b0565b5b808211156115bf57600081556001016116ce565b50805460018160011615610100020316600290046000825580601f106117085750611726565b601f01602090049060005260206000209081019061172691906116cd565b50565b8051610966816134b5565b600082601f830112611744578081fd5b813560206001600160401b0382111561175957fe5b6117668182840201613441565b82815281810190858301855b858110156117da578135880189603f82011261178c578788fd5b8581013560406117a361179e83613464565b613441565b8281528c828486010111156117b6578a8bfd5b828285018a83013791820188018a9052508552509284019290840190600101611772565b5090979650505050505050565b8051801515811461096657600080fd5b80516002811061096657600080fd5b80516001600160801b038116811461096657600080fd5b80516001600160401b038116811461096657600080fd5b600060208284031215611845578081fd5b8135610ff3816134b5565b600060208284031215611861578081fd5b8151610ff3816134b5565b60008060008060808587031215611881578283fd5b843561188c816134b5565b935060208501356001600160401b03808211156118a7578485fd5b6118b388838901611734565b945060408701359150808211156118c8578384fd5b6118d488838901611734565b935060608701359150808211156118e9578283fd5b506118f687828801611734565b91505092959194509250565b60008060408385031215611914578182fd5b823561191f816134b5565b946020939093013593505050565b600080600060608486031215611941578283fd5b833561194c816134b5565b9250602084013561195c816134ca565b929592945050506040919091013590565b60006020828403121561197e578081fd5b81516001600160401b03811115611993578182fd5b8201601f810184136119a3578182fd5b80516119b161179e82613464565b8181528560208385010111156119c5578384fd5b6119d6826020830160208601613485565b95945050505050565b60008183036101e08112156119f2578182fd5b604051606081016001600160401b0381118282101715611a0e57fe5b6040526101a080831215611a20578384fd5b611a2981613441565b9250611a3485611729565b8352611a4260208601611729565b602084015260408501516040840152611a5d60608601611806565b6060840152611a6e60808601611806565b6080840152611a7f60a08601611806565b60a0840152611a9060c0860161181d565b60c0840152611aa160e0860161181d565b60e0840152610100611ab48187016117f7565b90840152610120611ac68682016117e7565b90840152610140611ad88682016117e7565b90840152610160611aea8682016117e7565b90840152610180611afc8682016117e7565b908401529181529083015160208201526101c090920151604083015250919050565b600060208284031215611b2f578081fd5b8151610ff3816134ca565b60008151611b4c818560208601613485565b9290920192915050565b60008051602061363a83398151915281526d3a1e911812911f1e17b9ba37b81f60911b6020820152602e0190565b7f3c746578743e3c74657874506174682073746172744f66667365743d2230252281527f20786c696e6b3a687265663d2223746578742d706174682d61223e496e20437260208201527f7970746f2057652054727573743c616e696d6174652061646469746976653d2260408201527f73756d22206174747269627574654e616d653d2273746172744f66667365742260608201527f2066726f6d3d2230252220746f3d22313030252220626567696e3d223073222060808201527f6475723d223330732220726570656174436f756e743d22696e646566696e697460a0820152753291179f1e17ba32bc3a2830ba341f1e17ba32bc3a1f60511b60c082015260d60190565b671e17ba39b830b71f60c11b815260080190565b7f3c746578743e3c74657874506174682073746172744f66667365743d2235302581527f2220786c696e6b3a687265663d2223746578742d706174682d61223e506f776560208201527f72656420627920536f6c762050726f746f636f6c3c616e696d6174652061646460408201527f69746976653d2273756d22206174747269627574654e616d653d22737461727460608201527f4f6666736574222066726f6d3d2230252220746f3d223130302522206265676960808201527f6e3d22307322206475723d223330732220726570656174436f756e743d22696e60a08201527f646566696e697465222f3e3c2f74657874506174683e3c2f746578743e00000060c082015260dd0190565b6000805160206135fa83398151915281526000805160206135ba8339815191526020820152601f60f91b604082015260410190565b60008051602061359a83398151915281526000805160206135ba8339815191526020820152601f60f91b604082015260410190565b6000805160206135da83398151915281526e3a1e911a1812911f1e17b9ba37b81f60891b6020820152602f0190565b7f3c73746f702073746f702d636f6c6f723d222342424242424222206f6666736581526d3a1e911812911f1e17b9ba37b81f60911b6020820152602e0190565b701e17b634b732b0b923b930b234b2b73a1f60791b815260110190565b6000805160206135da83398151915281526e3a1e911a9a92911f1e17b9ba37b81f60891b6020820152602f0190565b7f3c67207472616e73666f726d3d227472616e736c6174652836302c20323729228152601f60f91b602082015260210190565b60008051602061361a833981519152815260008051602061365a83398151915260208201526000805160206134fa83398151915260408201527f6f6b653d2275726c28236c672d332922207374726f6b652d77696474683d223660608201527f22207374726f6b652d6c696e656361703d22726f756e6422207374726f6b652d6080820152773634b732b537b4b71e913937bab732111f1e17b830ba341f60411b60a082015260b80190565b691e3a39b830b7103c1e9160b11b8152600a0190565b60008051602061361a833981519152815260008051602061365a83398151915260208201526000805160206134fa83398151915260408201527f6f6b653d2275726c28236c672d322922207374726f6b652d77696474683d223260608201527f3022207374726f6b652d6c696e656361703d22726f756e6422207374726f6b6560808201527f2d6c696e656a6f696e3d22726f756e6422206f7061636974793d22302e32223e60a0820152661e17b830ba341f60c91b60c082015260c70190565b7f3c7465787420666f6e742d73697a653d223134222066696c6c3d2223464646468152632323111f60e11b602082015260240190565b661e17ba32bc3a1f60c91b815260070190565b7f3c7061746820643d224d3434382e332c3133312e35204c3433322c313533204381527f3432302c313338203432302c313338203432302c313338204c3434362c31323860208201527f2e3520433434372e312c313238203434392e352c3132382e35203434382e352c60408201527f313331205a222066696c6c3d2275726c28236c672d342922207472616e73666f60608201527f726d3d227472616e736c617465283433352c203134312920726f74617465282d60808201527f313229207472616e736c617465282d3433352c202d31343129223e3c2f70617460a082015261341f60f11b60c082015260c20190565b6000805160206134da83398151915281527f77696474683d2232222066696c6c3d2223443735393539222063783d22333336602082015279111031bc9e9119991b1110391e911a911f1e17b1b4b931b6329f60311b6040820152605a0190565b7f3c706174682069643d22746578742d706174682d612220643d224d333020313281527f204835373020413138203138203020302031203538382033302056333730204160208201527f313820313820302030203120353730203338382048333020413138203138203060408201527f20302031203132203337302056333020413138203138203020302031203330206060820152661899102d11179f60c91b608082015260870190565b60008051602061363a83398151915281526f3a1e9118981812911f1e17b9ba37b81f60811b602082015260300190565b631e17b39f60e11b815260040190565b6000805160206134da83398151915281527f77696474683d2234222066696c6c3d2223334342463435222063783d22333331602082015279111031bc9e91189b991110391e911b911f1e17b1b4b931b6329f60311b6040820152605a0190565b6000805160206134da83398151915281527f77696474683d2234222066696c6c3d2223443735393539222063783d22313439602082015279111031bc9e91189b991110391e911b911f1e17b1b4b931b6329f60311b6040820152605a0190565b7f3c6c696e6561724772616469656e742078313d22363525222079313d2230222081527f78323d22343525222079323d2231303025222069643d226c672d35223e0000006020820152603d0190565b6a011103c9e911b1c911f11960ad1b8152600b0190565b7f3c746578743e3c74657874506174682073746172744f66667365743d222d313081527f30252220786c696e6b3a687265663d2223746578742d706174682d61223e496e60208201527f2043727970746f2057652054727573743c616e696d617465206164646974697660408201527f653d2273756d22206174747269627574654e616d653d2273746172744f66667360608201527f6574222066726f6d3d2230252220746f3d22313030252220626567696e3d223060808201527f7322206475723d223330732220726570656174436f756e743d22696e6465666960a0820152783734ba3291179f1e17ba32bc3a2830ba341f1e17ba32bc3a1f60391b60c082015260d90190565b6000805160206134da83398151915281527f77696474683d2232222066696c6c3d2223334342463435222063783d22333336602082015279111031bc9e91191b181110391e911a911f1e17b1b4b931b6329f60311b6040820152605a0190565b7f3c746578743e3c74657874506174682073746172744f66667365743d222d353081527f252220786c696e6b3a687265663d2223746578742d706174682d61223e506f7760208201527f6572656420627920536f6c762050726f746f636f6c3c616e696d61746520616460408201527f6469746976653d2273756d22206174747269627574654e616d653d227374617260608201527f744f6666736574222066726f6d3d2230252220746f3d2231303025222062656760808201527f696e3d22307322206475723d223330732220726570656174436f756e743d226960a08201527f6e646566696e697465222f3e3c2f74657874506174683e3c2f746578743e000060c082015260de0190565b651e17b9bb339f60d11b815260060190565b60008051602061359a833981519152815260008051602061355a8339815191526020820152603f0190565b600082516126f7818460208701613485565b604d60f81b920191825250600101919050565b60007f3c6c696e6561724772616469656e742078313d22353025222079313d2233302582527f222078323d2231303025222079323d22373525222069643d226c672d31223e006020830152711e39ba37b81039ba37b816b1b7b637b91e9160711b80603f8401528451612784816051860160208901613485565b74111037b33339b2ba1e911812911f1e17b9ba37b81f60591b60519185019182015260668101919091528351906127c2826078830160208801613485565b81810191505076111037b33339b2ba1e9118981812911f1e17b9ba37b81f60491b6078820152701e17b634b732b0b923b930b234b2b73a1f60791b608f82015260008051602061351a83398151915260a08201527f78323d2231303025222079323d22353025222069643d226c672d32223e00000060c08201526119d661286361285e61285961285460dd86016126ba565b611e15565b611ea1565b611de0565b611e84565b60007f3c7465787420666f6e742d73697a653d223132222066696c6c3d2223464646468252632323111f60e11b60208301527f3c747370616e20783d2234302220793d22333635223e4d617475726974792044602483015264030ba329d160dd1b604483015282516128e1816049850160208701613485565b671e17ba39b830b71f60c11b6049939091019283015250661e17ba32bc3a1f60c91b6051820152605801919050565b60007f3c747370616e20783d223335312220793d2233333122206f7061636974793d2282527918171a911f2637bbb2b9ba10383934b1b29d1e17ba39b830b71f60311b60208301527801e3a39b830b7103c1e911a1a1911103c9e91199999111f121603d1b603a830152845161298d816053850160208901613485565b671e17ba39b830b71f60c11b6053918401918201527f3c747370616e20783d223338312220793d2233353122206f7061636974793d22605b8201527318171a911f20b6b7bab73a1d1e17ba39b830b71f60611b607b820152761e3a39b830b7103c1e911a1a1911103c9e91199a99111f60491b608f8201528451612a188160a6840160208901613485565b600160fd1b60a692909101918201528351612a3a8160a7840160208801613485565b612a4860a782840101611c8a565b979650505050505050565b60008051602061351a83398151915281527f78323d2231303025222079323d22353025222069643d226c672d33223e00000060208201526000805160206135fa833981519152603d82015260008051602061355a833981519152605d82015260008051602061363a833981519152607c82018190526e3a1e911a1812911f1e17b9ba37b81f60891b609c83015260ab8201526e3a1e911a9a92911f1e17b9ba37b81f60891b60cb8201526000612b0b60da8301611dab565b701e17b634b732b0b923b930b234b2b73a1f60791b81527f3c6c696e6561724772616469656e742078313d22383225222079313d2231382560118201527f222078323d22323525222079323d22363525222069643d226c672d34223e00006031820152610ff3612ba3612863612b9e612b99612b94612863612b8f604f8901611b56565b611dab565b6123cc565b611e44565b6122cc565b612221565b60007f3c7376672077696474683d22363030707822206865696768743d22343030707882527f222076696577426f783d2230203020363030203430302220786d6c6e733d226860208301527f7474703a2f2f7777772e77332e6f72672f323030302f7376672220786d6c6e7360408301527f3a786c696e6b3d22687474703a2f2f7777772e77332e6f72672f313939392f786060830152653634b735911f60d11b60808301528651612c61816086850160208b01613485565b7f3c67207374726f6b652d77696474683d2231222066696c6c3d226e6f6e6522206086918401918201527f66696c6c2d72756c653d226576656e6f64642220666f6e742d66616d696c793d60a6820152671120b934b0b6111f60c11b60c68201528651612cd58160ce840160208b01613485565b6107ca612d01612cfc612cf6612cf060ce868801018c611b3a565b8a611b3a565b88611b3a565b6122fc565b6126a8565b7f3c726563742066696c6c3d2275726c28236c672d31292220783d22302220793d81527f2230222077696474683d2236303022206865696768743d22343030222072783d60208201526b11191a111f1e17b932b1ba1f60a11b60408201527f3c72656374207374726f6b653d22234646464646462220783d2231362e352220604c8201527f793d2231362e35222077696474683d2235363722206865696768743d22333637606c820152701110393c1e91189b111f1e17b932b1ba1f60791b608c8201527f3c6720746578742d72656e646572696e673d226f7074696d697a655370656564609d8201527f22206f7061636974793d22302e352220666f6e742d73697a653d22313022206660bd8201526d34b6361e9111a32323232323111f60911b60dd8201526000612e87612cfc612e82612e7d612e78612e73612e6e612e6986612e64612e5f612e5a60eb8e01612432565b611b84565b611c9e565b61259b565b611ed0565b611fc5565b611f03565b6120cf565b61230c565b61236c565b92915050565b6000651e3232b3399f60d11b82528351612eae816006850160208801613485565b835190830190612ec5816006840160208801613485565b661e17b232b3399f60c91b60069290910191820152600d01949350505050565b60007f3c7061746820643d224d3333302c323432204c3535302c32343220433535352c82527f323432203536302c323436203536302c323532204c3536302c3239322043353660208301527f302c323937203535352c333032203535302c333032204c3333302c333032204360408301527f3332342c333032203332302c323937203332302c323932204c3332302c32353260608301527f20433332302c323436203332342c323432203333302c323432205a222066696c60808301527f6c3d222330303030303022206f7061636974793d22302e3222207472616e73668060a08401527f6f726d3d227472616e736c617465283434302c2032373229207363616c65283160c08401527f2c202d3129207472616e736c617465282d3434302c202d32373229223e3c2f7060e08401526330ba341f60e11b806101008501527f3c7061746820643d224d3333302c333039204c3535302c33303920433535352c6101048501527f333039203536302c333133203536302c333139204c3536302c333539204335366101248501527f302c333634203535352c333639203535302c333639204c3333302c33363920436101448501527f3332342c333639203332302c333634203332302c333539204c3332302c3331396101648501527f20433332302c333133203332342c333039203333302c333039205a222066696c610184850152816101a48501527f6f726d3d227472616e736c617465283434302c2033333929207363616c6528316101c48501527f2c202d3129207472616e736c617465282d3434302c202d33333929223e3c2f706101e485015280610204850152505061317c61317761317161316b61316661316161020888016121c1565b61253b565b612086565b87611b3a565b85611b3a565b6120bc565b949350505050565b60007f3c747370616e20783d223334382220793d2232363522206f7061636974793d2282527a18171a911f2434b3b432b9ba10383934b1b29d1e17ba39b830b71f60291b60208301527801e3a39b830b7103c1e911a1a1911103c9e91191b1b111f121603d1b603b8301528451613202816054850160208901613485565b671e17ba39b830b71f60c11b6054918401918201527f3c747370616e20783d223338312220793d2232383522206f7061636974793d22605c8201527318171a911f20b6b7bab73a1d1e17ba39b830b71f60611b607c820152761e3a39b830b7103c1e911a1a1911103c9e91191c1b111f60491b6090820152845161328d8160a7840160208901613485565b600160fd1b60a7929091019182015283516132af8160a8840160208801613485565b612a4860a882840101611c8a565b60007f3c7465787420666f6e742d73697a653d223332222066696c6c3d2223464646468252632323111f60e11b60208301527f3c747370616e20783d2234302220793d2236352220666f6e742d73697a653d22602483015263191a911f60e11b60448301528651613335816048850160208b01613485565b7b1021b7b73b32b93a34b13632902b37bab1b432b91e17ba39b830b71f60211b604891840191820152751e3a39b830b7103c1e911a1811103c9e9118981a911f60511b6064820152865161339081607a840160208b01613485565b7601e3a39b830b7103337b73a16b9b4bd329e91191a111f1604d1b607a92909101918201526133e56131776133d661316b6133e0612cf06133db848060918a018f611b3a565b611c8a565b611faf565b61241b565b98975050505050505050565b6001600160a01b0391909116815260200190565b6000602082528251806020840152613424816040850160208701613485565b601f01601f19169190910160400192915050565b90815260200190565b6040518181016001600160401b038111828210171561345c57fe5b604052919050565b60006001600160401b0382111561347757fe5b50601f01601f191660200190565b60005b838110156134a0578181015183820152602001613488565b838111156134af576000848401525b50505050565b6001600160a01b038116811461172657600080fd5b60ff8116811461172657600080fdfe3c636972636c65207374726f6b653d222346464646464622207374726f6b652d37322c313139203437322c3532204c3437322c30204c3437322c3022207374723c6c696e6561724772616469656e742078313d2230222079313d2235302522203a48ca5a0ebe40fa462f2b957c3d14993f8368708887bd0696df5a5f87e136d26f7061636974793d223022206f66667365743d223025223e3c2f73746f703e00842397100357c7bc9e13c9e286c8970fd4253dcc8e63c78c74e0f9bb8b96fef43c73746f702073746f702d636f6c6f723d2223303030303030222073746f702d6f7061636974793d223022206f66667365743d2231303025223e3c2f73746f703c73746f702073746f702d636f6c6f723d222330303030303022206f666673653c73746f702073746f702d636f6c6f723d2223464646464646222073746f702d3c7061746820643d224d302c333435204c302c3239322043302c3232362035343c73746f702073746f702d636f6c6f723d222346464646464622206f666673652c313732203132302c313732204c3335322c31373220433431382c3137322034a2646970667358221220374475e25c7fb356007fd3677d59e49904d7833d65c09a2f569ba048f519aac364736f6c63430007060033496e697469616c697a61626c653a20636f6e747261637420697320616c726561647920696e697469616c697a6564"
}