{
  "address": "0xF4812ACAe4AeCeF35653fFA4eb1717830d64885f",
  "abi": [
    {
      "inputs": [
        {
          "internalType": "string[]",
          "name": "linearBgColors_",
          "type": "string[]"
        },
        {
          "internalType": "string[]",
          "name": "onetimeBgColors_",
          "type": "string[]"
        },
        {
          "internalType": "string[]",
          "name": "stagedBgColors_",
          "type": "string[]"
        }
      ],
      "stateMutability": "nonpayable",
      "type": "constructor"
    },
    {
      "anonymous": false,
      "inputs": [
        {
          "indexed": false,
          "internalType": "address",
          "name": "oldAdmin",
          "type": "address"
        },
        {
          "indexed": false,
          "internalType": "address",
          "name": "newAdmin",
          "type": "address"
        }
      ],
      "name": "NewAdmin",
      "type": "event"
    },
    {
      "anonymous": false,
      "inputs": [
        {
          "indexed": false,
          "internalType": "address",
          "name": "oldPendingAdmin",
          "type": "address"
        },
        {
          "indexed": false,
          "internalType": "address",
          "name": "newPendingAdmin",
          "type": "address"
        }
      ],
      "name": "NewPendingAdmin",
      "type": "event"
    },
    {
      "inputs": [],
      "name": "_admin",
      "outputs": [
        {
          "internalType": "address",
          "name": "",
          "type": "address"
        }
      ],
      "stateMutability": "view",
      "type": "function"
    },
    {
      "inputs": [],
      "name": "acceptAdmin",
      "outputs": [],
      "stateMutability": "nonpayable",
      "type": "function"
    },
    {
      "inputs": [
        {
          "internalType": "address",
          "name": "voucher_",
          "type": "address"
        },
        {
          "internalType": "uint256",
          "name": "tokenId_",
          "type": "uint256"
        }
      ],
      "name": "generateSVG",
      "outputs": [
        {
          "internalType": "string",
          "name": "",
          "type": "string"
        }
      ],
      "stateMutability": "view",
      "type": "function"
    },
    {
      "inputs": [],
      "name": "pendingAdmin",
      "outputs": [
        {
          "internalType": "address",
          "name": "",
          "type": "address"
        }
      ],
      "stateMutability": "view",
      "type": "function"
    },
    {
      "inputs": [
        {
          "internalType": "address",
          "name": "newPendingAdmin_",
          "type": "address"
        }
      ],
      "name": "setPendingAdmin",
      "outputs": [],
      "stateMutability": "nonpayable",
      "type": "function"
    },
    {
      "inputs": [
        {
          "internalType": "address",
          "name": "voucher_",
          "type": "address"
        },
        {
          "internalType": "string[]",
          "name": "linearBgColors_",
          "type": "string[]"
        },
        {
          "internalType": "string[]",
          "name": "onetimeBgColors_",
          "type": "string[]"
        },
        {
          "internalType": "string[]",
          "name": "stagedBgColors_",
          "type": "string[]"
        }
      ],
      "name": "setVoucherBgColors",
      "outputs": [],
      "stateMutability": "nonpayable",
      "type": "function"
    },
    {
      "inputs": [
        {
          "internalType": "address",
          "name": "",
          "type": "address"
        },
        {
          "internalType": "uint8",
          "name": "",
          "type": "uint8"
        },
        {
          "internalType": "uint256",
          "name": "",
          "type": "uint256"
        }
      ],
      "name": "voucherBgColors",
      "outputs": [
        {
          "internalType": "string",
          "name": "",
          "type": "string"
        }
      ],
      "stateMutability": "view",
      "type": "function"
    }
  ],
  "transactionHash": "0xf6c54ff3d14c690be258834991422b4c4499303b9a78b5a938df23a04464eecc",
  "args": [
    [
      "#C53DAB",
      "#094AF6"
    ],
    [
      "#91CCFF",
      "#094AF6"
    ],
    [
      "#1CCE9A",
      "#094AF6"
    ]
  ],
  "numDeployments": 1,
  "solcInputHash": "7a61b02a820518ea18e99d7361a502cf",
  "bytecode": "0x60806040523480156200001157600080fd5b5060405162004341380380620043418339810160408190526200003491620004b7565b620000486200004262000060565b62000064565b6200005760008484846200012a565b50505062000568565b3390565b600054610100900460ff1680620000805750620000806200022d565b806200008f575060005460ff16155b620000cc5760405162461bcd60e51b815260040180806020018281038252602e81526020018062004313602e913960400191505060405180910390fd5b600054610100900460ff16158015620000f8576000805460ff1961ff0019909116610100171660011790555b603380546001600160a01b0319166001600160a01b038416179055801562000126576000805461ff00191690555b5050565b6033546001600160a01b03166200014062000060565b6001600160a01b03161462000189576040805162461bcd60e51b815260206004820152600a60248201526937b7363c9030b236b4b760b11b604482015290519081900360640190fd5b6001600160a01b038416600090815260356020908152604080832083805282529091208451620001bc9286019062000251565b506001600160a01b03841660009081526035602090815260408083206001845282529091208351620001f19285019062000251565b506001600160a01b03841660009081526035602090815260408083206002845282529091208251620002269284019062000251565b5050505050565b600062000245306200024b60201b620007be1760201c565b15905090565b3b151590565b828054828255906000526020600020908101928215620002a3579160200282015b82811115620002a3578251805162000292918491602090910190620002b5565b509160200191906001019062000272565b50620002b192915062000346565b5090565b828054600181600116156101000203166002900490600052602060002090601f016020900481019282620002ed576000855562000338565b82601f106200030857805160ff191683800117855562000338565b8280016001018555821562000338579182015b82811115620003385782518255916020019190600101906200031b565b50620002b192915062000367565b80821115620002b15760006200035d82826200037e565b5060010162000346565b5b80821115620002b1576000815560010162000368565b50805460018160011615610100020316600290046000825580601f10620003a65750620003c6565b601f016020900490600052602060002090810190620003c6919062000367565b50565b6000601f8381840112620003db578182fd5b825160206001600160401b0380831115620003f257fe5b62000401828385020162000544565b83815282810190878401875b86811015620004a85781518a018b603f8201126200042957898afd5b86810151868111156200043857fe5b6200044b818b01601f1916890162000544565b81815260408e8184860101111562000461578c8dfd5b8c5b8381101562000480578481018201518382018c01528a0162000463565b8381111562000491578d8b85850101525b50508652505092850192908501906001016200040d565b50909998505050505050505050565b600080600060608486031215620004cc578283fd5b83516001600160401b0380821115620004e3578485fd5b620004f187838801620003c9565b9450602086015191508082111562000507578384fd5b6200051587838801620003c9565b935060408601519150808211156200052b578283fd5b506200053a86828701620003c9565b9150509250925092565b6040518181016001600160401b03811182821017156200056057fe5b604052919050565b613d9b80620005786000396000f3fe608060405234801561001057600080fd5b506004361061006d5760003560e01c806301bc45c9146100725780630e18b68114610090578063267822471461009a5780633aa51a8e146100a25780633d4ebb98146100b55780634dd18bf5146100d5578063f9bb05c5146100e8575b600080fd5b61007a6100fb565b6040516100879190613af5565b60405180910390f35b61009861010a565b005b61007a6101e1565b6100986100b0366004611746565b6101f0565b6100c86100c33660046117dc565b6102ea565b6040516100879190613b09565b6100986100e336600461170e565b610634565b6100c86100f6366004611807565b6106fa565b6033546001600160a01b031681565b6034546001600160a01b031661011e6107c8565b6001600160a01b03161461016e576040805162461bcd60e51b815260206004820152601260248201527137b7363c903832b73234b7339030b236b4b760711b604482015290519081900360640190fd5b603354603454604080516001600160a01b03938416815292909116602083015280517ff9ffabca9c8276e99321725bcb43fb076a6c66a54b7f21c4e8146d8519b417dc9281900390910190a160348054603380546001600160a01b03199081166001600160a01b03841617909155169055565b6034546001600160a01b031681565b6033546001600160a01b03166102046107c8565b6001600160a01b03161461024c576040805162461bcd60e51b815260206004820152600a60248201526937b7363c9030b236b4b760b11b604482015290519081900360640190fd5b6001600160a01b03841660009081526035602090815260408083208380528252909120845161027d928601906113b9565b506001600160a01b038416600090815260356020908152604080832060018452825290912083516102b0928501906113b9565b506001600160a01b038416600090815260356020908152604080832060028452825290912082516102e3928401906113b9565b5050505050565b606060008390506000816001600160a01b0316632944561b6040518163ffffffff1660e01b815260040160206040518083038186803b15801561032c57600080fd5b505afa158015610340573d6000803e3d6000fd5b505050506040513d601f19601f82011682018060405250810190610364919061172a565b90506000816001600160a01b0316632495a5996040518163ffffffff1660e01b815260040160206040518083038186803b1580156103a157600080fd5b505afa1580156103b5573d6000803e3d6000fd5b505050506040513d601f19601f820116820180604052508101906103d9919061172a565b90506000836001600160a01b03166376f10ad0876040518263ffffffff1660e01b81526004016104099190613b67565b60006040518083038186803b15801561042157600080fd5b505afa158015610435573d6000803e3d6000fd5b505050506040513d6000823e601f3d908101601f1916820160405261045d91908101906118b9565b9050610467611416565b6001600160a01b038089168252604080516395d89b4160e01b81529051918516916395d89b4191600480820192600092909190829003018186803b1580156104ae57600080fd5b505afa1580156104c2573d6000803e3d6000fd5b505050506040513d6000823e601f3d908101601f191682016040526104ea9190810190611847565b8160200181905250826001600160a01b031663313ce5676040518163ffffffff1660e01b815260040160206040518083038186803b15801561052b57600080fd5b505afa15801561053f573d6000803e3d6000fd5b505050506040513d601f19601f8201168201806040525081019061056391906119e4565b60ff9081166101008301526040808301899052838101516060840152835160200151821660e08401528351608001515190911660c0830152825101516001600160401b03166105b7578151606001516105be565b8151604001515b6001600160401b03166080820181905260a082015260005b8160c0015160ff1681101561061e578251608001518051829081106105f757fe5b602090810291909101015160a0830180519091016001600160401b031690526001016105d6565b50610628816107cc565b98975050505050505050565b6033546001600160a01b03166106486107c8565b6001600160a01b031614610690576040805162461bcd60e51b815260206004820152600a60248201526937b7363c9030b236b4b760b11b604482015290519081900360640190fd5b603454604080516001600160a01b039283168152918316602083015280517fca4f2f25d0898edd99413412fb94012f9e54ec8142f9b093e7720646a95b16a99281900390910190a1603480546001600160a01b0319166001600160a01b0392909216919091179055565b6035602052826000526040600020602052816000526040600020818154811061072257600080fd5b600091825260209182902001805460408051601f60026000196101006001871615020190941693909304928301859004850281018501909152818152955090935091508301828280156107b65780601f1061078b576101008083540402835291602001916107b6565b820191906000526020600020905b81548152906001019060200180831161079957829003601f168201915b505050505081565b803b15155b919050565b3390565b60606107d782610824565b6107df610b40565b6107e884610b65565b6107f185610bd4565b6107fa86610c67565b60405160200161080e959493929190612a0a565b6040516020818303038152906040529050919050565b80516001600160a01b0316600090815260356020908152604080832060e085015160ff1684529091528120546060919061089d5760008080526035602090815260e085015160ff168252600080516020613ca6833981519152905260408120805490919061088e57fe5b906000526020600020016108de565b82516001600160a01b0316600090815260356020908152604080832060e087015160ff168452909152812080549091906108d357fe5b906000526020600020015b805460408051602060026001851615610100026000190190941693909304601f810184900484028201840190925281815292918301828280156109625780601f1061093757610100808354040283529160200191610962565b820191906000526020600020905b81548152906001019060200180831161094557829003601f168201915b505086516001600160a01b0316600090815260356020908152604080832060e08b015160ff1684529091528120549495509360011092506109e79150505760008080526035602090815260e086015160ff168252600080516020613ca6833981519152905260409020805460019081106109d857fe5b90600052602060002001610a2a565b83516001600160a01b0316600090815260356020908152604080832060e088015160ff168452909152902080546001908110610a1f57fe5b906000526020600020015b805460408051602060026001851615610100026000190190941693909304601f81018490048402820184019092528181529291830182828015610aae5780601f10610a8357610100808354040283529160200191610aae565b820191906000526020600020905b815481529060010190602001808311610a9157829003601f168201915b50505050509050818160016002811115610ac457fe5b60ff168660e0015160ff1614610af757604051602001610ae3906135b5565b604051602081830303815290604052610b16565b604051602001610b0690613094565b6040516020818303038152906040525b604051602001610b2893929190613685565b60405160208183030381529060405292505050919050565b6060604051602001610b5190613372565b604051602081830303815290604052905090565b60606000610b768360400151610d47565b80519091506014026101e803610b8b81610d47565b82604051602001610b9d929190613022565b604051602081830303815290604052610bbf8560600151866101000151610e21565b602080870151604051610b28949392016139f1565b60e081015160609060ff16610c0857604051602001610bf2906137c4565b60405160208183030381529060405290506107c3565b60e082015160ff1660011415610c2757604051602001610bf290612e78565b60e082015160ff1660021415610c4657604051602001610bf2906131a3565b60405162461bcd60e51b8152600401610c5e90613b3c565b60405180910390fd5b60e081015160609060ff16610cb357610c8c82608001516001600160401b0316610e4d565b610ca28360a001516001600160401b0316610e4d565b604051602001610bf2929190612c91565b60e082015160ff1660011415610ce957610cd98260a001516001600160401b0316610e4d565b604051602001610bf29190612b64565b60e082015160ff1660021415610c4657610d098260c0015160ff16610d47565b610d1f83608001516001600160401b0316610e4d565b610d358460a001516001600160401b0316610e4d565b604051602001610bf293929190612d82565b606081610d6c57506040805180820190915260018152600360fc1b60208201526107c3565b8160005b8115610d8457600101600a82049150610d70565b6000816001600160401b0381118015610d9c57600080fd5b506040519080825280601f01601f191660200182016040528015610dc7576020820181803683370190505b50859350905060001982015b8315610e1857600a840660300160f81b82828060019003935081518110610df657fe5b60200101906001600160f81b031916908160001a905350600a84049350610dd3565b50949350505050565b6060610e46610e4160ff600119850116610e3b8686610e53565b90611060565b6110fe565b9392505050565b50606090565b606060ff8216600a0a6000610e70610e6b8684611222565b611286565b90506000610e81610e6b8785611357565b90506000815190506000836040516020018082805190602001908083835b60208310610ebe5780518252601f199092019160209182019101610e9f565b6001836020036101000a03801982511681845116808217855250505050505090500180601760f91b81525060010191505060405160208183030381529060405290508660ff16821015610fa25760005b828860ff16038160ff161015610fa057816040516020018082805190602001908083835b60208310610f515780518252601f199092019160209182019101610f32565b6001836020036101000a03801982511681845116808217855250505050505090500180600360fc1b81525060010191505060405160208183030381529060405291508080600101915050610f0e565b505b80836040516020018083805190602001908083835b60208310610fd65780518252601f199092019160209182019101610fb7565b51815160209384036101000a600019018019909216911617905285519190930192850191508083835b6020831061101e5780518252601f199092019160209182019101610fff565b6001836020036101000a038019825116818451168082178552505050505050905001925050506040516020818303038152906040529550505050505092915050565b6060818351036001600160401b038111801561107b57600080fd5b506040519080825280601f01601f1916602001820160405280156110a6576020820181803683370190505b5080519091505b600019810190156110f7578381815181106110c457fe5b602001015160f81c60f81b8282815181106110db57fe5b60200101906001600160f81b031916908160001a9053506110ad565b5092915050565b606060068251116111105750806107c3565b600360048351038161111e57fe5b048251016001600160401b038111801561113757600080fd5b506040519080825280601f01601f191660200182016040528015611162576020820181803683370190505b5082518151919250600019908101910160005b845181101561121a5760068110158015611190575060038106155b156111c557600b60fa1b848380600190039450815181106111ad57fe5b60200101906001600160f81b031916908160001a9053505b8451600019840193869181106111d757fe5b016020015184516000198401936001600160f81b031990921691869181106111fb57fe5b60200101906001600160f81b031916908160001a905350600101611175565b505050919050565b6000808211611275576040805162461bcd60e51b815260206004820152601a602482015279536166654d6174683a206469766973696f6e206279207a65726f60301b604482015290519081900360640190fd5b81838161127e57fe5b049392505050565b6060816112ab57506040805180820190915260018152600360fc1b60208201526107c3565b8160005b81156112c357600101600a820491506112af565b6000816001600160401b03811180156112db57600080fd5b506040519080825280601f01601f191660200182016040528015611306576020820181803683370190505b50859350905060001982015b8315610e1857600a840660300160f81b8282806001900393508151811061133557fe5b60200101906001600160f81b031916908160001a905350600a84049350611312565b60008082116113a8576040805162461bcd60e51b8152602060048201526018602482015277536166654d6174683a206d6f64756c6f206279207a65726f60401b604482015290519081900360640190fd5b8183816113b157fe5b069392505050565b828054828255906000526020600020908101928215611406579160200282015b8281111561140657825180516113f6918491602090910190611463565b50916020019190600101906113d9565b506114129291506114eb565b5090565b604080516101208101825260008082526060602083018190529282018190529181018290526080810182905260a0810182905260c0810182905260e0810182905261010081019190915290565b828054600181600116156101000203166002900490600052602060002090601f01602090048101928261149957600085556114df565b82601f106114b257805160ff19168380011785556114df565b828001600101855582156114df579182015b828111156114df5782518255916020019190600101906114c4565b50611412929150611508565b808211156114125760006114ff828261151d565b506001016114eb565b5b808211156114125760008155600101611509565b50805460018160011615610100020316600290046000825580601f106115435750611561565b601f0160209004906000526020600020908101906115619190611508565b50565b80516107c381613c01565b600082601f83011261157f578081fd5b8135602061159461158f83613b93565b613b70565b82815281810190858301855b85811015611603578135880189603f8201126115ba578788fd5b8581013560406115cc61158f83613bb0565b8281528c828486010111156115df578a8bfd5b828285018a83013791820188018a90525085525092840192908401906001016115a0565b5090979650505050505050565b600082601f830112611620578081fd5b8151602061163061158f83613b93565b828152818101908583018385028701840188101561164c578586fd5b855b8581101561160357815163ffffffff81168114611669578788fd5b8452928401929084019060010161164e565b600082601f83011261168b578081fd5b8151602061169b61158f83613b93565b82815281810190858301838502870184018810156116b7578586fd5b855b85811015611603576116ca826116ec565b845292840192908401906001016116b9565b805180151581146107c357600080fd5b80516001600160401b03811681146107c357600080fd5b80516107c381613c16565b60006020828403121561171f578081fd5b8135610e4681613c01565b60006020828403121561173b578081fd5b8151610e4681613c01565b6000806000806080858703121561175b578283fd5b843561176681613c01565b935060208501356001600160401b0380821115611781578485fd5b61178d8883890161156f565b945060408701359150808211156117a2578384fd5b6117ae8883890161156f565b935060608701359150808211156117c3578283fd5b506117d08782880161156f565b91505092959194509250565b600080604083850312156117ee578182fd5b82356117f981613c01565b946020939093013593505050565b60008060006060848603121561181b578081fd5b833561182681613c01565b9250602084013561183681613c16565b929592945050506040919091013590565b600060208284031215611858578081fd5b81516001600160401b0381111561186d578182fd5b8201601f8101841361187d578182fd5b805161188b61158f82613bb0565b81815285602083850101111561189f578384fd5b6118b0826020830160208601613bd1565b95945050505050565b6000602082840312156118ca578081fd5b81516001600160401b03808211156118e0578283fd5b90830190606082860312156118f3578283fd5b6040805160608101818110848211171561190957fe5b8252835183811115611919578586fd5b840160e0818903121561192a578586fd5b61193460e0613b70565b61193d82611564565b815261194b60208301611703565b602082015261195b8483016116ec565b8482015261196b606083016116ec565b6060820152608082015185811115611981578788fd5b61198d8a82850161167b565b60808301525060a0820151858111156119a4578788fd5b6119b08a828501611610565b60a0830152506119c260c083016116dc565b60c0820152825250602084810151908201529281015190830152509392505050565b6000602082840312156119f5578081fd5b8151610e4681613c16565b60008151611a12818560208601613bd1565b9290920192915050565b600080516020613d4683398151915281526d3a1e911812911f1e17b9ba37b81f60911b6020820152602e0190565b7f3c75736520786c696e6b3a687265663d2223706174682d32223e3c2f7573653e815260200190565b600080516020613ce683398151915281527f25222078323d223025222079323d22353025222069643d226c672d32223e00006020820152603e0190565b7f3c67207472616e73666f726d3d227472616e736c6174652834302c2032353529815261111f60f11b602082015260220190565b671e17ba39b830b71f60c11b815260080190565b600080516020613c2683398151915281527f616d696c793d22417269616c2220666f6e742d73697a653d2232302220666f6e6020820152600080516020613c468339815191526040820152605e0190565b7810233632bc34b13632902b37bab1b432b91e17ba39b830b71f60391b815260190190565b600080516020613d2683398151915281527f6f7061636974793d223022206f66667365743d2231303025223e3c2f73746f706020820152601f60f91b604082015260410190565b7f3c7061746820643d224d3430342c2d3431204c3835352c323235204d3136352c81527f313030204c3631362c333636204d3432372c2d3536204c3837382c323130204d60208201527f3138392c3834204c3634302c333530204d3330382c3134204c3735392c32383060408201527f204d37312c313534204c3532322c343230204d3338302c2d3237204c3833312c60608201527f323339204d3134332c313133204c3539342c333739204d3238362c3238204c3760808201527f33372c323934204d34372c313639204c3439382c343335204d3335372c2d313460a08201527f204c3830382c323532204d3131382c313238204c3536392c333934204d32363260c08201527f2c3432204c3731332c333038204d32342c313833204c3437352c343439204d3360e08201527f33332c30204c3738342c323636204d39342c313431204c3534352c343037204d6101008201527f3233372c3537204c3638382c333233204d302c313937204c3435312c343633206101208201527f4d3435312c2d3639204c3930322c313937204d3231342c3731204c3636352c336101408201527f3337204d3636352c3537204c3231342c333233204d3930322c313937204c34356101608201527f312c343633204d3536392c30204c3131382c323636204d3830382c313431204c6101808201527f3335372c343037204d3634302c3432204c3138392c333038204d3837382c31386101a08201527f33204c3432372c343439204d3534352c2d3134204c39342c323532204d3738346101c08201527f2c313238204c3333332c333934204d3631362c3238204c3136352c323934204d6101e08201527f3835352c313639204c3430342c343335204d3532322c2d3237204c37312c32336102008201527f39204d3735392c313133204c3330382c333739204d3539342c3134204c3134336102208201527f2c323830204d3833312c313534204c3338302c343230204d3439382c2d3431206102408201527f4c34372c323235204d3733372c313030204c3238362c333636204d3437352c2d6102608201527f3536204c32342c323130204d3731332c3834204c3236322c333530204d3435316102808201527f2c2d3639204c302c313937204d3638382c3731204c3233372c333337222073746102a08201527f726f6b653d2275726c28236c672d322922206f7061636974793d22302e3222206102c08201527a36b0b9b59e913ab9361411b6b0b9b5969994911f1e17b830ba341f60291b6102e08201526102fb0190565b7f3c746578743e3c74657874506174682073746172744f66667365743d2230252281527f20786c696e6b3a687265663d2223746578742d706174682d61223e496e20437260208201527f7970746f2057652054727573743c616e696d6174652061646469746976653d2260408201527f73756d22206174747269627574654e616d653d2273746172744f66667365742260608201527f2066726f6d3d2230252220746f3d22313030252220626567696e3d223073222060808201527f6475723d223330732220726570656174436f756e743d22696e646566696e697460a082015276329110179f1e17ba32bc3a2830ba341f1e17ba32bc3a1f60491b60c082015260d70190565b7f3c746578743e3c74657874506174682073746172744f66667365743d222d353081527f252220786c696e6b3a687265663d2223746578742d706174682d61223e506f7760208201527f6572656420627920536f6c762050726f746f636f6c3c616e696d61746520616460408201527f6469746976653d2273756d22206174747269627574654e616d653d227374617260608201527f744f6666736574222066726f6d3d2230252220746f3d2231303025222062656760808201527f696e3d22307322206475723d223330732220726570656174436f756e743d226960a08201527f6e646566696e69746522202f3e3c2f74657874506174683e3c2f746578743e0060c082015260df0190565b701e17b634b732b0b923b930b234b2b73a1f60791b815260110190565b7f3c72656374207374726f6b653d22234646464646462220783d2231362e35222081527f793d2231362e35222077696474683d2235363722206865696768743d223336376020820152701110393c1e91189b111f1e17b932b1ba1f60791b604082015260510190565b600080516020613c6683398151915281527a34bd329e91191a11103337b73a16bbb2b4b3b43a1e911a9818111f60291b6020820152603b0190565b661e17ba32bc3a1f60c91b815260070190565b600080516020613cc68339815191528152600080516020613d068339815191526020820152763a1e9118981a9110393c1e91189b111f1e17b932b1ba1f60491b604082015260570190565b731e3a39b830b7103c1e911811103c9e91191b111f60611b815260140190565b731e3a39b830b7103c1e911811103c9e911b99111f60611b815260140190565b600080516020613c2683398151915281527f616d696c793d22417269616c2220666f6e742d73697a653d2231342220666f6e6020820152600080516020613c468339815191526040820152605e0190565b7f3c746578743e3c74657874506174682073746172744f66667365743d2235302581527f2220786c696e6b3a687265663d2223746578742d706174682d61223e506f776560208201527f72656420627920536f6c762050726f746f636f6c3c616e696d6174652061646460408201527f69746976653d2273756d22206174747269627574654e616d653d22737461727460608201527f4f6666736574222066726f6d3d2230252220746f3d223130302522206265676960808201527f6e3d22307322206475723d223330732220726570656174436f756e743d22696e60a08201527f646566696e69746522202f3e3c2f74657874506174683e3c2f746578743e000060c082015260de0190565b631e17b39f60e11b815260040190565b7f3c6d61736b2069643d226d61736b2d33222066696c6c3d227768697465223e008152601f0190565b7f3c706174682069643d22746578742d706174682d612220643d224d333020313281527f204835373020413138203138203020302031203538382033302056333730204160208201527f313820313820302030203120353730203338382048333020413138203138203060408201527f20302031203132203337302056333020413138203138203020302031203330206060820152671899102d1110179f60c11b608082015260880190565b661e17b232b3399f60c91b815260070190565b7f3c747370616e20783d2233302220793d223538223e537461727420446174653a8152600160fd1b602082015260210190565b7f3c726563742069643d22706174682d322220783d2231362220793d223136222081527f77696474683d2235363822206865696768743d22333638222072783d223136226020820152671f1e17b932b1ba1f60c11b604082015260480190565b7f3c7061746820643d224d3131372c323137204c2d3431352c2d3938222073747281527f6f6b653d2275726c28236c672d342922207374726f6b652d77696474683d2232602082015276111037b830b1b4ba3c9e91181719111f1e17b830ba341f60491b604082015260570190565b651e17b9bb339f60d11b815260060190565b7f3c7061746820643d224d3136342c2d313220433137302e352c2d31322031373681527f2c2d362e35203137362c3020433137362c362e35203137302e352c313220313660208201527f342c313220433135382c3132203135332c38203135322c32204c3132372c322060408201527f433132362c32203132352c33203132352c34204c3132352c34204c3132352c3560608201527f302e3520433132352c3534203132322c35362e35203131392c35362e35204c3160808201527f31392c35362e35204c38362c35362e35204338352c35362e352038342c35372e60a08201527f352038342c35382e35204c38342c35382e35204c38342c313035204338342c3160c08201527f30382e352038312e352c3131312037382c3131312e33204c37382c3131312e3360e08201527f204c34352c3131312e33204334342c3131312e332034332c3131322034332c316101008201527f3133204c34332c3131332e33204c34332c313630204334332c3136332034302e6101208201527f352c3136362033372c313636204c33372c313636204c31322c313636204331316101408201527f2c3137312e3520362c31373620302c31373620432d362e352c313736202d31326101608201527f2c3137302e35202d31322c31363420432d31322c3135372e35202d362e352c316101808201527f353220302c3135322043362c3135322031312c3135362031322c313632204c336101a08201527f372c313632204333382c3136322033392c3136312033392c313630204c33392c6101c08201527f313630204c33392c3131332e33204333392c3131302034312e352c3130372e356101e08201527f2034352c3130372e33204c34352c3130372e33204c37382c3130372e332043376102008201527f392c3130372e332038302c3130362e352038302c3130352e35204c38302c31306102208201527f352e33204c38302c35382e33204338302c35352e352038322e352c35332038356102408201527f2e382c35322e37204c38362c35322e37204c3131392c35322e3720433132302c6102608201527f35322e37203132312c3532203132312c3531204c3132312c3531204c3132312c6102808201527f3420433132312c30203132332e352c2d32203132372c2d32204c3132372c2d326102a08201527f204c3135322c2d3220433135332e3131383534322c2d38203135382c2d3132206102c08201527f3136342c2d3132205a222066696c6c3d2223464646464646222066696c6c2d726102e0820152743ab6329e913737b73d32b937911f1e17b830ba341f60591b6103008201526103150190565b661e17b6b0b9b59f60c91b815260070190565b60007f3c7376672077696474683d2236303022206865696768743d223430302220766982527f6577426f783d2230203020363030203430302220786d6c6e733d22687474703a60208301527f2f2f7777772e77332e6f72672f323030302f7376672220786d6c6e733a786c6960408301527f6e6b3d22687474703a2f2f7777772e77332e6f72672f313939392f786c696e6b606083015261111f60f11b60808301528651612abf816082850160208b01613bd1565b7f3c67207374726f6b652d77696474683d2231222066696c6c3d226e6f6e652220608291840191820152733334b63616b93ab6329e9132bb32b737b232111f60611b60a28201528651612b198160b6840160208b01613bd1565b8651910190612b2f8160b6840160208a01613bd1565b612b57612b52612b4d612b4760b6858701018a611a00565b88611a00565b612428565b612622565b9998505050505050505050565b7f3c67207472616e73666f726d3d227472616e736c6174652834302c2032383129815261111f60f11b6020820152600080516020613cc68339815191526022820152600080516020613d068339815191526042820152753a1e911c181110393c1e91189b111f1e17b932b1ba1f60511b60628201526000612be760788301611af8565b7f3c747370616e20783d2233312220793d223331223e4f6e652d74696d653c2f7481526439b830b71f60d91b6020820152661e17ba32bc3a1f60c91b6025820152612c34602c82016122ca565b90507f3c747370616e20783d2233302220793d223538223e56657374696e67204461748152620329d160ed1b60208201528351612c78816023840160208801613bd1565b6118b0612b4d612c8c602384860101611ae4565b61222c565b6000612cac612ca7612ca284611ab0565b61223f565b611af8565b7f3c747370616e20783d2233312220793d223331223e4c696e6561723c2f74737081526230b71f60e91b6020820152661e17ba32bc3a1f60c91b806023830152612d00612cfb602a84016122ca565b612520565b91508551612d12818460208a01613bd1565b671e17ba39b830b71f60c11b92018281526008810182905291612d37600f84016122ca565b9250600080516020613c8683398151915283528551612d5d81601f860160208a01613bd1565b601f9301928301526027820152631e17b39f60e11b602e820152603201949350505050565b6000612d93612ca7612ca284611ab0565b741e3a39b830b7103c1e91199891103c9e911998911f60591b81528551612dc1816015840160208a01613bd1565b8082019150506e1029ba30b3b2b99e17ba39b830b71f60891b6015820152661e17ba32bc3a1f60c91b806024830152612dff612cfb602b84016122ca565b91508551612e11818460208a01613bd1565b671e17ba39b830b71f60c11b92019182526008820152612e33600f82016122ca565b9050600080516020613c8683398151915281528351612e5981601f840160208801613bd1565b612e6d612b4d612c8c601f84860101611ae4565b979650505050505050565b7f3c67207472616e73666f726d3d227472616e736c617465283433312c2031363581526214911f60e91b60208201527f3c7061746820643d224d302c313436204c312c3022207374726f6b653d22757260238201527f6c28236c672d332922207374726f6b652d77696474683d22323022206f70616360438201527f6974793d22302e3422207374726f6b652d6c696e656361703d22726f756e642260638201527f207374726f6b652d6c696e656a6f696e3d22726f756e64223e3c2f706174683e60838201527f3c7061746820643d224d312c2d31322043382c2d31322031332c2d372031332c60a38201527f30204331332c3620392c313120332c3132204c322c313436204c2d312c31343660c38201527f204c2d312c313220432d372c3131202d31312c36202d31312c2d3020432d313160e38201527f2c2d37202d362c2d313220312c2d3132205a222066696c6c3d2275726c28236c6101038201527f672d3529222066696c6c2d72756c653d226e6f6e7a65726f223e3c2f70617468610123820152601f60f91b610143820152600061301c612b4d61014484016125b3565b92915050565b691e3a39b830b7103c1e9160b11b8152825160009061304881600a850160208801613bd1565b6a011103c9e91191c911f11960ad1b600a918401918201528351613073816015840160208801613bd1565b671e17ba39b830b71f60c11b60159290910191820152601d01949350505050565b60007f3c6c696e6561724772616469656e742078313d22353025222079313d223025228083527f2078323d22353025222079323d2231303025222069643d226c672d33223e000060208401526130f46130ef603e8501611a1c565b611b6e565b701e17b634b732b0b923b930b234b2b73a1f60791b808252600080516020613ce683398151915260118301527f25222078323d22333525222079323d22353025222069643d226c672d34223e0060318301526131556130ef60508401611a1c565b91508082528260118301527f2078323d22353025222079323d2231303025222069643d226c672d35223e000060318301526131956130ef604f8401611a1c565b908152601101949350505050565b7f3c67207472616e73666f726d3d227472616e736c617465283334362c2031353181526214911f60e91b60208201527f3c7061746820643d224d302c313634204c33372c313634204333392c3136342060238201527f34312c3136322034312c313630204c34312c313133204334312c31313120343360438201527f2c3130392034352c313039204c37382c313039204338302c3130392038322c3160638201527f30372e352038322c313035204c38322c35382e35204338322c35362e3520383460838201527f2c35342e352038362c35342e35204c3131392c35342e3520433132312c35342e60a38201527f35203132332c3533203132332c35302e35204c3132332c3420433132332c322060c38201527f3132352c30203132372c30204c3136342c30204c3136342c3022207374726f6b60e38201527f653d2275726c28236c672d332922207374726f6b652d77696474683d223230226101038201527f206f7061636974793d22302e3422207374726f6b652d6c696e656361703d22726101238201527f6f756e6422207374726f6b652d6c696e656a6f696e3d22726f756e64223e3c2f610143820152643830ba341f60d91b610163820152600061301c612b4d6101688401612634565b7f3c726563742066696c6c3d2275726c28236c672d31292220783d22302220793d81527f2230222077696474683d2236303022206865696768743d22343030222072783d60208201526b11191a111f1e17b932b1ba1f60a11b60408201527f3c6720746578742d72656e646572696e673d226f7074696d697a655370656564604c8201527f22206f7061636974793d22302e352220666f6e742d66616d696c793d22417269606c8201527f616c2220666f6e742d73697a653d2231302220666f6e742d7765696768743d22608c820152731a981811103334b6361e9111a32323232323111f60611b60ac8201527f3c746578743e3c74657874506174682073746172744f66667365743d222d313060c08201527f30252220786c696e6b3a687265663d2223746578742d706174682d61223e496e60e08201527f2043727970746f2057652054727573743c616e696d61746520616464697469766101008201527f653d2273756d22206174747269627574654e616d653d2273746172744f6666736101208201527f6574222066726f6d3d2230252220746f3d22313030252220626567696e3d22306101408201527f7322206475723d223330732220726570656174436f756e743d22696e64656669610160820152793734ba329110179f1e17ba32bc3a2830ba341f1e17ba32bc3a1f60311b610180820152600061301c6135b06135ab6135a66135a161359c612b4d61359761359261019a8b01611f57565b61231b565b61205e565b612188565b612438565b611a4a565b6129f7565b611bb5565b7f3c6c696e6561724772616469656e742078313d223025222079313d223530252281527f2078323d2231303025222079323d22353025222069643d226c672d33223e00006020820152600080516020613d26833981519152603e8201527f6f7061636974793d223022206f66667365743d223025223e3c2f73746f703e00605e820152600080516020613d46833981519152607d8201526f3a1e9118981812911f1e17b9ba37b81f60811b609d820152701e17b634b732b0b923b930b234b2b73a1f60791b60ad82015260be0190565b6000651e3232b3399f60d11b82527f3c6c696e6561724772616469656e742078313d223025222079313d223735252260068301527f2078323d2231303025222079323d22333025222069643d226c672d31223e00006026830152711e39ba37b81039ba37b816b1b7b637b91e9160711b806044840152855161370e816056860160208a01613bd1565b74111037b33339b2ba1e911812911f1e17b9ba37b81f60591b605691850191820152606b81019190915284519061374c82607d830160208901613bd1565b81810191505076111037b33339b2ba1e9118981812911f1e17b9ba37b81f60491b607d8201526137ba6137b56137b06137aa6137a56130ef6137a061379b61379660948a0161216b565b612553565b611a73565b611a1c565b61216b565b87611a00565b612461565b61250d565b9695505050505050565b7f3c67207472616e73666f726d3d227472616e736c617465283337332c2031343281526214911f60e91b60208201527f3c7061746820643d224d302c313338204c3133382c3022207374726f6b653d2260238201527f75726c28236c672d332922207374726f6b652d77696474683d22323022206f7060438201527f61636974793d22302e3422207374726f6b652d6c696e656361703d22726f756e60638201527f6422207374726f6b652d6c696e656a6f696e3d22726f756e64223e3c2f70617460838201527f683e3c7061746820643d224d3132392e352c2d382e3520433133342c2d31332060a38201527f3134322c2d3133203134362e352c2d382e3520433135312c2d34203135312c3460c38201527f203134362e352c382e3520433134322c3133203133362c3133203133312c313060e38201527f204c31302c313331204331332c3133362031332c31343220382e352c3134362e6101038201527f352043342c313531202d342c313531202d382e352c3134362e3520432d31332c6101238201527f313432202d31332c313334202d382e352c3132392e3520432d342c31323520326101438201527f2c31323520372c313238204c3132382c3720433132352c32203132352c2d34206101638201527f3132392e352c2d382e35205a222066696c6c3d2223464646464646222066696c610183820152773616b93ab6329e913737b73d32b937911f1e17b830ba341f60411b6101a3820152600061301c6101bb8301612428565b60007f3c67207472616e73666f726d3d227472616e736c6174652834302c203430292282527f2066696c6c3d2223464646464646222066696c6c2d72756c653d226e6f6e7a656020830152633937911f60e11b6040830152600080516020613c668339815191528060448401526834bd329e911999111f60b91b60648401528551613a8381606d860160208a01613bd1565b661e17ba32bc3a1f60c91b606d91850191820152607481018290526834bd329e91199b111f60b91b6094820152612e6d612b4d612c8c613af0613aea613ae5613ae084613adb613ad5609d8b016122aa565b8f611a00565b611ae4565b6121f1565b61228a565b89611a00565b611b49565b6001600160a01b0391909116815260200190565b6000602082528251806020840152613b28816040850160208701613bd1565b601f01601f19169190910160400192915050565b602080825260119082015270496e76616c696420436c61696d5479706560781b604082015260600190565b90815260200190565b6040518181016001600160401b0381118282101715613b8b57fe5b604052919050565b60006001600160401b03821115613ba657fe5b5060209081020190565b60006001600160401b03821115613bc357fe5b50601f01601f191660200190565b60005b83811015613bec578181015183820152602001613bd4565b83811115613bfb576000848401525b50505050565b6001600160a01b038116811461156157600080fd5b60ff8116811461156157600080fdfe3c746578742066696c6c2d72756c653d226e6f6e7a65726f2220666f6e742d66742d7765696768743d22353030222066696c6c3d2223464646464646223e00003c7465787420666f6e742d66616d696c793d22417269616c2220666f6e742d733c747370616e20783d2233302220793d223833223e456e6420446174653a2000842397100357c7bc9e13c9e286c8970fd4253dcc8e63c78c74e0f9bb8b96fef43c726563742066696c6c3d222330303030303022206f7061636974793d22302e3c6c696e6561724772616469656e742078313d2231303025222079313d223530322220783d22302220793d2230222077696474683d22323430222068656967683c73746f702073746f702d636f6c6f723d2223464646464646222073746f702d3c73746f702073746f702d636f6c6f723d222346464646464622206f66667365a264697066735822122069ca1e5188fa326fd9f8ccd7f113a96f20d0cc5d00551fd9f2246b758550f75464736f6c63430007060033496e697469616c697a61626c653a20636f6e747261637420697320616c726561647920696e697469616c697a6564"
}