{
  "address": "0x7EBC32d7d368e587FFe01c6aaaD912690588E8FE",
  "abi": [
    {
      "anonymous": false,
      "inputs": [
        {
          "indexed": false,
          "internalType": "address",
          "name": "oldAdmin",
          "type": "address"
        },
        {
          "indexed": false,
          "internalType": "address",
          "name": "newAdmin",
          "type": "address"
        }
      ],
      "name": "NewAdmin",
      "type": "event"
    },
    {
      "anonymous": false,
      "inputs": [
        {
          "indexed": false,
          "internalType": "address",
          "name": "oldPendingAdmin",
          "type": "address"
        },
        {
          "indexed": false,
          "internalType": "address",
          "name": "newPendingAdmin",
          "type": "address"
        }
      ],
      "name": "NewPendingAdmin",
      "type": "event"
    },
    {
      "anonymous": false,
      "inputs": [
        {
          "indexed": true,
          "internalType": "address",
          "name": "voucher",
          "type": "address"
        },
        {
          "indexed": false,
          "internalType": "address",
          "name": "oldVoucherSVG",
          "type": "address"
        },
        {
          "indexed": false,
          "internalType": "address",
          "name": "newVoucherSVG",
          "type": "address"
        }
      ],
      "name": "SetVoucherSVG",
      "type": "event"
    },
    {
      "inputs": [],
      "name": "_admin",
      "outputs": [
        {
          "internalType": "address",
          "name": "",
          "type": "address"
        }
      ],
      "stateMutability": "view",
      "type": "function"
    },
    {
      "inputs": [],
      "name": "acceptAdmin",
      "outputs": [],
      "stateMutability": "nonpayable",
      "type": "function"
    },
    {
      "inputs": [],
      "name": "contractURI",
      "outputs": [
        {
          "internalType": "string",
          "name": "",
          "type": "string"
        }
      ],
      "stateMutability": "view",
      "type": "function"
    },
    {
      "inputs": [
        {
          "internalType": "address",
          "name": "defaultVoucherSVG_",
          "type": "address"
        }
      ],
      "name": "initialize",
      "outputs": [],
      "stateMutability": "nonpayable",
      "type": "function"
    },
    {
      "inputs": [],
      "name": "pendingAdmin",
      "outputs": [
        {
          "internalType": "address",
          "name": "",
          "type": "address"
        }
      ],
      "stateMutability": "view",
      "type": "function"
    },
    {
      "inputs": [
        {
          "internalType": "address",
          "name": "newPendingAdmin_",
          "type": "address"
        }
      ],
      "name": "setPendingAdmin",
      "outputs": [],
      "stateMutability": "nonpayable",
      "type": "function"
    },
    {
      "inputs": [
        {
          "internalType": "address",
          "name": "voucher_",
          "type": "address"
        },
        {
          "internalType": "address",
          "name": "voucherSVG_",
          "type": "address"
        }
      ],
      "name": "setVoucherSVG",
      "outputs": [],
      "stateMutability": "nonpayable",
      "type": "function"
    },
    {
      "inputs": [
        {
          "internalType": "uint256",
          "name": "slot_",
          "type": "uint256"
        }
      ],
      "name": "slotURI",
      "outputs": [
        {
          "internalType": "string",
          "name": "",
          "type": "string"
        }
      ],
      "stateMutability": "view",
      "type": "function"
    },
    {
      "inputs": [
        {
          "internalType": "uint256",
          "name": "tokenId_",
          "type": "uint256"
        }
      ],
      "name": "tokenURI",
      "outputs": [
        {
          "internalType": "string",
          "name": "",
          "type": "string"
        }
      ],
      "stateMutability": "view",
      "type": "function"
    },
    {
      "inputs": [
        {
          "internalType": "address",
          "name": "",
          "type": "address"
        }
      ],
      "name": "voucherSVGs",
      "outputs": [
        {
          "internalType": "address",
          "name": "",
          "type": "address"
        }
      ],
      "stateMutability": "view",
      "type": "function"
    }
  ],
  "transactionHash": "0x2e5553ea97419dd800b7c30c3411637ef4076f29feac217415032a3a8a017472",
  "args": [],
  "numDeployments": 1,
  "solcInputHash": "f10c5920c6163c6ae960c77c7c293bab",
  "bytecode": "0x608060405234801561001057600080fd5b50612fd3806100206000396000f3fe608060405234801561001057600080fd5b506004361061008e5760003560e01c806301bc45c91461009357806309c3dd87146100b15780630e18b681146100d157806326782247146100db5780634b996300146100e35780634dd18bf5146100f6578063c4d66de814610109578063c87b56dd1461011c578063d4df91e41461012f578063e8a3d48514610142575b600080fd5b61009b61014a565b6040516100a89190612aad565b60405180910390f35b6100c46100bf3660046121e9565b610159565b6040516100a89190612af4565b6100d961034a565b005b61009b610421565b6100d96100f136600461204f565b610430565b6100d9610104366004612010565b610513565b6100d9610117366004612010565b6105d9565b6100c461012a3660046121e9565b610697565b61009b61013d366004612010565b610a73565b6100c4610a8e565b6033546001600160a01b031681565b60606000610165610bbd565b90506000816001600160a01b0316632944561b6040518163ffffffff1660e01b815260040160206040518083038186803b1580156101a257600080fd5b505afa1580156101b6573d6000803e3d6000fd5b505050506040513d601f19601f820116820180604052508101906101da9190612033565b90506000816001600160a01b031663d3ceafb9866040518263ffffffff1660e01b815260040161020a9190612b27565b60006040518083038186803b15801561022257600080fd5b505afa158015610236573d6000803e3d6000fd5b505050506040513d6000823e601f3d908101601f1916820160405261025e9190810190612107565b90506102e4836001600160a01b031663076d948c876040518263ffffffff1660e01b815260040161028f9190612b27565b60206040518083038186803b1580156102a757600080fd5b505afa1580156102bb573d6000803e3d6000fd5b505050506040513d601f19601f820116820180604052508101906102df9190612201565b610bc1565b60405163a880042560e01b8152610314906001600160a01b0386169063a88004259061028f908a90600401612b27565b61031e8484610c9b565b60405160200161033093929190612835565b60405160208183030381529060405293505050505b919050565b6034546001600160a01b031661035e610bbd565b6001600160a01b0316146103ae576040805162461bcd60e51b815260206004820152601260248201527137b7363c903832b73234b7339030b236b4b760711b604482015290519081900360640190fd5b603354603454604080516001600160a01b03938416815292909116602083015280517ff9ffabca9c8276e99321725bcb43fb076a6c66a54b7f21c4e8146d8519b417dc9281900390910190a160348054603380546001600160a01b03199081166001600160a01b03841617909155169055565b6034546001600160a01b031681565b6033546001600160a01b0316610444610bbd565b6001600160a01b03161461048c576040805162461bcd60e51b815260206004820152600a60248201526937b7363c9030b236b4b760b11b604482015290519081900360640190fd5b6001600160a01b038083166000818152603560205260409081902054905191927fa9319254799bc553e8c0a5138132bcee5051f4d6d2524ae1ebee1356a82eda05926104dd92909116908590612ada565b60405180910390a26001600160a01b03918216600090815260356020526040902080546001600160a01b03191691909216179055565b6033546001600160a01b0316610527610bbd565b6001600160a01b03161461056f576040805162461bcd60e51b815260206004820152600a60248201526937b7363c9030b236b4b760b11b604482015290519081900360640190fd5b603454604080516001600160a01b039283168152918316602083015280517fca4f2f25d0898edd99413412fb94012f9e54ec8142f9b093e7720646a95b16a99281900390910190a1603480546001600160a01b0319166001600160a01b0392909216919091179055565b600054610100900460ff16806105f257506105f2610e2e565b80610600575060005460ff16155b61063b5760405162461bcd60e51b815260040180806020018281038252602e815260200180612deb602e913960400191505060405180910390fd5b600054610100900460ff16158015610666576000805460ff1961ff0019909116610100171660011790555b610676610671610bbd565b610e3f565b610681600083610430565b8015610693576000805461ff00191690555b5050565b606060006106a3610bbd565b90506000816001600160a01b0316632944561b6040518163ffffffff1660e01b815260040160206040518083038186803b1580156106e057600080fd5b505afa1580156106f4573d6000803e3d6000fd5b505050506040513d601f19601f820116820180604052508101906107189190612033565b90506000826001600160a01b031663263f3e7e866040518263ffffffff1660e01b81526004016107489190612b27565b60206040518083038186803b15801561076057600080fd5b505afa158015610774573d6000803e3d6000fd5b505050506040513d601f19601f820116820180604052508101906107989190612201565b90506000826001600160a01b031663d3ceafb9836040518263ffffffff1660e01b81526004016107c89190612b27565b60006040518083038186803b1580156107e057600080fd5b505afa1580156107f4573d6000803e3d6000fd5b505050506040513d6000823e601f3d908101601f1916820160405261081c9190810190612107565b90506000846001600160a01b03166306fdde036040518163ffffffff1660e01b815260040160006040518083038186803b15801561085957600080fd5b505afa15801561086d573d6000803e3d6000fd5b505050506040513d6000823e601f3d908101601f191682016040526108959190810190612087565b61089e88610bc1565b6108ab8460200151610efc565b6040516020016108bd93929190612342565b60405160208183030381529060405290506000603560006108dc610bbd565b6001600160a01b0390811682526020820192909252604001600020541690508061093657506000805260356020527f842397100357c7bc9e13c9e286c8970fd4253dcc8e63c78c74e0f9bb8b96fef4546001600160a01b03165b6000816001600160a01b0316633d4ebb9861094f610bbd565b8b6040518363ffffffff1660e01b815260040161096d929190612ac1565b60006040518083038186803b15801561098557600080fd5b505afa158015610999573d6000803e3d6000fd5b505050506040513d6000823e601f3d908101601f191682016040526109c19190810190612087565b9050610a46836109d2898c88610fb3565b6109db846111c1565b610a0a8b6001600160a01b031663becef6078f6040518263ffffffff1660e01b815260040161028f9190612b27565b610a138a610bc1565b610a1d8c8b610c9b565b604051602001610a32969594939291906123cd565b6040516020818303038152906040526111c1565b604051602001610a56919061296c565b604051602081830303815290604052975050505050505050919050565b6035602052600090815260409020546001600160a01b031681565b60606000610a9a610bbd565b9050806001600160a01b03166306fdde036040518163ffffffff1660e01b815260040160006040518083038186803b158015610ad557600080fd5b505afa158015610ae9573d6000803e3d6000fd5b505050506040513d6000823e601f3d908101601f19168201604052610b119190810190612087565b610b1a8261130e565b610b96836001600160a01b03166305271a2a6040518163ffffffff1660e01b815260040160206040518083038186803b158015610b5657600080fd5b505afa158015610b6a573d6000803e3d6000fd5b505050506040513d601f19601f82011682018060405250810190610b8e9190612219565b60ff16610bc1565b604051602001610ba8939291906124d9565b60405160208183030381529060405291505090565b3390565b606081610be657506040805180820190915260018152600360fc1b6020820152610345565b8160005b8115610bfe57600101600a82049150610bea565b6000816001600160401b0381118015610c1657600080fd5b506040519080825280601f01601f191660200182016040528015610c41576020820181803683370190505b50859350905060001982015b8315610c9257600a840660300160f81b82828060019003935081518110610c7057fe5b60200101906001600160f81b031916908160001a905350600a84049350610c4d565b50949350505050565b6060610d1f836001600160a01b0316632495a5996040518163ffffffff1660e01b815260040160206040518083038186803b158015610cd957600080fd5b505afa158015610ced573d6000803e3d6000fd5b505050506040513d601f19601f82011682018060405250810190610d119190612033565b6001600160a01b031661143c565b610d5b846001600160a01b031663728c6d2a6040518163ffffffff1660e01b815260040160206040518083038186803b158015610cd957600080fd5b604051602001610d6c9291906128f9565b604051602081830303815290604052610d9183600001516001600160a01b031661143c565b610d9e8460200151610efc565b610db485604001516001600160401b0316610bc1565b610dca86606001516001600160401b0316610bc1565b610dd787608001516115b0565b610de48860a00151611819565b604051602001610df9969594939291906129b1565b60408051601f1981840301815290829052610e179291602001612313565b604051602081830303815290604052905092915050565b6000610e3930611a7c565b15905090565b600054610100900460ff1680610e585750610e58610e2e565b80610e66575060005460ff16155b610ea15760405162461bcd60e51b815260040180806020018281038252602e815260200180612deb602e913960400191505060405180910390fd5b600054610100900460ff16158015610ecc576000805460ff1961ff0019909116610100171660011790555b603380546001600160a01b0319166001600160a01b0384161790558015610693576000805461ff00191690555050565b606060ff821615610f8d578160ff16600114610f67578160ff16600214610f4257604051806040016040528060078152602001662ab735b737bbb760c91b815250610f62565b6040518060400160405280600681526020016514dd1859d95960d21b8152505b610f88565b604051806040016040528060078152602001664f6e6554696d6560c81b8152505b610fad565b604051806040016040528060068152602001652634b732b0b960d11b8152505b92915050565b60606000846001600160a01b0316636f307dc36040518163ffffffff1660e01b815260040160206040518083038186803b158015610ff057600080fd5b505afa158015611004573d6000803e3d6000fd5b505050506040513d601f19601f820116820180604052508101906110289190612033565b6001600160a01b03166395d89b416040518163ffffffff1660e01b815260040160006040518083038186803b15801561106057600080fd5b505afa158015611074573d6000803e3d6000fd5b505050506040513d6000823e601f3d908101601f1916820160405261109c9190810190612087565b90506110a6611a82565b6110af85610bc1565b826110b8611aa5565b6110c58760200151610efc565b6110db88606001516001600160401b0316611ac6565b6110e88960800151611acc565b6110fa8c6001600160a01b031661143c565b6111368d6001600160a01b0316632944561b6040518163ffffffff1660e01b815260040160206040518083038186803b158015610cd957600080fd5b6111728e6001600160a01b0316636f307dc36040518163ffffffff1660e01b815260040160206040518083038186803b158015610cd957600080fd5b60405160200161118796959493929190612747565b60408051601f19818403018152908290526111a895949392916020016125a1565b6040516020818303038152906040529150509392505050565b60608151600014156111e25750604080516020810190915260008152610345565b6000604051806060016040528060408152602001612e196040913990506000600384516002018161120f57fe5b0460040290506000816020016001600160401b038111801561123057600080fd5b506040519080825280601f01601f19166020018201604052801561125b576020820181803683370190505b509050818152600183018586518101602084015b818310156112c95760039283018051603f601282901c811687015160f890811b8552600c83901c8216880151811b6001860152600683901c8216880151811b60028601529116860151901b9382019390935260040161126f565b6003895106600181146112e357600281146112f457611300565b613d3d60f01b600119830152611300565b603d60f81b6000198301525b509398975050505050505050565b60606000826001600160a01b0316636f307dc36040518163ffffffff1660e01b815260040160206040518083038186803b15801561134b57600080fd5b505afa15801561135f573d6000803e3d6000fd5b505050506040513d601f19601f820116820180604052508101906113839190612033565b6001600160a01b03166395d89b416040518163ffffffff1660e01b815260040160006040518083038186803b1580156113bb57600080fd5b505afa1580156113cf573d6000803e3d6000fd5b505050506040513d6000823e601f3d908101601f191682016040526113f79190810190612087565b9050611401611a82565b8161140a611aa5565b611412611b28565b6040516020016114259493929190612682565b604051602081830303815290604052915050919050565b604080518082018252601081526f181899199a1a9b1b9c1cb0b131b232b360811b60208201528151602a80825260608281019094526001600160a01b0385169291600091602082018180368337019050509050600360fc1b816000815181106114a157fe5b60200101906001600160f81b031916908160001a905350600f60fb1b816001815181106114ca57fe5b60200101906001600160f81b031916908160001a90535060005b6014811015610c92578260048583600c01602081106114ff57fe5b1a60f81b6001600160f81b031916901c60f81c60ff168151811061151f57fe5b602001015160f81c60f81b82826002026002018151811061153c57fe5b60200101906001600160f81b031916908160001a905350828482600c016020811061156357fe5b825191901a600f1690811061157457fe5b602001015160f81c60f81b82826002026003018151811061159157fe5b60200101906001600160f81b031916908160001a9053506001016114e4565b60408051605b60f81b602082015281518082036001018152602190910190915260609060005b835181101561179d5760018451038114156116c757816116118583815181106115fb57fe5b60200260200101516001600160401b0316611b4b565b6040516020018083805190602001908083835b602083106116435780518252601f199092019160209182019101611624565b51815160209384036101000a600019018019909216911617905285519190930192850191508083835b6020831061168b5780518252601f19909201916020918201910161166c565b6001836020036101000a038019825116818451168082178552505050505050905001925050506040516020818303038152906040529150611795565b816116d78583815181106115fb57fe5b6040516020018083805190602001908083835b602083106117095780518252601f1990920191602091820191016116ea565b51815160209384036101000a600019018019909216911617905285519190930192850191508083835b602083106117515780518252601f199092019160209182019101611732565b6001836020036101000a03801982511681845116808217855250505050505090500180600b60fa1b8152506001019250505060405160208183030381529060405291505b6001016115d6565b50806040516020018082805190602001908083835b602083106117d15780518252601f1990920191602091820191016117b2565b6001836020036101000a03801982511681845116808217855250505050505090500180605d60f81b815250600101915050604051602081830303815290604052915050919050565b60408051605b60f81b602082015281518082036001018152602190910190915260609060005b835181101561179d57600061186e85838151811061185957fe5b602002602001015163ffffffff166002611c1c565b6040516020018080601160f91b81525060010182805190602001908083835b602083106118ac5780518252601f19909201916020918201910161188d565b6001836020036101000a0380198251168184511680821785525050505050509050018061129160f11b815250600201915050604051602081830303815290604052905060018551038214156119b35782816040516020018083805190602001908083835b6020831061192f5780518252601f199092019160209182019101611910565b51815160209384036101000a600019018019909216911617905285519190930192850191508083835b602083106119775780518252601f199092019160209182019101611958565b6001836020036101000a038019825116818451168082178552505050505050905001925050506040516020818303038152906040529250611a73565b82816040516020018083805190602001908083835b602083106119e75780518252601f1990920191602091820191016119c8565b51815160209384036101000a600019018019909216911617905285519190930192850191508083835b60208310611a2f5780518252601f199092019160209182019101611a10565b6001836020036101000a03801982511681845116808217855250505050505090500180600b60fa1b8152506001019250505060405160208183030381529060405292505b5060010161183f565b3b151590565b60606040518061018001604052806101458152602001612e596101459139905090565b606060405180610100016040528060c58152602001612d2660c59139905090565b50606090565b60606000805b8351811015611b0957838181518110611ae757fe5b60200260200101516001600160401b0316820191508080600101915050611ad2565b50611b18620151808204610bc1565b60405160200161142591906123a4565b6060604051806101a0016040528061016d8152602001612bb961016d9139905090565b606081611b7057506040805180820190915260018152600360fc1b6020820152610345565b8160005b8115611b8857600101600a82049150611b74565b6000816001600160401b0381118015611ba057600080fd5b506040519080825280601f01601f191660200182016040528015611bcb576020820181803683370190505b50859350905060001982015b8315610c9257600a840660300160f81b82828060019003935081518110611bfa57fe5b60200101906001600160f81b031916908160001a905350600a84049350611bd7565b606060ff8216600a0a6000611c39611c348684611e29565b611b4b565b90506000611c4a611c348785611e8d565b90506000815190506000836040516020018082805190602001908083835b60208310611c875780518252601f199092019160209182019101611c68565b6001836020036101000a03801982511681845116808217855250505050505090500180601760f91b81525060010191505060405160208183030381529060405290508660ff16821015611d6b5760005b828860ff16038160ff161015611d6957816040516020018082805190602001908083835b60208310611d1a5780518252601f199092019160209182019101611cfb565b6001836020036101000a03801982511681845116808217855250505050505090500180600360fc1b81525060010191505060405160208183030381529060405291508080600101915050611cd7565b505b80836040516020018083805190602001908083835b60208310611d9f5780518252601f199092019160209182019101611d80565b51815160209384036101000a600019018019909216911617905285519190930192850191508083835b60208310611de75780518252601f199092019160209182019101611dc8565b6001836020036101000a038019825116818451168082178552505050505050905001925050506040516020818303038152906040529550505050505092915050565b6000808211611e7c576040805162461bcd60e51b815260206004820152601a602482015279536166654d6174683a206469766973696f6e206279207a65726f60301b604482015290519081900360640190fd5b818381611e8557fe5b049392505050565b6000808211611ede576040805162461bcd60e51b8152602060048201526018602482015277536166654d6174683a206d6f64756c6f206279207a65726f60401b604482015290519081900360640190fd5b818381611ee757fe5b069392505050565b805161034581612ba0565b600082601f830112611f0a578081fd5b81516020611f1f611f1a83612b53565b612b30565b8281528181019085830183850287018401881015611f3b578586fd5b855b85811015611f6a57815163ffffffff81168114611f58578788fd5b84529284019290840190600101611f3d565b5090979650505050505050565b600082601f830112611f87578081fd5b81516020611f97611f1a83612b53565b8281528181019085830183850287018401881015611fb3578586fd5b855b85811015611f6a57611fc682611fe8565b84529284019290840190600101611fb5565b8051801515811461034557600080fd5b80516001600160401b038116811461034557600080fd5b805160ff8116811461034557600080fd5b600060208284031215612021578081fd5b813561202c81612ba0565b9392505050565b600060208284031215612044578081fd5b815161202c81612ba0565b60008060408385031215612061578081fd5b823561206c81612ba0565b9150602083013561207c81612ba0565b809150509250929050565b600060208284031215612098578081fd5b81516001600160401b03808211156120ae578283fd5b818401915084601f8301126120c1578283fd5b8151818111156120cd57fe5b6120e0601f8201601f1916602001612b30565b91508082528560208285010111156120f6578384fd5b610c92816020840160208601612b70565b600060208284031215612118578081fd5b81516001600160401b038082111561212e578283fd5b9083019060e08286031215612141578283fd5b61214b60e0612b30565b61215483611eef565b815261216260208401611fff565b602082015261217360408401611fe8565b604082015261218460608401611fe8565b606082015260808301518281111561219a578485fd5b6121a687828601611f77565b60808301525060a0830151828111156121bd578485fd5b6121c987828601611efa565b60a0830152506121db60c08401611fd8565b60c082015295945050505050565b6000602082840312156121fa578081fd5b5035919050565b600060208284031215612212578081fd5b5051919050565b60006020828403121561222a578081fd5b61202c82611fff565b60008151612245818560208601612b70565b9290920192915050565b6911161139b637ba111d1160b11b8152600a0190565b607d60f81b815260010190565b612e3760f11b815260020190565b75016902ab73232b9363cb4b7339020b2323932b9b99d160551b815260160190565b6e16113832b931b2b73a30b3b2b9911d60891b8152600f0190565b6f016902837b7b61020b2323932b9b99d160851b815260100190565b72016902b37bab1b432b91020b2323932b9b99d1606d1b815260130190565b6e111611383937b832b93a34b2b9911d60891b8152600f0190565b60008351612325818460208801612b70565b835190830190612339818360208801612b70565b01949350505050565b60008451612354818460208901612b70565b61202360f01b9083019081528451612373816002840160208901612b70565b6201016960ed1b600292909101918201528351612397816005840160208801612b70565b0160050195945050505050565b600082516123b6818460208701612b70565b64206461797360d81b920191825250600501919050565b683d913730b6b2911d1160b91b815286516000906123f2816009850160208c01612b70565b701116113232b9b1b934b83a34b7b7111d1160791b600991840191820152875161242381601a840160208c01612b70565b7f222c22696d616765223a22646174613a696d6167652f7376672b786d6c3b6261601a9290910191820152641cd94d8d0b60da1b603a820152865161246f81603f840160208b01612b70565b6a1116113ab734ba39911d1160a91b603f9290910191820152855161249b81604a840160208a01612b70565b6124cb6124c66124c06124bb6124b5604a8688010161224f565b8a612233565b6122f8565b87612233565b612265565b9a9950505050505050505050565b60007f646174613a6170706c69636174696f6e2f6a736f6e3b7b226e616d65223a22008252845161251181601f850160208901612b70565b701116113232b9b1b934b83a34b7b7111d1160791b601f918401918201528451612542816030840160208901612b70565b711116113ab734ba2232b1b4b6b0b639911d1160711b603092909101918201528351612575816042840160208801612b70565b71222c2270726f70657274696573223a7b7d7d60701b6042929091019182015260540195945050505050565b660714d5077dc47960cd1b815285516000906125c4816007850160208b01612b70565b8083019050632e372e3760e11b8060078301527f466c657869626c6520446174652056657374696e6720566f7563686572202300600b830152875161261081602a850160208c01612b70565b6301037b3160e51b602a9390910192830152865161263581602e850160208b01612b70565b61017160f51b602e93909101928301528551612658816030850160208a01612b70565b60309201918201528351612673816034840160208801612b70565b01603401979650505050505050565b660714d5077dc47960cd1b815284516000906126a5816007850160208a01612b70565b8083019050632e372e3760e11b8060078301527f466c657869626c6520446174652056657374696e6720566f7563686572206f66600b830152600160fd1b602b83015286516126fb81602c850160208b01612b70565b61017160f51b602c9390910192830152855161271e81602e850160208a01612b70565b602e9201918201528351612739816032840160208801612b70565b016032019695505050505050565b60006d0169021b630b4b6902a3cb8329d160951b8252875161277081600e850160208c01612b70565b8083019050612e3760f11b80600e83015274016902630ba32b9ba1029ba30b93a102a34b6b29d1605d1b601083015288516127b2816025850160208d01612b70565b6025920191820181905267016902a32b9369d160c51b602783015287516127e081602f850160208c01612b70565b602f92019182015261282861282261281d61280d61281761281282612807603189016122d9565b8d612233565b612272565b6122bd565b89612233565b612280565b85612233565b9998505050505050505050565b60007f646174613a6170706c69636174696f6e2f6a736f6e3b7b22756e697473496e538252653637ba111d1160d11b6020830152845161287c816026850160208901612b70565b711116113a37b5b2b739a4b729b637ba111d1160711b60269184019182015284516128ae816038840160208901612b70565b6e111611383937b832b93a34b2b9911d60891b6038929091019182015283516128de816047840160208801612b70565b607d60f81b6047929091019182015260480195945050505050565b733d913ab73232b9363cb4b733aa37b5b2b7111d1160611b81528251600090612929816014850160208801612b70565b761116113ab73232b9363cb4b733ab32b9ba34b733911d1160491b601491840191820152835161296081602b840160208801612b70565b01602b01949350505050565b60007f646174613a6170706c69636174696f6e2f6a736f6e3b6261736536342c000000825282516129a481601d850160208701612b70565b91909101601d0192915050565b6b11161134b9b9bab2b9111d1160a11b815286516000906129d981600c850160208c01612b70565b6e11161131b630b4b6aa3cb832911d1160891b600c918401918201528751612a0881601b840160208c01612b70565b6e11161139ba30b93a2a34b6b2911d1160891b601b92909101918201528651612a3881602a840160208b01612b70565b741116113630ba32b9ba29ba30b93a2a34b6b2911d1160591b602a92909101918201528551612a6e81603f840160208a01612b70565b691116113a32b936b9911d60b11b603f92909101918201528451612a99816049840160208901612b70565b6124cb6124c66124c06049848601016122a2565b6001600160a01b0391909116815260200190565b6001600160a01b03929092168252602082015260400190565b6001600160a01b0392831681529116602082015260400190565b6000602082528251806020840152612b13816040850160208701612b70565b601f01601f19169190910160400192915050565b90815260200190565b6040518181016001600160401b0381118282101715612b4b57fe5b604052919050565b60006001600160401b03821115612b6657fe5b5060209081020190565b60005b83811015612b8b578181015183820152602001612b73565b83811115612b9a576000848401525b50505050565b6001600160a01b0381168114612bb557600080fd5b5056fe536f6c762050726f746f636f6c2069732074686520646563656e7472616c697a656420706c6174666f726d20666f72206372656174696e672c206d616e6167696e6720616e642074726164696e672046696e616e6369616c204e4654732e204173206974732066697273742046696e616e6369616c204e46542070726f647563742c2056657374696e6720566f75636865727320617265206672616374696f6e616c697a6564204e46547320726570726573656e74696e67206c6f636b2d75702076657374696e6720746f6b656e732c20746875732072656c656173696e67207468656972206c697175696469747920616e6420656e61626c696e672066696e616e6369616c207363656e6172696f7320737563682061732066756e6472616973696e672c20636f6d6d756e697479206275696c64696e672c20616e6420746f6b656e206c6971756964697479206d616e6167656d656e7420666f722063727970746f2070726f6a656374732e412056657374696e6720566f7563686572207769746820666c657869626c652064617465206973207573656420746f20726570726573656e7420612076657374696e6720706c616e207769746820616e20756e64657465726d696e656420737461727420646174652e204f6e636520746865206461746520697320736574746c65642c20796f752077696c6c206765742061207374616e646172642056657374696e6720566f75636865722061732074686520566f7563686572206465736372696265642e496e697469616c697a61626c653a20636f6e747261637420697320616c726561647920696e697469616c697a65644142434445464748494a4b4c4d4e4f505152535455565758595a6162636465666768696a6b6c6d6e6f707172737475767778797a303132333435363738392b2f2a2a416c6572742a2a3a2054686520616d6f756e74206f6620746f6b656e7320696e207468697320566f7563686572204e4654206d61792068617665206265656e206f7574206f6620646174652064756520746f206365727461696e206d656368616e69736d73206f662074686972642d7061727479206d61726b6574706c616365732c2074687573206c656164696e6720796f7520746f206d69732d707269636564204e4654206f6e207468697320706167652e20506c65617365206265207375726520796f752772652076696577696e67206f6e207468697320566f7563686572206f6e205b536f6c762050726f746f636f6c20644170705d2868747470733a2f2f6170702e736f6c762e66696e616e63652920666f722064657461696c73207768656e20796f75206d616b65206f66666572206f722070757263686173652069742ea26469706673582212206faed51ec0f3d98b903833d56b20338113016dc22e8ef489615ce68fd1b5835764736f6c63430007060033"
}