{
  "address": "0x0d6618291666a067812b94A38098599a16893a46",
  "abi": [
    {
      "inputs": [],
      "stateMutability": "nonpayable",
      "type": "constructor"
    },
    {
      "anonymous": false,
      "inputs": [
        {
          "indexed": true,
          "internalType": "address",
          "name": "icToken",
          "type": "address"
        },
        {
          "indexed": false,
          "internalType": "uint64",
          "name": "precision",
          "type": "uint64"
        },
        {
          "indexed": false,
          "internalType": "uint8",
          "name": "feePayType",
          "type": "uint8"
        },
        {
          "indexed": false,
          "internalType": "uint8",
          "name": "feeType",
          "type": "uint8"
        },
        {
          "indexed": false,
          "internalType": "uint128",
          "name": "feeAmount",
          "type": "uint128"
        },
        {
          "indexed": false,
          "internalType": "uint16",
          "name": "feeRate",
          "type": "uint16"
        }
      ],
      "name": "AddMarket",
      "type": "event"
    },
    {
      "anonymous": false,
      "inputs": [
        {
          "indexed": true,
          "internalType": "address",
          "name": "icToken",
          "type": "address"
        },
        {
          "indexed": true,
          "internalType": "uint24",
          "name": "saleId",
          "type": "uint24"
        },
        {
          "indexed": true,
          "internalType": "uint24",
          "name": "tokenId",
          "type": "uint24"
        },
        {
          "indexed": false,
          "internalType": "uint128",
          "name": "highest",
          "type": "uint128"
        },
        {
          "indexed": false,
          "internalType": "uint128",
          "name": "lowest",
          "type": "uint128"
        },
        {
          "indexed": false,
          "internalType": "uint32",
          "name": "duration",
          "type": "uint32"
        },
        {
          "indexed": false,
          "internalType": "uint32",
          "name": "interval",
          "type": "uint32"
        }
      ],
      "name": "DecliningPriceSet",
      "type": "event"
    },
    {
      "anonymous": false,
      "inputs": [
        {
          "indexed": true,
          "internalType": "address",
          "name": "icToken",
          "type": "address"
        },
        {
          "indexed": true,
          "internalType": "uint24",
          "name": "saleId",
          "type": "uint24"
        },
        {
          "indexed": true,
          "internalType": "uint24",
          "name": "tokenId",
          "type": "uint24"
        },
        {
          "indexed": false,
          "internalType": "uint8",
          "name": "priceType",
          "type": "uint8"
        },
        {
          "indexed": false,
          "internalType": "uint128",
          "name": "lastPrice",
          "type": "uint128"
        }
      ],
      "name": "FixedPriceSet",
      "type": "event"
    },
    {
      "anonymous": false,
      "inputs": [
        {
          "indexed": false,
          "internalType": "address",
          "name": "oldAdmin",
          "type": "address"
        },
        {
          "indexed": false,
          "internalType": "address",
          "name": "newAdmin",
          "type": "address"
        }
      ],
      "name": "NewAdmin",
      "type": "event"
    },
    {
      "anonymous": false,
      "inputs": [
        {
          "indexed": false,
          "internalType": "address",
          "name": "oldPendingAdmin",
          "type": "address"
        },
        {
          "indexed": false,
          "internalType": "address",
          "name": "newPendingAdmin",
          "type": "address"
        }
      ],
      "name": "NewPendingAdmin",
      "type": "event"
    },
    {
      "anonymous": false,
      "inputs": [
        {
          "indexed": false,
          "internalType": "contract ISolver",
          "name": "oldSolver",
          "type": "address"
        },
        {
          "indexed": false,
          "internalType": "contract ISolver",
          "name": "newSolver",
          "type": "address"
        }
      ],
      "name": "NewSolver",
      "type": "event"
    },
    {
      "anonymous": false,
      "inputs": [
        {
          "indexed": true,
          "internalType": "address",
          "name": "icToken",
          "type": "address"
        },
        {
          "indexed": true,
          "internalType": "address",
          "name": "seller",
          "type": "address"
        },
        {
          "indexed": true,
          "internalType": "uint24",
          "name": "tokenId",
          "type": "uint24"
        },
        {
          "indexed": false,
          "internalType": "uint24",
          "name": "saleId",
          "type": "uint24"
        },
        {
          "indexed": false,
          "internalType": "uint8",
          "name": "priceType",
          "type": "uint8"
        },
        {
          "indexed": false,
          "internalType": "uint128",
          "name": "units",
          "type": "uint128"
        },
        {
          "indexed": false,
          "internalType": "uint128",
          "name": "startTime",
          "type": "uint128"
        },
        {
          "indexed": false,
          "internalType": "address",
          "name": "currency",
          "type": "address"
        },
        {
          "indexed": false,
          "internalType": "uint128",
          "name": "min",
          "type": "uint128"
        },
        {
          "indexed": false,
          "internalType": "uint128",
          "name": "max",
          "type": "uint128"
        },
        {
          "indexed": false,
          "internalType": "bool",
          "name": "useAllowList",
          "type": "bool"
        }
      ],
      "name": "Publish",
      "type": "event"
    },
    {
      "anonymous": false,
      "inputs": [
        {
          "indexed": true,
          "internalType": "address",
          "name": "icToken",
          "type": "address"
        },
        {
          "indexed": true,
          "internalType": "address",
          "name": "seller",
          "type": "address"
        },
        {
          "indexed": true,
          "internalType": "uint24",
          "name": "saleId",
          "type": "uint24"
        },
        {
          "indexed": false,
          "internalType": "uint128",
          "name": "total",
          "type": "uint128"
        },
        {
          "indexed": false,
          "internalType": "uint128",
          "name": "saled",
          "type": "uint128"
        }
      ],
      "name": "Remove",
      "type": "event"
    },
    {
      "anonymous": false,
      "inputs": [
        {
          "indexed": true,
          "internalType": "address",
          "name": "icToken",
          "type": "address"
        }
      ],
      "name": "RemoveMarket",
      "type": "event"
    },
    {
      "anonymous": false,
      "inputs": [
        {
          "indexed": true,
          "internalType": "address",
          "name": "currency",
          "type": "address"
        },
        {
          "indexed": false,
          "internalType": "bool",
          "name": "enable",
          "type": "bool"
        }
      ],
      "name": "SetCurrency",
      "type": "event"
    },
    {
      "anonymous": false,
      "inputs": [
        {
          "indexed": true,
          "internalType": "address",
          "name": "buyer",
          "type": "address"
        },
        {
          "indexed": true,
          "internalType": "uint24",
          "name": "saleId",
          "type": "uint24"
        },
        {
          "indexed": true,
          "internalType": "address",
          "name": "icToken",
          "type": "address"
        },
        {
          "indexed": false,
          "internalType": "uint24",
          "name": "tokenId",
          "type": "uint24"
        },
        {
          "indexed": false,
          "internalType": "uint24",
          "name": "tradeId",
          "type": "uint24"
        },
        {
          "indexed": false,
          "internalType": "uint32",
          "name": "tradeTime",
          "type": "uint32"
        },
        {
          "indexed": false,
          "internalType": "address",
          "name": "currency",
          "type": "address"
        },
        {
          "indexed": false,
          "internalType": "uint8",
          "name": "priceType",
          "type": "uint8"
        },
        {
          "indexed": false,
          "internalType": "uint128",
          "name": "price",
          "type": "uint128"
        },
        {
          "indexed": false,
          "internalType": "uint128",
          "name": "tradedUnits",
          "type": "uint128"
        },
        {
          "indexed": false,
          "internalType": "uint256",
          "name": "tradedAmount",
          "type": "uint256"
        },
        {
          "indexed": false,
          "internalType": "uint8",
          "name": "feePayType",
          "type": "uint8"
        },
        {
          "indexed": false,
          "internalType": "uint128",
          "name": "fee",
          "type": "uint128"
        }
      ],
      "name": "Traded",
      "type": "event"
    },
    {
      "anonymous": false,
      "inputs": [
        {
          "indexed": false,
          "internalType": "address",
          "name": "icToken",
          "type": "address"
        },
        {
          "indexed": false,
          "internalType": "uint256",
          "name": "reduceAmount",
          "type": "uint256"
        }
      ],
      "name": "WithdrawFee",
      "type": "event"
    },
    {
      "inputs": [],
      "name": "_acceptAdmin",
      "outputs": [],
      "stateMutability": "nonpayable",
      "type": "function"
    },
    {
      "inputs": [
        {
          "internalType": "address",
          "name": "icToken_",
          "type": "address"
        },
        {
          "internalType": "address[]",
          "name": "addresses_",
          "type": "address[]"
        },
        {
          "internalType": "bool",
          "name": "resetExisting_",
          "type": "bool"
        }
      ],
      "name": "_addAllowAddress",
      "outputs": [],
      "stateMutability": "nonpayable",
      "type": "function"
    },
    {
      "inputs": [
        {
          "internalType": "address",
          "name": "icToken_",
          "type": "address"
        },
        {
          "internalType": "uint64",
          "name": "precision_",
          "type": "uint64"
        },
        {
          "internalType": "uint8",
          "name": "feePayType_",
          "type": "uint8"
        },
        {
          "internalType": "uint8",
          "name": "feeType_",
          "type": "uint8"
        },
        {
          "internalType": "uint128",
          "name": "feeAmount_",
          "type": "uint128"
        },
        {
          "internalType": "uint16",
          "name": "feeRate_",
          "type": "uint16"
        }
      ],
      "name": "_addMarket",
      "outputs": [],
      "stateMutability": "nonpayable",
      "type": "function"
    },
    {
      "inputs": [],
      "name": "_admin",
      "outputs": [
        {
          "internalType": "address payable",
          "name": "",
          "type": "address"
        }
      ],
      "stateMutability": "view",
      "type": "function"
    },
    {
      "inputs": [
        {
          "internalType": "address",
          "name": "icToken_",
          "type": "address"
        },
        {
          "internalType": "address[]",
          "name": "addresses_",
          "type": "address[]"
        }
      ],
      "name": "_removeAllowAddress",
      "outputs": [],
      "stateMutability": "nonpayable",
      "type": "function"
    },
    {
      "inputs": [
        {
          "internalType": "address",
          "name": "icToken_",
          "type": "address"
        }
      ],
      "name": "_removeMarket",
      "outputs": [],
      "stateMutability": "nonpayable",
      "type": "function"
    },
    {
      "inputs": [
        {
          "internalType": "address",
          "name": "currency_",
          "type": "address"
        },
        {
          "internalType": "bool",
          "name": "enable_",
          "type": "bool"
        }
      ],
      "name": "_setCurrency",
      "outputs": [],
      "stateMutability": "nonpayable",
      "type": "function"
    },
    {
      "inputs": [
        {
          "internalType": "address payable",
          "name": "newPendingAdmin",
          "type": "address"
        }
      ],
      "name": "_setPendingAdmin",
      "outputs": [],
      "stateMutability": "nonpayable",
      "type": "function"
    },
    {
      "inputs": [
        {
          "internalType": "uint16",
          "name": "newRepoFeeRate_",
          "type": "uint16"
        }
      ],
      "name": "_setRepoFeeRate",
      "outputs": [],
      "stateMutability": "nonpayable",
      "type": "function"
    },
    {
      "inputs": [
        {
          "internalType": "contract ISolver",
          "name": "newSolver_",
          "type": "address"
        }
      ],
      "name": "_setSolver",
      "outputs": [],
      "stateMutability": "nonpayable",
      "type": "function"
    },
    {
      "inputs": [
        {
          "internalType": "address",
          "name": "icToken_",
          "type": "address"
        },
        {
          "internalType": "uint256",
          "name": "reduceAmount_",
          "type": "uint256"
        }
      ],
      "name": "_withdrawFee",
      "outputs": [],
      "stateMutability": "nonpayable",
      "type": "function"
    },
    {
      "inputs": [
        {
          "internalType": "address",
          "name": "icToken_",
          "type": "address"
        },
        {
          "internalType": "uint256",
          "name": "index_",
          "type": "uint256"
        }
      ],
      "name": "allowAddressManager",
      "outputs": [
        {
          "internalType": "address",
          "name": "",
          "type": "address"
        }
      ],
      "stateMutability": "view",
      "type": "function"
    },
    {
      "inputs": [
        {
          "internalType": "uint24",
          "name": "saleId_",
          "type": "uint24"
        },
        {
          "internalType": "uint256",
          "name": "amount_",
          "type": "uint256"
        }
      ],
      "name": "buyByAmount",
      "outputs": [
        {
          "internalType": "uint128",
          "name": "units_",
          "type": "uint128"
        }
      ],
      "stateMutability": "payable",
      "type": "function"
    },
    {
      "inputs": [
        {
          "internalType": "uint24",
          "name": "saleId_",
          "type": "uint24"
        },
        {
          "internalType": "uint128",
          "name": "units_",
          "type": "uint128"
        }
      ],
      "name": "buyByUnits",
      "outputs": [
        {
          "internalType": "uint256",
          "name": "amount_",
          "type": "uint256"
        },
        {
          "internalType": "uint128",
          "name": "fee_",
          "type": "uint128"
        }
      ],
      "stateMutability": "payable",
      "type": "function"
    },
    {
      "inputs": [
        {
          "internalType": "address",
          "name": "",
          "type": "address"
        }
      ],
      "name": "currencies",
      "outputs": [
        {
          "internalType": "bool",
          "name": "",
          "type": "bool"
        }
      ],
      "stateMutability": "view",
      "type": "function"
    },
    {
      "inputs": [
        {
          "internalType": "uint24",
          "name": "saleId_",
          "type": "uint24"
        }
      ],
      "name": "getPrice",
      "outputs": [
        {
          "internalType": "uint128",
          "name": "",
          "type": "uint128"
        }
      ],
      "stateMutability": "view",
      "type": "function"
    },
    {
      "inputs": [
        {
          "internalType": "contract ISolver",
          "name": "solver_",
          "type": "address"
        }
      ],
      "name": "initialize",
      "outputs": [],
      "stateMutability": "nonpayable",
      "type": "function"
    },
    {
      "inputs": [],
      "name": "initialized",
      "outputs": [
        {
          "internalType": "bool",
          "name": "",
          "type": "bool"
        }
      ],
      "stateMutability": "view",
      "type": "function"
    },
    {
      "inputs": [
        {
          "internalType": "address",
          "name": "icToken_",
          "type": "address"
        },
        {
          "internalType": "address",
          "name": "buyer_",
          "type": "address"
        }
      ],
      "name": "isBuyerAllowed",
      "outputs": [
        {
          "internalType": "bool",
          "name": "",
          "type": "bool"
        }
      ],
      "stateMutability": "view",
      "type": "function"
    },
    {
      "inputs": [
        {
          "internalType": "address",
          "name": "",
          "type": "address"
        }
      ],
      "name": "markets",
      "outputs": [
        {
          "internalType": "bool",
          "name": "isValid",
          "type": "bool"
        },
        {
          "internalType": "uint64",
          "name": "precision",
          "type": "uint64"
        },
        {
          "internalType": "enum SolvICMarket.FeeType",
          "name": "feeType",
          "type": "uint8"
        },
        {
          "internalType": "enum SolvICMarket.FeePayType",
          "name": "feePayType",
          "type": "uint8"
        },
        {
          "internalType": "uint128",
          "name": "feeAmount",
          "type": "uint128"
        },
        {
          "internalType": "uint16",
          "name": "feeRate",
          "type": "uint16"
        }
      ],
      "stateMutability": "view",
      "type": "function"
    },
    {
      "inputs": [],
      "name": "nextSaleId",
      "outputs": [
        {
          "internalType": "uint24",
          "name": "",
          "type": "uint24"
        }
      ],
      "stateMutability": "view",
      "type": "function"
    },
    {
      "inputs": [],
      "name": "nextTradeId",
      "outputs": [
        {
          "internalType": "uint24",
          "name": "",
          "type": "uint24"
        }
      ],
      "stateMutability": "view",
      "type": "function"
    },
    {
      "inputs": [],
      "name": "pendingAdmin",
      "outputs": [
        {
          "internalType": "address payable",
          "name": "",
          "type": "address"
        }
      ],
      "stateMutability": "view",
      "type": "function"
    },
    {
      "inputs": [
        {
          "internalType": "address",
          "name": "icToken_",
          "type": "address"
        },
        {
          "internalType": "uint24",
          "name": "tokenId_",
          "type": "uint24"
        },
        {
          "internalType": "address",
          "name": "currency_",
          "type": "address"
        },
        {
          "internalType": "uint128",
          "name": "min_",
          "type": "uint128"
        },
        {
          "internalType": "uint128",
          "name": "max_",
          "type": "uint128"
        },
        {
          "internalType": "uint32",
          "name": "startTime_",
          "type": "uint32"
        },
        {
          "internalType": "bool",
          "name": "useAllowList_",
          "type": "bool"
        },
        {
          "internalType": "uint128",
          "name": "highest_",
          "type": "uint128"
        },
        {
          "internalType": "uint128",
          "name": "lowest_",
          "type": "uint128"
        },
        {
          "internalType": "uint32",
          "name": "duration_",
          "type": "uint32"
        },
        {
          "internalType": "uint32",
          "name": "interval_",
          "type": "uint32"
        }
      ],
      "name": "publishDecliningPrice",
      "outputs": [
        {
          "internalType": "uint24",
          "name": "saleId",
          "type": "uint24"
        }
      ],
      "stateMutability": "nonpayable",
      "type": "function"
    },
    {
      "inputs": [
        {
          "internalType": "address",
          "name": "icToken_",
          "type": "address"
        },
        {
          "internalType": "uint24",
          "name": "tokenId_",
          "type": "uint24"
        },
        {
          "internalType": "address",
          "name": "currency_",
          "type": "address"
        },
        {
          "internalType": "uint128",
          "name": "min_",
          "type": "uint128"
        },
        {
          "internalType": "uint128",
          "name": "max_",
          "type": "uint128"
        },
        {
          "internalType": "uint32",
          "name": "startTime_",
          "type": "uint32"
        },
        {
          "internalType": "bool",
          "name": "useAllowList_",
          "type": "bool"
        },
        {
          "internalType": "uint128",
          "name": "price_",
          "type": "uint128"
        }
      ],
      "name": "publishFixedPrice",
      "outputs": [
        {
          "internalType": "uint24",
          "name": "saleId",
          "type": "uint24"
        }
      ],
      "stateMutability": "nonpayable",
      "type": "function"
    },
    {
      "inputs": [
        {
          "internalType": "uint24",
          "name": "saleId_",
          "type": "uint24"
        },
        {
          "internalType": "address",
          "name": "buyer_",
          "type": "address"
        }
      ],
      "name": "purchasedUnits",
      "outputs": [
        {
          "internalType": "uint128",
          "name": "",
          "type": "uint128"
        }
      ],
      "stateMutability": "view",
      "type": "function"
    },
    {
      "inputs": [
        {
          "internalType": "uint24",
          "name": "saleId_",
          "type": "uint24"
        }
      ],
      "name": "remove",
      "outputs": [],
      "stateMutability": "nonpayable",
      "type": "function"
    },
    {
      "inputs": [],
      "name": "repoFeeRate",
      "outputs": [
        {
          "internalType": "uint16",
          "name": "",
          "type": "uint16"
        }
      ],
      "stateMutability": "view",
      "type": "function"
    },
    {
      "inputs": [
        {
          "internalType": "address",
          "name": "icToken_",
          "type": "address"
        },
        {
          "internalType": "uint256",
          "name": "index_",
          "type": "uint256"
        }
      ],
      "name": "saleIdOfICTokenByIndex",
      "outputs": [
        {
          "internalType": "uint256",
          "name": "",
          "type": "uint256"
        }
      ],
      "stateMutability": "view",
      "type": "function"
    },
    {
      "inputs": [
        {
          "internalType": "uint24",
          "name": "",
          "type": "uint24"
        }
      ],
      "name": "sales",
      "outputs": [
        {
          "internalType": "uint24",
          "name": "saleId",
          "type": "uint24"
        },
        {
          "internalType": "uint24",
          "name": "tokenId",
          "type": "uint24"
        },
        {
          "internalType": "uint32",
          "name": "startTime",
          "type": "uint32"
        },
        {
          "internalType": "address",
          "name": "seller",
          "type": "address"
        },
        {
          "internalType": "enum PriceManager.PriceType",
          "name": "priceType",
          "type": "uint8"
        },
        {
          "internalType": "uint128",
          "name": "total",
          "type": "uint128"
        },
        {
          "internalType": "uint128",
          "name": "units",
          "type": "uint128"
        },
        {
          "internalType": "uint128",
          "name": "min",
          "type": "uint128"
        },
        {
          "internalType": "uint128",
          "name": "max",
          "type": "uint128"
        },
        {
          "internalType": "address",
          "name": "icToken",
          "type": "address"
        },
        {
          "internalType": "address",
          "name": "currency",
          "type": "address"
        },
        {
          "internalType": "bool",
          "name": "useAllowList",
          "type": "bool"
        },
        {
          "internalType": "bool",
          "name": "isValid",
          "type": "bool"
        }
      ],
      "stateMutability": "view",
      "type": "function"
    },
    {
      "inputs": [
        {
          "internalType": "address",
          "name": "icToken_",
          "type": "address"
        },
        {
          "internalType": "address[]",
          "name": "managers_",
          "type": "address[]"
        },
        {
          "internalType": "bool",
          "name": "resetExisting_",
          "type": "bool"
        }
      ],
      "name": "setAllowAddressManager",
      "outputs": [],
      "stateMutability": "nonpayable",
      "type": "function"
    },
    {
      "inputs": [],
      "name": "solver",
      "outputs": [
        {
          "internalType": "contract ISolver",
          "name": "",
          "type": "address"
        }
      ],
      "stateMutability": "view",
      "type": "function"
    },
    {
      "inputs": [
        {
          "internalType": "address",
          "name": "icToken_",
          "type": "address"
        }
      ],
      "name": "totalSalesOfICToken",
      "outputs": [
        {
          "internalType": "uint256",
          "name": "",
          "type": "uint256"
        }
      ],
      "stateMutability": "view",
      "type": "function"
    }
  ],
  "transactionHash": "0x83a8278d6d911837bc38b4ab16e2de94a63b54baee38ca64d6267cc1d5f1f033",
  "args": [],
  "numDeployments": 1,
  "solcInputHash": "80276a81b8b4720d4ae57b6eaca36435",
  "bytecode": "0x608060405234801561001057600080fd5b5061515f806100206000396000f3fe6080604052600436106101fe5760003560e01c8063813ad0831161011d578063b71d1a0c116100b0578063c95045ab1161007f578063e728fd6a11610064578063e728fd6a14610a3b578063e9c714f214610ad4578063fe2302b214610ae9576101fe565b8063c95045ab146109f8578063deb077b914610a26576101fe565b8063b71d1a0c14610937578063c03268dc1461096a578063c4d66de814610996578063c569a8f2146109c9576101fe565b80639bb3db71116100ec5780639bb3db7114610844578063a29281fe14610896578063a55cfb4f146108c9578063b5c2f93d14610904576101fe565b8063813ad0831461071d5780638a31905f146107325780638c5eec8d146107705780638e8f294b146107a9576101fe565b806339a07cdf1161019557806349a7a26d1161016457806349a7a26d146105d35780636036cba3146105e8578063679a0be71461061b578063782f5cb314610643576101fe565b806339a07cdf14610431578063423dd0dd1461046a57806345d52fdf146104b557806347931e5a14610544576101fe565b80631d442233116101d15780631d442233146102db5780632023c9361461031657806326782247146103885780632db4808e1461039d576101fe565b806301bc45c9146102035780630f9bfa6b14610234578063158ef93e1461026d578063172fd48514610296575b600080fd5b34801561020f57600080fd5b50610218610b76565b604080516001600160a01b039092168252519081900360200190f35b34801561024057600080fd5b506102186004803603604081101561025757600080fd5b506001600160a01b038135169060200135610b85565b34801561027957600080fd5b50610282610bb0565b604080519115158252519081900360200190f35b3480156102a257600080fd5b506102c9600480360360208110156102b957600080fd5b50356001600160a01b0316610bc0565b60408051918252519081900360200190f35b3480156102e757600080fd5b50610282600480360360408110156102fe57600080fd5b506001600160a01b0381358116916020013516610be9565b34801561032257600080fd5b50610386600480360360c081101561033957600080fd5b5080356001600160a01b031690602081013567ffffffffffffffff1690604081013560ff9081169160608101359091169060808101356001600160801b03169060a0013561ffff16610c0b565b005b34801561039457600080fd5b50610218610e29565b3480156103a957600080fd5b5061041960048036036101008110156103c157600080fd5b506001600160a01b03813581169162ffffff60208201351691604082013516906001600160801b036060820135811691608081013582169163ffffffff60a0830135169160c081013515159160e09091013516610e38565b6040805162ffffff9092168252519081900360200190f35b34801561043d57600080fd5b506102c96004803603604081101561045457600080fd5b506001600160a01b038135169060200135610ffd565b34801561047657600080fd5b506104996004803603602081101561048d57600080fd5b503562ffffff1661101f565b604080516001600160801b039092168252519081900360200190f35b3480156104c157600080fd5b50610386600480360360608110156104d857600080fd5b6001600160a01b03823516919081019060408101602082013564010000000081111561050357600080fd5b82018360208201111561051557600080fd5b8035906020019184602083028401116401000000008311171561053757600080fd5b9193509150351515611048565b34801561055057600080fd5b506103866004803603606081101561056757600080fd5b6001600160a01b03823516919081019060408101602082013564010000000081111561059257600080fd5b8201836020820111156105a457600080fd5b803590602001918460208302840111640100000000831117156105c657600080fd5b91935091503515156111b6565b3480156105df57600080fd5b506102186112d1565b3480156105f457600080fd5b506102826004803603602081101561060b57600080fd5b50356001600160a01b03166112e0565b6104996004803603604081101561063157600080fd5b5062ffffff81351690602001356112f5565b34801561064f57600080fd5b506106726004803603602081101561066657600080fd5b503562ffffff16611604565b604051808e62ffffff1681526020018d62ffffff1681526020018c63ffffffff1681526020018b6001600160a01b031681526020018a60018111156106b357fe5b81526001600160801b03998a1660208201529789166040808a01919091529689166060890152509390961660808601526001600160a01b0391821660a08601521660c084015292151560e08301529115156101008201529051908190036101200195509350505050f35b34801561072957600080fd5b506104196116af565b34801561073e57600080fd5b506104996004803603604081101561075557600080fd5b50803562ffffff1690602001356001600160a01b03166116c1565b34801561077c57600080fd5b506103866004803603604081101561079357600080fd5b506001600160a01b0381351690602001356116f9565b3480156107b557600080fd5b506107dc600480360360208110156107cc57600080fd5b50356001600160a01b0316611802565b6040518087151581526020018667ffffffffffffffff16815260200185600181111561080457fe5b815260200184600181111561081557fe5b8152602001836001600160801b031681526020018261ffff168152602001965050505050505060405180910390f35b6108756004803603604081101561085a57600080fd5b50803562ffffff1690602001356001600160801b0316611869565b604080519283526001600160801b0390911660208301528051918290030190f35b3480156108a257600080fd5b50610386600480360360208110156108b957600080fd5b50356001600160a01b0316611c29565b3480156108d557600080fd5b50610386600480360360408110156108ec57600080fd5b506001600160a01b0381351690602001351515611db4565b34801561091057600080fd5b506103866004803603602081101561092757600080fd5b50356001600160a01b0316611e60565b34801561094357600080fd5b506103866004803603602081101561095a57600080fd5b50356001600160a01b0316611f13565b34801561097657600080fd5b5061097f611fc2565b6040805161ffff9092168252519081900360200190f35b3480156109a257600080fd5b50610386600480360360208110156109b957600080fd5b50356001600160a01b0316611fcc565b3480156109d557600080fd5b50610386600480360360208110156109ec57600080fd5b503562ffffff1661209d565b348015610a0457600080fd5b5061038660048036036020811015610a1b57600080fd5b503561ffff16612490565b348015610a3257600080fd5b506104196124f4565b348015610a4757600080fd5b506104196004803603610160811015610a5f57600080fd5b506001600160a01b03813581169162ffffff60208201351691604082013516906001600160801b036060820135811691608081013582169163ffffffff60a083013581169260c081013515159260e0820135811692610100830135909116916101208101358216916101409091013516612506565b348015610ae057600080fd5b5061038661293e565b348015610af557600080fd5b5061038660048036036040811015610b0c57600080fd5b6001600160a01b038235169190810190604081016020820135640100000000811115610b3757600080fd5b820183602082011115610b4957600080fd5b80359060200191846020830284011164010000000083111715610b6b57600080fd5b509092509050612a5f565b6009546001600160a01b031681565b6001600160a01b0382166000908152600a60205260408120610ba79083612b93565b90505b92915050565b600954600160a01b900460ff1681565b6001600160a01b0381166000908152600560205260408120610be190612b9f565b90505b919050565b6001600160a01b0382166000908152600660205260408120610ba79083612baa565b6009546001600160a01b03163314610c57576040805162461bcd60e51b815260206004820152600a60248201526937b7363c9030b236b4b760b11b604482015290519081900360640190fd5b6001600160a01b03861660009081526003602052604090208054600160ff19909116811768ffffffffffffffff00191661010067ffffffffffffffff8916021790915560ff851690811115610ca857fe5b6001600160a01b038716600090815260036020526040902080546aff000000000000000000001916600160501b836001811115610ce157fe5b02179055508260ff166001811115610cf557fe5b6001600160a01b0387166000908152600360205260409020805469ff00000000000000000019166901000000000000000000836001811115610d3357fe5b02179055506001600160a01b038616600081815260036020908152604091829020805461ffff8616600160d81b81027fffffff0000ffffffffffffffffffffffffffffffffffffffffffffffffffffff6001600160801b038a166b01000000000000000000000081027fffffffffff00000000000000000000000000000000ffffffffffffffffffffff909516949094171617909255835167ffffffffffffffff8b16815260ff808b1694820194909452928816838501526060830152608082015290517fa68ffaa462f73b1fa96c627d189af0c548030e90e713bb3ca14d2bb5a6c816e99181900360a00190a2505050505050565b6008546001600160a01b031681565b600754604080517f4583782e0000000000000000000000000000000000000000000000000000000081526001600160a01b038b8116600483015262ffffff8b16602483015233604483018190528a821660648401526001600160801b03808b166084850152808a1660a485015263ffffffff891660c485015287151560e4850152861661010484015292516000948593921691634583782e9161012480830192602092919082900301818787803b158015610ef257600080fd5b505af1158015610f06573d6000803e3d6000fd5b505050506040513d6020811015610f1c57600080fd5b505190508015610f69576040805162461bcd60e51b815260206004820152601360248201527214dbdb1d995c8e881b9bdd08185b1b1bddd959606a1b604482015290519081900360640190fd5b6000610f7c838d8d8d858e8e8e8e612bbf565b9350610f8884866133a2565b8a62ffffff168462ffffff168d6001600160a01b03167f70dbde8ad43eb7ac76b3dbbe0bd384ebd745ab3e3e2a57138b00825e5cd2c302846001811115610fcb57fe5b6040805160ff90921682526001600160801b038b1660208301528051918290030190a450505098975050505050505050565b6001600160a01b0382166000908152600560205260408120610ba79083612b93565b62ffffff8116600090815260026020526040812054610be190600160f01b900460ff16836133e0565b60095484906001600160a01b031633148061108057506001600160a01b0381166000908152600a602052604090206110809033612baa565b6110c0576040805162461bcd60e51b815260206004820152600c60248201526b37b7363c9036b0b730b3b2b960a11b604482015290519081900360640190fd5b6001600160a01b03851660009081526003602052604090205460ff16611123576040805162461bcd60e51b81526020600482015260136024820152723ab739bab83837b93a32b21034b1aa37b5b2b760691b604482015290519081900360640190fd5b6001600160a01b0385166000908152600660205260409020821561116b575b61114b81612b9f565b1561116b5761116561115e826000612b93565b8290613615565b50611142565b60005b848110156111ad576111a486868381811061118557fe5b905060200201356001600160a01b03168361362a90919063ffffffff16565b5060010161116e565b50505050505050565b6009546001600160a01b03163314611202576040805162461bcd60e51b815260206004820152600a60248201526937b7363c9030b236b4b760b11b604482015290519081900360640190fd5b6001600160a01b03841660009081526003602052604090205460ff16611265576040805162461bcd60e51b81526020600482015260136024820152723ab739bab83837b93a32b21034b1aa37b5b2b760691b604482015290519081900360640190fd5b6001600160a01b0384166000908152600a6020526040902081156112a6575b61128d81612b9f565b156112a6576112a061115e826000612b93565b50611284565b60005b838110156112c9576112c085858381811061118557fe5b506001016112a9565b505050505050565b6007546001600160a01b031681565b60046020526000908152604090205460ff1681565b62ffffff82166000908152600260205260408120600381015460048201543391849161132e916001600160a01b0390811691168761363f565b835490915060009061134f9060ff600160f01b8204169062ffffff166133e0565b9050600060016003868101546001600160a01b031660009081526020919091526040902054600160501b900460ff16600181111561138957fe5b141561141d576003858101546001600160a01b031660009081526020918252604090819020548151808301909252601282527119995948195e18d959591cc8185b5bdd5b9d60721b92820192909252611416916001600160801b038581169261141092610100900467ffffffffffffffff169161140a918d918a169061389b565b90613932565b9061398b565b9050611468565b6003858101546001600160a01b031660009081526020919091526040902054611465906001600160801b03841690611410908a90610100900467ffffffffffffffff16613932565b90505b6001600160801b038111156114c4576040805162461bcd60e51b815260206004820152601360248201527f657863656564732075696e74313238206d617800000000000000000000000000604482015290519081900360640190fd5b60075460038601548654600480890154604080516349df49e760e01b81526001600160a01b039586169381019390935262ffffff630100000090940484166024840152928d16604483015288841660648301528316608482015260a481018b90526001600160801b0380861660c4830152861660e48201529051939850889360009392909216916349df49e7916101048082019260209290919082900301818787803b15801561157357600080fd5b505af1158015611587573d6000803e3d6000fd5b505050506040513d602081101561159d57600080fd5b5051905080156115ea576040805162461bcd60e51b815260206004820152601360248201527214dbdb1d995c8e881b9bdd08185b1b1bddd959606a1b604482015290519081900360640190fd5b6115f885878a8a87896139f2565b50505050505092915050565b60026020819052600091825260409091208054600182015492820154600383015460049093015462ffffff80841695630100000085049091169463ffffffff6601000000000000860416946001600160a01b03600160501b820481169560ff600160f01b9093048316956001600160801b0380871696600160801b9081900482169684831696919094049091169392831692821691600160a01b8104821691600160a81b909104168d565b600854600160a01b900462ffffff1681565b62ffffff82166000908152600b602090815260408083206001600160a01b03851684529091529020546001600160801b031692915050565b6009546001600160a01b03163314611745576040805162461bcd60e51b815260206004820152600a60248201526937b7363c9030b236b4b760b11b604482015290519081900360640190fd5b8061174f836142e7565b10156117a2576040805162461bcd60e51b815260206004820152601160248201527f696e73756666696369656e742063617368000000000000000000000000000000604482015290519081900360640190fd5b6009546117ba9083906001600160a01b0316836143b6565b604080516001600160a01b03841681526020810183905281517f66bf9186b00db666fc37aaffbb95a050c66e599e000c785c1dff0467d868f1b1929181900390910190a15050565b60036020526000908152604090205460ff80821691610100810467ffffffffffffffff169169010000000000000000008204811691600160501b8104909116906b01000000000000000000000081046001600160801b031690600160d81b900461ffff1686565b62ffffff80831660009081526002602052604081208054919283923391849161189d9160ff600160f01b83041691166133e0565b6003848101546001600160a01b0316600090815260209190915260409020549091506118e890610100900467ffffffffffffffff166114106001600160801b03898116908516613932565b94506118f261467e565b60048401546001600160a01b039081169116148015611927575060018354600160f01b900460ff16600181111561192557fe5b145b80156119335750348514155b15611acc576003830154600484015434965060009161195f916001600160a01b0391821691168861363f565b9050600060016003868101546001600160a01b031660009081526020919091526040902054600160501b900460ff16600181111561199957fe5b1415611a21576003858101546001600160a01b031660009081526020918252604090819020548151808301909252601282527119995948195e18d959591cc8185b5bdd5b9d60721b92820192909252611a1a916001600160801b038681169261141092610100900467ffffffffffffffff169161140a918d9189169061389b565b9050611a6c565b6003858101546001600160a01b031660009081526020919091526040902054611a69906001600160801b03851690611410908a90610100900467ffffffffffffffff16613932565b90505b6001600160801b03811115611ac8576040805162461bcd60e51b815260206004820152601360248201527f657863656564732075696e74313238206d617800000000000000000000000000604482015290519081900360640190fd5b9650505b60038301546004840154611aed916001600160a01b0390811691168761363f565b60075460038501548554600480880154604080516349df49e760e01b81526001600160a01b039586169381019390935262ffffff630100000090940484166024840152928d16604483015287841660648301528316608482015260a481018a90526001600160801b03808c1660c4830152861660e4820152905193975060009391909216916349df49e79161010480830192602092919082900301818787803b158015611b9957600080fd5b505af1158015611bad573d6000803e3d6000fd5b505050506040513d6020811015611bc357600080fd5b505190508015611c10576040805162461bcd60e51b815260206004820152601360248201527214dbdb1d995c8e881b9bdd08185b1b1bddd959606a1b604482015290519081900360640190fd5b611c1e8385888a868a6139f2565b505050509250929050565b6009546001600160a01b03163314611c75576040805162461bcd60e51b815260206004820152600a60248201526937b7363c9030b236b4b760b11b604482015290519081900360640190fd5b600754604080517f060aa71e00000000000000000000000000000000000000000000000000000000815290516001600160a01b039283169284169163060aa71e9160048083019260209291908290030181600087803b158015611cd757600080fd5b505af1158015611ceb573d6000803e3d6000fd5b505050506040513d6020811015611d0157600080fd5b5051611d54576040805162461bcd60e51b815260206004820152600e60248201527f696e76616c696420736f6c766572000000000000000000000000000000000000604482015290519081900360640190fd5b600780546001600160a01b0319166001600160a01b03848116918217909255604080519284168352602083019190915280517f75d88007781bda78ca68e333bfe4f9e91473720b4be5c63ee715949839afe7c79281900390910190a15050565b6009546001600160a01b03163314611e00576040805162461bcd60e51b815260206004820152600a60248201526937b7363c9030b236b4b760b11b604482015290519081900360640190fd5b6001600160a01b038216600081815260046020908152604091829020805460ff1916851515908117909155825190815291517f98c0c4bde5f642566cdaebfb7cd2cdc72a98bc7f3440e38c19e1d58d92388d349281900390910190a25050565b6009546001600160a01b03163314611eac576040805162461bcd60e51b815260206004820152600a60248201526937b7363c9030b236b4b760b11b604482015290519081900360640190fd5b6001600160a01b03811660008181526003602052604080822080547fffffff0000000000000000000000000000000000000000000000000000000000169055517fc14aef421d4ad67b24691f0e51a4706ba86588e0a70f137686bffee5e0b0b5089190a250565b6009546001600160a01b03163314611f5f576040805162461bcd60e51b815260206004820152600a60248201526937b7363c9030b236b4b760b11b604482015290519081900360640190fd5b600880546001600160a01b038381166001600160a01b0319831681179093556040805191909216808252602082019390935281517fca4f2f25d0898edd99413412fb94012f9e54ec8142f9b093e7720646a95b16a9929181900390910190a15050565b600c5461ffff1681565b600954600160a01b900460ff161561202b576040805162461bcd60e51b815260206004820152601360248201527f616c726561647920696e697469616c697a656400000000000000000000000000604482015290519081900360640190fd5b600980546001600160a01b031916331790556007805462ffffff60a01b19908116600160a01b90811790925560088054909116909117905561206c81611c29565b50600980547fffffffffffffffffffffff00ffffffffffffffffffffffffffffffffffffffff16600160a01b179055565b62ffffff818116600090815260026020908152604080832081516101a0810183528154808716825263010000008104909616938101939093526601000000000000850463ffffffff1691830191909152600160501b84046001600160a01b0316606083015291929091906080830190600160f01b900460ff16600181111561212157fe5b600181111561212c57fe5b815260018201546001600160801b038082166020840152600160801b9182900481166040840152600284015480821660608501529190910416608082015260038201546001600160a01b0390811660a083015260049092015491821660c082015260ff600160a01b83048116151560e0830152600160a81b90920490911615156101009091015261018081015190915061220d576040805162461bcd60e51b815260206004820152600c60248201527f696e76616c69642073616c650000000000000000000000000000000000000000604482015290519081900360640190fd5b60608101516001600160a01b0316331461226e576040805162461bcd60e51b815260206004820152600b60248201527f6f6e6c792073656c6c6572000000000000000000000000000000000000000000604482015290519081900360640190fd5b60075461012082015160208084015184516060860151604080517f26531dd20000000000000000000000000000000000000000000000000000000081526001600160a01b03968716600482015262ffffff9485166024820152939092166044840152841660648301525160009493909316926326531dd29260848084019391929182900301818787803b15801561230457600080fd5b505af1158015612318573d6000803e3d6000fd5b505050506040513d602081101561232e57600080fd5b50519050801561237b576040805162461bcd60e51b815260206004820152601360248201527214dbdb1d995c8e881b9bdd08185b1b1bddd959606a1b604482015290519081900360640190fd5b6123988261012001518360600151846020015162ffffff16614696565b62ffffff808416600090815260026020818152604080842080547fff0000000000000000000000000000000000000000000000000000000000000016815560018101859055928301939093556003820180546001600160a01b03191690556004909101805475ffffffffffffffffffffffffffffffffffffffffffff191690558451606086015161012087015160a088015160c089015186516001600160801b038381168252919092031694810194909452845192909516946001600160a01b03918216949116927f5aa4c70900d9d392969eb9b50d399a9f34311972dd8ef3f5056685e032bb6eb5929081900390910190a4505050565b6009546001600160a01b031633146124dc576040805162461bcd60e51b815260206004820152600a60248201526937b7363c9030b236b4b760b11b604482015290519081900360640190fd5b600c805461ffff191661ffff92909216919091179055565b600754600160a01b900462ffffff1681565b6000612510615057565b336101608201526001600160a01b038d8116825262ffffff8d1660208301528b1660408201526001600160801b03808b166060830152898116608083015263ffffffff808a1660a084015288151560c084015287821660e0840152908616610100830152848116610120830152831661014082018190526125d8576040805162461bcd60e51b815260206004820152601460248201527f696e74657276616c2063616e6e6f742062652030000000000000000000000000604482015290519081900360640190fd5b8060e001516001600160801b03168161010001516001600160801b03161115612648576040805162461bcd60e51b815260206004820152601060248201527f6c6f77657374203e206869676865737400000000000000000000000000000000604482015290519081900360640190fd5b600081610120015163ffffffff16116126a8576040805162461bcd60e51b815260206004820152601460248201527f6475726174696f6e2063616e6e6f742062652030000000000000000000000000604482015290519081900360640190fd5b60075481516020808401516101608501516040808701516060880151608089015160a08a015160c08b015160e08c01516101008d01516101208e01516101408f015189517f592fc0cb0000000000000000000000000000000000000000000000000000000081526001600160a01b039e8f16600482015262ffffff909c1660248d0152998d1660448c0152968c1660648b01526001600160801b0395861660848b015293851660a48a015263ffffffff92831660c48a015290151560e48901528316610104880152911661012486015290811661014485015290911661016483015251600094939093169263592fc0cb926101848084019391929182900301818787803b1580156127b857600080fd5b505af11580156127cc573d6000803e3d6000fd5b505050506040513d60208110156127e257600080fd5b50519050801561282f576040805162461bcd60e51b815260206004820152601360248201527214dbdb1d995c8e881b9bdd08185b1b1bddd959606a1b604482015290519081900360640190fd5b60006001905061286783610160015184600001518560200151866040015185886060015189608001518a60a001518b60c00151612bbf565b935061288e848460a001518560e0015186610100015187610120015188610140015161470c565b826020015162ffffff168462ffffff1684600001516001600160a01b03167fd60819e1a2a50eb3272e678e3be534f4a109028290312a2de332fd3b28c6c0058660e0015187610100015188610120015189610140015160405180856001600160801b03168152602001846001600160801b031681526020018363ffffffff1681526020018263ffffffff16815260200194505050505060405180910390a45050509b9a5050505050505050505050565b6008546001600160a01b03163314801561295757503315155b6129a8576040805162461bcd60e51b815260206004820152601260248201527f6f6e6c792070656e64696e672061646d696e0000000000000000000000000000604482015290519081900360640190fd5b60098054600880546001600160a01b038082166001600160a01b031980861682179687905590921690925560408051938316808552949092166020840152815190927ff9ffabca9c8276e99321725bcb43fb076a6c66a54b7f21c4e8146d8519b417dc92908290030190a1600854604080516001600160a01b038085168252909216602083015280517fca4f2f25d0898edd99413412fb94012f9e54ec8142f9b093e7720646a95b16a99281900390910190a15050565b60095483906001600160a01b0316331480612a9757506001600160a01b0381166000908152600a60205260409020612a979033612baa565b612ad7576040805162461bcd60e51b815260206004820152600c60248201526b37b7363c9036b0b730b3b2b960a11b604482015290519081900360640190fd5b6001600160a01b03841660009081526003602052604090205460ff16612b3a576040805162461bcd60e51b81526020600482015260136024820152723ab739bab83837b93a32b21034b1aa37b5b2b760691b604482015290519081900360640190fd5b6001600160a01b0384166000908152600660205260408120905b838110156112c957612b8a858583818110612b6b57fe5b905060200201356001600160a01b03168361361590919063ffffffff16565b50600101612b54565b6000610ba783836147b2565b6000610be182614816565b6000610ba7836001600160a01b03841661481a565b6001600160a01b03881660009081526003602052604081205460ff16612c22576040805162461bcd60e51b81526020600482015260136024820152723ab739bab83837b93a32b21034b1aa37b5b2b760691b604482015290519081900360640190fd5b6001600160a01b03871660009081526004602052604090205460ff1680612cb85750886001600160a01b0316636f307dc36040518163ffffffff1660e01b815260040160206040518083038186803b158015612c7d57600080fd5b505afa158015612c91573d6000803e3d6000fd5b505050506040513d6020811015612ca757600080fd5b50516001600160a01b038881169116145b612d09576040805162461bcd60e51b815260206004820152601460248201527f756e737570706f727465642063757272656e6379000000000000000000000000604482015290519081900360640190fd5b6001600160801b03841615612d7f57836001600160801b0316856001600160801b03161115612d7f576040805162461bcd60e51b815260206004820152600960248201527f6d696e203e206d61780000000000000000000000000000000000000000000000604482015290519081900360640190fd5b88612d90818c62ffffff8c16614832565b612d9861488a565b91506000816001600160a01b031663becef6078b6040518263ffffffff1660e01b8152600401808262ffffff16815260200191505060206040518083038186803b158015612de557600080fd5b505afa158015612df9573d6000803e3d6000fd5b505050506040513d6020811015612e0f57600080fd5b505190506001600160801b03811115612e6f576040805162461bcd60e51b815260206004820152601360248201527f657863656564732075696e74313238206d617800000000000000000000000000604482015290519081900360640190fd5b604051806101a001604052808462ffffff1681526020018b62ffffff1681526020018663ffffffff168152602001336001600160a01b03168152602001896001811115612eb857fe5b8152602001826001600160801b03168152602001826001600160801b03168152602001886001600160801b03168152602001876001600160801b031681526020018c6001600160a01b031681526020018a6001600160a01b03168152602001851515815260200160011515815250600260008562ffffff1662ffffff16815260200190815260200160002060008201518160000160006101000a81548162ffffff021916908362ffffff16021790555060208201518160000160036101000a81548162ffffff021916908362ffffff16021790555060408201518160000160066101000a81548163ffffffff021916908363ffffffff160217905550606082015181600001600a6101000a8154816001600160a01b0302191690836001600160a01b03160217905550608082015181600001601e6101000a81548160ff0219169083600181111561300557fe5b021790555060a08201518160010160006101000a8154816001600160801b0302191690836001600160801b0316021790555060c08201518160010160106101000a8154816001600160801b0302191690836001600160801b0316021790555060e08201518160020160006101000a8154816001600160801b0302191690836001600160801b031602179055506101008201518160020160106101000a8154816001600160801b0302191690836001600160801b031602179055506101208201518160030160006101000a8154816001600160a01b0302191690836001600160a01b031602179055506101408201518160040160006101000a8154816001600160a01b0302191690836001600160a01b031602179055506101608201518160040160146101000a81548160ff0219169083151502179055506101808201518160040160156101000a81548160ff0219169083151502179055509050506000600260008562ffffff1662ffffff16815260200190815260200160002090506131bd8462ffffff16600560008f6001600160a01b03166001600160a01b031681526020019081526020016000206148b990919063ffffffff16565b508054600382015462ffffff6301000000830416916001600160a01b03600160501b820481169216907f61e09d35bae521fed6b395b8feff86868d80b8a5199d2978f6b346f651cf31f590889060ff600160f01b90910416600181111561322057fe5b60018701548754600489015460028a01546040805162ffffff909716875260ff95861660208801526001600160801b03600160801b9586900481168883015263ffffffff66010000000000009095049490941660608801526001600160a01b038316608088015281841660a088015293900490911660c0850152600160a01b900491909116151560e083015251908190036101000190a4600754600382015482546004808501546001860154604080517f7c7078890000000000000000000000000000000000000000000000000000000081526001600160a01b03968716948101949094526301000000850462ffffff9081166024860152600160501b8604871660448601529286166064850152919093166084830152600160801b9092046001600160801b031660a482015290519190921691637c7078899160c480830192600092919082900301818387803b15801561337a57600080fd5b505af115801561338e573d6000803e3d6000fd5b505050505050509998505050505050505050565b62ffffff91909116600090815260016020526040902080546fffffffffffffffffffffffffffffffff19166001600160801b03909216919091179055565b6000808360018111156133ef57fe5b1415613419575062ffffff81166000908152600160205260409020546001600160801b0316610baa565b600183600181111561342757fe5b14156135c85762ffffff82166000908152602081905260409020600181015463ffffffff80821664010000000090920481169190910116421061347c5754600160801b90046001600160801b03169050610baa565b600181015463ffffffff16421161349e57546001600160801b03169050610baa565b6001810154815460009163ffffffff68010000000000000000820481169264010000000090920416906001600160801b03600160801b820481169181169190910316816134e757fe5b60018501546001600160801b039290910492909202169063ffffffff6801000000000000000082048116911642038161351c57fe5b8454919004919091026001600160801b03808316919091039250600091600160801b900416821061354d5781613560565b8254600160801b90046001600160801b03165b90506001600160801b038111156135be576040805162461bcd60e51b815260206004820152601a60248201527f70726963653a20657863656564732075696e74313238206d6178000000000000604482015290519081900360640190fd5b9250610baa915050565b6040805162461bcd60e51b815260206004820152601560248201527f756e737570706f72746564207072696365547970650000000000000000000000604482015290519081900360640190fd5b6000610ba7836001600160a01b0384166148c5565b6000610ba7836001600160a01b03841661498b565b6000836001600160a01b0316636f307dc36040518163ffffffff1660e01b815260040160206040518083038186803b15801561367a57600080fd5b505afa15801561368e573d6000803e3d6000fd5b505050506040513d60208110156136a457600080fd5b50516001600160a01b038481169116141561373b57600c546000906136d6906127109061141090869061ffff16613932565b90506001600160801b03811115613734576040805162461bcd60e51b815260206004820152601860248201527f4665653a20657863656564732075696e74313238206d61780000000000000000604482015290519081900360640190fd5b9050613894565b6001600160a01b0384166000908152600360205260409020600181546901000000000000000000900460ff16600181111561377257fe5b141561379857546b01000000000000000000000090046001600160801b03169050613894565b600081546901000000000000000000900460ff1660018111156137b757fe5b14156138475780546000906137e09061271090611410908790600160d81b900461ffff16613932565b90506001600160801b0381111561383e576040805162461bcd60e51b815260206004820152601860248201527f4665653a20657863656564732075696e74313238206d61780000000000000000604482015290519081900360640190fd5b91506138949050565b6040805162461bcd60e51b815260206004820152601360248201527f756e737570706f72746564206665655479706500000000000000000000000000604482015290519081900360640190fd5b9392505050565b6000818484111561392a5760405162461bcd60e51b81526004018080602001828103825283818151815260200191508051906020019080838360005b838110156138ef5781810151838201526020016138d7565b50505050905090810190601f16801561391c5780820380516001836020036101000a031916815260200191505b509250505060405180910390fd5b505050900390565b60008261394157506000610baa565b8282028284828161394e57fe5b0414610ba75760405162461bcd60e51b81526004018080602001828103825260218152602001806151096021913960400191505060405180910390fd5b60008082116139e1576040805162461bcd60e51b815260206004820152601a60248201527f536166654d6174683a206469766973696f6e206279207a65726f000000000000604482015290519081900360640190fd5b8183816139ea57fe5b049392505050565b6004850154600160a81b900460ff16613a52576040805162461bcd60e51b815260206004820152600e60248201527f696e76616c69642073616c654964000000000000000000000000000000000000604482015290519081900360640190fd5b84546601000000000000900463ffffffff16421015613ab8576040805162461bcd60e51b815260206004820152600f60248201527f6e6f7420796574206f6e2073616c650000000000000000000000000000000000604482015290519081900360640190fd5b600285015460018601546001600160801b03918216600160801b90910490911610613b435760028501546001600160801b039081169084161015613b43576040805162461bcd60e51b815260206004820152601160248201527f6d696e20756e697473206e6f74206d6574000000000000000000000000000000604482015290519081900360640190fd5b6002850154600160801b90046001600160801b031615613c5b57845462ffffff166000908152600b602090815260408083206001600160a01b038a168452909152812054613b9a906001600160801b0316856149d5565b60028701549091506001600160801b03600160801b90910481169082161115613c0a576040805162461bcd60e51b815260206004820152601660248201527f65786365656473207075726368617365206c696d697400000000000000000000604482015290519081900360640190fd5b855462ffffff166000908152600b602090815260408083206001600160a01b038b168452909152902080546fffffffffffffffffffffffffffffffff19166001600160801b03929092169190911790555b6004850154600160a01b900460ff1615613ce65760038501546001600160a01b03166000908152600660205260409020613c959087612baa565b613ce6576040805162461bcd60e51b815260206004820152601160248201527f6e6f7420696e20616c6c6f77206c697374000000000000000000000000000000604482015290519081900360640190fd5b60408051808201909152601b81527f696e73756666696369656e7420756e69747320666f722073616c65000000000060208201526001860154613d3c91600160801b9091046001600160801b0316908590614a3b565b6001860180546001600160801b03928316600160801b029216919091179055613d636150bb565b6003868101546001600160a01b031660009081526020919091526040908190205490820190600160501b900460ff166001811115613d9d57fe5b90816001811115613daa57fe5b905250600181604001516001811115613dbf57fe5b1415613de657613dd8856001600160801b038416614aa0565b815260208101859052613e97565b600081604001516001811115613df857fe5b1415613e4a5784815260408051808201909152601281527119995948195e18d959591cc8185b5bdd5b9d60721b6020820152613e409086906001600160801b0385169061389b565b6020820152613e97565b6040805162461bcd60e51b815260206004820152601660248201527f756e737570706f72746564206665655061795479706500000000000000000000604482015290519081900360640190fd5b60048601548151613eb3916001600160a01b0316908990614afa565b5060038601548654604080517fbecef607000000000000000000000000000000000000000000000000000000008152630100000090920462ffffff166004830152516001600160a01b039092169163becef60791602480820192602092909190829003018186803b158015613f2757600080fd5b505afa158015613f3b573d6000803e3d6000fd5b505050506040513d6020811015613f5157600080fd5b50516001600160801b0385161415613f905760038601548654613f8b916001600160a01b03169089906301000000900462ffffff16614696565b613fc2565b60038601548654613fc2916001600160a01b03169089906301000000900462ffffff166001600160801b038816614f14565b600486015486546020830151613fec926001600160a01b0390811692600160501b900416906143b6565b600386015486546001600160a01b039182169162ffffff80831692918b16917f08c60243dbf16a3a05fe1f7e05c550d2bb4fc1e1adf8e1da0b943ccc21b1b3769163010000009091041661403e614fcb565b60048c01548c5442916001600160a01b031690600160f01b900460ff16600181111561406657fe5b8b8d8f8c60400151600181111561407957fe5b6040805162ffffff9a8b16815298909916602089015263ffffffff909616878901526001600160a01b03909416606087015260ff92831660808701526001600160801b0391821660a0870152811660c086015260e08501929092529190911661010083015288166101208201529051908190036101400190a460075460038701548754604080517f9cac1f7b0000000000000000000000000000000000000000000000000000000081526001600160a01b03938416600482015262ffffff6301000000840481166024830152831660448201528b84166064820152600160501b9092048316608483015260a482018990526001600160801b0380891660c484015280881660e48401528616610104830152519190921691639cac1f7b9161012480830192600092919082900301818387803b1580156141b757600080fd5b505af11580156141cb573d6000803e3d6000fd5b505050506001860154600160801b90046001600160801b03166111ad57855460038701546001880154604080516001600160801b03808416808352600160801b90940481169093039092166020830152805162ffffff8516946001600160a01b03600160501b90910481169416927f5aa4c70900d9d392969eb9b50d399a9f34311972dd8ef3f5056685e032bb6eb592908290030190a45050925462ffffff166000908152600260208190526040822080547fff0000000000000000000000000000000000000000000000000000000000000016815560018101839055908101919091556003810180546001600160a01b0319169055600401805475ffffffffffffffffffffffffffffffffffffffffffff1916905550505050565b60006142f161467e565b6001600160a01b0316826001600160a01b0316141561431f5760006143164734614ffa565b9150610be49050565b604080517f70a08231000000000000000000000000000000000000000000000000000000008152306004820152905183916001600160a01b038316916370a0823191602480820192602092909190829003018186803b15801561438157600080fd5b505afa158015614395573d6000803e3d6000fd5b505050506040513d60208110156143ab57600080fd5b50519150610be49050565b6143be61467e565b6001600160a01b0316836001600160a01b031614156144e657604080516000808252602082019092526001600160a01b0384169083906040518082805190602001908083835b602083106144235780518252601f199092019160209182019101614404565b6001836020036101000a03801982511681845116808217855250505050505090500191505060006040518083038185875af1925050503d8060008114614485576040519150601f19603f3d011682016040523d82523d6000602084013e61448a565b606091505b50509050806144e0576040805162461bcd60e51b815260206004820152600360248201527f5354450000000000000000000000000000000000000000000000000000000000604482015290519081900360640190fd5b50614679565b604080516001600160a01b038481166024830152604480830185905283518084039091018152606490920183526020820180517bffffffffffffffffffffffffffffffffffffffffffffffffffffffff167fa9059cbb000000000000000000000000000000000000000000000000000000001781529251825160009485949389169392918291908083835b602083106145905780518252601f199092019160209182019101614571565b6001836020036101000a0380198251168184511680821785525050505050509050019150506000604051808303816000865af19150503d80600081146145f2576040519150601f19603f3d011682016040523d82523d6000602084013e6145f7565b606091505b5091509150818015614625575080511580614625575080806020019051602081101561462257600080fd5b50515b614676576040805162461bcd60e51b815260206004820152600260248201527f5354000000000000000000000000000000000000000000000000000000000000604482015290519081900360640190fd5b50505b505050565b73eeeeeeeeeeeeeeeeeeeeeeeeeeeeeeeeeeeeeeee90565b604080516323b872dd60e01b81523060048201526001600160a01b03848116602483015260448201849052915185928316916323b872dd91606480830192600092919082900301818387803b1580156146ee57600080fd5b505af1158015614702573d6000803e3d6000fd5b5050505050505050565b62ffffff95909516600090815260208190526040902060018101805482546fffffffffffffffffffffffffffffffff19166001600160801b03968716178616600160801b959096169490940294909417905563ffffffff1990911663ffffffff9384161767ffffffff00000000191664010000000091841691909102176bffffffff00000000000000001916680100000000000000009290931691909102919091179055565b815460009082106147f45760405162461bcd60e51b81526004018080602001828103825260228152602001806150e76022913960400191505060405180910390fd5b82600001828154811061480357fe5b9060005260206000200154905092915050565b5490565b60009081526001919091016020526040902054151590565b604080516323b872dd60e01b81526001600160a01b03848116600483015230602483015260448201849052915185928316916323b872dd91606480830192600092919082900301818387803b1580156146ee57600080fd5b6007805462ffffff60a01b198116600160a01b9182900462ffffff908116600181019091169092021790915590565b6000610ba7838361498b565b6000818152600183016020526040812054801561498157835460001980830191908101906000908790839081106148f857fe5b906000526020600020015490508087600001848154811061491557fe5b60009182526020808320909101929092558281526001898101909252604090209084019055865487908061494557fe5b60019003818190600052602060002001600090559055866001016000878152602001908152602001600020600090556001945050505050610baa565b6000915050610baa565b6000614997838361481a565b6149cd57508154600181810184556000848152602080822090930184905584548482528286019093526040902091909155610baa565b506000610baa565b60008282016001600160801b038085169082161015610ba7576040805162461bcd60e51b815260206004820152601b60248201527f536166654d6174683a206164646974696f6e206f766572666c6f770000000000604482015290519081900360640190fd5b6000836001600160801b0316836001600160801b03161115829061392a5760405162461bcd60e51b81526020600482018181528351602484015283519092839260449091019190850190808383600083156138ef5781810151838201526020016138d7565b600082820183811015610ba7576040805162461bcd60e51b815260206004820152601b60248201527f536166654d6174683a206164646974696f6e206f766572666c6f770000000000604482015290519081900360640190fd5b6000614b0461467e565b6001600160a01b0316846001600160a01b03161415614be857326001600160a01b0384161480614b3c5750336001600160a01b038416145b614b8d576040805162461bcd60e51b815260206004820152600f60248201527f73656e646572206d69736d617463680000000000000000000000000000000000604482015290519081900360640190fd5b813414614be1576040805162461bcd60e51b815260206004820152600e60248201527f76616c7565206d69736d61746368000000000000000000000000000000000000604482015290519081900360640190fd5b5080613894565b3415614c3b576040805162461bcd60e51b815260206004820152601760248201527f646f6e277420737570706f7274206d73672e76616c7565000000000000000000604482015290519081900360640190fd5b6000846001600160a01b03166370a08231306040518263ffffffff1660e01b815260040180826001600160a01b0316815260200191505060206040518083038186803b158015614c8a57600080fd5b505afa158015614c9e573d6000803e3d6000fd5b505050506040513d6020811015614cb457600080fd5b5051604080516001600160a01b038781166024830152306044830152606480830188905283518084039091018152608490920183526020820180517bffffffffffffffffffffffffffffffffffffffffffffffffffffffff166323b872dd60e01b178152925182519495506000948594928b16939282918083835b60208310614d4e5780518252601f199092019160209182019101614d2f565b6001836020036101000a0380198251168184511680821785525050505050509050019150506000604051808303816000865af19150503d8060008114614db0576040519150601f19603f3d011682016040523d82523d6000602084013e614db5565b606091505b5091509150818015614de3575080511580614de35750808060200190516020811015614de057600080fd5b50515b614e34576040805162461bcd60e51b815260206004820152600360248201527f5354460000000000000000000000000000000000000000000000000000000000604482015290519081900360640190fd5b6000876001600160a01b03166370a08231306040518263ffffffff1660e01b815260040180826001600160a01b0316815260200191505060206040518083038186803b158015614e8357600080fd5b505afa158015614e97573d6000803e3d6000fd5b505050506040513d6020811015614ead57600080fd5b5051905083811015614f06576040805162461bcd60e51b815260206004820152601a60248201527f544f4b454e5f5452414e534645525f494e5f4f564552464c4f57000000000000604482015290519081900360640190fd5b838103945050505050613894565b604080517ff242432a0000000000000000000000000000000000000000000000000000000081523060048201526001600160a01b038581166024830152604482018590526064820184905260a06084830152600060a48301819052925187939184169263f242432a9260c48083019360209390929083900390910190829087803b158015614fa157600080fd5b505af1158015614fb5573d6000803e3d6000fd5b505050506040513d60208110156111ad57600080fd5b6008805462ffffff60a01b198116600160a01b9182900462ffffff908116600181019091169092021790915590565b600082821115615051576040805162461bcd60e51b815260206004820152601e60248201527f536166654d6174683a207375627472616374696f6e206f766572666c6f770000604482015290519081900360640190fd5b50900390565b6040805161018081018252600080825260208201819052918101829052606081018290526080810182905260a0810182905260c0810182905260e0810182905261010081018290526101208101829052610140810182905261016081019190915290565b60405180606001604052806000815260200160008152602001600060018111156150e157fe5b90529056fe456e756d657261626c655365743a20696e646578206f7574206f6620626f756e6473536166654d6174683a206d756c7469706c69636174696f6e206f766572666c6f77a264697066735822122045b9ea57088a64e198ca91d157468dd3692fab7ca32f3ecf3fa50b7d0dd4658664736f6c63430007060033",
  "devdoc": {
    "kind": "dev",
    "methods": {},
    "version": 1
  },
  "userdoc": {
    "kind": "user",
    "methods": {},
    "version": 1
  },
  "storageLayout": {
    "storage": [
      {
        "astId": 30480,
        "contract": "src/market/SolvICMarket.sol:SolvICMarket",
        "label": "decliningPrices",
        "offset": 0,
        "slot": "0",
        "type": "t_mapping(t_uint24,t_struct(DecliningPrice)30476_storage)"
      },
      {
        "astId": 30484,
        "contract": "src/market/SolvICMarket.sol:SolvICMarket",
        "label": "fixedPrices",
        "offset": 0,
        "slot": "1",
        "type": "t_mapping(t_uint24,t_uint128)"
      },
      {
        "astId": 31148,
        "contract": "src/market/SolvICMarket.sol:SolvICMarket",
        "label": "sales",
        "offset": 0,
        "slot": "2",
        "type": "t_mapping(t_uint24,t_struct(Sale)31125_storage)"
      },
      {
        "astId": 31152,
        "contract": "src/market/SolvICMarket.sol:SolvICMarket",
        "label": "markets",
        "offset": 0,
        "slot": "3",
        "type": "t_mapping(t_address,t_struct(Market)31138_storage)"
      },
      {
        "astId": 31156,
        "contract": "src/market/SolvICMarket.sol:SolvICMarket",
        "label": "currencies",
        "offset": 0,
        "slot": "4",
        "type": "t_mapping(t_address,t_bool)"
      },
      {
        "astId": 31160,
        "contract": "src/market/SolvICMarket.sol:SolvICMarket",
        "label": "_icTokenSales",
        "offset": 0,
        "slot": "5",
        "type": "t_mapping(t_address,t_struct(UintSet)2976_storage)"
      },
      {
        "astId": 31164,
        "contract": "src/market/SolvICMarket.sol:SolvICMarket",
        "label": "_allowAddresses",
        "offset": 0,
        "slot": "6",
        "type": "t_mapping(t_address,t_struct(AddressSet)2855_storage)"
      },
      {
        "astId": 31166,
        "contract": "src/market/SolvICMarket.sol:SolvICMarket",
        "label": "solver",
        "offset": 0,
        "slot": "7",
        "type": "t_contract(ISolver)33743"
      },
      {
        "astId": 31168,
        "contract": "src/market/SolvICMarket.sol:SolvICMarket",
        "label": "nextSaleId",
        "offset": 20,
        "slot": "7",
        "type": "t_uint24"
      },
      {
        "astId": 31170,
        "contract": "src/market/SolvICMarket.sol:SolvICMarket",
        "label": "pendingAdmin",
        "offset": 0,
        "slot": "8",
        "type": "t_address_payable"
      },
      {
        "astId": 31172,
        "contract": "src/market/SolvICMarket.sol:SolvICMarket",
        "label": "nextTradeId",
        "offset": 20,
        "slot": "8",
        "type": "t_uint24"
      },
      {
        "astId": 31174,
        "contract": "src/market/SolvICMarket.sol:SolvICMarket",
        "label": "_admin",
        "offset": 0,
        "slot": "9",
        "type": "t_address_payable"
      },
      {
        "astId": 31176,
        "contract": "src/market/SolvICMarket.sol:SolvICMarket",
        "label": "initialized",
        "offset": 20,
        "slot": "9",
        "type": "t_bool"
      },
      {
        "astId": 31183,
        "contract": "src/market/SolvICMarket.sol:SolvICMarket",
        "label": "allowAddressManagers",
        "offset": 0,
        "slot": "10",
        "type": "t_mapping(t_address,t_struct(AddressSet)2855_storage)"
      },
      {
        "astId": 31189,
        "contract": "src/market/SolvICMarket.sol:SolvICMarket",
        "label": "saleRecords",
        "offset": 0,
        "slot": "11",
        "type": "t_mapping(t_uint24,t_mapping(t_address,t_uint128))"
      },
      {
        "astId": 31191,
        "contract": "src/market/SolvICMarket.sol:SolvICMarket",
        "label": "repoFeeRate",
        "offset": 0,
        "slot": "12",
        "type": "t_uint16"
      }
    ],
    "types": {
      "t_address": {
        "encoding": "inplace",
        "label": "address",
        "numberOfBytes": "20"
      },
      "t_address_payable": {
        "encoding": "inplace",
        "label": "address payable",
        "numberOfBytes": "20"
      },
      "t_array(t_bytes32)dyn_storage": {
        "base": "t_bytes32",
        "encoding": "dynamic_array",
        "label": "bytes32[]",
        "numberOfBytes": "32"
      },
      "t_bool": {
        "encoding": "inplace",
        "label": "bool",
        "numberOfBytes": "1"
      },
      "t_bytes32": {
        "encoding": "inplace",
        "label": "bytes32",
        "numberOfBytes": "32"
      },
      "t_contract(ISolver)33743": {
        "encoding": "inplace",
        "label": "contract ISolver",
        "numberOfBytes": "20"
      },
      "t_enum(FeePayType)31144": {
        "encoding": "inplace",
        "label": "enum SolvICMarket.FeePayType",
        "numberOfBytes": "1"
      },
      "t_enum(FeeType)31141": {
        "encoding": "inplace",
        "label": "enum SolvICMarket.FeeType",
        "numberOfBytes": "1"
      },
      "t_enum(PriceType)30465": {
        "encoding": "inplace",
        "label": "enum PriceManager.PriceType",
        "numberOfBytes": "1"
      },
      "t_mapping(t_address,t_bool)": {
        "encoding": "mapping",
        "key": "t_address",
        "label": "mapping(address => bool)",
        "numberOfBytes": "32",
        "value": "t_bool"
      },
      "t_mapping(t_address,t_struct(AddressSet)2855_storage)": {
        "encoding": "mapping",
        "key": "t_address",
        "label": "mapping(address => struct EnumerableSetUpgradeable.AddressSet)",
        "numberOfBytes": "32",
        "value": "t_struct(AddressSet)2855_storage"
      },
      "t_mapping(t_address,t_struct(Market)31138_storage)": {
        "encoding": "mapping",
        "key": "t_address",
        "label": "mapping(address => struct SolvICMarket.Market)",
        "numberOfBytes": "32",
        "value": "t_struct(Market)31138_storage"
      },
      "t_mapping(t_address,t_struct(UintSet)2976_storage)": {
        "encoding": "mapping",
        "key": "t_address",
        "label": "mapping(address => struct EnumerableSetUpgradeable.UintSet)",
        "numberOfBytes": "32",
        "value": "t_struct(UintSet)2976_storage"
      },
      "t_mapping(t_address,t_uint128)": {
        "encoding": "mapping",
        "key": "t_address",
        "label": "mapping(address => uint128)",
        "numberOfBytes": "32",
        "value": "t_uint128"
      },
      "t_mapping(t_bytes32,t_uint256)": {
        "encoding": "mapping",
        "key": "t_bytes32",
        "label": "mapping(bytes32 => uint256)",
        "numberOfBytes": "32",
        "value": "t_uint256"
      },
      "t_mapping(t_uint24,t_mapping(t_address,t_uint128))": {
        "encoding": "mapping",
        "key": "t_uint24",
        "label": "mapping(uint24 => mapping(address => uint128))",
        "numberOfBytes": "32",
        "value": "t_mapping(t_address,t_uint128)"
      },
      "t_mapping(t_uint24,t_struct(DecliningPrice)30476_storage)": {
        "encoding": "mapping",
        "key": "t_uint24",
        "label": "mapping(uint24 => struct PriceManager.DecliningPrice)",
        "numberOfBytes": "32",
        "value": "t_struct(DecliningPrice)30476_storage"
      },
      "t_mapping(t_uint24,t_struct(Sale)31125_storage)": {
        "encoding": "mapping",
        "key": "t_uint24",
        "label": "mapping(uint24 => struct SolvICMarket.Sale)",
        "numberOfBytes": "32",
        "value": "t_struct(Sale)31125_storage"
      },
      "t_mapping(t_uint24,t_uint128)": {
        "encoding": "mapping",
        "key": "t_uint24",
        "label": "mapping(uint24 => uint128)",
        "numberOfBytes": "32",
        "value": "t_uint128"
      },
      "t_struct(AddressSet)2855_storage": {
        "encoding": "inplace",
        "label": "struct EnumerableSetUpgradeable.AddressSet",
        "members": [
          {
            "astId": 2854,
            "contract": "src/market/SolvICMarket.sol:SolvICMarket",
            "label": "_inner",
            "offset": 0,
            "slot": "0",
            "type": "t_struct(Set)2590_storage"
          }
        ],
        "numberOfBytes": "64"
      },
      "t_struct(DecliningPrice)30476_storage": {
        "encoding": "inplace",
        "label": "struct PriceManager.DecliningPrice",
        "members": [
          {
            "astId": 30467,
            "contract": "src/market/SolvICMarket.sol:SolvICMarket",
            "label": "highest",
            "offset": 0,
            "slot": "0",
            "type": "t_uint128"
          },
          {
            "astId": 30469,
            "contract": "src/market/SolvICMarket.sol:SolvICMarket",
            "label": "lowest",
            "offset": 16,
            "slot": "0",
            "type": "t_uint128"
          },
          {
            "astId": 30471,
            "contract": "src/market/SolvICMarket.sol:SolvICMarket",
            "label": "startTime",
            "offset": 0,
            "slot": "1",
            "type": "t_uint32"
          },
          {
            "astId": 30473,
            "contract": "src/market/SolvICMarket.sol:SolvICMarket",
            "label": "duration",
            "offset": 4,
            "slot": "1",
            "type": "t_uint32"
          },
          {
            "astId": 30475,
            "contract": "src/market/SolvICMarket.sol:SolvICMarket",
            "label": "interval",
            "offset": 8,
            "slot": "1",
            "type": "t_uint32"
          }
        ],
        "numberOfBytes": "64"
      },
      "t_struct(Market)31138_storage": {
        "encoding": "inplace",
        "label": "struct SolvICMarket.Market",
        "members": [
          {
            "astId": 31127,
            "contract": "src/market/SolvICMarket.sol:SolvICMarket",
            "label": "isValid",
            "offset": 0,
            "slot": "0",
            "type": "t_bool"
          },
          {
            "astId": 31129,
            "contract": "src/market/SolvICMarket.sol:SolvICMarket",
            "label": "precision",
            "offset": 1,
            "slot": "0",
            "type": "t_uint64"
          },
          {
            "astId": 31131,
            "contract": "src/market/SolvICMarket.sol:SolvICMarket",
            "label": "feeType",
            "offset": 9,
            "slot": "0",
            "type": "t_enum(FeeType)31141"
          },
          {
            "astId": 31133,
            "contract": "src/market/SolvICMarket.sol:SolvICMarket",
            "label": "feePayType",
            "offset": 10,
            "slot": "0",
            "type": "t_enum(FeePayType)31144"
          },
          {
            "astId": 31135,
            "contract": "src/market/SolvICMarket.sol:SolvICMarket",
            "label": "feeAmount",
            "offset": 11,
            "slot": "0",
            "type": "t_uint128"
          },
          {
            "astId": 31137,
            "contract": "src/market/SolvICMarket.sol:SolvICMarket",
            "label": "feeRate",
            "offset": 27,
            "slot": "0",
            "type": "t_uint16"
          }
        ],
        "numberOfBytes": "32"
      },
      "t_struct(Sale)31125_storage": {
        "encoding": "inplace",
        "label": "struct SolvICMarket.Sale",
        "members": [
          {
            "astId": 31100,
            "contract": "src/market/SolvICMarket.sol:SolvICMarket",
            "label": "saleId",
            "offset": 0,
            "slot": "0",
            "type": "t_uint24"
          },
          {
            "astId": 31102,
            "contract": "src/market/SolvICMarket.sol:SolvICMarket",
            "label": "tokenId",
            "offset": 3,
            "slot": "0",
            "type": "t_uint24"
          },
          {
            "astId": 31104,
            "contract": "src/market/SolvICMarket.sol:SolvICMarket",
            "label": "startTime",
            "offset": 6,
            "slot": "0",
            "type": "t_uint32"
          },
          {
            "astId": 31106,
            "contract": "src/market/SolvICMarket.sol:SolvICMarket",
            "label": "seller",
            "offset": 10,
            "slot": "0",
            "type": "t_address"
          },
          {
            "astId": 31108,
            "contract": "src/market/SolvICMarket.sol:SolvICMarket",
            "label": "priceType",
            "offset": 30,
            "slot": "0",
            "type": "t_enum(PriceType)30465"
          },
          {
            "astId": 31110,
            "contract": "src/market/SolvICMarket.sol:SolvICMarket",
            "label": "total",
            "offset": 0,
            "slot": "1",
            "type": "t_uint128"
          },
          {
            "astId": 31112,
            "contract": "src/market/SolvICMarket.sol:SolvICMarket",
            "label": "units",
            "offset": 16,
            "slot": "1",
            "type": "t_uint128"
          },
          {
            "astId": 31114,
            "contract": "src/market/SolvICMarket.sol:SolvICMarket",
            "label": "min",
            "offset": 0,
            "slot": "2",
            "type": "t_uint128"
          },
          {
            "astId": 31116,
            "contract": "src/market/SolvICMarket.sol:SolvICMarket",
            "label": "max",
            "offset": 16,
            "slot": "2",
            "type": "t_uint128"
          },
          {
            "astId": 31118,
            "contract": "src/market/SolvICMarket.sol:SolvICMarket",
            "label": "icToken",
            "offset": 0,
            "slot": "3",
            "type": "t_address"
          },
          {
            "astId": 31120,
            "contract": "src/market/SolvICMarket.sol:SolvICMarket",
            "label": "currency",
            "offset": 0,
            "slot": "4",
            "type": "t_address"
          },
          {
            "astId": 31122,
            "contract": "src/market/SolvICMarket.sol:SolvICMarket",
            "label": "useAllowList",
            "offset": 20,
            "slot": "4",
            "type": "t_bool"
          },
          {
            "astId": 31124,
            "contract": "src/market/SolvICMarket.sol:SolvICMarket",
            "label": "isValid",
            "offset": 21,
            "slot": "4",
            "type": "t_bool"
          }
        ],
        "numberOfBytes": "160"
      },
      "t_struct(Set)2590_storage": {
        "encoding": "inplace",
        "label": "struct EnumerableSetUpgradeable.Set",
        "members": [
          {
            "astId": 2585,
            "contract": "src/market/SolvICMarket.sol:SolvICMarket",
            "label": "_values",
            "offset": 0,
            "slot": "0",
            "type": "t_array(t_bytes32)dyn_storage"
          },
          {
            "astId": 2589,
            "contract": "src/market/SolvICMarket.sol:SolvICMarket",
            "label": "_indexes",
            "offset": 0,
            "slot": "1",
            "type": "t_mapping(t_bytes32,t_uint256)"
          }
        ],
        "numberOfBytes": "64"
      },
      "t_struct(UintSet)2976_storage": {
        "encoding": "inplace",
        "label": "struct EnumerableSetUpgradeable.UintSet",
        "members": [
          {
            "astId": 2975,
            "contract": "src/market/SolvICMarket.sol:SolvICMarket",
            "label": "_inner",
            "offset": 0,
            "slot": "0",
            "type": "t_struct(Set)2590_storage"
          }
        ],
        "numberOfBytes": "64"
      },
      "t_uint128": {
        "encoding": "inplace",
        "label": "uint128",
        "numberOfBytes": "16"
      },
      "t_uint16": {
        "encoding": "inplace",
        "label": "uint16",
        "numberOfBytes": "2"
      },
      "t_uint24": {
        "encoding": "inplace",
        "label": "uint24",
        "numberOfBytes": "3"
      },
      "t_uint256": {
        "encoding": "inplace",
        "label": "uint256",
        "numberOfBytes": "32"
      },
      "t_uint32": {
        "encoding": "inplace",
        "label": "uint32",
        "numberOfBytes": "4"
      },
      "t_uint64": {
        "encoding": "inplace",
        "label": "uint64",
        "numberOfBytes": "8"
      }
    }
  }
}