{
  "address": "0xBBFcb7cffc3C26DDda34c34A2Bc3a4E5f753Ab29",
  "abi": [
    {
      "anonymous": false,
      "inputs": [
        {
          "indexed": true,
          "internalType": "address",
          "name": "owner",
          "type": "address"
        },
        {
          "indexed": true,
          "internalType": "address",
          "name": "approved",
          "type": "address"
        },
        {
          "indexed": true,
          "internalType": "uint256",
          "name": "tokenId",
          "type": "uint256"
        }
      ],
      "name": "Approval",
      "type": "event"
    },
    {
      "anonymous": false,
      "inputs": [
        {
          "indexed": true,
          "internalType": "address",
          "name": "owner",
          "type": "address"
        },
        {
          "indexed": true,
          "internalType": "address",
          "name": "operator",
          "type": "address"
        },
        {
          "indexed": false,
          "internalType": "bool",
          "name": "approved",
          "type": "bool"
        }
      ],
      "name": "ApprovalForAll",
      "type": "event"
    },
    {
      "anonymous": false,
      "inputs": [
        {
          "indexed": true,
          "internalType": "address",
          "name": "owner",
          "type": "address"
        },
        {
          "indexed": true,
          "internalType": "address",
          "name": "approved",
          "type": "address"
        },
        {
          "indexed": true,
          "internalType": "uint256",
          "name": "tokenId",
          "type": "uint256"
        },
        {
          "indexed": false,
          "internalType": "uint256",
          "name": "approvalUnits",
          "type": "uint256"
        }
      ],
      "name": "ApprovalUnits",
      "type": "event"
    },
    {
      "anonymous": false,
      "inputs": [
        {
          "indexed": true,
          "internalType": "address",
          "name": "owner",
          "type": "address"
        },
        {
          "indexed": true,
          "internalType": "uint256",
          "name": "tokenId",
          "type": "uint256"
        },
        {
          "indexed": false,
          "internalType": "uint256",
          "name": "units",
          "type": "uint256"
        }
      ],
      "name": "Burn",
      "type": "event"
    },
    {
      "anonymous": false,
      "inputs": [
        {
          "indexed": true,
          "internalType": "address",
          "name": "owner",
          "type": "address"
        },
        {
          "indexed": true,
          "internalType": "uint256",
          "name": "tokenId",
          "type": "uint256"
        },
        {
          "indexed": true,
          "internalType": "uint256",
          "name": "targetTokenId",
          "type": "uint256"
        },
        {
          "indexed": false,
          "internalType": "uint256",
          "name": "mergeUnits",
          "type": "uint256"
        }
      ],
      "name": "Merge",
      "type": "event"
    },
    {
      "anonymous": false,
      "inputs": [
        {
          "indexed": true,
          "internalType": "address",
          "name": "minter",
          "type": "address"
        },
        {
          "indexed": true,
          "internalType": "uint256",
          "name": "tokenId",
          "type": "uint256"
        },
        {
          "indexed": true,
          "internalType": "uint256",
          "name": "slot",
          "type": "uint256"
        },
        {
          "indexed": false,
          "internalType": "uint256",
          "name": "units",
          "type": "uint256"
        }
      ],
      "name": "Mint",
      "type": "event"
    },
    {
      "anonymous": false,
      "inputs": [
        {
          "indexed": false,
          "internalType": "address",
          "name": "oldAdmin",
          "type": "address"
        },
        {
          "indexed": false,
          "internalType": "address",
          "name": "newAdmin",
          "type": "address"
        }
      ],
      "name": "NewAdmin",
      "type": "event"
    },
    {
      "anonymous": false,
      "inputs": [
        {
          "indexed": false,
          "internalType": "address",
          "name": "oldPendingAdmin",
          "type": "address"
        },
        {
          "indexed": false,
          "internalType": "address",
          "name": "newPendingAdmin",
          "type": "address"
        }
      ],
      "name": "NewPendingAdmin",
      "type": "event"
    },
    {
      "anonymous": false,
      "inputs": [
        {
          "indexed": false,
          "internalType": "contract ISolver",
          "name": "oldSolver",
          "type": "address"
        },
        {
          "indexed": false,
          "internalType": "contract ISolver",
          "name": "newSolver",
          "type": "address"
        }
      ],
      "name": "NewSolver",
      "type": "event"
    },
    {
      "anonymous": false,
      "inputs": [
        {
          "indexed": false,
          "internalType": "contract IVestingPool",
          "name": "oldVestingPool",
          "type": "address"
        },
        {
          "indexed": false,
          "internalType": "contract IVestingPool",
          "name": "newVestingPool",
          "type": "address"
        }
      ],
      "name": "NewVestingPool",
      "type": "event"
    },
    {
      "anonymous": false,
      "inputs": [
        {
          "indexed": true,
          "internalType": "address",
          "name": "from",
          "type": "address"
        },
        {
          "indexed": true,
          "internalType": "address",
          "name": "to",
          "type": "address"
        },
        {
          "indexed": true,
          "internalType": "uint256",
          "name": "tokenId",
          "type": "uint256"
        },
        {
          "indexed": false,
          "internalType": "uint256",
          "name": "targetTokenId",
          "type": "uint256"
        },
        {
          "indexed": false,
          "internalType": "uint256",
          "name": "transferUnits",
          "type": "uint256"
        }
      ],
      "name": "PartialTransfer",
      "type": "event"
    },
    {
      "anonymous": false,
      "inputs": [
        {
          "indexed": true,
          "internalType": "address",
          "name": "owner",
          "type": "address"
        },
        {
          "indexed": true,
          "internalType": "uint256",
          "name": "tokenId",
          "type": "uint256"
        },
        {
          "indexed": false,
          "internalType": "uint256",
          "name": "newTokenId",
          "type": "uint256"
        },
        {
          "indexed": false,
          "internalType": "uint256",
          "name": "splitUnits",
          "type": "uint256"
        }
      ],
      "name": "Split",
      "type": "event"
    },
    {
      "anonymous": false,
      "inputs": [
        {
          "indexed": true,
          "internalType": "address",
          "name": "from",
          "type": "address"
        },
        {
          "indexed": true,
          "internalType": "address",
          "name": "to",
          "type": "address"
        },
        {
          "indexed": true,
          "internalType": "uint256",
          "name": "tokenId",
          "type": "uint256"
        }
      ],
      "name": "Transfer",
      "type": "event"
    },
    {
      "inputs": [],
      "name": "_acceptAdmin",
      "outputs": [],
      "stateMutability": "nonpayable",
      "type": "function"
    },
    {
      "inputs": [],
      "name": "_admin",
      "outputs": [
        {
          "internalType": "address",
          "name": "",
          "type": "address"
        }
      ],
      "stateMutability": "view",
      "type": "function"
    },
    {
      "inputs": [
        {
          "internalType": "address",
          "name": "newPendingAdmin",
          "type": "address"
        }
      ],
      "name": "_setPendingAdmin",
      "outputs": [],
      "stateMutability": "nonpayable",
      "type": "function"
    },
    {
      "inputs": [
        {
          "internalType": "contract ISolver",
          "name": "newSolver_",
          "type": "address"
        }
      ],
      "name": "_setSolver",
      "outputs": [],
      "stateMutability": "nonpayable",
      "type": "function"
    },
    {
      "inputs": [
        {
          "internalType": "contract IVestingPool",
          "name": "newVestingPool_",
          "type": "address"
        }
      ],
      "name": "_setVestingPool",
      "outputs": [],
      "stateMutability": "nonpayable",
      "type": "function"
    },
    {
      "inputs": [
        {
          "internalType": "uint256",
          "name": "tokenId",
          "type": "uint256"
        },
        {
          "internalType": "address",
          "name": "spender",
          "type": "address"
        }
      ],
      "name": "allowance",
      "outputs": [
        {
          "internalType": "uint256",
          "name": "",
          "type": "uint256"
        }
      ],
      "stateMutability": "view",
      "type": "function"
    },
    {
      "inputs": [
        {
          "internalType": "address",
          "name": "to",
          "type": "address"
        },
        {
          "internalType": "uint256",
          "name": "tokenId",
          "type": "uint256"
        }
      ],
      "name": "approve",
      "outputs": [],
      "stateMutability": "nonpayable",
      "type": "function"
    },
    {
      "inputs": [
        {
          "internalType": "address",
          "name": "to",
          "type": "address"
        },
        {
          "internalType": "uint256",
          "name": "tokenId",
          "type": "uint256"
        },
        {
          "internalType": "uint256",
          "name": "units",
          "type": "uint256"
        }
      ],
      "name": "approve",
      "outputs": [],
      "stateMutability": "nonpayable",
      "type": "function"
    },
    {
      "inputs": [
        {
          "internalType": "uint256",
          "name": "",
          "type": "uint256"
        }
      ],
      "name": "assets",
      "outputs": [
        {
          "internalType": "uint256",
          "name": "slot",
          "type": "uint256"
        },
        {
          "internalType": "uint256",
          "name": "units",
          "type": "uint256"
        },
        {
          "internalType": "bool",
          "name": "isValid",
          "type": "bool"
        }
      ],
      "stateMutability": "view",
      "type": "function"
    },
    {
      "inputs": [
        {
          "internalType": "address",
          "name": "owner",
          "type": "address"
        }
      ],
      "name": "balanceOf",
      "outputs": [
        {
          "internalType": "uint256",
          "name": "",
          "type": "uint256"
        }
      ],
      "stateMutability": "view",
      "type": "function"
    },
    {
      "inputs": [
        {
          "internalType": "uint256",
          "name": "slot",
          "type": "uint256"
        }
      ],
      "name": "balanceOfSlot",
      "outputs": [
        {
          "internalType": "uint256",
          "name": "",
          "type": "uint256"
        }
      ],
      "stateMutability": "view",
      "type": "function"
    },
    {
      "inputs": [],
      "name": "baseURI",
      "outputs": [
        {
          "internalType": "string",
          "name": "",
          "type": "string"
        }
      ],
      "stateMutability": "view",
      "type": "function"
    },
    {
      "inputs": [
        {
          "internalType": "uint256",
          "name": "tokenId",
          "type": "uint256"
        },
        {
          "internalType": "uint256",
          "name": "amount",
          "type": "uint256"
        }
      ],
      "name": "claim",
      "outputs": [],
      "stateMutability": "nonpayable",
      "type": "function"
    },
    {
      "inputs": [
        {
          "internalType": "uint256",
          "name": "tokenId",
          "type": "uint256"
        }
      ],
      "name": "claimAll",
      "outputs": [],
      "stateMutability": "nonpayable",
      "type": "function"
    },
    {
      "inputs": [
        {
          "internalType": "uint256",
          "name": "tokenId_",
          "type": "uint256"
        }
      ],
      "name": "claimableAmount",
      "outputs": [
        {
          "internalType": "uint256",
          "name": "",
          "type": "uint256"
        }
      ],
      "stateMutability": "view",
      "type": "function"
    },
    {
      "inputs": [],
      "name": "contractURI",
      "outputs": [
        {
          "internalType": "string",
          "name": "",
          "type": "string"
        }
      ],
      "stateMutability": "view",
      "type": "function"
    },
    {
      "inputs": [
        {
          "internalType": "uint256",
          "name": "tokenId",
          "type": "uint256"
        }
      ],
      "name": "getApproved",
      "outputs": [
        {
          "internalType": "address",
          "name": "",
          "type": "address"
        }
      ],
      "stateMutability": "view",
      "type": "function"
    },
    {
      "inputs": [
        {
          "internalType": "uint256",
          "name": "tokenId_",
          "type": "uint256"
        }
      ],
      "name": "getSnapshot",
      "outputs": [
        {
          "internalType": "uint8",
          "name": "claimType_",
          "type": "uint8"
        },
        {
          "internalType": "uint64",
          "name": "term_",
          "type": "uint64"
        },
        {
          "internalType": "uint256",
          "name": "vestingAmount_",
          "type": "uint256"
        },
        {
          "internalType": "uint256",
          "name": "principal_",
          "type": "uint256"
        },
        {
          "internalType": "uint64[]",
          "name": "maturities_",
          "type": "uint64[]"
        },
        {
          "internalType": "uint32[]",
          "name": "percentages_",
          "type": "uint32[]"
        },
        {
          "internalType": "uint256",
          "name": "availableWithdrawAmount_",
          "type": "uint256"
        },
        {
          "internalType": "string",
          "name": "originalInvestor_",
          "type": "string"
        },
        {
          "internalType": "bool",
          "name": "isValid_",
          "type": "bool"
        }
      ],
      "stateMutability": "view",
      "type": "function"
    },
    {
      "inputs": [
        {
          "internalType": "uint256",
          "name": "units_",
          "type": "uint256"
        }
      ],
      "name": "getUnderlyingAmount",
      "outputs": [
        {
          "internalType": "uint256",
          "name": "",
          "type": "uint256"
        }
      ],
      "stateMutability": "view",
      "type": "function"
    },
    {
      "inputs": [
        {
          "internalType": "uint256",
          "name": "underlyingAmount_",
          "type": "uint256"
        }
      ],
      "name": "getUnits",
      "outputs": [
        {
          "internalType": "uint256",
          "name": "",
          "type": "uint256"
        }
      ],
      "stateMutability": "view",
      "type": "function"
    },
    {
      "inputs": [
        {
          "internalType": "contract ISolver",
          "name": "solver_",
          "type": "address"
        },
        {
          "internalType": "contract IVestingPool",
          "name": "vestingPool_",
          "type": "address"
        },
        {
          "internalType": "string",
          "name": "name_",
          "type": "string"
        },
        {
          "internalType": "string",
          "name": "symbol_",
          "type": "string"
        },
        {
          "internalType": "string",
          "name": "baseURI_",
          "type": "string"
        },
        {
          "internalType": "string",
          "name": "contractURI_",
          "type": "string"
        }
      ],
      "name": "initialize",
      "outputs": [],
      "stateMutability": "nonpayable",
      "type": "function"
    },
    {
      "inputs": [
        {
          "internalType": "address",
          "name": "owner",
          "type": "address"
        },
        {
          "internalType": "address",
          "name": "operator",
          "type": "address"
        }
      ],
      "name": "isApprovedForAll",
      "outputs": [
        {
          "internalType": "bool",
          "name": "",
          "type": "bool"
        }
      ],
      "stateMutability": "view",
      "type": "function"
    },
    {
      "inputs": [
        {
          "internalType": "uint256",
          "name": "tokenId_",
          "type": "uint256"
        }
      ],
      "name": "isValid",
      "outputs": [
        {
          "internalType": "bool",
          "name": "",
          "type": "bool"
        }
      ],
      "stateMutability": "view",
      "type": "function"
    },
    {
      "inputs": [
        {
          "internalType": "uint256[]",
          "name": "tokenIds_",
          "type": "uint256[]"
        },
        {
          "internalType": "uint256",
          "name": "targetTokenId_",
          "type": "uint256"
        }
      ],
      "name": "merge",
      "outputs": [],
      "stateMutability": "nonpayable",
      "type": "function"
    },
    {
      "inputs": [
        {
          "internalType": "uint64",
          "name": "term_",
          "type": "uint64"
        },
        {
          "internalType": "uint256",
          "name": "amount_",
          "type": "uint256"
        },
        {
          "internalType": "uint64[]",
          "name": "maturities_",
          "type": "uint64[]"
        },
        {
          "internalType": "uint32[]",
          "name": "percentages_",
          "type": "uint32[]"
        },
        {
          "internalType": "string",
          "name": "originalInvestor_",
          "type": "string"
        }
      ],
      "name": "mint",
      "outputs": [
        {
          "internalType": "uint256",
          "name": "",
          "type": "uint256"
        },
        {
          "internalType": "uint256",
          "name": "",
          "type": "uint256"
        }
      ],
      "stateMutability": "nonpayable",
      "type": "function"
    },
    {
      "inputs": [],
      "name": "name",
      "outputs": [
        {
          "internalType": "string",
          "name": "",
          "type": "string"
        }
      ],
      "stateMutability": "view",
      "type": "function"
    },
    {
      "inputs": [],
      "name": "nextTokenId",
      "outputs": [
        {
          "internalType": "uint256",
          "name": "",
          "type": "uint256"
        }
      ],
      "stateMutability": "view",
      "type": "function"
    },
    {
      "inputs": [],
      "name": "owner",
      "outputs": [
        {
          "internalType": "address",
          "name": "",
          "type": "address"
        }
      ],
      "stateMutability": "view",
      "type": "function"
    },
    {
      "inputs": [
        {
          "internalType": "uint256",
          "name": "tokenId",
          "type": "uint256"
        }
      ],
      "name": "ownerOf",
      "outputs": [
        {
          "internalType": "address",
          "name": "",
          "type": "address"
        }
      ],
      "stateMutability": "view",
      "type": "function"
    },
    {
      "inputs": [],
      "name": "pendingAdmin",
      "outputs": [
        {
          "internalType": "address",
          "name": "",
          "type": "address"
        }
      ],
      "stateMutability": "view",
      "type": "function"
    },
    {
      "inputs": [
        {
          "internalType": "uint256",
          "name": "tokenId_",
          "type": "uint256"
        },
        {
          "internalType": "uint256",
          "name": "amount_",
          "type": "uint256"
        }
      ],
      "name": "recharge",
      "outputs": [],
      "stateMutability": "nonpayable",
      "type": "function"
    },
    {
      "inputs": [
        {
          "internalType": "address",
          "name": "from",
          "type": "address"
        },
        {
          "internalType": "address",
          "name": "to",
          "type": "address"
        },
        {
          "internalType": "uint256",
          "name": "tokenId",
          "type": "uint256"
        }
      ],
      "name": "safeTransferFrom",
      "outputs": [],
      "stateMutability": "nonpayable",
      "type": "function"
    },
    {
      "inputs": [
        {
          "internalType": "address",
          "name": "from_",
          "type": "address"
        },
        {
          "internalType": "address",
          "name": "to_",
          "type": "address"
        },
        {
          "internalType": "uint256",
          "name": "tokenId_",
          "type": "uint256"
        },
        {
          "internalType": "uint256",
          "name": "targetTokenId_",
          "type": "uint256"
        },
        {
          "internalType": "uint256",
          "name": "transferUnits_",
          "type": "uint256"
        },
        {
          "internalType": "bytes",
          "name": "data_",
          "type": "bytes"
        }
      ],
      "name": "safeTransferFrom",
      "outputs": [],
      "stateMutability": "nonpayable",
      "type": "function"
    },
    {
      "inputs": [
        {
          "internalType": "address",
          "name": "from",
          "type": "address"
        },
        {
          "internalType": "address",
          "name": "to",
          "type": "address"
        },
        {
          "internalType": "uint256",
          "name": "tokenId",
          "type": "uint256"
        },
        {
          "internalType": "bytes",
          "name": "_data",
          "type": "bytes"
        }
      ],
      "name": "safeTransferFrom",
      "outputs": [],
      "stateMutability": "nonpayable",
      "type": "function"
    },
    {
      "inputs": [
        {
          "internalType": "address",
          "name": "from_",
          "type": "address"
        },
        {
          "internalType": "address",
          "name": "to_",
          "type": "address"
        },
        {
          "internalType": "uint256",
          "name": "tokenId_",
          "type": "uint256"
        },
        {
          "internalType": "uint256",
          "name": "transferUnits_",
          "type": "uint256"
        },
        {
          "internalType": "bytes",
          "name": "data_",
          "type": "bytes"
        }
      ],
      "name": "safeTransferFrom",
      "outputs": [
        {
          "internalType": "uint256",
          "name": "newTokenId",
          "type": "uint256"
        }
      ],
      "stateMutability": "nonpayable",
      "type": "function"
    },
    {
      "inputs": [
        {
          "internalType": "address",
          "name": "operator",
          "type": "address"
        },
        {
          "internalType": "bool",
          "name": "approved",
          "type": "bool"
        }
      ],
      "name": "setApprovalForAll",
      "outputs": [],
      "stateMutability": "nonpayable",
      "type": "function"
    },
    {
      "inputs": [
        {
          "internalType": "string",
          "name": "uri_",
          "type": "string"
        }
      ],
      "name": "setBaseURI",
      "outputs": [],
      "stateMutability": "nonpayable",
      "type": "function"
    },
    {
      "inputs": [
        {
          "internalType": "string",
          "name": "uri_",
          "type": "string"
        }
      ],
      "name": "setContractURI",
      "outputs": [],
      "stateMutability": "nonpayable",
      "type": "function"
    },
    {
      "inputs": [
        {
          "internalType": "uint256",
          "name": "tokenId_",
          "type": "uint256"
        }
      ],
      "name": "slotOf",
      "outputs": [
        {
          "internalType": "uint256",
          "name": "",
          "type": "uint256"
        }
      ],
      "stateMutability": "view",
      "type": "function"
    },
    {
      "inputs": [],
      "name": "solver",
      "outputs": [
        {
          "internalType": "contract ISolver",
          "name": "",
          "type": "address"
        }
      ],
      "stateMutability": "view",
      "type": "function"
    },
    {
      "inputs": [
        {
          "internalType": "uint256",
          "name": "tokenId_",
          "type": "uint256"
        },
        {
          "internalType": "uint256[]",
          "name": "splitUnits_",
          "type": "uint256[]"
        }
      ],
      "name": "split",
      "outputs": [
        {
          "internalType": "uint256[]",
          "name": "newTokenIds",
          "type": "uint256[]"
        }
      ],
      "stateMutability": "nonpayable",
      "type": "function"
    },
    {
      "inputs": [
        {
          "internalType": "bytes4",
          "name": "interfaceId",
          "type": "bytes4"
        }
      ],
      "name": "supportsInterface",
      "outputs": [
        {
          "internalType": "bool",
          "name": "",
          "type": "bool"
        }
      ],
      "stateMutability": "view",
      "type": "function"
    },
    {
      "inputs": [],
      "name": "symbol",
      "outputs": [
        {
          "internalType": "string",
          "name": "",
          "type": "string"
        }
      ],
      "stateMutability": "view",
      "type": "function"
    },
    {
      "inputs": [
        {
          "internalType": "uint256",
          "name": "index",
          "type": "uint256"
        }
      ],
      "name": "tokenByIndex",
      "outputs": [
        {
          "internalType": "uint256",
          "name": "",
          "type": "uint256"
        }
      ],
      "stateMutability": "view",
      "type": "function"
    },
    {
      "inputs": [
        {
          "internalType": "address",
          "name": "owner",
          "type": "address"
        },
        {
          "internalType": "uint256",
          "name": "index",
          "type": "uint256"
        }
      ],
      "name": "tokenOfOwnerByIndex",
      "outputs": [
        {
          "internalType": "uint256",
          "name": "",
          "type": "uint256"
        }
      ],
      "stateMutability": "view",
      "type": "function"
    },
    {
      "inputs": [
        {
          "internalType": "uint256",
          "name": "slot",
          "type": "uint256"
        },
        {
          "internalType": "uint256",
          "name": "index",
          "type": "uint256"
        }
      ],
      "name": "tokenOfSlotByIndex",
      "outputs": [
        {
          "internalType": "uint256",
          "name": "",
          "type": "uint256"
        }
      ],
      "stateMutability": "view",
      "type": "function"
    },
    {
      "inputs": [
        {
          "internalType": "uint256",
          "name": "tokenId",
          "type": "uint256"
        }
      ],
      "name": "tokenURI",
      "outputs": [
        {
          "internalType": "string",
          "name": "",
          "type": "string"
        }
      ],
      "stateMutability": "view",
      "type": "function"
    },
    {
      "inputs": [],
      "name": "totalSupply",
      "outputs": [
        {
          "internalType": "uint256",
          "name": "",
          "type": "uint256"
        }
      ],
      "stateMutability": "view",
      "type": "function"
    },
    {
      "inputs": [],
      "name": "totalUnderlyingAmount",
      "outputs": [
        {
          "internalType": "uint256",
          "name": "",
          "type": "uint256"
        }
      ],
      "stateMutability": "view",
      "type": "function"
    },
    {
      "inputs": [
        {
          "internalType": "address",
          "name": "from",
          "type": "address"
        },
        {
          "internalType": "address",
          "name": "to",
          "type": "address"
        },
        {
          "internalType": "uint256",
          "name": "tokenId",
          "type": "uint256"
        }
      ],
      "name": "transferFrom",
      "outputs": [],
      "stateMutability": "nonpayable",
      "type": "function"
    },
    {
      "inputs": [
        {
          "internalType": "address",
          "name": "from_",
          "type": "address"
        },
        {
          "internalType": "address",
          "name": "to_",
          "type": "address"
        },
        {
          "internalType": "uint256",
          "name": "tokenId_",
          "type": "uint256"
        },
        {
          "internalType": "uint256",
          "name": "targetTokenId_",
          "type": "uint256"
        },
        {
          "internalType": "uint256",
          "name": "transferUnits_",
          "type": "uint256"
        }
      ],
      "name": "transferFrom",
      "outputs": [],
      "stateMutability": "nonpayable",
      "type": "function"
    },
    {
      "inputs": [
        {
          "internalType": "address",
          "name": "from_",
          "type": "address"
        },
        {
          "internalType": "address",
          "name": "to_",
          "type": "address"
        },
        {
          "internalType": "uint256",
          "name": "tokenId_",
          "type": "uint256"
        },
        {
          "internalType": "uint256",
          "name": "transferUnits_",
          "type": "uint256"
        }
      ],
      "name": "transferFrom",
      "outputs": [
        {
          "internalType": "uint256",
          "name": "newTokenId",
          "type": "uint256"
        }
      ],
      "stateMutability": "nonpayable",
      "type": "function"
    },
    {
      "inputs": [],
      "name": "underlying",
      "outputs": [
        {
          "internalType": "address",
          "name": "",
          "type": "address"
        }
      ],
      "stateMutability": "view",
      "type": "function"
    },
    {
      "inputs": [
        {
          "internalType": "uint256",
          "name": "tokenId_",
          "type": "uint256"
        }
      ],
      "name": "unitsInToken",
      "outputs": [
        {
          "internalType": "uint256",
          "name": "",
          "type": "uint256"
        }
      ],
      "stateMutability": "view",
      "type": "function"
    },
    {
      "inputs": [],
      "name": "vestingPool",
      "outputs": [
        {
          "internalType": "contract IVestingPool",
          "name": "",
          "type": "address"
        }
      ],
      "stateMutability": "view",
      "type": "function"
    }
  ],
  "transactionHash": "0x78cbecbd59e72feff47db23747bdc7042ad466710d41662bf2740b97745a5b81",
  "args": [],
  "numDeployments": 1,
  "solcInputHash": "70887d247095c8dc294705eda0d6c5e3",
  "bytecode": "0x608060405234801561001057600080fd5b50615ad380620000216000396000f3fe608060405234801561001057600080fd5b506004361061027d5760003560e01c806301bc45c91461028257806301ffc9a7146102a657806306fdde03146102e1578063081812fc1461035e578063095ea7b31461037b57806318160ddd146103a957806323b872dd146103c3578063263f3e7e146103f957806326782247146104165780632ea715881461041e5780632f745c59146105905780633154b10e146105bc578063426a8493146105c457806342842e0e146105f657806349a7a26d1461062c5780634a1dfebf146106345780634aed53c21461063c5780634d47fddb1461067e5780634f6ccce71461074e578063504422141461076b57806355f2a4a01461078857806355f804b3146107a55780636352211e146108495780636930fd2a1461086657806369c67247146108835780636c0360eb146109485780636cfe0ad1146109505780636f307dc31461096d57806370a082311461097557806375794a3c1461099b57806376f10ad0146109a35780638da5cb5b14610afa578063938e3d7b14610b0257806395d89b4114610ba6578063a22cb46514610bae578063a281afa214610bdc578063a29281fe14610bf9578063b71d1a0c14610c1f578063b88d4fde14610c45578063bbe33ea514610d09578063becef60714610d77578063c349026314610d94578063c460a13f14610db7578063c87b56dd14610dda578063ca84a2cf14610df7578063cf35bdd014610e1d578063d149cc3014610e5a578063d26c93e714610e7d578063e345e0bc14610ff4578063e8a3d48514611020578063e985e9c514611028578063e9c714f214611056578063f242432a1461105e578063f577a50014611127578063fe99049a14611144575b600080fd5b61028a611180565b604080516001600160a01b039092168252519081900360200190f35b6102cd600480360360208110156102bc57600080fd5b50356001600160e01b03191661118f565b604080519115158252519081900360200190f35b6102e96111ae565b6040805160208082528351818301528351919283929083019185019080838360005b8381101561032357818101518382015260200161030b565b50505050905090810190601f1680156103505780820380516001836020036101000a031916815260200191505b509250505060405180910390f35b61028a6004803603602081101561037457600080fd5b5035611244565b6103a76004803603604081101561039157600080fd5b506001600160a01b0381351690602001356112a6565b005b6103b1611381565b60408051918252519081900360200190f35b6103a7600480360360608110156103d957600080fd5b506001600160a01b03813581169160208101359091169060400135611392565b6103b16004803603602081101561040f57600080fd5b50356113e9565b61028a6113fb565b610577600480360360a081101561043457600080fd5b6001600160401b0382351691602081013591810190606081016040820135600160201b81111561046357600080fd5b82018360208201111561047557600080fd5b803590602001918460208302840111600160201b8311171561049657600080fd5b919390929091602081019035600160201b8111156104b357600080fd5b8201836020820111156104c557600080fd5b803590602001918460208302840111600160201b831117156104e657600080fd5b919390929091602081019035600160201b81111561050357600080fd5b82018360208201111561051557600080fd5b803590602001918460018302840111600160201b8311171561053657600080fd5b91908080601f01602080910402602001604051908101604052809392919081815260200183838082843760009201919091525092955061140a945050505050565b6040805192835260208301919091528051918290030190f35b6103b1600480360360408110156105a657600080fd5b506001600160a01b0381351690602001356114a5565b61028a6114d0565b6103a7600480360360608110156105da57600080fd5b506001600160a01b0381351690602081013590604001356114df565b6103a76004803603606081101561060c57600080fd5b506001600160a01b038135811691602081013590911690604001356114f2565b61028a61150d565b6103b161151c565b6103a7600480360360a081101561065257600080fd5b506001600160a01b03813581169160208101359091169060408101359060608101359060800135611592565b6103a7600480360360c081101561069457600080fd5b6001600160a01b0382358116926020810135909116916040820135916060810135916080820135919081019060c0810160a0820135600160201b8111156106da57600080fd5b8201836020820111156106ec57600080fd5b803590602001918460018302840111600160201b8311171561070d57600080fd5b91908080601f0160208091040260200160405190810160405280939291908181526020018383808284376000920191909152509295506115fa945050505050565b6103b16004803603602081101561076457600080fd5b5035611663565b6103b16004803603602081101561078157600080fd5b5035611679565b6103b16004803603602081101561079e57600080fd5b50356116f7565b6103a7600480360360208110156107bb57600080fd5b810190602081018135600160201b8111156107d557600080fd5b8201836020820111156107e757600080fd5b803590602001918460018302840111600160201b8311171561080857600080fd5b91908080601f016020809104026020016040519081016040528093929190818152602001838380828437600092019190915250929550611743945050505050565b61028a6004803603602081101561085f57600080fd5b503561179b565b6103a76004803603602081101561087c57600080fd5b50356117c3565b6108f86004803603604081101561089957600080fd5b81359190810190604081016020820135600160201b8111156108ba57600080fd5b8201836020820111156108cc57600080fd5b803590602001918460208302840111600160201b831117156108ed57600080fd5b5090925090506117d6565b60408051602080825283518183015283519192839290830191858101910280838360005b8381101561093457818101518382015260200161091c565b505050509050019250505060405180910390f35b6102e96118ad565b6103b16004803603602081101561096657600080fd5b503561190e565b61028a61195a565b6103b16004803603602081101561098b57600080fd5b50356001600160a01b031661199f565b6103b1611a07565b6109c0600480360360208110156109b957600080fd5b5035611a0d565b604051808a60ff168152602001896001600160401b031681526020018881526020018781526020018060200180602001868152602001806020018515158152602001848103845289818151815260200191508051906020019060200280838360005b83811015610a3a578181015183820152602001610a22565b50505050905001848103835288818151815260200191508051906020019060200280838360005b83811015610a79578181015183820152602001610a61565b50505050905001848103825286818151815260200191508051906020019080838360005b83811015610ab5578181015183820152602001610a9d565b50505050905090810190601f168015610ae25780820380516001836020036101000a031916815260200191505b509c5050505050505050505050505060405180910390f35b61028a611cbe565b6103a760048036036020811015610b1857600080fd5b810190602081018135600160201b811115610b3257600080fd5b820183602082011115610b4457600080fd5b803590602001918460018302840111600160201b83111715610b6557600080fd5b91908080601f016020809104026020016040519081016040528093929190818152602001838380828437600092019190915250929550611ccd945050505050565b6102e9611d22565b6103a760048036036040811015610bc457600080fd5b506001600160a01b0381351690602001351515611d83565b6103b160048036036020811015610bf257600080fd5b5035611e84565b6103a760048036036020811015610c0f57600080fd5b50356001600160a01b0316611e9b565b6103a760048036036020811015610c3557600080fd5b50356001600160a01b0316611ffe565b6103a760048036036080811015610c5b57600080fd5b6001600160a01b03823581169260208101359091169160408201359190810190608081016060820135600160201b811115610c9557600080fd5b820183602082011115610ca757600080fd5b803590602001918460018302840111600160201b83111715610cc857600080fd5b91908080601f01602080910402602001604051908101604052809392919081815260200183838082843760009201919091525092955061209b945050505050565b6103a760048036036040811015610d1f57600080fd5b810190602081018135600160201b811115610d3957600080fd5b820183602082011115610d4b57600080fd5b803590602001918460208302840111600160201b83111715610d6c57600080fd5b9193509150356120f9565b6103b160048036036020811015610d8d57600080fd5b503561216b565b6103a760048036036040811015610daa57600080fd5b5080359060200135612180565b6103a760048036036040811015610dcd57600080fd5b508035906020013561218f565b6102e960048036036020811015610df057600080fd5b5035612249565b6103a760048036036020811015610e0d57600080fd5b50356001600160a01b0316612458565b610e3a60048036036020811015610e3357600080fd5b50356125be565b604080519384526020840192909252151582820152519081900360600190f35b6103b160048036036040811015610e7057600080fd5b50803590602001356125e2565b6103a7600480360360c0811015610e9357600080fd5b6001600160a01b038235811692602081013590911691810190606081016040820135600160201b811115610ec657600080fd5b820183602082011115610ed857600080fd5b803590602001918460018302840111600160201b83111715610ef957600080fd5b919390929091602081019035600160201b811115610f1657600080fd5b820183602082011115610f2857600080fd5b803590602001918460018302840111600160201b83111715610f4957600080fd5b919390929091602081019035600160201b811115610f6657600080fd5b820183602082011115610f7857600080fd5b803590602001918460018302840111600160201b83111715610f9957600080fd5b919390929091602081019035600160201b811115610fb657600080fd5b820183602082011115610fc857600080fd5b803590602001918460018302840111600160201b83111715610fe957600080fd5b5090925090506125fa565b6103b16004803603604081101561100a57600080fd5b50803590602001356001600160a01b031661271b565b6102e9612760565b6102cd6004803603604081101561103e57600080fd5b506001600160a01b03813581169160200135166127c1565b6103a76127ef565b6103b1600480360360a081101561107457600080fd5b6001600160a01b03823581169260208101359091169160408201359160608101359181019060a081016080820135600160201b8111156110b357600080fd5b8201836020820111156110c557600080fd5b803590602001918460018302840111600160201b831117156110e657600080fd5b91908080601f0160208091040260200160405190810160405280939291908181526020018383808284376000920191909152509295506128f3945050505050565b6102cd6004803603602081101561113d57600080fd5b5035612960565b6103b16004803603608081101561115a57600080fd5b506001600160a01b03813581169160208101359091169060408101359060600135612978565b609b546001600160a01b031681565b6001600160e01b03191660009081526033602052604090205460ff1690565b606a8054604080516020601f600260001961010060018816150201909516949094049384018190048102820181019092528281526060939092909183018282801561123a5780601f1061120f5761010080835404028352916020019161123a565b820191906000526020600020905b81548152906001019060200180831161121d57829003601f168201915b5050505050905090565b600061124f82612999565b61128a5760405162461bcd60e51b815260040180806020018281038252602c815260200180615988602c913960400191505060405180910390fd5b506000908152606860205260409020546001600160a01b031690565b60006112b18261179b565b9050806001600160a01b0316836001600160a01b031614156113045760405162461bcd60e51b8152600401808060200182810382526021815260200180615a4c6021913960400191505060405180910390fd5b806001600160a01b03166113166129a4565b6001600160a01b031614806113375750611337816113326129a4565b6127c1565b6113725760405162461bcd60e51b81526004018080602001828103825260388152602001806158ad6038913960400191505060405180910390fd5b61137c83836129a8565b505050565b600061138d6066612a16565b905090565b6113a361139d6129a4565b82612a21565b6113de5760405162461bcd60e51b8152600401808060200182810382526031815260200180615a6d6031913960400191505060405180910390fd5b61137c838383612abd565b60009081526097602052604090205490565b609c546001600160a01b031681565b600080600080611493338c8c8c8c80806020026020016040519081016040528093929190818152602001838360200280828437600081840152601f19601f820116905080830192505050505050508b8b808060200260200160405190810160405280939291908181526020018383602002808284376000920191909152508d9250612bf7915050565b909c909b509950505050505050505050565b6001600160a01b03821660009081526065602052604081206114c7908361310e565b90505b92915050565b609f546001600160a01b031681565b61137c6114ea6129a4565b84848461311a565b61137c8383836040518060200160405280600081525061209b565b609e546001600160a01b031681565b609f5460408051631a39d8ef60e01b815290516000926001600160a01b031691631a39d8ef916004808301926020929190829003018186803b15801561156157600080fd5b505afa158015611575573d6000803e3d6000fd5b505050506040513d602081101561158b57600080fd5b5051905090565b61159b82612999565b6115e6576040805162461bcd60e51b815260206004820152601760248201527674617267657420746f6b656e206e6f742065786973747360481b604482015290519081900360640190fd5b6115f385858585856131f7565b5050505050565b6116078686868686611592565b6116148686858585613373565b61165b576040805162461bcd60e51b81526020600482015260136024820152723a37903737b7102b27232a2932b1b2b4bb32b960691b604482015290519081900360640190fd5b505050505050565b600080611671606684613508565b509392505050565b609f54604080516324c8697160e11b81526004810184905290516000926001600160a01b031691634990d2e2916024808301926020929190829003018186803b1580156116c557600080fd5b505afa1580156116d9573d6000803e3d6000fd5b505050506040513d60208110156116ef57600080fd5b505192915050565b609f546040805163213b1f3160e01b81526004810184905290516000926001600160a01b03169163213b1f31916024808301926020929190829003018186803b1580156116c557600080fd5b609b546001600160a01b0316331461178f576040805162461bcd60e51b815260206004820152600a60248201526937b7363c9030b236b4b760b11b604482015290519081900360640190fd5b61179881613524565b50565b60006114ca8260405180606001604052806029815260200161590f6029913960669190613537565b61179833826117d18461190e565b613544565b60608161181d576040805162461bcd60e51b815260206004820152601060248201526f656d7074792073706c6974556e69747360801b604482015290519081900360640190fd5b816001600160401b038111801561183357600080fd5b5060405190808252806020026020018201604052801561185d578160200160208202803683370190505b50905060005b82811015611671576118878585858481811061187b57fe5b90506020020135613a4f565b82828151811061189357fe5b6020908102919091010152600101611863565b9392505050565b606d8054604080516020601f600260001961010060018816150201909516949094049384018190048102820181019092528281526060939092909183018282801561123a5780601f1061120f5761010080835404028352916020019161123a565b609f5460408051636cfe0ad160e01b81526004810184905290516000926001600160a01b031691636cfe0ad1916024808301926020929190829003018186803b1580156116c557600080fd5b609f5460408051636f307dc360e01b815290516000926001600160a01b031691636f307dc3916004808301926020929190829003018186803b15801561156157600080fd5b60006001600160a01b0382166119e65760405162461bcd60e51b815260040180806020018281038252602a8152602001806158e5602a913960400191505060405180910390fd5b6001600160a01b03821660009081526065602052604090206114ca90612a16565b609d5481565b600080600080606080600060606000609f60009054906101000a90046001600160a01b03166001600160a01b031663539898b48b6040518263ffffffff1660e01b81526004018082815260200191505060006040518083038186803b158015611a7557600080fd5b505afa158015611a89573d6000803e3d6000fd5b505050506040513d6000823e601f3d908101601f19168201604052610120811015611ab357600080fd5b8151602083015160408085015160608601516080870180519351959794969295919491939282019284600160201b821115611aed57600080fd5b908301906020820185811115611b0257600080fd5b82518660208202830111600160201b82111715611b1e57600080fd5b82525081516020918201928201910280838360005b83811015611b4b578181015183820152602001611b33565b5050505090500160405260200180516040519392919084600160201b821115611b7357600080fd5b908301906020820185811115611b8857600080fd5b82518660208202830111600160201b82111715611ba457600080fd5b82525081516020918201928201910280838360005b83811015611bd1578181015183820152602001611bb9565b505050509050016040526020018051906020019092919080516040519392919084600160201b821115611c0357600080fd5b908301906020820185811115611c1857600080fd5b8251600160201b811182820188101715611c3157600080fd5b82525081516020918201929091019080838360005b83811015611c5e578181015183820152602001611c46565b50505050905090810190601f168015611c8b5780820380516001836020036101000a031916815260200191505b50604052602001805190602001909291905050509850985098509850985098509850985098509193959799909294969850565b609b546001600160a01b031690565b609b546001600160a01b03163314611d19576040805162461bcd60e51b815260206004820152600a60248201526937b7363c9030b236b4b760b11b604482015290519081900360640190fd5b61179881613af0565b606b8054604080516020601f600260001961010060018816150201909516949094049384018190048102820181019092528281526060939092909183018282801561123a5780601f1061120f5761010080835404028352916020019161123a565b611d8b6129a4565b6001600160a01b0316826001600160a01b03161415611ded576040805162461bcd60e51b815260206004820152601960248201527822a9219b99189d1030b8383937bb32903a379031b0b63632b960391b604482015290519081900360640190fd5b8060696000611dfa6129a4565b6001600160a01b03908116825260208083019390935260409182016000908120918716808252919093529120805460ff191692151592909217909155611e3e6129a4565b6001600160a01b03167f17307eab39ab6107e8899845ad3d59bd9653f200f220920489ca2b5937696c318360405180821515815260200191505060405180910390a35050565b60008181526099602052604081206114ca90612a16565b609b546001600160a01b03163314611ee7576040805162461bcd60e51b815260206004820152600a60248201526937b7363c9030b236b4b760b11b604482015290519081900360640190fd5b609e5460408051630305538f60e11b815290516001600160a01b039283169284169163060aa71e9160048083019260209291908290030181600087803b158015611f3057600080fd5b505af1158015611f44573d6000803e3d6000fd5b505050506040513d6020811015611f5a57600080fd5b5051611f9e576040805162461bcd60e51b815260206004820152600e60248201526d34b73b30b634b21039b7b63b32b960911b604482015290519081900360640190fd5b609e80546001600160a01b0319166001600160a01b03848116918217909255604080519284168352602083019190915280517f75d88007781bda78ca68e333bfe4f9e91473720b4be5c63ee715949839afe7c79281900390910190a15050565b609b546001600160a01b0316331461204a576040805162461bcd60e51b815260206004820152600a60248201526937b7363c9030b236b4b760b11b604482015290519081900360640190fd5b609c80546001600160a01b038381166001600160a01b0319831681179093556040805191909216808252602082019390935281516000805160206159b4833981519152929181900390910190a15050565b6120ac6120a66129a4565b83612a21565b6120e75760405162461bcd60e51b8152600401808060200182810382526031815260200180615a6d6031913960400191505060405180910390fd5b6120f384848484613b03565b50505050565b8161213c576040805162461bcd60e51b815260206004820152600e60248201526d656d70747920746f6b656e49647360901b604482015290519081900360640190fd5b60005b828110156120f35761216384848381811061215657fe5b9050602002013583613b55565b60010161213f565b60009081526097602052604090206001015490565b61218b338383613544565b5050565b600061219a8361179b565b609f5460408051635b5047d760e11b81523360048201526001600160a01b03808516602483015260448201889052606482018790529151939450600093919092169163b6a08fae91608480830192602092919082900301818787803b15801561220257600080fd5b505af1158015612216573d6000803e3d6000fd5b505050506040513d602081101561222c57600080fd5b50519050600061223b856113e9565b90506115f383868385613be0565b606061225482612999565b61228f5760405162461bcd60e51b815260040180806020018281038252602f8152602001806159fd602f913960400191505060405180910390fd5b600061229a8361179b565b609f549091506001600160a01b031663d3f68a7f84836122b8611d22565b6040518463ffffffff1660e01b815260040180848152602001836001600160a01b0316815260200180602001828103825283818151815260200191508051906020019080838360005b83811015612319578181015183820152602001612301565b50505050905090810190601f1680156123465780820380516001836020036101000a031916815260200191505b5094505050505060006040518083038186803b15801561236557600080fd5b505afa158015612379573d6000803e3d6000fd5b505050506040513d6000823e601f3d908101601f1916820160405260208110156123a257600080fd5b8101908080516040519392919084600160201b8211156123c157600080fd5b9083019060208201858111156123d657600080fd5b8251600160201b8111828201881017156123ef57600080fd5b82525081516020918201929091019080838360005b8381101561241c578181015183820152602001612404565b50505050905090810190601f1680156124495780820380516001836020036101000a031916815260200191505b50604052505050915050919050565b609b546001600160a01b031633146124a4576040805162461bcd60e51b815260206004820152600a60248201526937b7363c9030b236b4b760b11b604482015290519081900360640190fd5b609f546040805163dbb1af6b60e01b815290516001600160a01b039283169284169163dbb1af6b916004808301926020929190829003018186803b1580156124eb57600080fd5b505afa1580156124ff573d6000803e3d6000fd5b505050506040513d602081101561251557600080fd5b505161255e576040805162461bcd60e51b81526020600482015260136024820152721a5b9d985b1a59081d995cdd1a5b99d41bdbdb606a1b604482015290519081900360640190fd5b609f80546001600160a01b0319166001600160a01b03848116918217909255604080519284168352602083019190915280517f3c6377eb0477e43704adf748330cfad57176aadc80f5221a0be14a3722c4a66b9281900390910190a15050565b60976020526000908152604090208054600182015460029092015490919060ff1683565b60008281526099602052604081206114c7908361310e565b609b80546001600160a01b03191633179055604080516020601f8a018190048102820181019092528881526126e5918a908a908190840183828082843760009201919091525050604080516020601f8c018190048102820181019092528a815292508a915089908190840183828082843760009201919091525050604080516020601f8b01819004810282018101909252898152925089915088908190840183828082843760009201919091525050604080516020601f8a018190048102820181019092528881529250889150879081908401838280828437600092019190915250613c8f92505050565b6126ee89612458565b6126f78a611e9b565b50506001609d555050609c805460ff60a01b1916600160a01b179055505050505050565b6000806127278461179b565b6001600160a01b039081166000908152609860209081526040808320978352968152868220959092168152600190940190525050205490565b609a8054604080516020601f600260001961010060018816150201909516949094049384018190048102820181019092528281526060939092909183018282801561123a5780601f1061120f5761010080835404028352916020019161123a565b6001600160a01b03918216600090815260696020908152604080832093909416825291909152205460ff1690565b609c546001600160a01b03163314801561280857503315155b61284e576040805162461bcd60e51b815260206004820152601260248201527137b7363c903832b73234b7339030b236b4b760711b604482015290519081900360640190fd5b609b8054609c80546001600160a01b038082166001600160a01b031980861682179687905590921690925560408051938316808552949092166020840152815190927ff9ffabca9c8276e99321725bcb43fb076a6c66a54b7f21c4e8146d8519b417dc92908290030190a1609c54604080516001600160a01b038085168252909216602083015280516000805160206159b48339815191529281900390910190a15050565b600061290186868686612978565b90506129108686838686613373565b612957576040805162461bcd60e51b81526020600482015260136024820152723a37903737b7102b27232a2932b1b2b4bb32b960691b604482015290519081900360640190fd5b95945050505050565b60009081526097602052604090206002015460ff1690565b6000612982613cb5565b905061299185858584866131f7565b949350505050565b60006114ca82613cc3565b3390565b600081815260686020526040902080546001600160a01b0319166001600160a01b03841690811790915581906129dd8261179b565b6001600160a01b03167f8c5be1e5ebec7d5bd14f71427d1e84f3dd0314c0f7b2291e5b200ac8c7c3b92560405160405180910390a45050565b60006114ca82613cd0565b6000612a2c82612999565b612a675760405162461bcd60e51b815260040180806020018281038252602c815260200180615881602c913960400191505060405180910390fd5b6000612a728361179b565b9050806001600160a01b0316846001600160a01b03161480612aad5750836001600160a01b0316612aa284611244565b6001600160a01b0316145b80612991575061299181856127c1565b826001600160a01b0316612ad08261179b565b6001600160a01b031614612b155760405162461bcd60e51b81526004018080602001828103825260298152602001806159d46029913960400191505060405180910390fd5b6001600160a01b038216612b5a5760405162461bcd60e51b81526004018080602001828103825260248152602001806158376024913960400191505060405180910390fd5b612b6583838361137c565b612b706000826129a8565b6001600160a01b0383166000908152606560205260409020612b929082613cd4565b506001600160a01b0382166000908152606560205260409020612bb59082613ce0565b50612bc260668284613cec565b5080826001600160a01b0316846001600160a01b0316600080516020615a2c83398151915260405160405180910390a4505050565b609c546000908190600160a01b900460ff16612c47576040805162461bcd60e51b815260206004820152600a6024820152691c994b595b9d195c995960b21b604482015290519081900360640190fd5b609c805460ff60a01b19169055612c5c6156a6565b612c64613cb5565b81528551600110612c8d576001600160401b03881615612c85576000612c88565b60015b612c90565b60025b816080019060ff16908160ff16815250506000609e60009054906101000a90046001600160a01b03166001600160a01b031663c84ab799308c8c8c8c6040518663ffffffff1660e01b815260040180866001600160a01b03168152602001856001600160a01b03168152602001846001600160401b0316815260200183815260200180602001828103825283818151815260200191508051906020019060200280838360005b83811015612d4e578181015183820152602001612d36565b505050509050019650505050505050602060405180830381600087803b158015612d7757600080fd5b505af1158015612d8b573d6000803e3d6000fd5b505050506040513d6020811015612da157600080fd5b505190508015612dee576040805162461bcd60e51b815260206004820152601360248201527214dbdb1d995c8e881b9bdd08185b1b1bddd959606a1b604482015290519081900360640190fd5b609f60009054906101000a90046001600160a01b03166001600160a01b031663461d61b783608001518c85600001518d8d8d8d8d6040518963ffffffff1660e01b8152600401808960ff168152602001886001600160a01b03168152602001878152602001866001600160401b03168152602001858152602001806020018060200180602001848103845287818151815260200191508051906020019060200280838360005b83811015612eac578181015183820152602001612e94565b50505050905001848103835286818151815260200191508051906020019060200280838360005b83811015612eeb578181015183820152602001612ed3565b50505050905001848103825285818151815260200191508051906020019080838360005b83811015612f27578181015183820152602001612f0f565b50505050905090810190601f168015612f545780820380516001836020036101000a031916815260200191505b509b505050505050505050505050602060405180830381600087803b158015612f7c57600080fd5b505af1158015612f90573d6000803e3d6000fd5b505050506040513d6020811015612fa657600080fd5b505160408301526080820151612fbe9088888c613d02565b6020830181905282516040840151612fd8928d9291613be0565b609e60009054906101000a90046001600160a01b03166001600160a01b031663f218fa8c308c8b86600001518e8d6040518763ffffffff1660e01b815260040180876001600160a01b03168152602001866001600160a01b03168152602001858152602001848152602001836001600160401b0316815260200180602001828103825283818151815260200191508051906020019060200280838360005b8381101561308e578181015183820152602001613076565b50505050905001975050505050505050602060405180830381600087803b1580156130b857600080fd5b505af11580156130cc573d6000803e3d6000fd5b505050506040513d60208110156130e257600080fd5b50505060208101519051609c805460ff60a01b1916600160a01b17905590999098509650505050505050565b60006114c78383613e6e565b6131238261179b565b6001600160a01b0316846001600160a01b03161461317b576040805162461bcd60e51b815260206004820152601060248201526f2b27232a1d1037b7363c9037bbb732b960811b604482015290519081900360640190fd5b6001600160a01b0380851660008181526098602090815260408083208784528252808320805460ff191660019081178255958916808552950182529182902085905581518581529151869493927f4242f9b8e74f04630549b075ce66300da69d9039c62cf77582878f47bcf15f0a92908290030190a450505050565b609e546040805163435ed5e160e11b81523060048201526001600160a01b0388811660248301528781166044830152606482018790526084820186905260a48201859052915160009392909216916386bdabc29160c48082019260209290919082900301818787803b15801561326c57600080fd5b505af1158015613280573d6000803e3d6000fd5b505050506040513d602081101561329657600080fd5b5051905080156132e3576040805162461bcd60e51b815260206004820152601360248201527214dbdb1d995c8e881b9bdd08185b1b1bddd959606a1b604482015290519081900360640190fd5b609f5460408051632b43421d60e21b81526001600160a01b03898116600483015260248201889052888116604483015260648201879052608482018690529151919092169163ad0d08749160a480830192600092919082900301818387803b15801561334e57600080fd5b505af1158015613362573d6000803e3d6000fd5b5050505061165b8686868686613ed2565b6000613387856001600160a01b03166141a0565b61339357506001612957565b60006134cd63b382cdcd60e01b6133a86129a4565b8988888860405160240180866001600160a01b03168152602001856001600160a01b0316815260200184815260200183815260200180602001828103825283818151815260200191508051906020019080838360005b838110156134165781810151838201526020016133fe565b50505050905090810190601f1680156134435780820380516001836020036101000a031916815260200191505b509650505050505050604051602081830303815290604052906001600160e01b0319166020820180516001600160e01b0383818316178352505050506040518060400160405280601c81526020017b3737b7102b27232a2932b1b2b4bb32b91034b6b83632b6b2b73a32b960211b815250886001600160a01b03166141a69092919063ffffffff16565b905060008180602001905160208110156134e657600080fd5b50516001600160e01b03191663b382cdcd60e01b149250505095945050505050565b600080808061351786866141b5565b9097909650945050505050565b805161218b90606d9060208401906156e1565b6000612991848484614230565b609c54600160a01b900460ff1661358f576040805162461bcd60e51b815260206004820152600a6024820152691c994b595b9d195c995960b21b604482015290519081900360640190fd5b609c805460ff60a01b191690556001600160a01b0383166135af8361179b565b6001600160a01b0316146135f7576040805162461bcd60e51b815260206004820152600a60248201526937b7363c9037bbb732b960b11b604482015290519081900360640190fd5b609f54604080516314e6262d60e21b815260048101859052905160009283926001600160a01b039091169163539898b4916024808201928692909190829003018186803b15801561364757600080fd5b505afa15801561365b573d6000803e3d6000fd5b505050506040513d6000823e601f3d908101601f1916820160405261012081101561368557600080fd5b8151602083015160408085015160608601516080870180519351959794969295919491939282019284600160201b8211156136bf57600080fd5b9083019060208201858111156136d457600080fd5b82518660208202830111600160201b821117156136f057600080fd5b82525081516020918201928201910280838360005b8381101561371d578181015183820152602001613705565b5050505090500160405260200180516040519392919084600160201b82111561374557600080fd5b90830190602082018581111561375a57600080fd5b82518660208202830111600160201b8211171561377657600080fd5b82525081516020918201928201910280838360005b838110156137a357818101518382015260200161378b565b505050509050016040526020018051906020019092919080516040519392919084600160201b8211156137d557600080fd5b9083019060208201858111156137ea57600080fd5b8251600160201b81118282018810171561380357600080fd5b82525081516020918201929091019080838360005b83811015613830578181015183820152602001613818565b50505050905090810190601f16801561385d5780820380516001836020036101000a031916815260200191505b506040525050609e548551989b5094995060009850506001600160a01b039093169563b227706395503094508c93508a92508b915089908990899061389e57fe5b60200260200101516040518763ffffffff1660e01b815260040180876001600160a01b03168152602001866001600160a01b03168152602001858152602001848152602001836001600160401b03168152602001826001600160401b031681526020019650505050505050602060405180830381600087803b15801561392357600080fd5b505af1158015613937573d6000803e3d6000fd5b505050506040513d602081101561394d57600080fd5b50519050801561399a576040805162461bcd60e51b815260206004820152601360248201527214dbdb1d995c8e881b9bdd08185b1b1bddd959606a1b604482015290519081900360640190fd5b609f5460408051632bc43fd960e01b81526001600160a01b038981166004830152602482018990526044820188905291516000939290921691632bc43fd99160648082019260209290919082900301818787803b1580156139fa57600080fd5b505af1158015613a0e573d6000803e3d6000fd5b505050506040513d6020811015613a2457600080fd5b50519050613a3286826142fa565b5050609c805460ff60a01b1916600160a01b179055505050505050565b6000613a59613cb5565b609f549091506001600160a01b031663acbd8d53613a768561179b565b8584866040518563ffffffff1660e01b815260040180856001600160a01b03168152602001848152602001838152602001828152602001945050505050600060405180830381600087803b158015613acd57600080fd5b505af1158015613ae1573d6000803e3d6000fd5b505050506114ca838284614367565b805161218b90609a9060208401906156e1565b613b0e848484612abd565b613b1a848484846144c8565b6120f35760405162461bcd60e51b81526004018080602001828103825260328152602001806158056032913960400191505060405180910390fd5b609f546001600160a01b03166329c81fe8613b6f8461179b565b84846040518463ffffffff1660e01b815260040180846001600160a01b031681526020018381526020018281526020019350505050600060405180830381600087803b158015613bbe57600080fd5b505af1158015613bd2573d6000803e3d6000fd5b5050505061218b8282614630565b613be983612999565b613bf757613bf7848461480b565b6000838152609760205260409020613c10908383614926565b6000828152609960205260409020613c2890846149aa565b613c46576000828152609960205260409020613c449084613ce0565b505b8183856001600160a01b03167fb4c03061fb5b7fed76389d5af8f2e0ddb09f8c70d1333abbb62582835e10accb846040518082815260200191505060405180910390a450505050565b613c9984846149b6565b613ca282613524565b80516115f390609a9060208401906156e1565b609d80546001810190915590565b60006114ca6066836149aa565b5490565b60006114c78383614a73565b60006114c78383614b39565b600061299184846001600160a01b038516614b83565b600080858386600081518110613d1457fe5b602002602001015186600081518110613d2957fe5b6020026020010151604051602001808560ff1660f81b8152600101846001600160401b031660c01b8152600801836001600160401b031660c01b81526008018263ffffffff1660e01b81526004019450505050506040516020818303038152906040528051906020012060001c9050845160011415613da9579050612991565b600060015b8651811015613e3b5781878281518110613dc457fe5b6020026020010151878381518110613dd857fe5b602002602001015160405160200180848152602001836001600160401b031660c01b81526008018263ffffffff1660e01b815260040193505050506040516020818303038152906040528051906020012060001c91508080600101915050613dae565b50604080516020808201949094528082019290925280518083038201815260609092019052805191012095945050505050565b81546000908210613eb05760405162461bcd60e51b81526004018080602001828103825260228152602001806157c36022913960400191505060405180910390fd5b826000018281548110613ebf57fe5b9060005260206000200154905092915050565b613edb8361179b565b6001600160a01b0316856001600160a01b031614613f3e576040805162461bcd60e51b815260206004820152601b60248201527a0e6deeae4c6ca40e8ded6cadc40deeedccae440dad2e6dac2e8c6d602b1b604482015290519081900360640190fd5b846001600160a01b0316613f506129a4565b6001600160a01b031614158015613f705750613f6e856113326129a4565b155b156140455760408051808201825260208082527f7472616e7366657220756e697473206578636565647320616c6c6f77616e6365818301526001600160a01b038816600090815260988252838120878252909152918220613ffb9284929160010190613fda6129a4565b6001600160a01b031681526020810191909152604001600020549190614c1a565b6001600160a01b038616600090815260986020908152604080832087845290915281206001019061402a6129a4565b6001600160a01b031681526020810191909152604001600020555b6001600160a01b03841661409f576040805162461bcd60e51b815260206004820152601c60248201527b7472616e7366657220746f20746865207a65726f206164647265737360201b604482015290519081900360640190fd5b6140a882612999565b6140bb576140b6848361480b565b614127565b836001600160a01b03166140ce8361179b565b6001600160a01b031614614127576040805162461bcd60e51b815260206004820152601b60248201527a0e8c2e4cecae840e8ded6cadc40deeedccae440dad2e6dac2e8c6d602b1b604482015290519081900360640190fd5b60008281526097602052604080822085835291206141459183614c74565b82846001600160a01b0316866001600160a01b03167fffe2d69720ac731c052cb1a4f32f1e55c4e8cd3b1e2bbd5cee32266a324c1caa8585604051808381526020018281526020019250505060405180910390a45050505050565b3b151590565b60606129918484600085614d89565b8154600090819083106141f95760405162461bcd60e51b81526004018080602001828103825260228152602001806159666022913960400191505060405180910390fd5b600084600001848154811061420a57fe5b906000526020600020906002020190508060000154816001015492509250509250929050565b600082815260018401602052604081205482816142cb5760405162461bcd60e51b81526004018080602001828103825283818151815260200191508051906020019080838360005b83811015614290578181015183820152602001614278565b50505050905090810190601f1680156142bd5780820380516001836020036101000a031916815260200191505b509250505060405180910390fd5b508460000160018203815481106142de57fe5b9060005260206000209060020201600101549150509392505050565b6000806143068461179b565b60008581526097602052604090209091506143219084614ee4565b60408051848152905185916001600160a01b038416916000805160206157e58339815191529181900360200190a350505060009081526097602052604090206001015490565b6143786143726129a4565b84612a21565b6143c8576040805162461bcd60e51b815260206004820152601c60248201527b159391950e881b9bdd081bdddb995c881b9bdc88185c1c1c9bdd995960221b604482015290519081900360640190fd5b6143d182612999565b1561441e576040805162461bcd60e51b81526020600482015260186024820152776e657720746f6b656e20616c72656164792065786973747360401b604482015290519081900360640190fd5b60008381526097602052604090206001015461443a9082614f28565b6000848152609760205260408120600101919091556144588461179b565b600085815260976020526040902054909150614478908290859085613be0565b83816001600160a01b03167ff66885c33d648fcd0d97e0f2a18e30102169c22763473af0fb716f11b4a17dd68585604051808381526020018281526020019250505060405180910390a350505050565b60006144dc846001600160a01b03166141a0565b6144e857506001612991565b60006145f6630a85bd0160e11b6144fd6129a4565b88878760405160240180856001600160a01b03168152602001846001600160a01b0316815260200183815260200180602001828103825283818151815260200191508051906020019080838360005b8381101561456457818101518382015260200161454c565b50505050905090810190601f1680156145915780820380516001836020036101000a031916815260200191505b5095505050505050604051602081830303815290604052906001600160e01b0319166020820180516001600160e01b038381831617835250505050604051806060016040528060328152602001615805603291396001600160a01b03881691906141a6565b9050600081806020019051602081101561460f57600080fd5b50516001600160e01b031916630a85bd0160e11b1492505050949350505050565b61463b6120a66129a4565b61468b576040805162461bcd60e51b815260206004820152601c60248201527b159391950e881b9bdd081bdddb995c881b9bdc88185c1c1c9bdd995960221b604482015290519081900360640190fd5b61469481612999565b6146df576040805162461bcd60e51b815260206004820152601760248201527674617267657420746f6b656e206e6f742065786973747360481b604482015290519081900360640190fd5b8082141561472d576040805162461bcd60e51b81526020600482015260166024820152751cd95b19881b595c99d9481b9bdd08185b1b1bddd95960521b604482015290519081900360640190fd5b60006147388361179b565b90506147438261179b565b6001600160a01b0316816001600160a01b031614614799576040805162461bcd60e51b815260206004820152600e60248201526d3737ba1039b0b6b29037bbb732b960911b604482015290519081900360640190fd5b6000828152609760205260408082208583529082206147b791614f85565b90506147c284615094565b8284836001600160a01b03167fb3ce851d16b3bbec3774d5631a3893dfa2a80e067cfad265dd594402ac3d6096846040518082815260200191505060405180910390a450505050565b6001600160a01b038216614866576040805162461bcd60e51b815260206004820181905260248201527f4552433732313a206d696e7420746f20746865207a65726f2061646472657373604482015290519081900360640190fd5b61486f81612999565b156148c0576040805162461bcd60e51b815260206004820152601c60248201527b115490cdcc8c4e881d1bdad95b88185b1c9958591e481b5a5b9d195960221b604482015290519081900360640190fd5b6148cc6000838361137c565b6001600160a01b03821660009081526065602052604090206148ee9082613ce0565b506148fb60668284613cec565b5060405181906001600160a01b03841690600090600080516020615a2c833981519152908290a45050565b600283015460ff166149495781835560028301805460ff1916600117905561498e565b8254821461498e576040805162461bcd60e51b815260206004820152600d60248201526c0e6d8dee840dad2e6dac2e8c6d609b1b604482015290519081900360640190fd5b600183015461499d9082615183565b8360010181905550505050565b60006114c783836151db565b600054610100900460ff16806149cf57506149cf6151f3565b806149dd575060005460ff16155b614a185760405162461bcd60e51b815260040180806020018281038252602e815260200180615938602e913960400191505060405180910390fd5b600054610100900460ff16158015614a43576000805460ff1961ff0019909116610100171660011790555b614a4b615204565b614a536152a5565b614a5d8383615342565b801561137c576000805461ff0019169055505050565b60008181526001830160205260408120548015614b2f5783546000198083019190810190600090879083908110614aa657fe5b9060005260206000200154905080876000018481548110614ac357fe5b600091825260208083209091019290925582815260018981019092526040902090840190558654879080614af357fe5b600190038181906000526020600020016000905590558660010160008781526020019081526020016000206000905560019450505050506114ca565b60009150506114ca565b6000614b4583836151db565b614b7b575081546001818101845560008481526020808220909301849055845484825282860190935260409020919091556114ca565b5060006114ca565b600082815260018401602052604081205480614be85750506040805180820182528381526020808201848152865460018181018955600089815284812095516002909302909501918255915190820155865486845281880190925292909120556118a6565b82856000016001830381548110614bfb57fe5b90600052602060002090600202016001018190555060009150506118a6565b60008184841115614c6c5760405162461bcd60e51b8152602060048201818152835160248401528351909283926044909101919085019080838360008315614290578181015183820152602001614278565b505050900390565b600283015460ff16614cc0576040805162461bcd60e51b815260206004820152601060248201526f6173736574206e6f742065786973747360801b604482015290519081900360640190fd5b6040805180820190915260158152747472616e736665722065786365737320756e69747360581b60208201526001840154614cfc918390614c1a565b6001840155600282015460ff1615614d59578154835414614d54576040805162461bcd60e51b815260206004820152600d60248201526c0e6d8dee840dad2e6dac2e8c6d609b1b604482015290519081900360640190fd5b614d6d565b8254825560028201805460ff191660011790555b6001820154614d7c9082615183565b8260010181905550505050565b606082471015614dca5760405162461bcd60e51b815260040180806020018281038252602681526020018061585b6026913960400191505060405180910390fd5b614dd3856141a0565b614e24576040805162461bcd60e51b815260206004820152601d60248201527f416464726573733a2063616c6c20746f206e6f6e2d636f6e7472616374000000604482015290519081900360640190fd5b600080866001600160a01b031685876040518082805190602001908083835b60208310614e625780518252601f199092019160209182019101614e43565b6001836020036101000a03801982511681845116808217855250505050505090500191505060006040518083038185875af1925050503d8060008114614ec4576040519150601f19603f3d011682016040523d82523d6000602084013e614ec9565b606091505b5091509150614ed9828286615427565b979650505050505050565b6040805180820190915260118152706275726e2065786365737320756e69747360781b60208201526001830154614f1c918390614c1a565b82600101819055505050565b600082821115614f7f576040805162461bcd60e51b815260206004820152601e60248201527f536166654d6174683a207375627472616374696f6e206f766572666c6f770000604482015290519081900360640190fd5b50900390565b600282015460009060ff168015614fa05750600282015460ff165b614fe4576040805162461bcd60e51b815260206004820152601060248201526f6173736574206e6f742065786973747360801b604482015290519081900360640190fd5b815483541461502a576040805162461bcd60e51b815260206004820152600d60248201526c0e6d8dee840dad2e6dac2e8c6d609b1b604482015290519081900360640190fd5b60018301546040805180820190915260128152716d657267652065786365737320756e69747360701b60208201526150659082908190614c1a565b60018086019190915583015461507b9082615183565b600184015560028401805460ff19169055905092915050565b600081815260976020526040812060010154906150b08361179b565b6000848152609760209081526040808320548084526099909252909120919250906150db90856149aa565b156150fa5760008181526099602052604090206150f89085613cd4565b505b600084815260976020908152604080832083815560018101849055600201805460ff199081169091556001600160a01b0386168452609883528184208885529092529091208054909116905561514f8461548d565b60408051848152905185916001600160a01b038516916000805160206157e58339815191529181900360200190a350505050565b6000828201838110156114c7576040805162461bcd60e51b815260206004820152601b60248201527a536166654d6174683a206164646974696f6e206f766572666c6f7760281b604482015290519081900360640190fd5b60009081526001919091016020526040902054151590565b60006151fe306141a0565b15905090565b600054610100900460ff168061521d575061521d6151f3565b8061522b575060005460ff16155b6152665760405162461bcd60e51b815260040180806020018281038252602e815260200180615938602e913960400191505060405180910390fd5b600054610100900460ff16158015615291576000805460ff1961ff0019909116610100171660011790555b8015611798576000805461ff001916905550565b600054610100900460ff16806152be57506152be6151f3565b806152cc575060005460ff16155b6153075760405162461bcd60e51b815260040180806020018281038252602e815260200180615938602e913960400191505060405180910390fd5b600054610100900460ff16158015615332576000805460ff1961ff0019909116610100171660011790555b6152916301ffc9a760e01b615548565b600054610100900460ff168061535b575061535b6151f3565b80615369575060005460ff16155b6153a45760405162461bcd60e51b815260040180806020018281038252602e815260200180615938602e913960400191505060405180910390fd5b600054610100900460ff161580156153cf576000805460ff1961ff0019909116610100171660011790555b82516153e290606a9060208601906156e1565b5081516153f690606b9060208501906156e1565b506154076380ac58cd60e01b615548565b615417635b5e139f60e01b615548565b614a5d63780e9d6360e01b615548565b606083156154365750816118a6565b8251156154465782518084602001fd5b60405162461bcd60e51b8152602060048201818152845160248401528451859391928392604401919085019080838360008315614290578181015183820152602001614278565b60006154988261179b565b90506154a68160008461137c565b6154b16000836129a8565b6000828152606c602052604090205460026000196101006001841615020190911604156154ef576000828152606c602052604081206154ef9161576d565b6001600160a01b03811660009081526065602052604090206155119083613cd4565b5061551d6066836155cb565b5060405182906000906001600160a01b03841690600080516020615a2c833981519152908390a45050565b6001600160e01b031980821614156155a6576040805162461bcd60e51b815260206004820152601c60248201527b115490cc4d8d4e881a5b9d985b1a59081a5b9d195c999858d9481a5960221b604482015290519081900360640190fd5b6001600160e01b0319166000908152603360205260409020805460ff19166001179055565b60006114c7838360008181526001830160205260408120548015614b2f578354600019808301919081019060009087908390811061560557fe5b906000526020600020906002020190508087600001848154811061562557fe5b60009182526020808320845460029093020191825560019384015491840191909155835482528983019052604090209084019055865487908061566457fe5b60008281526020808220600260001990940193840201828155600190810183905592909355888152898201909252604082209190915594506114ca9350505050565b6040518060a0016040528060008152602001600081526020016000815260200160006001600160401b03168152602001600060ff1681525090565b828054600181600116156101000203166002900490600052602060002090601f016020900481019282615717576000855561575d565b82601f1061573057805160ff191683800117855561575d565b8280016001018555821561575d579182015b8281111561575d578251825591602001919060010190615742565b506157699291506157ad565b5090565b50805460018160011615610100020316600290046000825580601f106157935750611798565b601f01602090049060005260206000209081019061179891905b5b8082111561576957600081556001016157ae56fe456e756d657261626c655365743a20696e646578206f7574206f6620626f756e647349995e5dd6158cf69ad3e9777c46755a1a826a446c6416992167462dad033b2a4552433732313a207472616e7366657220746f206e6f6e20455243373231526563656976657220696d706c656d656e7465724552433732313a207472616e7366657220746f20746865207a65726f2061646472657373416464726573733a20696e73756666696369656e742062616c616e636520666f722063616c6c4552433732313a206f70657261746f7220717565727920666f72206e6f6e6578697374656e7420746f6b656e4552433732313a20617070726f76652063616c6c6572206973206e6f74206f776e6572206e6f7220617070726f76656420666f7220616c6c4552433732313a2062616c616e636520717565727920666f7220746865207a65726f20616464726573734552433732313a206f776e657220717565727920666f72206e6f6e6578697374656e7420746f6b656e496e697469616c697a61626c653a20636f6e747261637420697320616c726561647920696e697469616c697a6564456e756d657261626c654d61703a20696e646578206f7574206f6620626f756e64734552433732313a20617070726f76656420717565727920666f72206e6f6e6578697374656e7420746f6b656eca4f2f25d0898edd99413412fb94012f9e54ec8142f9b093e7720646a95b16a94552433732313a207472616e73666572206f6620746f6b656e2074686174206973206e6f74206f776e4552433732314d657461646174613a2055524920717565727920666f72206e6f6e6578697374656e7420746f6b656eddf252ad1be2c89b69c2b068fc378daa952ba7f163c4a11628f55a4df523b3ef4552433732313a20617070726f76616c20746f2063757272656e74206f776e65724552433732313a207472616e736665722063616c6c6572206973206e6f74206f776e6572206e6f7220617070726f766564a2646970667358221220035643b201c37260c91c46ff1a129d585477b3b3082a3eb01e442a9241e1852564736f6c63430007060033"
}