{
  "address": "0xEDbeCd640132019b8d12B9Cf432DBA8D057Ee300",
  "abi": [
    {
      "anonymous": false,
      "inputs": [
        {
          "indexed": false,
          "internalType": "address",
          "name": "oldAdmin",
          "type": "address"
        },
        {
          "indexed": false,
          "internalType": "address",
          "name": "newAdmin",
          "type": "address"
        }
      ],
      "name": "NewAdmin",
      "type": "event"
    },
    {
      "anonymous": false,
      "inputs": [
        {
          "indexed": false,
          "internalType": "address",
          "name": "oldPendingAdmin",
          "type": "address"
        },
        {
          "indexed": false,
          "internalType": "address",
          "name": "newPendingAdmin",
          "type": "address"
        }
      ],
      "name": "NewPendingAdmin",
      "type": "event"
    },
    {
      "anonymous": false,
      "inputs": [
        {
          "indexed": false,
          "internalType": "address",
          "name": "product",
          "type": "address"
        },
        {
          "indexed": false,
          "internalType": "string",
          "name": "operation",
          "type": "string"
        },
        {
          "indexed": false,
          "internalType": "bool",
          "name": "setPaused",
          "type": "bool"
        }
      ],
      "name": "SetOperationPaused",
      "type": "event"
    },
    {
      "inputs": [],
      "name": "_admin",
      "outputs": [
        {
          "internalType": "address",
          "name": "",
          "type": "address"
        }
      ],
      "stateMutability": "view",
      "type": "function"
    },
    {
      "inputs": [],
      "name": "acceptAdmin",
      "outputs": [],
      "stateMutability": "nonpayable",
      "type": "function"
    },
    {
      "inputs": [],
      "name": "initialize",
      "outputs": [],
      "stateMutability": "nonpayable",
      "type": "function"
    },
    {
      "inputs": [],
      "name": "isSolver",
      "outputs": [
        {
          "internalType": "bool",
          "name": "",
          "type": "bool"
        }
      ],
      "stateMutability": "pure",
      "type": "function"
    },
    {
      "inputs": [
        {
          "internalType": "string",
          "name": "operation_",
          "type": "string"
        },
        {
          "internalType": "bytes",
          "name": "data_",
          "type": "bytes"
        }
      ],
      "name": "operationAllowed",
      "outputs": [
        {
          "internalType": "uint256",
          "name": "",
          "type": "uint256"
        }
      ],
      "stateMutability": "nonpayable",
      "type": "function"
    },
    {
      "inputs": [
        {
          "internalType": "address",
          "name": "",
          "type": "address"
        },
        {
          "internalType": "string",
          "name": "",
          "type": "string"
        }
      ],
      "name": "operationPaused",
      "outputs": [
        {
          "internalType": "bool",
          "name": "",
          "type": "bool"
        }
      ],
      "stateMutability": "view",
      "type": "function"
    },
    {
      "inputs": [
        {
          "internalType": "string",
          "name": "operation_",
          "type": "string"
        },
        {
          "internalType": "bytes",
          "name": "data_",
          "type": "bytes"
        }
      ],
      "name": "operationVerify",
      "outputs": [
        {
          "internalType": "uint256",
          "name": "",
          "type": "uint256"
        }
      ],
      "stateMutability": "nonpayable",
      "type": "function"
    },
    {
      "inputs": [],
      "name": "pendingAdmin",
      "outputs": [
        {
          "internalType": "address",
          "name": "",
          "type": "address"
        }
      ],
      "stateMutability": "view",
      "type": "function"
    },
    {
      "inputs": [
        {
          "internalType": "address",
          "name": "product_",
          "type": "address"
        },
        {
          "internalType": "string",
          "name": "operation_",
          "type": "string"
        },
        {
          "internalType": "bool",
          "name": "setPaused_",
          "type": "bool"
        }
      ],
      "name": "setOperationPaused",
      "outputs": [],
      "stateMutability": "nonpayable",
      "type": "function"
    },
    {
      "inputs": [
        {
          "internalType": "address",
          "name": "newPendingAdmin_",
          "type": "address"
        }
      ],
      "name": "setPendingAdmin",
      "outputs": [],
      "stateMutability": "nonpayable",
      "type": "function"
    }
  ],
  "transactionHash": "0x096d2145b092d46bb39daef330353d4f93673679b6d07406f3758a74e1f36e1d",
  "args": [],
  "numDeployments": 1,
  "solcInputHash": "a711965e590e2c926cf4c8ab21d9f9de",
  "bytecode": "0x608060405234801561001057600080fd5b506109f9806100206000396000f3fe608060405234801561001057600080fd5b506004361061009e5760003560e01c8063267822471161006657806326782247146102215780634dd18bf5146102295780635e9d02531461024f5780638129fc1c1461031f578063a4888f17146103275761009e565b806301bc45c9146100a3578063060aa71e146100c75780630e18b681146100e35780631881db88146100ed578063252f095d146101a1575b600080fd5b6100ab6103e5565b604080516001600160a01b039092168252519081900360200190f35b6100cf6103f4565b604080519115158252519081900360200190f35b6100eb6103f9565b005b6100cf6004803603604081101561010357600080fd5b6001600160a01b038235169190810190604081016020820135600160201b81111561012d57600080fd5b82018360208201111561013f57600080fd5b803590602001918460018302840111600160201b8311171561016057600080fd5b91908080601f0160208091040260200160405190810160405280939291908181526020018383808284376000920191909152509295506104d0945050505050565b6100eb600480360360608110156101b757600080fd5b6001600160a01b038235169190810190604081016020820135600160201b8111156101e157600080fd5b8201836020820111156101f357600080fd5b803590602001918460018302840111600160201b8311171561021457600080fd5b9193509150351515610501565b6100ab610637565b6100eb6004803603602081101561023f57600080fd5b50356001600160a01b0316610646565b61030d6004803603604081101561026557600080fd5b810190602081018135600160201b81111561027f57600080fd5b82018360208201111561029157600080fd5b803590602001918460018302840111600160201b831117156102b257600080fd5b919390929091602081019035600160201b8111156102cf57600080fd5b8201836020820111156102e157600080fd5b803590602001918460018302840111600160201b8311171561030257600080fd5b50909250905061070c565b60408051918252519081900360200190f35b6100eb610716565b61030d6004803603604081101561033d57600080fd5b810190602081018135600160201b81111561035757600080fd5b82018360208201111561036957600080fd5b803590602001918460018302840111600160201b8311171561038a57600080fd5b919390929091602081019035600160201b8111156103a757600080fd5b8201836020820111156103b957600080fd5b803590602001918460018302840111600160201b831117156103da57600080fd5b509092509050610728565b6033546001600160a01b031681565b600190565b6034546001600160a01b031661040d6108bc565b6001600160a01b03161461045d576040805162461bcd60e51b815260206004820152601260248201527137b7363c903832b73234b7339030b236b4b760711b604482015290519081900360640190fd5b603354603454604080516001600160a01b03938416815292909116602083015280517ff9ffabca9c8276e99321725bcb43fb076a6c66a54b7f21c4e8146d8519b417dc9281900390910190a160348054603380546001600160a01b03199081166001600160a01b03841617909155169055565b6035602090815260009283526040909220815180830184018051928152908401929093019190912091525460ff1681565b6033546001600160a01b03166105156108bc565b6001600160a01b03161461055d576040805162461bcd60e51b815260206004820152600a60248201526937b7363c9030b236b4b760b11b604482015290519081900360640190fd5b8060356000866001600160a01b03166001600160a01b031681526020019081526020016000208484604051808383808284379190910194855250506040805160209481900385018120805460ff1916961515969096179095556001600160a01b038916855285151590850152505060609082018181529082018490527f8566fadfde8e78b7df398b12e234d34ce6cb64b0a17f79f0d5319a9d31e864469186918691869186919060808201858580828437600083820152604051601f909101601f191690920182900397509095505050505050a150505050565b6034546001600160a01b031681565b6033546001600160a01b031661065a6108bc565b6001600160a01b0316146106a2576040805162461bcd60e51b815260206004820152600a60248201526937b7363c9030b236b4b760b11b604482015290519081900360640190fd5b603454604080516001600160a01b039283168152918316602083015280517fca4f2f25d0898edd99413412fb94012f9e54ec8142f9b093e7720646a95b16a99281900390910190a1603480546001600160a01b0319166001600160a01b0392909216919091179055565b6000949350505050565b6107266107216108bc565b6108c0565b565b6000806107336108bc565b905060356000826001600160a01b03166001600160a01b031681526020019081526020016000206040518060400160405280600e81526020016d414c4c5f4f5045524154494f4e5360901b8152506040518082805190602001908083835b602083106107b05780518252601f199092019160209182019101610791565b51815160209384036101000a600019018019909216911617905292019485525060405193849003019092205460ff161591506108269050576040805162461bcd60e51b815260206004820152600e60248201526d1c1c9bd91d58dd081c185d5cd95960921b604482015290519081900360640190fd5b6001600160a01b0381166000908152603560205260409081902090518790879080838380828437919091019485525050604051928390036020019092205460ff161591506108b09050576040805162461bcd60e51b815260206004820152601060248201526f1bdc195c985d1a5bdb881c185d5cd95960821b604482015290519081900360640190fd5b50600095945050505050565b3390565b600054610100900460ff16806108d957506108d961097e565b806108e7575060005460ff16155b6109225760405162461bcd60e51b815260040180806020018281038252602e815260200180610996602e913960400191505060405180910390fd5b600054610100900460ff1615801561094d576000805460ff1961ff0019909116610100171660011790555b603380546001600160a01b0319166001600160a01b038416179055801561097a576000805461ff00191690555b5050565b60006109893061098f565b15905090565b3b15159056fe496e697469616c697a61626c653a20636f6e747261637420697320616c726561647920696e697469616c697a6564a26469706673582212202010dc71ea128c63abe8334f048afd6f6a21092fd0f07f5205efece4cbaf430f64736f6c63430007060033"
}