{
  "address": "0x12C60a687B587656dcBc7D14Eb817cbE8A3Cae79",
  "abi": [
    {
      "inputs": [],
      "stateMutability": "nonpayable",
      "type": "constructor"
    },
    {
      "anonymous": false,
      "inputs": [
        {
          "indexed": false,
          "internalType": "address",
          "name": "oldAdmin",
          "type": "address"
        },
        {
          "indexed": false,
          "internalType": "address",
          "name": "newAdmin",
          "type": "address"
        }
      ],
      "name": "NewAdmin",
      "type": "event"
    },
    {
      "anonymous": false,
      "inputs": [
        {
          "indexed": false,
          "internalType": "address",
          "name": "oldPendingAdmin",
          "type": "address"
        },
        {
          "indexed": false,
          "internalType": "address",
          "name": "newPendingAdmin",
          "type": "address"
        }
      ],
      "name": "NewPendingAdmin",
      "type": "event"
    },
    {
      "anonymous": false,
      "inputs": [
        {
          "indexed": false,
          "internalType": "address",
          "name": "underlying",
          "type": "address"
        },
        {
          "indexed": false,
          "internalType": "uint64",
          "name": "maturity",
          "type": "uint64"
        },
        {
          "indexed": false,
          "internalType": "int256",
          "name": "price",
          "type": "int256"
        }
      ],
      "name": "SetPrice",
      "type": "event"
    },
    {
      "inputs": [
        {
          "internalType": "address",
          "name": "underlying_",
          "type": "address"
        },
        {
          "internalType": "uint64",
          "name": "maturity_",
          "type": "uint64"
        },
        {
          "internalType": "int256",
          "name": "price_",
          "type": "int256"
        }
      ],
      "name": "_setPrice",
      "outputs": [],
      "stateMutability": "nonpayable",
      "type": "function"
    },
    {
      "inputs": [],
      "name": "acceptAdmin",
      "outputs": [],
      "stateMutability": "nonpayable",
      "type": "function"
    },
    {
      "inputs": [],
      "name": "admin",
      "outputs": [
        {
          "internalType": "address",
          "name": "",
          "type": "address"
        }
      ],
      "stateMutability": "view",
      "type": "function"
    },
    {
      "inputs": [
        {
          "internalType": "address",
          "name": "underlying_",
          "type": "address"
        },
        {
          "internalType": "uint64",
          "name": "fromDate_",
          "type": "uint64"
        },
        {
          "internalType": "uint64",
          "name": "toDate_",
          "type": "uint64"
        }
      ],
      "name": "getPrice",
      "outputs": [
        {
          "internalType": "int256",
          "name": "",
          "type": "int256"
        }
      ],
      "stateMutability": "view",
      "type": "function"
    },
    {
      "inputs": [
        {
          "internalType": "address",
          "name": "",
          "type": "address"
        },
        {
          "internalType": "uint256",
          "name": "",
          "type": "uint256"
        }
      ],
      "name": "manualPrice",
      "outputs": [
        {
          "internalType": "int256",
          "name": "",
          "type": "int256"
        }
      ],
      "stateMutability": "view",
      "type": "function"
    },
    {
      "inputs": [],
      "name": "pendingAdmin",
      "outputs": [
        {
          "internalType": "address",
          "name": "",
          "type": "address"
        }
      ],
      "stateMutability": "view",
      "type": "function"
    },
    {
      "inputs": [
        {
          "internalType": "address",
          "name": "underlying_",
          "type": "address"
        },
        {
          "internalType": "uint64",
          "name": "fromDate_",
          "type": "uint64"
        },
        {
          "internalType": "uint64",
          "name": "toDate_",
          "type": "uint64"
        }
      ],
      "name": "refreshPrice",
      "outputs": [],
      "stateMutability": "nonpayable",
      "type": "function"
    },
    {
      "inputs": [
        {
          "internalType": "address",
          "name": "newPendingAdmin",
          "type": "address"
        }
      ],
      "name": "setPendingAdmin",
      "outputs": [],
      "stateMutability": "nonpayable",
      "type": "function"
    }
  ],
  "transactionHash": "0x458c7644d253181e7484b2f8572a3f82a7ce415c82fc27644ea812134bc1cd98",
  "args": [],
  "numDeployments": 1,
  "solcInputHash": "f907c709d3ebb6827c0e181732b5b2a2",
  "bytecode": "0x608060405234801561001057600080fd5b50600080546001600160a01b031916331790556104f7806100326000396000f3fe608060405234801561001057600080fd5b50600436106100785760003560e01c80630e18b6811461007d57806326782247146100875780634dd18bf5146100ab57806357e3206b146100d157806377e0be6d1461010f578063898606fd1461014c578063eaefc90914610187578063f851a440146101c4575b600080fd5b6100856101cc565b005b61008f6102d0565b604080516001600160a01b039092168252519081900360200190f35b610085600480360360208110156100c157600080fd5b50356001600160a01b03166102df565b6100fd600480360360408110156100e757600080fd5b506001600160a01b03813516906020013561037c565b60408051918252519081900360200190f35b6100fd6004803603606081101561012557600080fd5b506001600160a01b03813516906001600160401b0360208201358116916040013516610399565b6100856004803603606081101561016257600080fd5b506001600160a01b03813516906001600160401b0360208201351690604001356103cd565b6100856004803603606081101561019d57600080fd5b506001600160a01b03813516906001600160401b036020820135811691604001351661048d565b61008f610492565b6001546001600160a01b0316331480156101e557503315155b61022b576040805162461bcd60e51b815260206004820152601260248201527137b7363c903832b73234b7339030b236b4b760711b604482015290519081900360640190fd5b60008054600180546001600160a01b038082166001600160a01b031980861682179687905590921690925560408051938316808552949092166020840152815190927ff9ffabca9c8276e99321725bcb43fb076a6c66a54b7f21c4e8146d8519b417dc92908290030190a1600154604080516001600160a01b038085168252909216602083015280516000805160206104a28339815191529281900390910190a15050565b6001546001600160a01b031681565b6000546001600160a01b0316331461032b576040805162461bcd60e51b815260206004820152600a60248201526937b7363c9030b236b4b760b11b604482015290519081900360640190fd5b600180546001600160a01b038381166001600160a01b0319831681179093556040805191909216808252602082019390935281516000805160206104a2833981519152929181900390910190a15050565b600260209081526000928352604080842090915290825290205481565b6001600160a01b03831660009081526002602090815260408083206001600160401b03851684529091529020549392505050565b6000546001600160a01b03163314610419576040805162461bcd60e51b815260206004820152600a60248201526937b7363c9030b236b4b760b11b604482015290519081900360640190fd5b6001600160a01b03831660008181526002602090815260408083206001600160401b03871680855290835292819020859055805193845290830191909152818101839052517fe03c90a92daf3c085234db9a906ca20ecedb59e27bc25e0474b61fe5d2ecc3d49181900360600190a1505050565b505050565b6000546001600160a01b03168156feca4f2f25d0898edd99413412fb94012f9e54ec8142f9b093e7720646a95b16a9a26469706673582212209af9e110983e3b941160acd9c9746953b18d416b4026816ce7fb0545aefe3e5c64736f6c63430007060033"
}