{
  "address": "0x6c5EDD0e5D153A9c110bd2d920EBC468A2E507d9",
  "abi": [
    {
      "anonymous": false,
      "inputs": [
        {
          "indexed": false,
          "internalType": "address",
          "name": "oldAdmin",
          "type": "address"
        },
        {
          "indexed": false,
          "internalType": "address",
          "name": "newAdmin",
          "type": "address"
        }
      ],
      "name": "NewAdmin",
      "type": "event"
    },
    {
      "anonymous": false,
      "inputs": [
        {
          "indexed": false,
          "internalType": "address",
          "name": "oldOracle",
          "type": "address"
        },
        {
          "indexed": false,
          "internalType": "address",
          "name": "newOracle",
          "type": "address"
        }
      ],
      "name": "NewDefaultOracle",
      "type": "event"
    },
    {
      "anonymous": false,
      "inputs": [
        {
          "indexed": false,
          "internalType": "address",
          "name": "oldPendingAdmin",
          "type": "address"
        },
        {
          "indexed": false,
          "internalType": "address",
          "name": "newPendingAdmin",
          "type": "address"
        }
      ],
      "name": "NewPendingAdmin",
      "type": "event"
    },
    {
      "anonymous": false,
      "inputs": [
        {
          "indexed": false,
          "internalType": "address",
          "name": "voucher",
          "type": "address"
        },
        {
          "indexed": false,
          "internalType": "address",
          "name": "oldOracle",
          "type": "address"
        },
        {
          "indexed": false,
          "internalType": "address",
          "name": "newOracle",
          "type": "address"
        }
      ],
      "name": "NewVoucherOracle",
      "type": "event"
    },
    {
      "anonymous": false,
      "inputs": [
        {
          "indexed": false,
          "internalType": "uint64",
          "name": "oldPricePeriod",
          "type": "uint64"
        },
        {
          "indexed": false,
          "internalType": "uint64",
          "name": "newPricePeriod",
          "type": "uint64"
        }
      ],
      "name": "SetDefaultPricePeriod",
      "type": "event"
    },
    {
      "anonymous": false,
      "inputs": [
        {
          "indexed": false,
          "internalType": "address",
          "name": "voucher",
          "type": "address"
        },
        {
          "indexed": false,
          "internalType": "uint64",
          "name": "oldPricePeriod",
          "type": "uint64"
        },
        {
          "indexed": false,
          "internalType": "uint64",
          "name": "newPricePeriod",
          "type": "uint64"
        }
      ],
      "name": "SetPricePeriod",
      "type": "event"
    },
    {
      "inputs": [],
      "name": "_admin",
      "outputs": [
        {
          "internalType": "address",
          "name": "",
          "type": "address"
        }
      ],
      "stateMutability": "view",
      "type": "function"
    },
    {
      "inputs": [
        {
          "internalType": "contract IPriceOracle",
          "name": "newOracle_",
          "type": "address"
        }
      ],
      "name": "_setDefaultOracle",
      "outputs": [],
      "stateMutability": "nonpayable",
      "type": "function"
    },
    {
      "inputs": [
        {
          "internalType": "uint64",
          "name": "pricePeriod_",
          "type": "uint64"
        }
      ],
      "name": "_setDefaultPricePeriod",
      "outputs": [],
      "stateMutability": "nonpayable",
      "type": "function"
    },
    {
      "inputs": [
        {
          "internalType": "address",
          "name": "voucher_",
          "type": "address"
        },
        {
          "internalType": "uint64",
          "name": "pricePeriod_",
          "type": "uint64"
        }
      ],
      "name": "_setPricePeriod",
      "outputs": [],
      "stateMutability": "nonpayable",
      "type": "function"
    },
    {
      "inputs": [
        {
          "internalType": "address",
          "name": "voucher_",
          "type": "address"
        },
        {
          "internalType": "contract IPriceOracle",
          "name": "oracle_",
          "type": "address"
        }
      ],
      "name": "_setVoucherOracle",
      "outputs": [],
      "stateMutability": "nonpayable",
      "type": "function"
    },
    {
      "inputs": [],
      "name": "acceptAdmin",
      "outputs": [],
      "stateMutability": "nonpayable",
      "type": "function"
    },
    {
      "inputs": [],
      "name": "defaultOracle",
      "outputs": [
        {
          "internalType": "contract IPriceOracle",
          "name": "",
          "type": "address"
        }
      ],
      "stateMutability": "view",
      "type": "function"
    },
    {
      "inputs": [],
      "name": "defaultPricePeriod",
      "outputs": [
        {
          "internalType": "uint64",
          "name": "",
          "type": "uint64"
        }
      ],
      "stateMutability": "view",
      "type": "function"
    },
    {
      "inputs": [
        {
          "internalType": "address",
          "name": "voucher_",
          "type": "address"
        }
      ],
      "name": "getOracle",
      "outputs": [
        {
          "internalType": "contract IPriceOracle",
          "name": "",
          "type": "address"
        }
      ],
      "stateMutability": "view",
      "type": "function"
    },
    {
      "inputs": [
        {
          "internalType": "address",
          "name": "voucher_",
          "type": "address"
        },
        {
          "internalType": "uint64",
          "name": "maturity_",
          "type": "uint64"
        }
      ],
      "name": "getPriceOfMaturity",
      "outputs": [
        {
          "internalType": "int256",
          "name": "price_",
          "type": "int256"
        }
      ],
      "stateMutability": "view",
      "type": "function"
    },
    {
      "inputs": [
        {
          "internalType": "address",
          "name": "voucher_",
          "type": "address"
        },
        {
          "internalType": "uint256",
          "name": "tokenId_",
          "type": "uint256"
        }
      ],
      "name": "getPriceOfTokenId",
      "outputs": [
        {
          "internalType": "int256",
          "name": "price_",
          "type": "int256"
        }
      ],
      "stateMutability": "view",
      "type": "function"
    },
    {
      "inputs": [
        {
          "internalType": "address",
          "name": "voucher_",
          "type": "address"
        }
      ],
      "name": "getPricePeriod",
      "outputs": [
        {
          "internalType": "uint64",
          "name": "",
          "type": "uint64"
        }
      ],
      "stateMutability": "view",
      "type": "function"
    },
    {
      "inputs": [
        {
          "internalType": "contract IPriceOracle",
          "name": "oracle_",
          "type": "address"
        }
      ],
      "name": "initialize",
      "outputs": [],
      "stateMutability": "nonpayable",
      "type": "function"
    },
    {
      "inputs": [],
      "name": "pendingAdmin",
      "outputs": [
        {
          "internalType": "address",
          "name": "",
          "type": "address"
        }
      ],
      "stateMutability": "view",
      "type": "function"
    },
    {
      "inputs": [
        {
          "internalType": "address",
          "name": "voucher_",
          "type": "address"
        },
        {
          "internalType": "uint256",
          "name": "slot_",
          "type": "uint256"
        }
      ],
      "name": "refreshUnderlyingPriceOfSlot",
      "outputs": [],
      "stateMutability": "nonpayable",
      "type": "function"
    },
    {
      "inputs": [
        {
          "internalType": "address",
          "name": "voucher_",
          "type": "address"
        },
        {
          "internalType": "uint256",
          "name": "tokenId_",
          "type": "uint256"
        }
      ],
      "name": "refreshUnderlyingPriceOfTokenId",
      "outputs": [],
      "stateMutability": "nonpayable",
      "type": "function"
    },
    {
      "inputs": [
        {
          "internalType": "address",
          "name": "newPendingAdmin_",
          "type": "address"
        }
      ],
      "name": "setPendingAdmin",
      "outputs": [],
      "stateMutability": "nonpayable",
      "type": "function"
    }
  ],
  "transactionHash": "0x5daab6424ee757d0bfa4652e7edad5ad7313162379b4732932c157b134236e55",
  "args": [],
  "numDeployments": 1,
  "solcInputHash": "d77cac3cd00685ace10f0798872e1b86",
  "bytecode": "0x608060405234801561001057600080fd5b50611224806100206000396000f3fe608060405234801561001057600080fd5b50600436106100db5760003560e01c806301bc45c9146100e0578063041c7988146100fe5780630e18b6811461011357806310d3d22e1461011b578063186357df1461012e578063229fddcf1461014e57806326782247146101615780634dd18bf51461016957806373ff2f8e1461017c578063769a09a61461018f57806380bae8c9146101a257806380dce169146101b55780638a7a9897146101bd578063a30875d2146101dd578063a714fed0146101e5578063c4d66de8146101f8578063e542f14d1461020b575b600080fd5b6100e861021e565b6040516100f5919061109e565b60405180910390f35b61011161010c366004611082565b61022d565b005b610111610303565b6100e8610129366004610f25565b6103da565b61014161013c366004610fc7565b610430565b6040516100f59190611119565b61014161015c366004610f9c565b610549565b6100e8610671565b610111610177366004610f25565b610680565b61011161018a366004610f9c565b610746565b61011161019d366004610f25565b61084c565b6101116101b0366004610fc7565b6108f5565b6100e86109e8565b6101d06101cb366004610f25565b6109f7565b6040516100f59190611122565b6101d0610a1b565b6101116101f3366004610f64565b610a31565b610111610206366004610f25565b610aff565b610111610219366004610f9c565b610b70565b6033546001600160a01b031681565b6033546001600160a01b0316610241610b7c565b6001600160a01b031614610289576040805162461bcd60e51b815260206004820152600a60248201526937b7363c9030b236b4b760b11b604482015290519081900360640190fd5b7f054715d6e3111e0e1abf482dd67bdcfc7dd431e16bdaef8d6e618ac80bb8f7b2603460149054906101000a90046001600160401b0316826040516102cf929190611136565b60405180910390a1603480546001600160401b03909216600160a01b02600160a01b600160e01b0319909216919091179055565b6034546001600160a01b0316610317610b7c565b6001600160a01b031614610367576040805162461bcd60e51b815260206004820152601260248201527137b7363c903832b73234b7339030b236b4b760711b604482015290519081900360640190fd5b603354603454604080516001600160a01b03938416815292909116602083015280517ff9ffabca9c8276e99321725bcb43fb076a6c66a54b7f21c4e8146d8519b417dc9281900390910190a160348054603380546001600160a01b03199081166001600160a01b03841617909155169055565b6001600160a01b0381811660009081526037602052604081205490911661040c576035546001600160a01b0316610428565b6001600160a01b03808316600090815260376020526040902054165b90505b919050565b600080836001600160a01b0316636f307dc36040518163ffffffff1660e01b815260040160206040518083038186803b15801561046c57600080fd5b505afa158015610480573d6000803e3d6000fd5b505050506040513d601f19601f820116820180604052508101906104a49190610f48565b90506000806104b38686610b80565b915091506104c0866103da565b6001600160a01b03166377e0be6d8484846040518463ffffffff1660e01b81526004016104ef939291906110ef565b60206040518083038186803b15801561050757600080fd5b505afa15801561051b573d6000803e3d6000fd5b505050506040513d601f19601f8201168201806040525081019061053f9190610ff4565b9695505050505050565b600080836001600160a01b0316636f307dc36040518163ffffffff1660e01b815260040160206040518083038186803b15801561058557600080fd5b505afa158015610599573d6000803e3d6000fd5b505050506040513d601f19601f820116820180604052508101906105bd9190610f48565b905060006105cb8585610bf1565b90506000806105da8784610b80565b915091506105e7876103da565b6001600160a01b03166377e0be6d8584846040518463ffffffff1660e01b8152600401610616939291906110ef565b60206040518083038186803b15801561062e57600080fd5b505afa158015610642573d6000803e3d6000fd5b505050506040513d601f19601f820116820180604052508101906106669190610ff4565b979650505050505050565b6034546001600160a01b031681565b6033546001600160a01b0316610694610b7c565b6001600160a01b0316146106dc576040805162461bcd60e51b815260206004820152600a60248201526937b7363c9030b236b4b760b11b604482015290519081900360640190fd5b603454604080516001600160a01b039283168152918316602083015280517fca4f2f25d0898edd99413412fb94012f9e54ec8142f9b093e7720646a95b16a99281900390910190a1603480546001600160a01b0319166001600160a01b0392909216919091179055565b60006107528383610c7e565b90506000836001600160a01b0316636f307dc36040518163ffffffff1660e01b815260040160206040518083038186803b15801561078f57600080fd5b505afa1580156107a3573d6000803e3d6000fd5b505050506040513d601f19601f820116820180604052508101906107c79190610f48565b90506000806107d68685610b80565b915091506107e3866103da565b6001600160a01b031663eaefc9098484846040518463ffffffff1660e01b8152600401610812939291906110ef565b600060405180830381600087803b15801561082c57600080fd5b505af1158015610840573d6000803e3d6000fd5b50505050505050505050565b6033546001600160a01b0316610860610b7c565b6001600160a01b0316146108a8576040805162461bcd60e51b815260206004820152600a60248201526937b7363c9030b236b4b760b11b604482015290519081900360640190fd5b603580546001600160a01b038381166001600160a01b03198316179092556040519116906000805160206111a1833981519152906108e990839085906110b2565b60405180910390a15050565b6033546001600160a01b0316610909610b7c565b6001600160a01b031614610951576040805162461bcd60e51b815260206004820152600a60248201526937b7363c9030b236b4b760b11b604482015290519081900360640190fd5b6001600160a01b038216600090815260366020526040908190205490517f815f794d3cd644ede95c58b93c0b491322de27f1c9956d576668c88e1675d760916109a79185916001600160401b03169085906110ef565b60405180910390a16001600160a01b0391909116600090815260366020526040902080546001600160401b0319166001600160401b03909216919091179055565b6035546001600160a01b031681565b6001600160a01b03166000908152603660205260409020546001600160401b031690565b603454600160a01b90046001600160401b031681565b6033546001600160a01b0316610a45610b7c565b6001600160a01b031614610a8d576040805162461bcd60e51b815260206004820152600a60248201526937b7363c9030b236b4b760b11b604482015290519081900360640190fd5b6001600160a01b038083166000908152603760205260409081902080548484166001600160a01b031982161790915590519116907f05657778bf8f24b8523836b8e328e95794ccbc75e19eec0ac15bea3a2f945b0590610af2908590849086906110cc565b60405180910390a1505050565b610b0f610b0a610b7c565b610d0a565b60348054600160a01b600160e01b03191661127560a71b179055603580546001600160a01b0319166001600160a01b0383161790556040516000805160206111a183398151915290610b659060009084906110b2565b60405180910390a150565b60006107528383610bf1565b3390565b6001600160a01b038216600090815260366020526040812054819081906001600160401b031615610bd2576001600160a01b0385166000908152603660205260409020546001600160401b0316610be6565b603454600160a01b90046001600160401b03165b840395939450505050565b600080836001600160a01b03166376f10ad0846040518263ffffffff1660e01b8152600401610c209190611119565b6101e06040518083038186803b158015610c3957600080fd5b505afa158015610c4d573d6000803e3d6000fd5b505050506040513d601f19601f82011682018060405250810190610c71919061100c565b5160e00151949350505050565b600080836001600160a01b031663d3ceafb9846040518263ffffffff1660e01b8152600401610cad9190611119565b6101a06040518083038186803b158015610cc657600080fd5b505afa158015610cda573d6000803e3d6000fd5b505050506040513d601f19601f82011682018060405250810190610cfe9190611066565b60e00151949350505050565b600054610100900460ff1680610d235750610d23610dc8565b80610d31575060005460ff16155b610d6c5760405162461bcd60e51b815260040180806020018281038252602e8152602001806111c1602e913960400191505060405180910390fd5b600054610100900460ff16158015610d97576000805460ff1961ff0019909116610100171660011790555b603380546001600160a01b0319166001600160a01b0384161790558015610dc4576000805461ff00191690555b5050565b6000610dd330610dd9565b15905090565b3b151590565b805161042b81611173565b8051801515811461042b57600080fd5b80516002811061042b57600080fd5b60006101a0808385031215610e1c578182fd5b610e2581611150565b915050610e3182610ddf565b8152610e3f60208301610ddf565b602082015260408201516040820152610e5a60608301610f03565b6060820152610e6b60808301610f03565b6080820152610e7c60a08301610f03565b60a0820152610e8d60c08301610f1a565b60c0820152610e9e60e08301610f1a565b60e0820152610100610eb1818401610dfa565b90820152610120610ec3838201610dea565b90820152610140610ed5838201610dea565b90820152610160610ee7838201610dea565b90820152610180610ef9838201610dea565b9082015292915050565b80516001600160801b038116811461042b57600080fd5b805161042b8161118b565b600060208284031215610f36578081fd5b8135610f4181611173565b9392505050565b600060208284031215610f59578081fd5b8151610f4181611173565b60008060408385031215610f76578081fd5b8235610f8181611173565b91506020830135610f9181611173565b809150509250929050565b60008060408385031215610fae578182fd5b8235610fb981611173565b946020939093013593505050565b60008060408385031215610fd9578182fd5b8235610fe481611173565b91506020830135610f918161118b565b600060208284031215611005578081fd5b5051919050565b60006101e0828403121561101e578081fd5b604051606081016001600160401b038111828210171561103a57fe5b6040526110478484610e09565b81526101a083015160208201526101c090920151604083015250919050565b60006101a08284031215611078578081fd5b610f418383610e09565b600060208284031215611093578081fd5b8135610f418161118b565b6001600160a01b0391909116815260200190565b6001600160a01b0392831681529116602082015260400190565b6001600160a01b0393841681529183166020830152909116604082015260600190565b6001600160a01b039390931683526001600160401b03918216602084015216604082015260600190565b90815260200190565b6001600160401b0391909116815260200190565b6001600160401b0392831681529116602082015260400190565b6040518181016001600160401b038111828210171561116b57fe5b604052919050565b6001600160a01b038116811461118857600080fd5b50565b6001600160401b038116811461118857600080fdfe0df2d61fdd201e9633368dca495e2c469e36c48039263448dd8a2a954c19ef1a496e697469616c697a61626c653a20636f6e747261637420697320616c726561647920696e697469616c697a6564a264697066735822122035ad13f068e93a9f3b09b763beacda74f32d6000b43ebab20cbc30e277f7de2764736f6c63430007060033"
}