{
  "address": "0x5117a0d824fB62Ac46050320F07eb62aA63F34a7",
  "abi": [
    {
      "anonymous": false,
      "inputs": [
        {
          "indexed": true,
          "internalType": "address",
          "name": "payee",
          "type": "address"
        },
        {
          "indexed": true,
          "internalType": "uint256",
          "name": "tokenId",
          "type": "uint256"
        },
        {
          "indexed": false,
          "internalType": "uint256",
          "name": "claimAmount",
          "type": "uint256"
        }
      ],
      "name": "ClaimVesting",
      "type": "event"
    },
    {
      "anonymous": false,
      "inputs": [
        {
          "indexed": true,
          "internalType": "address",
          "name": "owner",
          "type": "address"
        },
        {
          "indexed": true,
          "internalType": "uint256",
          "name": "tokenId",
          "type": "uint256"
        },
        {
          "indexed": true,
          "internalType": "uint256",
          "name": "targetTokenId",
          "type": "uint256"
        },
        {
          "indexed": false,
          "internalType": "uint256",
          "name": "mergeVestingAmount",
          "type": "uint256"
        },
        {
          "indexed": false,
          "internalType": "uint256",
          "name": "mergePrincipal",
          "type": "uint256"
        }
      ],
      "name": "MergeVesting",
      "type": "event"
    },
    {
      "anonymous": false,
      "inputs": [
        {
          "indexed": true,
          "internalType": "uint8",
          "name": "claimType",
          "type": "uint8"
        },
        {
          "indexed": true,
          "internalType": "address",
          "name": "minter",
          "type": "address"
        },
        {
          "indexed": true,
          "internalType": "uint256",
          "name": "tokenId",
          "type": "uint256"
        },
        {
          "indexed": false,
          "internalType": "uint64",
          "name": "term",
          "type": "uint64"
        },
        {
          "indexed": false,
          "internalType": "uint64[]",
          "name": "maturities",
          "type": "uint64[]"
        },
        {
          "indexed": false,
          "internalType": "uint32[]",
          "name": "percentages",
          "type": "uint32[]"
        },
        {
          "indexed": false,
          "internalType": "uint256",
          "name": "vestingAmount",
          "type": "uint256"
        },
        {
          "indexed": false,
          "internalType": "uint256",
          "name": "principal",
          "type": "uint256"
        }
      ],
      "name": "MintVesting",
      "type": "event"
    },
    {
      "anonymous": false,
      "inputs": [
        {
          "indexed": false,
          "internalType": "address",
          "name": "oldAdmin",
          "type": "address"
        },
        {
          "indexed": false,
          "internalType": "address",
          "name": "newAdmin",
          "type": "address"
        }
      ],
      "name": "NewAdmin",
      "type": "event"
    },
    {
      "anonymous": false,
      "inputs": [
        {
          "indexed": false,
          "internalType": "address",
          "name": "oldManager",
          "type": "address"
        },
        {
          "indexed": false,
          "internalType": "address",
          "name": "newManager",
          "type": "address"
        }
      ],
      "name": "NewManager",
      "type": "event"
    },
    {
      "anonymous": false,
      "inputs": [
        {
          "indexed": false,
          "internalType": "address",
          "name": "oldPendingAdmin",
          "type": "address"
        },
        {
          "indexed": false,
          "internalType": "address",
          "name": "newPendingAdmin",
          "type": "address"
        }
      ],
      "name": "NewPendingAdmin",
      "type": "event"
    },
    {
      "anonymous": false,
      "inputs": [
        {
          "indexed": true,
          "internalType": "address",
          "name": "recharger",
          "type": "address"
        },
        {
          "indexed": true,
          "internalType": "address",
          "name": "owner",
          "type": "address"
        },
        {
          "indexed": true,
          "internalType": "uint256",
          "name": "tokenId",
          "type": "uint256"
        },
        {
          "indexed": false,
          "internalType": "uint256",
          "name": "rechargeVestingAmount",
          "type": "uint256"
        },
        {
          "indexed": false,
          "internalType": "uint256",
          "name": "rechargePrincipal",
          "type": "uint256"
        }
      ],
      "name": "RechargeVesting",
      "type": "event"
    },
    {
      "anonymous": false,
      "inputs": [
        {
          "indexed": true,
          "internalType": "address",
          "name": "owner",
          "type": "address"
        },
        {
          "indexed": true,
          "internalType": "uint256",
          "name": "tokenId",
          "type": "uint256"
        },
        {
          "indexed": false,
          "internalType": "uint256",
          "name": "newTokenId",
          "type": "uint256"
        },
        {
          "indexed": false,
          "internalType": "uint256",
          "name": "splitVestingAmount",
          "type": "uint256"
        },
        {
          "indexed": false,
          "internalType": "uint256",
          "name": "splitPricipal",
          "type": "uint256"
        }
      ],
      "name": "SplitVesting",
      "type": "event"
    },
    {
      "anonymous": false,
      "inputs": [
        {
          "indexed": true,
          "internalType": "address",
          "name": "from",
          "type": "address"
        },
        {
          "indexed": true,
          "internalType": "uint256",
          "name": "tokenId",
          "type": "uint256"
        },
        {
          "indexed": true,
          "internalType": "address",
          "name": "to",
          "type": "address"
        },
        {
          "indexed": false,
          "internalType": "uint256",
          "name": "targetTokenId",
          "type": "uint256"
        },
        {
          "indexed": false,
          "internalType": "uint256",
          "name": "transferVestingAmount",
          "type": "uint256"
        },
        {
          "indexed": false,
          "internalType": "uint256",
          "name": "transferPrincipal",
          "type": "uint256"
        }
      ],
      "name": "TransferVesting",
      "type": "event"
    },
    {
      "inputs": [],
      "name": "_acceptAdmin",
      "outputs": [],
      "stateMutability": "nonpayable",
      "type": "function"
    },
    {
      "inputs": [],
      "name": "_admin",
      "outputs": [
        {
          "internalType": "address",
          "name": "",
          "type": "address"
        }
      ],
      "stateMutability": "view",
      "type": "function"
    },
    {
      "inputs": [
        {
          "internalType": "string",
          "name": "uri_",
          "type": "string"
        }
      ],
      "name": "_setBaseExternalURI",
      "outputs": [],
      "stateMutability": "nonpayable",
      "type": "function"
    },
    {
      "inputs": [
        {
          "internalType": "string",
          "name": "uri_",
          "type": "string"
        }
      ],
      "name": "_setBaseImageURI",
      "outputs": [],
      "stateMutability": "nonpayable",
      "type": "function"
    },
    {
      "inputs": [
        {
          "internalType": "address",
          "name": "newManager_",
          "type": "address"
        }
      ],
      "name": "_setManager",
      "outputs": [],
      "stateMutability": "nonpayable",
      "type": "function"
    },
    {
      "inputs": [
        {
          "internalType": "address",
          "name": "newPendingAdmin",
          "type": "address"
        }
      ],
      "name": "_setPendingAdmin",
      "outputs": [],
      "stateMutability": "nonpayable",
      "type": "function"
    },
    {
      "inputs": [
        {
          "internalType": "uint256",
          "name": "amount_",
          "type": "uint256"
        }
      ],
      "name": "amount2units",
      "outputs": [
        {
          "internalType": "uint256",
          "name": "",
          "type": "uint256"
        }
      ],
      "stateMutability": "view",
      "type": "function"
    },
    {
      "inputs": [
        {
          "internalType": "address payable",
          "name": "payee",
          "type": "address"
        },
        {
          "internalType": "uint256",
          "name": "tokenId",
          "type": "uint256"
        },
        {
          "internalType": "uint256",
          "name": "amount",
          "type": "uint256"
        }
      ],
      "name": "claim",
      "outputs": [
        {
          "internalType": "uint256",
          "name": "",
          "type": "uint256"
        }
      ],
      "stateMutability": "nonpayable",
      "type": "function"
    },
    {
      "inputs": [
        {
          "internalType": "uint256",
          "name": "tokenId_",
          "type": "uint256"
        }
      ],
      "name": "claimableAmount",
      "outputs": [
        {
          "internalType": "uint256",
          "name": "",
          "type": "uint256"
        }
      ],
      "stateMutability": "view",
      "type": "function"
    },
    {
      "inputs": [
        {
          "internalType": "uint256",
          "name": "tokenId",
          "type": "uint256"
        },
        {
          "internalType": "address",
          "name": "owner",
          "type": "address"
        },
        {
          "internalType": "string",
          "name": "tokenSymbol",
          "type": "string"
        }
      ],
      "name": "getInfo",
      "outputs": [
        {
          "internalType": "string",
          "name": "",
          "type": "string"
        }
      ],
      "stateMutability": "view",
      "type": "function"
    },
    {
      "inputs": [
        {
          "internalType": "uint256",
          "name": "tokenId_",
          "type": "uint256"
        }
      ],
      "name": "getVestingSnapshot",
      "outputs": [
        {
          "internalType": "uint8",
          "name": "",
          "type": "uint8"
        },
        {
          "internalType": "uint64",
          "name": "",
          "type": "uint64"
        },
        {
          "internalType": "uint256",
          "name": "",
          "type": "uint256"
        },
        {
          "internalType": "uint256",
          "name": "",
          "type": "uint256"
        },
        {
          "internalType": "uint64[]",
          "name": "",
          "type": "uint64[]"
        },
        {
          "internalType": "uint32[]",
          "name": "",
          "type": "uint32[]"
        },
        {
          "internalType": "uint256",
          "name": "",
          "type": "uint256"
        },
        {
          "internalType": "string",
          "name": "",
          "type": "string"
        },
        {
          "internalType": "bool",
          "name": "",
          "type": "bool"
        }
      ],
      "stateMutability": "view",
      "type": "function"
    },
    {
      "inputs": [
        {
          "internalType": "address",
          "name": "underlying_",
          "type": "address"
        }
      ],
      "name": "initialize",
      "outputs": [],
      "stateMutability": "nonpayable",
      "type": "function"
    },
    {
      "inputs": [],
      "name": "isVestingPool",
      "outputs": [
        {
          "internalType": "bool",
          "name": "",
          "type": "bool"
        }
      ],
      "stateMutability": "pure",
      "type": "function"
    },
    {
      "inputs": [],
      "name": "manager",
      "outputs": [
        {
          "internalType": "address",
          "name": "",
          "type": "address"
        }
      ],
      "stateMutability": "view",
      "type": "function"
    },
    {
      "inputs": [
        {
          "internalType": "address",
          "name": "owner_",
          "type": "address"
        },
        {
          "internalType": "uint256",
          "name": "tokenId_",
          "type": "uint256"
        },
        {
          "internalType": "uint256",
          "name": "targetTokenId_",
          "type": "uint256"
        }
      ],
      "name": "mergeVesting",
      "outputs": [],
      "stateMutability": "nonpayable",
      "type": "function"
    },
    {
      "inputs": [
        {
          "internalType": "uint8",
          "name": "claimType_",
          "type": "uint8"
        },
        {
          "internalType": "address",
          "name": "minter_",
          "type": "address"
        },
        {
          "internalType": "uint256",
          "name": "tokenId_",
          "type": "uint256"
        },
        {
          "internalType": "uint64",
          "name": "term_",
          "type": "uint64"
        },
        {
          "internalType": "uint256",
          "name": "amount_",
          "type": "uint256"
        },
        {
          "internalType": "uint64[]",
          "name": "maturities_",
          "type": "uint64[]"
        },
        {
          "internalType": "uint32[]",
          "name": "percentages_",
          "type": "uint32[]"
        },
        {
          "internalType": "string",
          "name": "originalInvestor_",
          "type": "string"
        }
      ],
      "name": "mint",
      "outputs": [
        {
          "internalType": "uint256",
          "name": "",
          "type": "uint256"
        }
      ],
      "stateMutability": "nonpayable",
      "type": "function"
    },
    {
      "inputs": [],
      "name": "pendingAdmin",
      "outputs": [
        {
          "internalType": "address",
          "name": "",
          "type": "address"
        }
      ],
      "stateMutability": "view",
      "type": "function"
    },
    {
      "inputs": [
        {
          "internalType": "address",
          "name": "recharger_",
          "type": "address"
        },
        {
          "internalType": "address",
          "name": "owner_",
          "type": "address"
        },
        {
          "internalType": "uint256",
          "name": "tokenId_",
          "type": "uint256"
        },
        {
          "internalType": "uint256",
          "name": "amount_",
          "type": "uint256"
        }
      ],
      "name": "recharge",
      "outputs": [
        {
          "internalType": "uint256",
          "name": "",
          "type": "uint256"
        }
      ],
      "stateMutability": "nonpayable",
      "type": "function"
    },
    {
      "inputs": [
        {
          "internalType": "address",
          "name": "owner_",
          "type": "address"
        },
        {
          "internalType": "uint256",
          "name": "tokenId_",
          "type": "uint256"
        },
        {
          "internalType": "uint256",
          "name": "newTokenId_",
          "type": "uint256"
        },
        {
          "internalType": "uint256",
          "name": "splitUnits_",
          "type": "uint256"
        }
      ],
      "name": "splitVesting",
      "outputs": [],
      "stateMutability": "nonpayable",
      "type": "function"
    },
    {
      "inputs": [],
      "name": "totalAmount",
      "outputs": [
        {
          "internalType": "uint256",
          "name": "",
          "type": "uint256"
        }
      ],
      "stateMutability": "view",
      "type": "function"
    },
    {
      "inputs": [
        {
          "internalType": "address",
          "name": "from_",
          "type": "address"
        },
        {
          "internalType": "uint256",
          "name": "tokenId_",
          "type": "uint256"
        },
        {
          "internalType": "address",
          "name": "to_",
          "type": "address"
        },
        {
          "internalType": "uint256",
          "name": "targetTokenId_",
          "type": "uint256"
        },
        {
          "internalType": "uint256",
          "name": "transferUnits_",
          "type": "uint256"
        }
      ],
      "name": "transferVesting",
      "outputs": [],
      "stateMutability": "nonpayable",
      "type": "function"
    },
    {
      "inputs": [],
      "name": "underlying",
      "outputs": [
        {
          "internalType": "address",
          "name": "",
          "type": "address"
        }
      ],
      "stateMutability": "view",
      "type": "function"
    },
    {
      "inputs": [
        {
          "internalType": "uint256",
          "name": "units_",
          "type": "uint256"
        }
      ],
      "name": "units2amount",
      "outputs": [
        {
          "internalType": "uint256",
          "name": "",
          "type": "uint256"
        }
      ],
      "stateMutability": "view",
      "type": "function"
    },
    {
      "inputs": [
        {
          "internalType": "uint256",
          "name": "",
          "type": "uint256"
        }
      ],
      "name": "vestingById",
      "outputs": [
        {
          "internalType": "uint8",
          "name": "claimType",
          "type": "uint8"
        },
        {
          "internalType": "uint64",
          "name": "term",
          "type": "uint64"
        },
        {
          "internalType": "bool",
          "name": "isValid",
          "type": "bool"
        },
        {
          "internalType": "uint256",
          "name": "vestingAmount",
          "type": "uint256"
        },
        {
          "internalType": "uint256",
          "name": "principal",
          "type": "uint256"
        },
        {
          "internalType": "string",
          "name": "originalInvestor",
          "type": "string"
        }
      ],
      "stateMutability": "view",
      "type": "function"
    }
  ],
  "transactionHash": "0xb08b07fea53a7f662aa361cbb34a15be53b21356e318ac93f786eaca69413b36",
  "args": [],
  "numDeployments": 1,
  "solcInputHash": "7a8b6d439661ca3337543a3b3ac0ff95",
  "bytecode": "0x608060405234801561001057600080fd5b506157fd80620000216000396000f3fe608060405234801561001057600080fd5b50600436106101985760003560e01c80636f307dc3116100e3578063bd9a055a1161008c578063dbb1af6b11610066578063dbb1af6b1461094b578063e9c714f214610967578063eb39befc1461096f57610198565b8063bd9a055a1461072e578063c4d66de8146107f5578063d3f68a7f1461081b57610198565b8063b6a08fae116100bd578063b6a08fae14610626578063b71d1a0c14610662578063b9dfcecb1461068857610198565b80636f307dc3146105a6578063acbd8d53146105ae578063ad0d0874146105e657610198565b8063461d61b711610145578063539898b41161011f578063539898b41461040b578063695bea49146105635780636cfe0ad11461058957610198565b8063461d61b714610266578063481c6a75146103e65780634990d2e2146103ee57610198565b8063267822471161017657806326782247146101f857806329c81fe8146102005780632bc43fd91461023457610198565b806301bc45c91461019d5780631a39d8ef146101c1578063213b1f31146101db575b600080fd5b6101a5610a15565b604080516001600160a01b039092168252519081900360200190f35b6101c9610a24565b60408051918252519081900360200190f35b6101c9600480360360208110156101f157600080fd5b5035610a2a565b6101a5610a31565b6102326004803603606081101561021657600080fd5b506001600160a01b038135169060208101359060400135610a40565b005b6101c96004803603606081101561024a57600080fd5b506001600160a01b038135169060208101359060400135610b6c565b6101c9600480360361010081101561027d57600080fd5b60ff823516916001600160a01b036020820135169160408201359167ffffffffffffffff606082013516916080820135919081019060c0810160a08201356401000000008111156102cd57600080fd5b8201836020820111156102df57600080fd5b8035906020019184602083028401116401000000008311171561030157600080fd5b91939092909160208101903564010000000081111561031f57600080fd5b82018360208201111561033157600080fd5b8035906020019184602083028401116401000000008311171561035357600080fd5b91939092909160208101903564010000000081111561037157600080fd5b82018360208201111561038357600080fd5b803590602001918460018302840111640100000000831117156103a557600080fd5b91908080601f016020809104026020016040519081016040528093929190818152602001838380828437600092019190915250929550610bd2945050505050565b6101a5610ca6565b6101c96004803603602081101561040457600080fd5b5035610cb5565b6104286004803603602081101561042157600080fd5b5035610cb8565b604051808a60ff1681526020018967ffffffffffffffff1681526020018881526020018781526020018060200180602001868152602001806020018515158152602001848103845289818151815260200191508051906020019060200280838360005b838110156104a357818101518382015260200161048b565b50505050905001848103835288818151815260200191508051906020019060200280838360005b838110156104e25781810151838201526020016104ca565b50505050905001848103825286818151815260200191508051906020019080838360005b8381101561051e578181015183820152602001610506565b50505050905090810190601f16801561054b5780820380516001836020036101000a031916815260200191505b509c5050505050505050505050505060405180910390f35b6102326004803603602081101561057957600080fd5b50356001600160a01b0316610f57565b6101c96004803603602081101561059f57600080fd5b5035611006565b6101a56114b2565b610232600480360360808110156105c457600080fd5b506001600160a01b0381351690602081013590604081013590606001356114c1565b610232600480360360a08110156105fc57600080fd5b506001600160a01b03813581169160208101359160408201351690606081013590608001356115a0565b6101c96004803603608081101561063c57600080fd5b506001600160a01b0381358116916020810135909116906040810135906060013561168a565b6102326004803603602081101561067857600080fd5b50356001600160a01b0316611787565b6102326004803603602081101561069e57600080fd5b8101906020810181356401000000008111156106b957600080fd5b8201836020820111156106cb57600080fd5b803590602001918460018302840111640100000000831117156106ed57600080fd5b91908080601f016020809104026020016040519081016040528093929190818152602001838380828437600092019190915250929550611836945050505050565b61074b6004803603602081101561074457600080fd5b5035611899565b604051808760ff1681526020018667ffffffffffffffff168152602001851515815260200184815260200183815260200180602001828103825283818151815260200191508051906020019080838360005b838110156107b557818101518382015260200161079d565b50505050905090810190601f1680156107e25780820380516001836020036101000a031916815260200191505b5097505050505050505060405180910390f35b6102326004803603602081101561080b57600080fd5b50356001600160a01b0316611966565b6108d66004803603606081101561083157600080fd5b8135916001600160a01b036020820135169181019060608101604082013564010000000081111561086157600080fd5b82018360208201111561087357600080fd5b8035906020019184600183028401116401000000008311171561089557600080fd5b91908080601f016020809104026020016040519081016040528093929190818152602001838380828437600092019190915250929550611aa8945050505050565b6040805160208082528351818301528351919283929083019185019080838360005b838110156109105781810151838201526020016108f8565b50505050905090810190601f16801561093d5780820380516001836020036101000a031916815260200191505b509250505060405180910390f35b6109536121a5565b604080519115158252519081900360200190f35b6102326121aa565b6102326004803603602081101561098557600080fd5b8101906020810181356401000000008111156109a057600080fd5b8201836020820111156109b257600080fd5b803590602001918460018302840111640100000000831117156109d457600080fd5b91908080601f0160208091040260200160405190810160405280939291908181526020018383808284376000920191909152509295506122cb945050505050565b6001546001600160a01b031681565b60045490565b805b919050565b6002546001600160a01b031681565b6003546001600160a01b03163314610a8e576040805162461bcd60e51b815260206004820152600c60248201526b37b7363c9036b0b730b3b2b960a11b604482015290519081900360640190fd5b6000818152600560205260408082208483529082208291610aaf919061232a565b6000868152600560205260408120805468ffffffffffffffffff19168155929450909250610ae060018301826153a0565b610aee6002830160006153c8565b60038201805460ff1916905560006004830181905560058301819055610b189060068401906153ed565b50508284866001600160a01b03167fcf8e6c101985f94d3fe77117c0f9c8533c7d9412539e53d2a3cfdaf2319a35728585604051808381526020018281526020019250505060405180910390a45050505050565b6003546000906001600160a01b03163314610bbd576040805162461bcd60e51b815260206004820152600c60248201526b37b7363c9036b0b730b3b2b960a11b604482015290519081900360640190fd5b610bc8848484612429565b90505b9392505050565b6003546000906001600160a01b03163314610c23576040805162461bcd60e51b815260206004820152600c60248201526b37b7363c9036b0b730b3b2b960a11b604482015290519081900360640190fd5b610c978b8b8b8b8b8b8b8080602002602001604051908101604052809392919081815260200183836020028082843760009201919091525050604080516020808f0282810182019093528e82529093508e92508d9182918501908490808284376000920191909152508c92506125c8915050565b9b9a5050505050505050505050565b6003546001600160a01b031681565b90565b600080600080606080600060606000610ccf615431565b60008b8152600560208181526040808420600481015486528084015486840152938f9052918152600190920180548251818502810185019093528083529192909190830182828015610d7457602002820191906000526020600020906000905b82829054906101000a900467ffffffffffffffff1667ffffffffffffffff1681526020019060080190602082600701049283019260010382029150808411610d2f5790505b505050506040808401929092525060008c8152600560209081529082902060020180548351818402810184019094528084529091830182828015610e0357602002820191906000526020600020906000905b82829054906101000a900463ffffffff1663ffffffff1681526020019060040190602082600301049283019260010382029150808411610dc65790505b5050505050606082015260008b8152600560208181526040832054610100810467ffffffffffffffff166080860152928e90525260ff1660a0820152610e488b611006565b60c082015260008b8152600560208181526040808420600381015460ff16151560e0870152938f905291815260069092018054825160026101006001841615026000190190921691909104601f810185900485028201850190935282815292909190830182828015610efb5780601f10610ed057610100808354040283529160200191610efb565b820191906000526020600020905b815481529060010190602001808311610ede57829003601f168201915b50505050508161010001819052508060a00151816080015182600001518360200151846040015185606001518660c001518761010001518860e00151995099509950995099509950995099509950509193959799909294969850565b6001546001600160a01b03163314610fa3576040805162461bcd60e51b815260206004820152600a60248201526937b7363c9030b236b4b760b11b604482015290519081900360640190fd5b600380546001600160a01b038381166001600160a01b0319831681179093556040805191909216808252602082019390935281517f770e6248a70b6ac757edf422766216da592c37e3112db900fe0da8984191831b929181900390910190a15050565b600081815260056020908152604080832081516101008082018452825460ff811683520467ffffffffffffffff1681850152600182018054845181870281018701865281815287969395860193909291908301828280156110ba57602002820191906000526020600020906000905b82829054906101000a900467ffffffffffffffff1667ffffffffffffffff16815260200190600801906020826007010492830192600103820291508084116110755790505b505050505081526020016002820180548060200260200160405190810160405280929190818152602001828054801561113e57602002820191906000526020600020906000905b82829054906101000a900463ffffffff1663ffffffff16815260200190600401906020826003010492830192600103820291508084116111015790505b5050509183525050600382015460ff161515602080830191909152600483015460408084019190915260058401546060840152600684018054825160026101006001841615026000190190921691909104601f8101859004850282018501909352828152608090940193929091908301828280156111fd5780601f106111d2576101008083540402835291602001916111fd565b820191906000526020600020905b8154815290600101906020018083116111e057829003601f168201915b5050505050815250509050806080015161121b576000915050610a2c565b805160ff1615806112305750805160ff166001145b1561134b57806040015160008151811061124657fe5b602002602001015167ffffffffffffffff1642106112695760c001519050610a2c565b600042826040015160008151811061127d57fe5b602002602001015167ffffffffffffffff16039050816020015167ffffffffffffffff1681106112b257600092505050610a2c565b60006112e3836020015167ffffffffffffffff166112dd848660a001516128db90919063ffffffff16565b9061293d565b90508260c001518111156112fd5760009350505050610a2c565b60408051808201909152601681527f636c61696d61626c6520616d6f756e74206572726f7200000000000000000000602082015260c08401516113419183906129a4565b9350505050610a2c565b805160ff166002141561146557806040015160008151811061136957fe5b602002602001015167ffffffffffffffff1642101561138c576000915050610a2c565b604081015151600090600019015b42836040015182815181106113ab57fe5b602002602001015167ffffffffffffffff16116113c757611402565b6113f7836060015182815181106113da57fe5b602002602001015163ffffffff1683612a3b90919063ffffffff16565b91506000190161139a565b5060006112e361271063ffffffff166040518060400160405280601381526020017f6c6f636b656420616d6f756e74206572726f720000000000000000000000000081525061145e858760a001516128db90919063ffffffff16565b9190612a95565b6040805162461bcd60e51b815260206004820152601560248201527f756e737570706f7274656420636c61696d547970650000000000000000000000604482015290519081900360640190fd5b6000546001600160a01b031690565b6003546001600160a01b0316331461150f576040805162461bcd60e51b815260206004820152600c60248201526b37b7363c9036b0b730b3b2b960a11b604482015290519081900360640190fd5b600061151a82610a2a565b60008481526005602052604080822087835290822092935090918291611541919085612af7565b9150915085876001600160a01b03167f842ccca70d70aff647d53848ae43ce0a555cdca51fcf95ba785ab1af6a7e46ad87858560405180848152602001838152602001828152602001935050505060405180910390a350505050505050565b6003546001600160a01b031633146115ee576040805162461bcd60e51b815260206004820152600c60248201526b37b7363c9036b0b730b3b2b960a11b604482015290519081900360640190fd5b60006115f982610a2a565b60008481526005602052604080822088835290822092935090918291611620919085612e22565b91509150856001600160a01b031687896001600160a01b03167f5fc72ab98b59b1b047095a476f089fa045a74aabaa22a35733aad4b60e9123ee88868660405180848152602001838152602001828152602001935050505060405180910390a45050505050505050565b6003546000906001600160a01b031633146116db576040805162461bcd60e51b815260206004820152600c60248201526b37b7363c9036b0b730b3b2b960a11b604482015290519081900360640190fd5b6000546116f2906001600160a01b031686846130a5565b50600083815260056020526040902061170b81846134d8565b505083856001600160a01b0316876001600160a01b03167f65578b2d74d33d006a1e5eb75c144fa68b9bd4cd4f6f3ba18644a80b2a5f63208687604051808381526020018281526020019250505060405180910390a460045461176e9084612a3b565b600455600061177c84610cb5565b979650505050505050565b6001546001600160a01b031633146117d3576040805162461bcd60e51b815260206004820152600a60248201526937b7363c9030b236b4b760b11b604482015290519081900360640190fd5b600280546001600160a01b038381166001600160a01b0319831681179093556040805191909216808252602082019390935281517fca4f2f25d0898edd99413412fb94012f9e54ec8142f9b093e7720646a95b16a9929181900390910190a15050565b6001546001600160a01b03163314611882576040805162461bcd60e51b815260206004820152600a60248201526937b7363c9030b236b4b760b11b604482015290519081900360640190fd5b805161189590600690602084019061548c565b5050565b6005602081815260009283526040928390208054600382015460048301549483015460068401805488516002610100600184161581026000190190931604601f8101899004890282018901909a5289815260ff8087169a9290960467ffffffffffffffff169895909416969495929492939283018282801561195c5780601f106119315761010080835404028352916020019161195c565b820191906000526020600020905b81548152906001019060200180831161193f57829003601f168201915b5050505050905086565b600054600160a01b900460ff16156119c5576040805162461bcd60e51b815260206004820152601360248201527f616c726561647920696e697469616c697a656400000000000000000000000000604482015290519081900360640190fd5b600180546001600160a01b031916331790556119df613563565b6001600160a01b0316816001600160a01b031614611a5d57806001600160a01b03166318160ddd6040518163ffffffff1660e01b815260040160206040518083038186803b158015611a3057600080fd5b505afa158015611a44573d6000803e3d6000fd5b505050506040513d6020811015611a5a57600080fd5b50505b600080547fffffffffffffffffffffff00ffffffffffffffffffffffffffffffffffffffff6001600160a01b039093166001600160a01b03199091161791909116600160a01b179055565b6060806000611ab5613563565b6000546001600160a01b0390811691161415611b0857505060408051808201909152600381527f455448000000000000000000000000000000000000000000000000000000000060208201526012611cd9565b60008054604080517f95d89b4100000000000000000000000000000000000000000000000000000000815290516001600160a01b03909216926395d89b4192600480840193829003018186803b158015611b6157600080fd5b505afa158015611b75573d6000803e3d6000fd5b505050506040513d6000823e601f3d908101601f191682016040526020811015611b9e57600080fd5b8101908080516040519392919084640100000000821115611bbe57600080fd5b908301906020820185811115611bd357600080fd5b8251640100000000811182820188101715611bed57600080fd5b82525081516020918201929091019080838360005b83811015611c1a578181015183820152602001611c02565b50505050905090810190601f168015611c475780820380516001836020036101000a031916815260200191505b5060408181526000547f313ce56700000000000000000000000000000000000000000000000000000000835290519597506001600160a01b03169463313ce567945060048083019450602093509091829003018186803b158015611caa57600080fd5b505afa158015611cbe573d6000803e3d6000fd5b505050506040513d6020811015611cd457600080fd5b505190505b604080516060810182526000546001600160a01b031681526020810184905260ff831691810191909152611d0e87848461357b565b611d188885613861565b600687611d248b6139da565b60078a611d308e6139da565b611d3b8f8f8b613ab5565b60405160200180807f7b226e616d65223a2200000000000000000000000000000000000000000000008152506009018a805190602001908083835b60208310611d955780518252601f199092019160209182019101611d76565b51815160209384036101000a60001901801990921691161790527f222c20226465736372697074696f6e223a220000000000000000000000000000919093019081528b516012909101928c0191508083835b60208310611e065780518252601f199092019160209182019101611de7565b6001836020036101000a038019825116818451168082178552505050505050905001807f222c22696d616765223a20220000000000000000000000000000000000000000815250600c0188805460018160011615610100020316600290048015611ea75780601f10611e85576101008083540402835291820191611ea7565b820191906000526020600020905b815481529060010190602001808311611e93575b5050875160208901908083835b60208310611ed35780518252601f199092019160209182019101611eb4565b6001836020036101000a03801982511681845116808217855250505050505090500180602f60f81b81525060010186805190602001908083835b60208310611f2c5780518252601f199092019160209182019101611f0d565b6001836020036101000a038019825116818451168082178552505050505050905001807f2e706e67222c2265787465726e616c5f75726c223a220000000000000000000081525060160185805460018160011615610100020316600290048015611fcd5780601f10611fab576101008083540402835291820191611fcd565b820191906000526020600020905b815481529060010190602001808311611fb9575b5050845160208601908083835b60208310611ff95780518252601f199092019160209182019101611fda565b6001836020036101000a03801982511681845116808217855250505050505090500180602f60f81b81525060010183805190602001908083835b602083106120525780518252601f199092019160209182019101612033565b51815160209384036101000a60001901801990921691161790527f222c202270726f70657274696573223a20000000000000000000000000000000919093019081528451601190910192850191508083835b602083106120c35780518252601f1990920191602091820191016120a4565b6001836020036101000a03801982511681845116808217855250505050505090500180607d60f81b815250600101995050505050505050505060405160208183030381529060405260405160200180807f646174613a6170706c69636174696f6e2f6a736f6e2c0000000000000000000081525060160182805190602001908083835b602083106121655780518252601f199092019160209182019101612146565b6001836020036101000a03801982511681845116808217855250505050505090500191505060405160208183030381529060405293505050509392505050565b600190565b6002546001600160a01b0316331480156121c357503315155b612214576040805162461bcd60e51b815260206004820152601260248201527f6f6e6c792070656e64696e672061646d696e0000000000000000000000000000604482015290519081900360640190fd5b60018054600280546001600160a01b038082166001600160a01b031980861682179687905590921690925560408051938316808552949092166020840152815190927ff9ffabca9c8276e99321725bcb43fb076a6c66a54b7f21c4e8146d8519b417dc92908290030190a1600254604080516001600160a01b038085168252909216602083015280517fca4f2f25d0898edd99413412fb94012f9e54ec8142f9b093e7720646a95b16a99281900390910190a15050565b6001546001600160a01b03163314612317576040805162461bcd60e51b815260206004820152600a60248201526937b7363c9030b236b4b760b11b604482015290519081900360640190fd5b805161189590600790602084019061548c565b6003820154600090819060ff1680156123475750600383015460ff165b61238d576040805162461bcd60e51b815260206004820152601260248201527176657374696e67206e6f742065786973747360701b604482015290519081900360640190fd5b505060048201546005830154818111156123de576040805162461bcd60e51b815260206004820152600d60248201526c3130b630b731b29032b93937b960991b604482015290519081900360640190fd5b6000600480860182905560058601919091558301546123fd9083612a3b565b600484015560058301546124119082612a3b565b600584015560038401805460ff191690559250929050565b600080821161247f576040805162461bcd60e51b815260206004820152600e60248201527f63616e6e6f7420636c61696d2030000000000000000000000000000000000000604482015290519081900360640190fd5b61248883611006565b8211156124dc576040805162461bcd60e51b815260206004820152600a60248201527f6f76657220636c61696d00000000000000000000000000000000000000000000604482015290519081900360640190fd5b600083815260056020819052604090912090810154831115612545576040805162461bcd60e51b815260206004820152601660248201527f696e73756666696369656e74207072696e636970616c00000000000000000000604482015290519081900360640190fd5b61254f8184614316565b600054612566906001600160a01b031686856143b4565b600454612573908461467c565b60045560408051848152905185916001600160a01b038816917f93b2b5baeb90867d00d09e02023eed58ae019d05b1c254578512984cc85e5ba69181900360200190a36125bf83610cb5565b95945050505050565b60006125d2615518565b600085511180156125e4575083518551145b612635576040805162461bcd60e51b815260206004820152601e60248201527f696e76616c6964206d6174757269746965732f70657263656e74616765730000604482015290519081900360640190fd5b60ff8a16600214156126da576126768560018751038151811061265457fe5b60200260200101518660008151811061266957fe5b60200260200101516146d9565b67ffffffffffffffff908116808352908816146126da576040805162461bcd60e51b815260206004820152600d60248201527f7465726d206d69736d6174636800000000000000000000000000000000000000604482015290519081900360640190fd5b60005b8451811015612723576127168582815181106126f557fe5b602002602001015163ffffffff168360200151612a3b90919063ffffffff16565b60208301526001016126dd565b5060208101516127101461277e576040805162461bcd60e51b815260206004820152601360248201527f696e76616c69642070657263656e746167657300000000000000000000000000604482015290519081900360640190fd5b600054612795906001600160a01b03168a886130a5565b5060008881526005602052604090206127b3818c8a8a8a8a8a614744565b604084018190526127c49150610cb5565b826060018181525050888a6001600160a01b03168c60ff167f3e7233de5bf06ab884f20842274c3db9ba46a83a04c195bb26f267397eb982298b8a8a8d8e604051808667ffffffffffffffff1681526020018060200180602001858152602001848152602001838103835287818151815260200191508051906020019060200280838360005b8381101561286257818101518382015260200161284a565b50505050905001838103825286818151815260200191508051906020019060200280838360005b838110156128a1578181015183820152602001612889565b5050505090500197505050505050505060405180910390a46004546128c69088612a3b565b60045550606001519998505050505050505050565b6000826128ea57506000612937565b828202828482816128f757fe5b04146129345760405162461bcd60e51b81526004018080602001828103825260218152602001806157a76021913960400191505060405180910390fd5b90505b92915050565b6000808211612993576040805162461bcd60e51b815260206004820152601a60248201527f536166654d6174683a206469766973696f6e206279207a65726f000000000000604482015290519081900360640190fd5b81838161299c57fe5b049392505050565b60008184841115612a335760405162461bcd60e51b81526004018080602001828103825283818151815260200191508051906020019080838360005b838110156129f85781810151838201526020016129e0565b50505050905090810190601f168015612a255780820380516001836020036101000a031916815260200191505b509250505060405180910390fd5b505050900390565b600082820183811015612934576040805162461bcd60e51b815260206004820152601b60248201527f536166654d6174683a206164646974696f6e206f766572666c6f770000000000604482015290519081900360640190fd5b60008183612ae45760405162461bcd60e51b81526020600482018181528351602484015283519092839260449091019190850190808383600083156129f85781810151838201526020016129e0565b50828481612aee57fe5b04949350505050565b6003830154600090819060ff16612b4a576040805162461bcd60e51b815260206004820152601260248201527176657374696e67206e6f742065786973747360701b604482015290519081900360640190fd5b846004015485600501541115612b97576040805162461bcd60e51b815260206004820152600d60248201526c3130b630b731b29032b93937b960991b604482015290519081900360640190fd5b612bb685600501546112dd8588600401546128db90919063ffffffff16565b9150612c06826040518060400160405280601a81526020017f73706c6974206578636573732076657374696e67416d6f756e7400000000000081525087600401546129a49092919063ffffffff16565b600486015560408051808201909152601681527f73706c697420657863657373207072696e636970616c0000000000000000000060208201526005860154612c4f9185906129a4565b6005860155845460018601805460408051602080840282018101909252828152612e0994899460ff82169461010090920467ffffffffffffffff16936000939290830182828015612cf357602002820191906000526020600020906000905b82829054906101000a900467ffffffffffffffff1667ffffffffffffffff1681526020019060080190602082600701049283019260010382029150808411612cae5790505b50505050508a600201805480602002602001604051908101604052809291908181526020018280548015612d7257602002820191906000526020600020906000905b82829054906101000a900463ffffffff1663ffffffff1681526020019060040190602082600301049283019260010382029150808411612d355790505b5050505060068d01805460408051602060026001851615610100026000190190941693909304601f8101849004840282018401909252818152935090830182828015612dff5780601f10612dd457610100808354040283529160200191612dff565b820191906000526020600020905b815481529060010190602001808311612de257829003601f168201915b5050505050614744565b5050506004830181905560059092018190559092909150565b6003830154600090819060ff16612e75576040805162461bcd60e51b815260206004820152601260248201527176657374696e67206e6f742065786973747360701b604482015290519081900360640190fd5b50600584015460048501548391612e90916112dd90846128db565b9150612ee0816040518060400160405280601981526020017f7472616e7366657220657863657373207072696e636970616c0000000000000081525087600501546129a49092919063ffffffff16565b600586015560408051808201909152601d81527f7472616e73666572206578636573732076657374696e67416d6f756e7400000060208201526004860154612f299184906129a4565b6004860155600384015460ff166130755784546001860180546040805160208084028201810190925282815261307294899460ff82169461010090920467ffffffffffffffff16936000939290830182828015612fd957602002820191906000526020600020906000905b82829054906101000a900467ffffffffffffffff1667ffffffffffffffff1681526020019060080190602082600701049283019260010382029150808411612f945790505b50505050508a60020180548060200260200160405190810160405280929190818152602001828054801561305857602002820191906000526020600020906000905b82829054906101000a900463ffffffff1663ffffffff168152602001906004019060208260030104928301926001038202915080841161301b5790505b505050505060405180602001604052806000815250614744565b50505b60048401546130849083612a3b565b600485015560058401546130989082612a3b565b6005850155935093915050565b60006130af613563565b6001600160a01b0316846001600160a01b0316141561319357326001600160a01b03841614806130e75750336001600160a01b038416145b613138576040805162461bcd60e51b815260206004820152600f60248201527f73656e646572206d69736d617463680000000000000000000000000000000000604482015290519081900360640190fd5b81341461318c576040805162461bcd60e51b815260206004820152600e60248201527f76616c7565206d69736d61746368000000000000000000000000000000000000604482015290519081900360640190fd5b5080610bcb565b34156131e6576040805162461bcd60e51b815260206004820152601760248201527f646f6e277420737570706f7274206d73672e76616c7565000000000000000000604482015290519081900360640190fd5b6000846001600160a01b03166370a08231306040518263ffffffff1660e01b815260040180826001600160a01b0316815260200191505060206040518083038186803b15801561323557600080fd5b505afa158015613249573d6000803e3d6000fd5b505050506040513d602081101561325f57600080fd5b5051604080516001600160a01b038781166024830152306044830152606480830188905283518084039091018152608490920183526020820180517bffffffffffffffffffffffffffffffffffffffffffffffffffffffff167f23b872dd00000000000000000000000000000000000000000000000000000000178152925182519495506000948594928b16939282918083835b602083106133125780518252601f1990920191602091820191016132f3565b6001836020036101000a0380198251168184511680821785525050505050509050019150506000604051808303816000865af19150503d8060008114613374576040519150601f19603f3d011682016040523d82523d6000602084013e613379565b606091505b50915091508180156133a75750805115806133a757508080602001905160208110156133a457600080fd5b50515b6133f8576040805162461bcd60e51b815260206004820152600360248201527f5354460000000000000000000000000000000000000000000000000000000000604482015290519081900360640190fd5b6000876001600160a01b03166370a08231306040518263ffffffff1660e01b815260040180826001600160a01b0316815260200191505060206040518083038186803b15801561344757600080fd5b505afa15801561345b573d6000803e3d6000fd5b505050506040513d602081101561347157600080fd5b50519050838110156134ca576040805162461bcd60e51b815260206004820152601a60248201527f544f4b454e5f5452414e534645525f494e5f4f564552464c4f57000000000000604482015290519081900360640190fd5b838103945050505050610bcb565b6003820154600090819060ff1661352b576040805162461bcd60e51b815260206004820152601260248201527176657374696e67206e6f742065786973747360701b604482015290519081900360640190fd5b600584015461353a9084612a3b565b6005850155600484015461354e9084612a3b565b60048501819055600590940154939492505050565b73eeeeeeeeeeeeeeeeeeeeeeeeeeeeeeeeeeeeeeee90565b6000838152600560208190526040909120805491015460609160ff169082826135c157506040805180820190915260068152652634b732b0b960d11b60208201526136a9565b8260ff16600114156135f157506040805180820190915260078152664f6e6554696d6560c81b60208201526136a9565b8260ff166002141561146557600087815260056020526040902060010154613618906139da565b6040516020018082805190602001908083835b6020831061364a5780518252601f19909201916020918201910161362b565b6001836020036101000a038019825116818451168082178552505050505050905001807f205374616765730000000000000000000000000000000000000000000000000081525060070191505060405160208183030381529060405290505b856136b3886139da565b6136cc6136c08589614847565b6002890360ff16614a70565b836040516020018085805190602001908083835b602083106136ff5780518252601f1990920191602091820191016136e0565b51815160209384036101000a60001901801990921691161790527f20416c6c6f636174696f6e20566f756368657220230000000000000000000000919093019081528651601590910192870191508083835b602083106137705780518252601f199092019160209182019101613751565b51815160209384036101000a60001901801990921691161790526201016960ed1b919093019081528551600390910192860191508083835b602083106137c75780518252601f1990920191602091820191016137a8565b51815160209384036101000a60001901801990921691161790526201016960ed1b919093019081528451600390910192850191508083835b6020831061381e5780518252601f1990920191602091820191016137ff565b6001836020036101000a03801982511681845116808217855250505050505090500194505050505060405160208183030381529060405293505050509392505050565b606061386c836139da565b828360405160200180807f566f75636865722023000000000000000000000000000000000000000000000081525060090184805190602001908083835b602083106138c85780518252601f1990920191602091820191016138a9565b51815160209384036101000a60001901801990921691161790527f206f662000000000000000000000000000000000000000000000000000000000919093019081528551600490910192860191508083835b602083106139395780518252601f19909201916020918201910161391a565b6001836020036101000a038019825116818451168082178552505050505050905001806156fd60aa913960aa0182805190602001908083835b602083106139915780518252601f199092019160209182019101613972565b6001836020036101000a038019825116818451168082178552505050505050905001806156b3604a9139604a019350505050604051602081830303815290604052905092915050565b6060816139ff57506040805180820190915260018152600360fc1b6020820152610a2c565b8160005b8115613a1757600101600a82049150613a03565b60008167ffffffffffffffff81118015613a3057600080fd5b506040519080825280601f01601f191660200182016040528015613a5b576020820181803683370190505b50859350905060001982015b8315613aac57600a840660300160f81b82828060019003935081518110613a8a57fe5b60200101906001600160f81b031916908160001a905350600a84049350613a67565b50949350505050565b60606000613ac284614b12565b8351613acd90614b12565b8460200151613af6600560008a8152602001908152602001600020600401548760400151614847565b613b1a600560008b8152602001908152602001600020600501548860400151614847565b60008a815260056020526040902054613b359060ff16614caf565b613b4b613b418c611006565b8a60400151614847565b60008c8152600560205260409020613b6590600201614d8f565b60008d8152600560205260409020613b7f906001016150a0565b60405160200180807f7b226f776e6572223a2200000000000000000000000000000000000000000000815250600a018a805190602001908083835b60208310613bd95780518252601f199092019160209182019101613bba565b51815160209384036101000a60001901801990921691161790527f222c22756e6465726c79696e67223a2200000000000000000000000000000000919093019081528b516010909101928c0191508083835b60208310613c4a5780518252601f199092019160209182019101613c2b565b51815160209384036101000a60001901801990921691161790527f222c22756e6465726c79696e6753796d626f6c223a2200000000000000000000919093019081528a516016909101928b0191508083835b60208310613cbb5780518252601f199092019160209182019101613c9c565b51815160209384036101000a60001901801990921691161790527f222c2276657374696e67416d6f756e74223a22000000000000000000000000009190930190815289516013909101928a0191508083835b60208310613d2c5780518252601f199092019160209182019101613d0d565b51815160209384036101000a60001901801990921691161790527f222c227072696e636970616c223a220000000000000000000000000000000000919093019081528851600f90910192890191508083835b60208310613d9d5780518252601f199092019160209182019101613d7e565b51815160209384036101000a60001901801990921691161790527f222c22636c61696d54797065223a220000000000000000000000000000000000919093019081528751600f90910192880191508083835b60208310613e0e5780518252601f199092019160209182019101613def565b51815160209384036101000a60001901801990921691161790527f222c22636c61696d61626c65416d6f756e74223a220000000000000000000000919093019081528651601590910192870191508083835b60208310613e7f5780518252601f199092019160209182019101613e60565b51815160209384036101000a60001901801990921691161790527f222c2270657263656e7461676573223a00000000000000000000000000000000919093019081528551601090910192860191508083835b60208310613ef05780518252601f199092019160209182019101613ed1565b51815160209384036101000a60001901801990921691161790527f2c226d617475726974696573223a000000000000000000000000000000000000919093019081528451600e90910192850191508083835b60208310613f615780518252601f199092019160209182019101613f42565b6001836020036101000a0380198251168184511680821785525050505050509050019950505050505050505050604051602081830303815290604052905060006005600087815260200190815260200160002060000160019054906101000a900467ffffffffffffffff1667ffffffffffffffff16111561410857600085815260056020526040902054819061400590610100900467ffffffffffffffff16615321565b6040516020018083805190602001908083835b602083106140375780518252601f199092019160209182019101614018565b51815160209384036101000a60001901801990921691161790527f2c227465726d223a220000000000000000000000000000000000000000000000919093019081528451600990910192850191508083835b602083106140a85780518252601f199092019160209182019101614089565b6001836020036101000a038019825116818451168082178552505050505050905001807f20646179732200000000000000000000000000000000000000000000000000008152506006019250505060405160208183030381529060405290505b60008581526005602090815260408083206006018054825160026001831615610100026000190190921691909104601f81018590048502820185019093528281529290919083018282801561419e5780601f106141735761010080835404028352916020019161419e565b820191906000526020600020905b81548152906001019060200180831161418157829003601f168201915b505050505090506000815111156142985781816040516020018083805190602001908083835b602083106141e35780518252601f1990920191602091820191016141c4565b51815160209384036101000a60001901801990921691161790527f2c226f726967696e616c496e766573746f72223a220000000000000000000000919093019081528451601590910192850191508083835b602083106142545780518252601f199092019160209182019101614235565b6001836020036101000a03801982511681845116808217855250505050505090500180601160f91b8152506001019250505060405160208183030381529060405291505b816040516020018082805190602001908083835b602083106142cb5780518252601f1990920191602091820191016142ac565b6001836020036101000a03801982511681845116808217855250505050505090500180607d60f81b815250600101915050604051602081830303815290604052925050509392505050565b600382015460ff16614364576040805162461bcd60e51b815260206004820152601260248201527176657374696e67206e6f742065786973747360701b604482015290519081900360640190fd5b60408051808201909152601681527f696e73756666696369656e74207072696e636970616c00000000000000000000602082015260058301546143a89183906129a4565b82600501819055505050565b6143bc613563565b6001600160a01b0316836001600160a01b031614156144e457604080516000808252602082019092526001600160a01b0384169083906040518082805190602001908083835b602083106144215780518252601f199092019160209182019101614402565b6001836020036101000a03801982511681845116808217855250505050505090500191505060006040518083038185875af1925050503d8060008114614483576040519150601f19603f3d011682016040523d82523d6000602084013e614488565b606091505b50509050806144de576040805162461bcd60e51b815260206004820152600360248201527f5354450000000000000000000000000000000000000000000000000000000000604482015290519081900360640190fd5b50614677565b604080516001600160a01b038481166024830152604480830185905283518084039091018152606490920183526020820180517bffffffffffffffffffffffffffffffffffffffffffffffffffffffff167fa9059cbb000000000000000000000000000000000000000000000000000000001781529251825160009485949389169392918291908083835b6020831061458e5780518252601f19909201916020918201910161456f565b6001836020036101000a0380198251168184511680821785525050505050509050019150506000604051808303816000865af19150503d80600081146145f0576040519150601f19603f3d011682016040523d82523d6000602084013e6145f5565b606091505b5091509150818015614623575080511580614623575080806020019051602081101561462057600080fd5b50515b614674576040805162461bcd60e51b815260206004820152600260248201527f5354000000000000000000000000000000000000000000000000000000000000604482015290519081900360640190fd5b50505b505050565b6000828211156146d3576040805162461bcd60e51b815260206004820152601e60248201527f536166654d6174683a207375627472616374696f6e206f766572666c6f770000604482015290519081900360640190fd5b50900390565b60008267ffffffffffffffff168267ffffffffffffffff1611156146d3576040805162461bcd60e51b815260206004820152600c60248201527f7375622d6f766572666c6f770000000000000000000000000000000000000000604482015290519081900360640190fd5b6003870154600090819060ff16156147a3576040805162461bcd60e51b815260206004820152601660248201527f76657374696e6720616c72656164792065786973747300000000000000000000604482015290519081900360640190fd5b885468ffffffffffffffff00191661010067ffffffffffffffff89160217895584516147d89060018b0190602088019061554a565b5083516147ee9060028b01906020870190615600565b50885460ff191660ff89161789556004890186905560058901869055825161481f9060068b0190602086019061548c565b50505060038701805460ff191660011790556004870154600588015497509795505050505050565b606060ff8216600a0a600061486461485f868461293d565b6139da565b9050600061487561485f8785615339565b90506000815190506000836040516020018082805190602001908083835b602083106148b25780518252601f199092019160209182019101614893565b6001836020036101000a038019825116818451168082178552505050505050905001807f2e0000000000000000000000000000000000000000000000000000000000000081525060010191505060405160208183030381529060405290508660ff168210156149b25760005b828860ff16038160ff1610156149b057816040516020018082805190602001908083835b602083106149615780518252601f199092019160209182019101614942565b6001836020036101000a03801982511681845116808217855250505050505090500180600360fc1b8152506001019150506040516020818303038152906040529150808060010191505061491e565b505b80836040516020018083805190602001908083835b602083106149e65780518252601f1990920191602091820191016149c7565b51815160209384036101000a600019018019909216911617905285519190930192850191508083835b60208310614a2e5780518252601f199092019160209182019101614a0f565b6001836020036101000a038019825116818451168082178552505050505050905001925050506040516020818303038152906040529550505050505092915050565b606060008284510367ffffffffffffffff81118015614a8e57600080fd5b506040519080825280601f01601f191660200182016040528015614ab9576020820181803683370190505b5080519091505b60001981019015614b0a57848181518110614ad757fe5b602001015160f81c60f81b828281518110614aee57fe5b60200101906001600160f81b031916908160001a905350614ac0565b509392505050565b604080518082018252601081527f303132333435363738396162636465660000000000000000000000000000000060208201528151602a80825260608281019094526001600160a01b0385169291600091602082018180368337019050509050600360fc1b81600081518110614b8457fe5b60200101906001600160f81b031916908160001a9053507f780000000000000000000000000000000000000000000000000000000000000081600181518110614bc957fe5b60200101906001600160f81b031916908160001a90535060005b6014811015613aac578260048583600c0160208110614bfe57fe5b1a60f81b6001600160f81b031916901c60f81c60ff1681518110614c1e57fe5b602001015160f81c60f81b828260020260020181518110614c3b57fe5b60200101906001600160f81b031916908160001a905350828482600c0160208110614c6257fe5b825191901a600f16908110614c7357fe5b602001015160f81c60f81b828260020260030181518110614c9057fe5b60200101906001600160f81b031916908160001a905350600101614be3565b606060ff821615614d6d578160ff16600114614d47578160ff16600214614d0b576040518060400160405280600781526020017f756e6b6e6f776e00000000000000000000000000000000000000000000000000815250614d42565b6040518060400160405280600681526020017f53746167656400000000000000000000000000000000000000000000000000008152505b614d68565b604051806040016040528060078152602001664f6e6554696d6560c81b8152505b612937565b50506040805180820190915260068152652634b732b0b960d11b602082015290565b60408051605b60f81b602082015281518082036001018152602190910190915260609060005b8354811015615026576000614dfa858381548110614dcf57fe5b6000918252602090912060088204015460079091166004026101000a900463ffffffff166002614847565b6040516020018080601160f91b81525060010182805190602001908083835b60208310614e385780518252601f199092019160209182019101614e19565b6001836020036101000a038019825116818451168082178552505050505050905001807f252200000000000000000000000000000000000000000000000000000000000081525060020191505060405160208183030381529060405290506001858054905003821415614f5d5782816040516020018083805190602001908083835b60208310614ed95780518252601f199092019160209182019101614eba565b51815160209384036101000a600019018019909216911617905285519190930192850191508083835b60208310614f215780518252601f199092019160209182019101614f02565b6001836020036101000a03801982511681845116808217855250505050505090500192505050604051602081830303815290604052925061501d565b82816040516020018083805190602001908083835b60208310614f915780518252601f199092019160209182019101614f72565b51815160209384036101000a600019018019909216911617905285519190930192850191508083835b60208310614fd95780518252601f199092019160209182019101614fba565b6001836020036101000a03801982511681845116808217855250505050505090500180600b60fa1b8152506001019250505060405160208183030381529060405292505b50600101614db5565b50806040516020018082805190602001908083835b6020831061505a5780518252601f19909201916020918201910161503b565b5181516020939093036101000a6000190180199091169216919091179052605d60f81b92019182525060408051808303601e190181526001909201905295945050505050565b60408051605b60f81b602082015281518082036001018152602190910190915260609060005b83548110156152a5578354600019018114156151cf57816151198583815481106150ec57fe5b6000918252602090912060048204015460039091166008026101000a900467ffffffffffffffff166139da565b6040516020018083805190602001908083835b6020831061514b5780518252601f19909201916020918201910161512c565b51815160209384036101000a600019018019909216911617905285519190930192850191508083835b602083106151935780518252601f199092019160209182019101615174565b6001836020036101000a03801982511681845116808217855250505050505090500192505050604051602081830303815290604052915061529d565b816151df8583815481106150ec57fe5b6040516020018083805190602001908083835b602083106152115780518252601f1990920191602091820191016151f2565b51815160209384036101000a600019018019909216911617905285519190930192850191508083835b602083106152595780518252601f19909201916020918201910161523a565b6001836020036101000a03801982511681845116808217855250505050505090500180600b60fa1b8152506001019250505060405160208183030381529060405291505b6001016150c6565b50806040516020018082805190602001908083835b602083106152d95780518252601f1990920191602091820191016152ba565b6001836020036101000a03801982511681845116808217855250505050505090500180605d60f81b815250600101915050604051602081830303815290604052915050919050565b60606129376153328361036061293d565b6002614847565b600080821161538f576040805162461bcd60e51b815260206004820152601860248201527f536166654d6174683a206d6f64756c6f206279207a65726f0000000000000000604482015290519081900360640190fd5b81838161539857fe5b069392505050565b5080546000825560030160049004906000526020600020908101906153c5919061569d565b50565b5080546000825560070160089004906000526020600020908101906153c5919061569d565b50805460018160011615610100020316600290046000825580601f1061541357506153c5565b601f0160209004906000526020600020908101906153c5919061569d565b60405180610120016040528060008152602001600081526020016060815260200160608152602001600067ffffffffffffffff168152602001600060ff16815260200160008152602001600015158152602001606081525090565b828054600181600116156101000203166002900490600052602060002090601f0160209004810192826154c25760008555615508565b82601f106154db57805160ff1916838001178555615508565b82800160010185558215615508579182015b828111156155085782518255916020019190600101906154ed565b5061551492915061569d565b5090565b6040518060800160405280600067ffffffffffffffff1681526020016000815260200160008152602001600081525090565b828054828255906000526020600020906003016004900481019282156155085791602002820160005b838211156155bf57835183826101000a81548167ffffffffffffffff021916908367ffffffffffffffff1602179055509260200192600801602081600701049283019260010302615573565b80156155f35782816101000a81549067ffffffffffffffff02191690556008016020816007010492830192600103026155bf565b505061551492915061569d565b828054828255906000526020600020906007016008900481019282156155085791602002820160005b8382111561566d57835183826101000a81548163ffffffff021916908363ffffffff1602179055509260200192600401602081600301049283019260010302615629565b80156155f35782816101000a81549063ffffffff021916905560040160208160030104928301926001030261566d565b5b80821115615514576000815560010161569e56fe277320616c6c6f636174696f6e73206f6e204f70656e736561206f7220536f6c7620566f7563686572732062792074726164696e672074686520566f7563686572206f6e636861696e2120616c6c6f636174696f6e2e20566f7563686572206973207573656420746f20726570726573656e7420746865206c6f636b2d757020616c6c6f636174696f6e73206f662061206365727461696e2070726f6a6563742c2077686963682069732063757272656e746c79206265696e67207573656420746f20747261646520696e20746865204f5443204d61726b65742e204e6f772c2065766572796f6e652063616e20747261646520536166654d6174683a206d756c7469706c69636174696f6e206f766572666c6f77a264697066735822122021554338e69206cd0396d8d8093bb9d0a84d17f03ce31b87076df483e168bdf564736f6c63430007060033",
  "devdoc": {
    "kind": "dev",
    "methods": {},
    "version": 1
  },
  "userdoc": {
    "kind": "user",
    "methods": {},
    "version": 1
  },
  "storageLayout": {
    "storage": [
      {
        "astId": 10508,
        "contract": "src/voucher/VestingPool.sol:VestingPool",
        "label": "_underlying",
        "offset": 0,
        "slot": "0",
        "type": "t_address"
      },
      {
        "astId": 10510,
        "contract": "src/voucher/VestingPool.sol:VestingPool",
        "label": "_initialized",
        "offset": 20,
        "slot": "0",
        "type": "t_bool"
      },
      {
        "astId": 10512,
        "contract": "src/voucher/VestingPool.sol:VestingPool",
        "label": "_admin",
        "offset": 0,
        "slot": "1",
        "type": "t_address"
      },
      {
        "astId": 10514,
        "contract": "src/voucher/VestingPool.sol:VestingPool",
        "label": "pendingAdmin",
        "offset": 0,
        "slot": "2",
        "type": "t_address"
      },
      {
        "astId": 10516,
        "contract": "src/voucher/VestingPool.sol:VestingPool",
        "label": "manager",
        "offset": 0,
        "slot": "3",
        "type": "t_address"
      },
      {
        "astId": 10518,
        "contract": "src/voucher/VestingPool.sol:VestingPool",
        "label": "_totalAmount",
        "offset": 0,
        "slot": "4",
        "type": "t_uint256"
      },
      {
        "astId": 10522,
        "contract": "src/voucher/VestingPool.sol:VestingPool",
        "label": "vestingById",
        "offset": 0,
        "slot": "5",
        "type": "t_mapping(t_uint256,t_struct(Vesting)12800_storage)"
      },
      {
        "astId": 10524,
        "contract": "src/voucher/VestingPool.sol:VestingPool",
        "label": "_baseImageURI",
        "offset": 0,
        "slot": "6",
        "type": "t_string_storage"
      },
      {
        "astId": 10526,
        "contract": "src/voucher/VestingPool.sol:VestingPool",
        "label": "_baseExternalURI",
        "offset": 0,
        "slot": "7",
        "type": "t_string_storage"
      }
    ],
    "types": {
      "t_address": {
        "encoding": "inplace",
        "label": "address",
        "numberOfBytes": "20"
      },
      "t_array(t_uint32)dyn_storage": {
        "base": "t_uint32",
        "encoding": "dynamic_array",
        "label": "uint32[]",
        "numberOfBytes": "32"
      },
      "t_array(t_uint64)dyn_storage": {
        "base": "t_uint64",
        "encoding": "dynamic_array",
        "label": "uint64[]",
        "numberOfBytes": "32"
      },
      "t_bool": {
        "encoding": "inplace",
        "label": "bool",
        "numberOfBytes": "1"
      },
      "t_mapping(t_uint256,t_struct(Vesting)12800_storage)": {
        "encoding": "mapping",
        "key": "t_uint256",
        "label": "mapping(uint256 => struct VestingLibrary.Vesting)",
        "numberOfBytes": "32",
        "value": "t_struct(Vesting)12800_storage"
      },
      "t_string_storage": {
        "encoding": "bytes",
        "label": "string",
        "numberOfBytes": "32"
      },
      "t_struct(Vesting)12800_storage": {
        "encoding": "inplace",
        "label": "struct VestingLibrary.Vesting",
        "members": [
          {
            "astId": 12783,
            "contract": "src/voucher/VestingPool.sol:VestingPool",
            "label": "claimType",
            "offset": 0,
            "slot": "0",
            "type": "t_uint8"
          },
          {
            "astId": 12785,
            "contract": "src/voucher/VestingPool.sol:VestingPool",
            "label": "term",
            "offset": 1,
            "slot": "0",
            "type": "t_uint64"
          },
          {
            "astId": 12788,
            "contract": "src/voucher/VestingPool.sol:VestingPool",
            "label": "maturities",
            "offset": 0,
            "slot": "1",
            "type": "t_array(t_uint64)dyn_storage"
          },
          {
            "astId": 12791,
            "contract": "src/voucher/VestingPool.sol:VestingPool",
            "label": "percentages",
            "offset": 0,
            "slot": "2",
            "type": "t_array(t_uint32)dyn_storage"
          },
          {
            "astId": 12793,
            "contract": "src/voucher/VestingPool.sol:VestingPool",
            "label": "isValid",
            "offset": 0,
            "slot": "3",
            "type": "t_bool"
          },
          {
            "astId": 12795,
            "contract": "src/voucher/VestingPool.sol:VestingPool",
            "label": "vestingAmount",
            "offset": 0,
            "slot": "4",
            "type": "t_uint256"
          },
          {
            "astId": 12797,
            "contract": "src/voucher/VestingPool.sol:VestingPool",
            "label": "principal",
            "offset": 0,
            "slot": "5",
            "type": "t_uint256"
          },
          {
            "astId": 12799,
            "contract": "src/voucher/VestingPool.sol:VestingPool",
            "label": "originalInvestor",
            "offset": 0,
            "slot": "6",
            "type": "t_string_storage"
          }
        ],
        "numberOfBytes": "224"
      },
      "t_uint256": {
        "encoding": "inplace",
        "label": "uint256",
        "numberOfBytes": "32"
      },
      "t_uint32": {
        "encoding": "inplace",
        "label": "uint32",
        "numberOfBytes": "4"
      },
      "t_uint64": {
        "encoding": "inplace",
        "label": "uint64",
        "numberOfBytes": "8"
      },
      "t_uint8": {
        "encoding": "inplace",
        "label": "uint8",
        "numberOfBytes": "1"
      }
    }
  }
}