{
  "address": "0xb3C59372F263efF72A528668BF7d4C7C249ca585",
  "abi": [
    {
      "anonymous": false,
      "inputs": [
        {
          "indexed": true,
          "internalType": "address",
          "name": "owner",
          "type": "address"
        },
        {
          "indexed": true,
          "internalType": "address",
          "name": "approved",
          "type": "address"
        },
        {
          "indexed": true,
          "internalType": "uint256",
          "name": "tokenId",
          "type": "uint256"
        }
      ],
      "name": "Approval",
      "type": "event"
    },
    {
      "anonymous": false,
      "inputs": [
        {
          "indexed": true,
          "internalType": "address",
          "name": "owner",
          "type": "address"
        },
        {
          "indexed": true,
          "internalType": "address",
          "name": "operator",
          "type": "address"
        },
        {
          "indexed": false,
          "internalType": "bool",
          "name": "approved",
          "type": "bool"
        }
      ],
      "name": "ApprovalForAll",
      "type": "event"
    },
    {
      "anonymous": false,
      "inputs": [
        {
          "indexed": true,
          "internalType": "address",
          "name": "approval",
          "type": "address"
        },
        {
          "indexed": true,
          "internalType": "uint256",
          "name": "tokenId",
          "type": "uint256"
        },
        {
          "indexed": false,
          "internalType": "uint256",
          "name": "allowance",
          "type": "uint256"
        }
      ],
      "name": "ApprovalUnits",
      "type": "event"
    },
    {
      "anonymous": false,
      "inputs": [
        {
          "indexed": true,
          "internalType": "uint256",
          "name": "tokenId",
          "type": "uint256"
        },
        {
          "indexed": true,
          "internalType": "address",
          "name": "to",
          "type": "address"
        },
        {
          "indexed": false,
          "internalType": "uint256",
          "name": "claimUnits",
          "type": "uint256"
        },
        {
          "indexed": false,
          "internalType": "uint256",
          "name": "claimCurrencyAmount",
          "type": "uint256"
        },
        {
          "indexed": false,
          "internalType": "uint256",
          "name": "claimTokenAmount",
          "type": "uint256"
        }
      ],
      "name": "Claim",
      "type": "event"
    },
    {
      "anonymous": false,
      "inputs": [
        {
          "indexed": true,
          "internalType": "address",
          "name": "owner",
          "type": "address"
        },
        {
          "indexed": true,
          "internalType": "uint256",
          "name": "tokenId",
          "type": "uint256"
        },
        {
          "indexed": true,
          "internalType": "uint256",
          "name": "targetTokenId",
          "type": "uint256"
        },
        {
          "indexed": false,
          "internalType": "uint256",
          "name": "mergeUnits",
          "type": "uint256"
        }
      ],
      "name": "Merge",
      "type": "event"
    },
    {
      "anonymous": false,
      "inputs": [
        {
          "indexed": false,
          "internalType": "address",
          "name": "oldAdmin",
          "type": "address"
        },
        {
          "indexed": false,
          "internalType": "address",
          "name": "newAdmin",
          "type": "address"
        }
      ],
      "name": "NewAdmin",
      "type": "event"
    },
    {
      "anonymous": false,
      "inputs": [
        {
          "indexed": false,
          "internalType": "address",
          "name": "oldPendingAdmin",
          "type": "address"
        },
        {
          "indexed": false,
          "internalType": "address",
          "name": "newPendingAdmin",
          "type": "address"
        }
      ],
      "name": "NewPendingAdmin",
      "type": "event"
    },
    {
      "anonymous": false,
      "inputs": [
        {
          "indexed": false,
          "internalType": "address",
          "name": "oldDescriptor",
          "type": "address"
        },
        {
          "indexed": false,
          "internalType": "address",
          "name": "newDescriptor",
          "type": "address"
        }
      ],
      "name": "SetDescriptor",
      "type": "event"
    },
    {
      "anonymous": false,
      "inputs": [
        {
          "indexed": false,
          "internalType": "address",
          "name": "oldSolver",
          "type": "address"
        },
        {
          "indexed": false,
          "internalType": "address",
          "name": "newSolver",
          "type": "address"
        }
      ],
      "name": "SetSolver",
      "type": "event"
    },
    {
      "anonymous": false,
      "inputs": [
        {
          "indexed": true,
          "internalType": "address",
          "name": "owner",
          "type": "address"
        },
        {
          "indexed": true,
          "internalType": "uint256",
          "name": "tokenId",
          "type": "uint256"
        },
        {
          "indexed": false,
          "internalType": "uint256",
          "name": "newTokenId",
          "type": "uint256"
        },
        {
          "indexed": false,
          "internalType": "uint256",
          "name": "splitUnits",
          "type": "uint256"
        }
      ],
      "name": "Split",
      "type": "event"
    },
    {
      "anonymous": false,
      "inputs": [
        {
          "indexed": true,
          "internalType": "address",
          "name": "from",
          "type": "address"
        },
        {
          "indexed": true,
          "internalType": "address",
          "name": "to",
          "type": "address"
        },
        {
          "indexed": true,
          "internalType": "uint256",
          "name": "tokenId",
          "type": "uint256"
        }
      ],
      "name": "Transfer",
      "type": "event"
    },
    {
      "anonymous": false,
      "inputs": [
        {
          "indexed": true,
          "internalType": "address",
          "name": "from",
          "type": "address"
        },
        {
          "indexed": true,
          "internalType": "address",
          "name": "to",
          "type": "address"
        },
        {
          "indexed": true,
          "internalType": "uint256",
          "name": "tokenId",
          "type": "uint256"
        },
        {
          "indexed": false,
          "internalType": "uint256",
          "name": "targetTokenId",
          "type": "uint256"
        },
        {
          "indexed": false,
          "internalType": "uint256",
          "name": "transferUnits",
          "type": "uint256"
        }
      ],
      "name": "TransferUnits",
      "type": "event"
    },
    {
      "inputs": [],
      "name": "_admin",
      "outputs": [
        {
          "internalType": "address",
          "name": "",
          "type": "address"
        }
      ],
      "stateMutability": "view",
      "type": "function"
    },
    {
      "inputs": [],
      "name": "acceptAdmin",
      "outputs": [],
      "stateMutability": "nonpayable",
      "type": "function"
    },
    {
      "inputs": [
        {
          "internalType": "uint256",
          "name": "tokenId_",
          "type": "uint256"
        },
        {
          "internalType": "address",
          "name": "spender_",
          "type": "address"
        }
      ],
      "name": "allowance",
      "outputs": [
        {
          "internalType": "uint256",
          "name": "",
          "type": "uint256"
        }
      ],
      "stateMutability": "view",
      "type": "function"
    },
    {
      "inputs": [
        {
          "internalType": "address",
          "name": "to",
          "type": "address"
        },
        {
          "internalType": "uint256",
          "name": "tokenId",
          "type": "uint256"
        }
      ],
      "name": "approve",
      "outputs": [],
      "stateMutability": "nonpayable",
      "type": "function"
    },
    {
      "inputs": [
        {
          "internalType": "address",
          "name": "to_",
          "type": "address"
        },
        {
          "internalType": "uint256",
          "name": "tokenId_",
          "type": "uint256"
        },
        {
          "internalType": "uint256",
          "name": "allowance_",
          "type": "uint256"
        }
      ],
      "name": "approve",
      "outputs": [],
      "stateMutability": "nonpayable",
      "type": "function"
    },
    {
      "inputs": [
        {
          "internalType": "address",
          "name": "owner",
          "type": "address"
        }
      ],
      "name": "balanceOf",
      "outputs": [
        {
          "internalType": "uint256",
          "name": "",
          "type": "uint256"
        }
      ],
      "stateMutability": "view",
      "type": "function"
    },
    {
      "inputs": [],
      "name": "baseURI",
      "outputs": [
        {
          "internalType": "string",
          "name": "",
          "type": "string"
        }
      ],
      "stateMutability": "view",
      "type": "function"
    },
    {
      "inputs": [
        {
          "internalType": "uint256",
          "name": "tokenId_",
          "type": "uint256"
        }
      ],
      "name": "burn",
      "outputs": [],
      "stateMutability": "nonpayable",
      "type": "function"
    },
    {
      "inputs": [
        {
          "internalType": "uint256",
          "name": "tokenId_",
          "type": "uint256"
        },
        {
          "internalType": "uint256",
          "name": "claimUnits_",
          "type": "uint256"
        }
      ],
      "name": "claim",
      "outputs": [],
      "stateMutability": "nonpayable",
      "type": "function"
    },
    {
      "inputs": [
        {
          "internalType": "uint256",
          "name": "tokenId_",
          "type": "uint256"
        }
      ],
      "name": "claimAll",
      "outputs": [],
      "stateMutability": "nonpayable",
      "type": "function"
    },
    {
      "inputs": [
        {
          "internalType": "uint256",
          "name": "tokenId_",
          "type": "uint256"
        },
        {
          "internalType": "address",
          "name": "to_",
          "type": "address"
        },
        {
          "internalType": "uint256",
          "name": "claimUnits_",
          "type": "uint256"
        }
      ],
      "name": "claimTo",
      "outputs": [],
      "stateMutability": "nonpayable",
      "type": "function"
    },
    {
      "inputs": [],
      "name": "contractURI",
      "outputs": [
        {
          "internalType": "string",
          "name": "",
          "type": "string"
        }
      ],
      "stateMutability": "view",
      "type": "function"
    },
    {
      "inputs": [],
      "name": "convertiblePool",
      "outputs": [
        {
          "internalType": "contract ConvertiblePool",
          "name": "",
          "type": "address"
        }
      ],
      "stateMutability": "view",
      "type": "function"
    },
    {
      "inputs": [
        {
          "internalType": "uint256",
          "name": "tokenId",
          "type": "uint256"
        }
      ],
      "name": "getApproved",
      "outputs": [
        {
          "internalType": "address",
          "name": "",
          "type": "address"
        }
      ],
      "stateMutability": "view",
      "type": "function"
    },
    {
      "inputs": [
        {
          "internalType": "address",
          "name": "issuer_",
          "type": "address"
        }
      ],
      "name": "getIssuerSlots",
      "outputs": [
        {
          "internalType": "uint256[]",
          "name": "slots",
          "type": "uint256[]"
        }
      ],
      "stateMutability": "view",
      "type": "function"
    },
    {
      "inputs": [
        {
          "internalType": "address",
          "name": "issuer_",
          "type": "address"
        },
        {
          "internalType": "address",
          "name": "fundCurrency_",
          "type": "address"
        },
        {
          "internalType": "uint128",
          "name": "lowestPrice_",
          "type": "uint128"
        },
        {
          "internalType": "uint128",
          "name": "highestPrice_",
          "type": "uint128"
        },
        {
          "internalType": "uint64",
          "name": "effectiveTime_",
          "type": "uint64"
        },
        {
          "internalType": "uint64",
          "name": "maturity_",
          "type": "uint64"
        },
        {
          "internalType": "uint8",
          "name": "collateralType_",
          "type": "uint8"
        }
      ],
      "name": "getSlot",
      "outputs": [
        {
          "internalType": "uint256",
          "name": "",
          "type": "uint256"
        }
      ],
      "stateMutability": "view",
      "type": "function"
    },
    {
      "inputs": [
        {
          "internalType": "uint256",
          "name": "slot_",
          "type": "uint256"
        }
      ],
      "name": "getSlotDetail",
      "outputs": [
        {
          "components": [
            {
              "internalType": "address",
              "name": "issuer",
              "type": "address"
            },
            {
              "internalType": "address",
              "name": "fundCurrency",
              "type": "address"
            },
            {
              "internalType": "uint256",
              "name": "totalValue",
              "type": "uint256"
            },
            {
              "internalType": "uint128",
              "name": "lowestPrice",
              "type": "uint128"
            },
            {
              "internalType": "uint128",
              "name": "highestPrice",
              "type": "uint128"
            },
            {
              "internalType": "uint128",
              "name": "settlePrice",
              "type": "uint128"
            },
            {
              "internalType": "uint64",
              "name": "effectiveTime",
              "type": "uint64"
            },
            {
              "internalType": "uint64",
              "name": "maturity",
              "type": "uint64"
            },
            {
              "internalType": "enum IConvertiblePool.CollateralType",
              "name": "collateralType",
              "type": "uint8"
            },
            {
              "internalType": "bool",
              "name": "isIssuerRefunded",
              "type": "bool"
            },
            {
              "internalType": "bool",
              "name": "isIssuerWithdrawn",
              "type": "bool"
            },
            {
              "internalType": "bool",
              "name": "isClaimed",
              "type": "bool"
            },
            {
              "internalType": "bool",
              "name": "isValid",
              "type": "bool"
            }
          ],
          "internalType": "struct IConvertiblePool.SlotDetail",
          "name": "",
          "type": "tuple"
        }
      ],
      "stateMutability": "view",
      "type": "function"
    },
    {
      "inputs": [
        {
          "internalType": "uint256",
          "name": "tokenId_",
          "type": "uint256"
        }
      ],
      "name": "getSnapshot",
      "outputs": [
        {
          "components": [
            {
              "components": [
                {
                  "internalType": "address",
                  "name": "issuer",
                  "type": "address"
                },
                {
                  "internalType": "address",
                  "name": "fundCurrency",
                  "type": "address"
                },
                {
                  "internalType": "uint256",
                  "name": "totalValue",
                  "type": "uint256"
                },
                {
                  "internalType": "uint128",
                  "name": "lowestPrice",
                  "type": "uint128"
                },
                {
                  "internalType": "uint128",
                  "name": "highestPrice",
                  "type": "uint128"
                },
                {
                  "internalType": "uint128",
                  "name": "settlePrice",
                  "type": "uint128"
                },
                {
                  "internalType": "uint64",
                  "name": "effectiveTime",
                  "type": "uint64"
                },
                {
                  "internalType": "uint64",
                  "name": "maturity",
                  "type": "uint64"
                },
                {
                  "internalType": "enum IConvertiblePool.CollateralType",
                  "name": "collateralType",
                  "type": "uint8"
                },
                {
                  "internalType": "bool",
                  "name": "isIssuerRefunded",
                  "type": "bool"
                },
                {
                  "internalType": "bool",
                  "name": "isIssuerWithdrawn",
                  "type": "bool"
                },
                {
                  "internalType": "bool",
                  "name": "isClaimed",
                  "type": "bool"
                },
                {
                  "internalType": "bool",
                  "name": "isValid",
                  "type": "bool"
                }
              ],
              "internalType": "struct IConvertiblePool.SlotDetail",
              "name": "slotDetail",
              "type": "tuple"
            },
            {
              "internalType": "uint256",
              "name": "tokenId",
              "type": "uint256"
            },
            {
              "internalType": "uint256",
              "name": "parValue",
              "type": "uint256"
            }
          ],
          "internalType": "struct IConvertibleVoucher.ConvertibleVoucherSnapshot",
          "name": "snapshot",
          "type": "tuple"
        }
      ],
      "stateMutability": "view",
      "type": "function"
    },
    {
      "inputs": [
        {
          "internalType": "address",
          "name": "convertiblePool_",
          "type": "address"
        },
        {
          "internalType": "address",
          "name": "voucherDescriptor_",
          "type": "address"
        },
        {
          "internalType": "address",
          "name": "solver_",
          "type": "address"
        },
        {
          "internalType": "uint8",
          "name": "unitDecimals_",
          "type": "uint8"
        },
        {
          "internalType": "string",
          "name": "name_",
          "type": "string"
        },
        {
          "internalType": "string",
          "name": "symbol_",
          "type": "string"
        }
      ],
      "name": "initialize",
      "outputs": [],
      "stateMutability": "nonpayable",
      "type": "function"
    },
    {
      "inputs": [
        {
          "internalType": "address",
          "name": "owner",
          "type": "address"
        },
        {
          "internalType": "address",
          "name": "operator",
          "type": "address"
        }
      ],
      "name": "isApprovedForAll",
      "outputs": [
        {
          "internalType": "bool",
          "name": "",
          "type": "bool"
        }
      ],
      "stateMutability": "view",
      "type": "function"
    },
    {
      "inputs": [
        {
          "internalType": "uint256[]",
          "name": "tokenIds_",
          "type": "uint256[]"
        },
        {
          "internalType": "uint256",
          "name": "targetTokenId_",
          "type": "uint256"
        }
      ],
      "name": "merge",
      "outputs": [],
      "stateMutability": "nonpayable",
      "type": "function"
    },
    {
      "inputs": [
        {
          "internalType": "address",
          "name": "issuer_",
          "type": "address"
        },
        {
          "internalType": "address",
          "name": "fundCurrency_",
          "type": "address"
        },
        {
          "internalType": "uint128",
          "name": "lowestPrice_",
          "type": "uint128"
        },
        {
          "internalType": "uint128",
          "name": "highestPrice_",
          "type": "uint128"
        },
        {
          "internalType": "uint64",
          "name": "effectiveTime_",
          "type": "uint64"
        },
        {
          "internalType": "uint64",
          "name": "maturity_",
          "type": "uint64"
        },
        {
          "internalType": "uint256",
          "name": "tokenInAmount_",
          "type": "uint256"
        }
      ],
      "name": "mint",
      "outputs": [
        {
          "internalType": "uint256",
          "name": "slot",
          "type": "uint256"
        },
        {
          "internalType": "uint256",
          "name": "tokenId",
          "type": "uint256"
        }
      ],
      "stateMutability": "nonpayable",
      "type": "function"
    },
    {
      "inputs": [],
      "name": "name",
      "outputs": [
        {
          "internalType": "string",
          "name": "",
          "type": "string"
        }
      ],
      "stateMutability": "view",
      "type": "function"
    },
    {
      "inputs": [],
      "name": "nextTokenId",
      "outputs": [
        {
          "internalType": "uint32",
          "name": "",
          "type": "uint32"
        }
      ],
      "stateMutability": "view",
      "type": "function"
    },
    {
      "inputs": [],
      "name": "owner",
      "outputs": [
        {
          "internalType": "address",
          "name": "",
          "type": "address"
        }
      ],
      "stateMutability": "view",
      "type": "function"
    },
    {
      "inputs": [
        {
          "internalType": "uint256",
          "name": "tokenId",
          "type": "uint256"
        }
      ],
      "name": "ownerOf",
      "outputs": [
        {
          "internalType": "address",
          "name": "",
          "type": "address"
        }
      ],
      "stateMutability": "view",
      "type": "function"
    },
    {
      "inputs": [],
      "name": "pendingAdmin",
      "outputs": [
        {
          "internalType": "address",
          "name": "",
          "type": "address"
        }
      ],
      "stateMutability": "view",
      "type": "function"
    },
    {
      "inputs": [
        {
          "internalType": "address",
          "name": "from",
          "type": "address"
        },
        {
          "internalType": "address",
          "name": "to",
          "type": "address"
        },
        {
          "internalType": "uint256",
          "name": "tokenId",
          "type": "uint256"
        }
      ],
      "name": "safeTransferFrom",
      "outputs": [],
      "stateMutability": "nonpayable",
      "type": "function"
    },
    {
      "inputs": [
        {
          "internalType": "address",
          "name": "from_",
          "type": "address"
        },
        {
          "internalType": "address",
          "name": "to_",
          "type": "address"
        },
        {
          "internalType": "uint256",
          "name": "tokenId_",
          "type": "uint256"
        },
        {
          "internalType": "uint256",
          "name": "targetTokenId_",
          "type": "uint256"
        },
        {
          "internalType": "uint256",
          "name": "transferUnits_",
          "type": "uint256"
        },
        {
          "internalType": "bytes",
          "name": "data_",
          "type": "bytes"
        }
      ],
      "name": "safeTransferFrom",
      "outputs": [],
      "stateMutability": "nonpayable",
      "type": "function"
    },
    {
      "inputs": [
        {
          "internalType": "address",
          "name": "from",
          "type": "address"
        },
        {
          "internalType": "address",
          "name": "to",
          "type": "address"
        },
        {
          "internalType": "uint256",
          "name": "tokenId",
          "type": "uint256"
        },
        {
          "internalType": "bytes",
          "name": "_data",
          "type": "bytes"
        }
      ],
      "name": "safeTransferFrom",
      "outputs": [],
      "stateMutability": "nonpayable",
      "type": "function"
    },
    {
      "inputs": [
        {
          "internalType": "address",
          "name": "from_",
          "type": "address"
        },
        {
          "internalType": "address",
          "name": "to_",
          "type": "address"
        },
        {
          "internalType": "uint256",
          "name": "tokenId_",
          "type": "uint256"
        },
        {
          "internalType": "uint256",
          "name": "transferUnits_",
          "type": "uint256"
        },
        {
          "internalType": "bytes",
          "name": "data_",
          "type": "bytes"
        }
      ],
      "name": "safeTransferFrom",
      "outputs": [
        {
          "internalType": "uint256",
          "name": "newTokenId",
          "type": "uint256"
        }
      ],
      "stateMutability": "nonpayable",
      "type": "function"
    },
    {
      "inputs": [
        {
          "internalType": "address",
          "name": "operator",
          "type": "address"
        },
        {
          "internalType": "bool",
          "name": "approved",
          "type": "bool"
        }
      ],
      "name": "setApprovalForAll",
      "outputs": [],
      "stateMutability": "nonpayable",
      "type": "function"
    },
    {
      "inputs": [
        {
          "internalType": "address",
          "name": "newPendingAdmin_",
          "type": "address"
        }
      ],
      "name": "setPendingAdmin",
      "outputs": [],
      "stateMutability": "nonpayable",
      "type": "function"
    },
    {
      "inputs": [
        {
          "internalType": "contract IIVOSolver",
          "name": "newSolver_",
          "type": "address"
        }
      ],
      "name": "setSolver",
      "outputs": [],
      "stateMutability": "nonpayable",
      "type": "function"
    },
    {
      "inputs": [
        {
          "internalType": "address",
          "name": "newDescriptor_",
          "type": "address"
        }
      ],
      "name": "setVoucherDescriptor",
      "outputs": [],
      "stateMutability": "nonpayable",
      "type": "function"
    },
    {
      "inputs": [
        {
          "internalType": "uint256",
          "name": "tokenId_",
          "type": "uint256"
        }
      ],
      "name": "slotOf",
      "outputs": [
        {
          "internalType": "uint256",
          "name": "",
          "type": "uint256"
        }
      ],
      "stateMutability": "view",
      "type": "function"
    },
    {
      "inputs": [
        {
          "internalType": "uint256",
          "name": "slot_",
          "type": "uint256"
        }
      ],
      "name": "slotURI",
      "outputs": [
        {
          "internalType": "string",
          "name": "",
          "type": "string"
        }
      ],
      "stateMutability": "view",
      "type": "function"
    },
    {
      "inputs": [],
      "name": "solver",
      "outputs": [
        {
          "internalType": "contract IIVOSolver",
          "name": "",
          "type": "address"
        }
      ],
      "stateMutability": "view",
      "type": "function"
    },
    {
      "inputs": [
        {
          "internalType": "uint256",
          "name": "tokenId_",
          "type": "uint256"
        },
        {
          "internalType": "uint256[]",
          "name": "splitUnits_",
          "type": "uint256[]"
        }
      ],
      "name": "split",
      "outputs": [
        {
          "internalType": "uint256[]",
          "name": "newTokenIds",
          "type": "uint256[]"
        }
      ],
      "stateMutability": "nonpayable",
      "type": "function"
    },
    {
      "inputs": [
        {
          "internalType": "bytes4",
          "name": "interfaceId",
          "type": "bytes4"
        }
      ],
      "name": "supportsInterface",
      "outputs": [
        {
          "internalType": "bool",
          "name": "",
          "type": "bool"
        }
      ],
      "stateMutability": "view",
      "type": "function"
    },
    {
      "inputs": [],
      "name": "symbol",
      "outputs": [
        {
          "internalType": "string",
          "name": "",
          "type": "string"
        }
      ],
      "stateMutability": "view",
      "type": "function"
    },
    {
      "inputs": [
        {
          "internalType": "uint256",
          "name": "index",
          "type": "uint256"
        }
      ],
      "name": "tokenByIndex",
      "outputs": [
        {
          "internalType": "uint256",
          "name": "",
          "type": "uint256"
        }
      ],
      "stateMutability": "view",
      "type": "function"
    },
    {
      "inputs": [
        {
          "internalType": "address",
          "name": "owner",
          "type": "address"
        },
        {
          "internalType": "uint256",
          "name": "index",
          "type": "uint256"
        }
      ],
      "name": "tokenOfOwnerByIndex",
      "outputs": [
        {
          "internalType": "uint256",
          "name": "",
          "type": "uint256"
        }
      ],
      "stateMutability": "view",
      "type": "function"
    },
    {
      "inputs": [
        {
          "internalType": "uint256",
          "name": "slot_",
          "type": "uint256"
        },
        {
          "internalType": "uint256",
          "name": "index_",
          "type": "uint256"
        }
      ],
      "name": "tokenOfSlotByIndex",
      "outputs": [
        {
          "internalType": "uint256",
          "name": "",
          "type": "uint256"
        }
      ],
      "stateMutability": "view",
      "type": "function"
    },
    {
      "inputs": [
        {
          "internalType": "uint256",
          "name": "tokenId_",
          "type": "uint256"
        }
      ],
      "name": "tokenURI",
      "outputs": [
        {
          "internalType": "string",
          "name": "",
          "type": "string"
        }
      ],
      "stateMutability": "view",
      "type": "function"
    },
    {
      "inputs": [
        {
          "internalType": "uint256",
          "name": "slot_",
          "type": "uint256"
        }
      ],
      "name": "tokensInSlot",
      "outputs": [
        {
          "internalType": "uint256",
          "name": "",
          "type": "uint256"
        }
      ],
      "stateMutability": "view",
      "type": "function"
    },
    {
      "inputs": [],
      "name": "totalSupply",
      "outputs": [
        {
          "internalType": "uint256",
          "name": "",
          "type": "uint256"
        }
      ],
      "stateMutability": "view",
      "type": "function"
    },
    {
      "inputs": [
        {
          "internalType": "address",
          "name": "from",
          "type": "address"
        },
        {
          "internalType": "address",
          "name": "to",
          "type": "address"
        },
        {
          "internalType": "uint256",
          "name": "tokenId",
          "type": "uint256"
        }
      ],
      "name": "transferFrom",
      "outputs": [],
      "stateMutability": "nonpayable",
      "type": "function"
    },
    {
      "inputs": [
        {
          "internalType": "address",
          "name": "from_",
          "type": "address"
        },
        {
          "internalType": "address",
          "name": "to_",
          "type": "address"
        },
        {
          "internalType": "uint256",
          "name": "tokenId_",
          "type": "uint256"
        },
        {
          "internalType": "uint256",
          "name": "targetTokenId_",
          "type": "uint256"
        },
        {
          "internalType": "uint256",
          "name": "transferUnits_",
          "type": "uint256"
        }
      ],
      "name": "transferFrom",
      "outputs": [],
      "stateMutability": "nonpayable",
      "type": "function"
    },
    {
      "inputs": [
        {
          "internalType": "address",
          "name": "from_",
          "type": "address"
        },
        {
          "internalType": "address",
          "name": "to_",
          "type": "address"
        },
        {
          "internalType": "uint256",
          "name": "tokenId_",
          "type": "uint256"
        },
        {
          "internalType": "uint256",
          "name": "transferUnits_",
          "type": "uint256"
        }
      ],
      "name": "transferFrom",
      "outputs": [
        {
          "internalType": "uint256",
          "name": "newTokenId",
          "type": "uint256"
        }
      ],
      "stateMutability": "nonpayable",
      "type": "function"
    },
    {
      "inputs": [],
      "name": "underlying",
      "outputs": [
        {
          "internalType": "address",
          "name": "",
          "type": "address"
        }
      ],
      "stateMutability": "view",
      "type": "function"
    },
    {
      "inputs": [],
      "name": "underlyingVestingVoucher",
      "outputs": [
        {
          "internalType": "address",
          "name": "",
          "type": "address"
        }
      ],
      "stateMutability": "view",
      "type": "function"
    },
    {
      "inputs": [],
      "name": "unitDecimals",
      "outputs": [
        {
          "internalType": "uint8",
          "name": "",
          "type": "uint8"
        }
      ],
      "stateMutability": "view",
      "type": "function"
    },
    {
      "inputs": [
        {
          "internalType": "uint256",
          "name": "slot_",
          "type": "uint256"
        }
      ],
      "name": "unitsInSlot",
      "outputs": [
        {
          "internalType": "uint256",
          "name": "units_",
          "type": "uint256"
        }
      ],
      "stateMutability": "view",
      "type": "function"
    },
    {
      "inputs": [
        {
          "internalType": "uint256",
          "name": "tokenId_",
          "type": "uint256"
        }
      ],
      "name": "unitsInToken",
      "outputs": [
        {
          "internalType": "uint256",
          "name": "",
          "type": "uint256"
        }
      ],
      "stateMutability": "view",
      "type": "function"
    },
    {
      "inputs": [],
      "name": "version",
      "outputs": [
        {
          "internalType": "string",
          "name": "",
          "type": "string"
        }
      ],
      "stateMutability": "pure",
      "type": "function"
    },
    {
      "inputs": [],
      "name": "voucherDescriptor",
      "outputs": [
        {
          "internalType": "contract IVNFTDescriptor",
          "name": "",
          "type": "address"
        }
      ],
      "stateMutability": "view",
      "type": "function"
    },
    {
      "inputs": [
        {
          "internalType": "uint256",
          "name": "",
          "type": "uint256"
        }
      ],
      "name": "voucherSlotMapping",
      "outputs": [
        {
          "internalType": "uint256",
          "name": "",
          "type": "uint256"
        }
      ],
      "stateMutability": "view",
      "type": "function"
    },
    {
      "inputs": [],
      "name": "voucherType",
      "outputs": [
        {
          "internalType": "enum Constants.VoucherType",
          "name": "",
          "type": "uint8"
        }
      ],
      "stateMutability": "pure",
      "type": "function"
    }
  ],
  "transactionHash": "0x5f4e0aadc7c861f587e0772c15832220220c1dc500f29741cc1ea1f49b5e9a29",
  "args": [],
  "numDeployments": 1,
  "solcInputHash": "9ff49b32cdf186fd0d344376e8739ce2",
  "bytecode": "0x608060405234801561001057600080fd5b506155ec806100206000396000f3fe608060405234801561001057600080fd5b50600436106102a95760003560e01c806301bc45c9146102ae57806301ffc9a7146102cc57806305271a2a146102ec57806306fdde0314610301578063076d948c14610316578063081812fc14610336578063095ea7b31461034957806309c3dd871461035e5780630e18b6811461037157806318160ddd146103795780631f8794331461038157806323b872dd14610394578063263f3e7e146103a757806326782247146103ba5780632f745c59146103c2578063360454c5146103d5578063426a8493146103dd57806342842e0e146103f057806342966c681461040357806349a7a26d146104165780634aed53c21461041e5780634d47fddb146104315780634dd18bf5146104445780634f6ccce71461045757806354fd4d501461046a5780636352211e146104725780636930fd2a1461048557806369c67247146104985780636c0360eb146104b85780636f307dc3146104c057806370a08231146104c8578063728c6d2a146104db57806375794a3c146104e357806376f10ad0146104f85780637d47a66a146105185780637e2985f31461052b5780638da5cb5b1461053e57806390b5a72b1461054657806394af25eb1461055957806395d89b411461056e578063a22cb46514610576578063a880042514610589578063b88d4fde1461059c578063b9dacaf3146105af578063bbe33ea5146105d0578063bd819ccd146105e3578063bde4c3cb146105eb578063becef607146105fe578063c349026314610611578063c87b56dd14610624578063d149cc3014610637578063d3b1e9a41461064a578063d3ceafb91461065d578063e345e0bc1461067d578063e8a3d48514610690578063e985e9c514610698578063ecaf82a5146106ab578063f242432a146106be578063fe99049a146106d1575b600080fd5b6102b66106e4565b6040516102c39190614e6d565b60405180910390f35b6102df6102da366004614a86565b6106f8565b6040516102c3919061500c565b6102f461071b565b6040516102c3919061523f565b610309610724565b6040516102c3919061502b565b610329610324366004614c11565b6107ba565b6040516102c391906151e2565b6102b6610344366004614c11565b6107f5565b61035c610357366004614922565b610857565b005b61030961036c366004614c11565b61092d565b61035c6109b8565b610329610a9f565b61035c61038f366004614488565b610ab0565b61035c6103a23660046146c9565b610c10565b6103296103b5366004614c11565b610c67565b6102b6610c72565b6103296103d0366004614922565b610c81565b6102b6610caa565b61035c6103eb36600461494d565b610cb9565b61035c6103fe3660046146c9565b610d2c565b61035c610411366004614c11565b610d47565b6102b6610db5565b61035c61042c36600461482a565b610dc4565b61035c61043f36600461487a565b610e2c565b61035c610452366004614488565b610e95565b610329610465366004614c11565b610f60565b610309610f76565b6102b6610480366004614c11565b610f95565b61035c610493366004614c11565b610fbd565b6104ab6104a6366004614c8b565b610fca565b6040516102c39190614fc8565b6103096110bf565b6102b6611120565b6103296104d6366004614488565b61119d565b6102b6611205565b6104eb61124a565b6040516102c3919061522e565b61050b610506366004614c11565b611256565b6040516102c391906151a4565b610329610526366004614638565b61130b565b61035c610539366004614c65565b6113a4565b6102b66116eb565b61035c610554366004614488565b6116ff565b6105616117ef565b6040516102c39190615017565b6103096117f4565b61035c6105843660046148f5565b611855565b610329610597366004614c11565b611956565b61035c6105aa366004614709565b61196d565b6105c26105bd3660046145ac565b6119cb565b6040516102c392919061520a565b61035c6105de366004614981565b611d0e565b6102b6611dae565b6103296105f9366004614c11565b611dbd565b61032961060c366004614c11565b611dcf565b61035c61061f366004614cd4565b611de1565b610309610632366004614c11565b611df7565b610329610645366004614cd4565b611e4e565b61035c6106583660046144f8565b611e66565b61067061066b366004614c11565b611fda565b6040516102c391906151d3565b61032961068b366004614c41565b612063565b61030961208f565b6102df6106a63660046144c0565b612110565b6104ab6106b9366004614488565b61213e565b6103296106cc3660046147b7565b6121c3565b6103296106df366004614772565b612230565b609a5461010090046001600160a01b031681565b6001600160e01b0319811660009081526033602052604090205460ff165b919050565b609a5460ff1690565b606a8054604080516020601f60026000196101006001881615020190951694909404938401819004810282018101909252828152606093909290918301828280156107b05780601f10610785576101008083540402835291602001916107b0565b820191906000526020600020905b81548152906001019060200180831161079357829003601f168201915b5050505050905090565b6000805b6107c783611956565b8110156107ef576107e56107de61060c8584611e4e565b8390612251565b91506001016107be565b50919050565b6000610800826122a9565b61083b5760405162461bcd60e51b815260040180806020018281038252602c8152602001806154d0602c913960400191505060405180910390fd5b506000908152606860205260409020546001600160a01b031690565b600061086282610f95565b9050806001600160a01b0316836001600160a01b031614156108b55760405162461bcd60e51b81526004018080602001828103825260218152602001806155456021913960400191505060405180910390fd5b806001600160a01b03166108c76122b6565b6001600160a01b031614806108e357506108e3816106a66122b6565b61091e5760405162461bcd60e51b81526004018080602001828103825260388152602001806153f56038913960400191505060405180910390fd5b61092883836122ba565b505050565b60d1546040516309c3dd8760e01b81526060916001600160a01b0316906309c3dd879061095e9085906004016151e2565b60006040518083038186803b15801561097657600080fd5b505afa15801561098a573d6000803e3d6000fd5b505050506040513d6000823e601f3d908101601f191682016040526109b29190810190614aae565b92915050565b609b546001600160a01b03166109cc6122b6565b6001600160a01b031614610a1c576040805162461bcd60e51b815260206004820152601260248201527137b7363c903832b73234b7339030b236b4b760711b604482015290519081900360640190fd5b609a54609b54604080516101009093046001600160a01b039081168452909116602083015280517ff9ffabca9c8276e99321725bcb43fb076a6c66a54b7f21c4e8146d8519b417dc9281900390910190a1609b8054609a8054610100600160a81b0319166101006001600160a01b038416021790556001600160a01b0319169055565b6000610aab6066612328565b905090565b609a5461010090046001600160a01b0316610ac96122b6565b6001600160a01b031614610b11576040805162461bcd60e51b815260206004820152600a60248201526937b7363c9030b236b4b760b11b604482015290519081900360640190fd5b806001600160a01b031663060aa71e6040518163ffffffff1660e01b815260040160206040518083038186803b158015610b4a57600080fd5b505afa158015610b5e573d6000803e3d6000fd5b505050506040513d601f19601f82011682018060405250810190610b829190614a6a565b610ba75760405162461bcd60e51b8152600401610b9e9061514e565b60405180910390fd5b60d2546040517f83e13471f78e9191627ca7b1f6e515be1905a328ba88749ea97b203d5334e97d91610be6916001600160a01b03909116908490614f59565b60405180910390a160d280546001600160a01b0319166001600160a01b0392909216919091179055565b610c21610c1b6122b6565b82612333565b610c5c5760405162461bcd60e51b81526004018080602001828103825260318152602001806155666031913960400191505060405180910390fd5b6109288383836123cf565b60006109b282612509565b609b546001600160a01b031681565b6001600160a01b0382166000908152606560205260408120610ca3908361251b565b9392505050565b60d0546001600160a01b031681565b610cc282610f95565b6001600160a01b0316610cd36122b6565b6001600160a01b031614610d21576040805162461bcd60e51b815260206004820152601060248201526f2b27232a1d1037b7363c9037bbb732b960811b604482015290519081900360640190fd5b610928838383612527565b6109288383836040518060200160405280600081525061196d565b610d5081610f95565b6001600160a01b0316610d616122b6565b6001600160a01b031614610da9576040805162461bcd60e51b815260206004820152600a60248201526937b7363c9037bbb732b960b11b604482015290519081900360640190fd5b610db2816125ec565b50565b60d2546001600160a01b031681565b610dcd826122a9565b610e18576040805162461bcd60e51b815260206004820152601760248201527674617267657420746f6b656e206e6f742065786973747360481b604482015290519081900360640190fd5b610e258585858585612604565b5050505050565b610e398686868686610dc4565b610e46868685858561262d565b610e8d576040805162461bcd60e51b81526020600482015260136024820152723a37903737b7102b27232a2932b1b2b4bb32b960691b604482015290519081900360640190fd5b505050505050565b609a5461010090046001600160a01b0316610eae6122b6565b6001600160a01b031614610ef6576040805162461bcd60e51b815260206004820152600a60248201526937b7363c9030b236b4b760b11b604482015290519081900360640190fd5b609b54604080516001600160a01b039283168152918316602083015280517fca4f2f25d0898edd99413412fb94012f9e54ec8142f9b093e7720646a95b16a99281900390910190a1609b80546001600160a01b0319166001600160a01b0392909216919091179055565b600080610f6e6066846127c2565b509392505050565b604080518082019091526005815264312e302e3160d81b602082015290565b60006109b28260405180606001604052806029815260200161545760299139606691906127e0565b610db28161061f83611dcf565b606081611011576040805162461bcd60e51b815260206004820152601060248201526f656d7074792073706c6974556e69747360801b604482015290519081900360640190fd5b816001600160401b038111801561102757600080fd5b50604051908082528060200260200182016040528015611051578160200160208202803683370190505b50905060005b82811015610f6e5760006110696127ed565b90508083838151811061107857fe5b6020026020010181815250506110a1868287878681811061109557fe5b90506020020135612810565b6000868152609c602052604080822054928252902055600101611057565b606d8054604080516020601f60026000196101006001881615020190951694909404938401819004810282018101909252828152606093909290918301828280156107b05780601f10610785576101008083540402835291602001916107b0565b60d05460408051632495a59960e01b815290516000926001600160a01b031691632495a599916004808301926020929190829003018186803b15801561116557600080fd5b505afa158015611179573d6000803e3d6000fd5b505050506040513d601f19601f82011682018060405250810190610aab91906144a4565b60006001600160a01b0382166111e45760405162461bcd60e51b815260040180806020018281038252602a81526020018061542d602a913960400191505060405180910390fd5b6001600160a01b03821660009081526065602052604090206109b290612328565b60d05460408051633946369560e11b815290516000926001600160a01b03169163728c6d2a916004808301926020929190829003018186803b15801561116557600080fd5b609d5463ffffffff1681565b61125e6141f6565b6020810182905261126e82611dcf565b60408083019190915260d0546000848152609c60205282902054915163d3ceafb960e01b81526001600160a01b039091169163d3ceafb9916112b391906004016151e2565b6101a06040518083038186803b1580156112cc57600080fd5b505afa1580156112e0573d6000803e3d6000fd5b505050506040513d601f19601f820116820180604052508101906113049190614b17565b8152919050565b60d054604051633ea3d33560e11b81526000916001600160a01b031690637d47a66a90611348908b908b908b908b908b908b908b90600401614f73565b60206040518083038186803b15801561136057600080fd5b505afa158015611374573d6000803e3d6000fd5b505050506040513d601f19601f820116820180604052508101906113989190614c29565b98975050505050505050565b6002609e5414156113ea576040805162461bcd60e51b815260206004820152601f602482015260008051602061532d833981519152604482015290519081900360640190fd5b6002609e556113f883610f95565b6001600160a01b03166114096122b6565b6001600160a01b03161461142f5760405162461bcd60e51b8152600401610b9e906150fb565b61143883611dcf565b8111156114575760405162461bcd60e51b8152600401610b9e9061506b565b60d2546000906001600160a01b031663a4888f176114736122b6565b8686866040516020016114899493929190614f0e565b6040516020818303038152906040526040518263ffffffff1660e01b81526004016114b4919061511f565b602060405180830381600087803b1580156114ce57600080fd5b505af11580156114e2573d6000803e3d6000fd5b505050506040513d601f19601f820116820180604052508101906115069190614c29565b905080156115265760405162461bcd60e51b8152600401610b9e9061503e565b60d0546000858152609c6020526040808220549051630bce6ea960e31b8152919283926001600160a01b0390911691635e7375489161156c9190899089906004016151eb565b6040805180830381600087803b15801561158557600080fd5b505af1158015611599573d6000803e3d6000fd5b505050506040513d601f19601f820116820180604052508101906115bd9190614cf5565b915091506115ca86611dcf565b8414156115df576115da866125ec565b6115eb565b6115e98685612961565b505b60d2546001600160a01b0316635e9d02536116046122b6565b88888860405160200161161a9493929190614f0e565b6040516020818303038152906040526040518263ffffffff1660e01b8152600401611645919061511f565b602060405180830381600087803b15801561165f57600080fd5b505af1158015611673573d6000803e3d6000fd5b505050506040513d601f19601f820116820180604052508101906116979190614c29565b50846001600160a01b0316867f318e0a24a7fc05b12e358902d9d58475434a01768f87a4319fb35dc5b533e9868685856040516116d693929190615218565b60405180910390a350506001609e5550505050565b609a5461010090046001600160a01b031690565b609a5461010090046001600160a01b03166117186122b6565b6001600160a01b031614611760576040805162461bcd60e51b815260206004820152600a60248201526937b7363c9030b236b4b760b11b604482015290519081900360640190fd5b6001600160a01b0381166117865760405162461bcd60e51b8152600401610b9e906150b9565b60d1546040517f7bf0986207bb712ddecd4a4710d515a2b1a1daac7c309dcc1d33544189c6ade9916117c5916001600160a01b03909116908490614f59565b60405180910390a160d180546001600160a01b0319166001600160a01b0392909216919091179055565b600290565b606b8054604080516020601f60026000196101006001881615020190951694909404938401819004810282018101909252828152606093909290918301828280156107b05780601f10610785576101008083540402835291602001916107b0565b61185d6122b6565b6001600160a01b0316826001600160a01b031614156118bf576040805162461bcd60e51b815260206004820152601960248201527822a9219b99189d1030b8383937bb32903a379031b0b63632b960391b604482015290519081900360640190fd5b80606960006118cc6122b6565b6001600160a01b03908116825260208083019390935260409182016000908120918716808252919093529120805460ff1916921515929092179091556119106122b6565b6001600160a01b03167f17307eab39ab6107e8899845ad3d59bd9653f200f220920489ca2b5937696c318360405180821515815260200191505060405180910390a35050565b60008181526099602052604081206109b290612328565b61197e6119786122b6565b83612333565b6119b95760405162461bcd60e51b81526004018080602001828103825260318152602001806155666031913960400191505060405180910390fd5b6119c584848484612a1d565b50505050565b6000806002609e541415611a14576040805162461bcd60e51b815260206004820152601f602482015260008051602061532d833981519152604482015290519081900360640190fd5b6002609e5560d2546000906001600160a01b031663a4888f17611a356122b6565b8c8c8c8c8c8c8c604051602001611a53989796959493929190614e81565b6040516020818303038152906040526040518263ffffffff1660e01b8152600401611a7e9190615176565b602060405180830381600087803b158015611a9857600080fd5b505af1158015611aac573d6000803e3d6000fd5b505050506040513d601f19601f82011682018060405250810190611ad09190614c29565b90508015611af05760405162461bcd60e51b8152600401610b9e9061503e565b611b008a8a8a8a8a8a600061130b565b9250611b0b83611fda565b6101800151611ba55760d054604051631599157d60e31b81526001600160a01b039091169063acc8abe890611b51908d908d908d908d908d908d90600090600401614f73565b602060405180830381600087803b158015611b6b57600080fd5b505af1158015611b7f573d6000803e3d6000fd5b505050506040513d601f19601f82011682018060405250810190611ba39190614c29565b505b60d0546000906001600160a01b0316633e7b37f1611bc16122b6565b86886040518463ffffffff1660e01b8152600401611be193929190614f38565b602060405180830381600087803b158015611bfb57600080fd5b505af1158015611c0f573d6000803e3d6000fd5b505050506040513d601f19601f82011682018060405250810190611c339190614c29565b9050611c47611c406122b6565b8583612a6f565b60d2549093506001600160a01b0316635e9d0253611c636122b6565b8d878786604051602001611c7b959493929190614edd565b6040516020818303038152906040526040518263ffffffff1660e01b8152600401611ca69190615176565b602060405180830381600087803b158015611cc057600080fd5b505af1158015611cd4573d6000803e3d6000fd5b505050506040513d601f19601f82011682018060405250810190611cf89190614c29565b50506001609e5550909890975095505050505050565b81611d51576040805162461bcd60e51b815260206004820152600e60248201526d656d70747920746f6b656e49647360901b604482015290519081900360640190fd5b60005b828110156119c557611d78848483818110611d6b57fe5b9050602002013583612a98565b609c6000858584818110611d8857fe5b905060200201358152602001908152602001600020600090558080600101915050611d54565b60d1546001600160a01b031681565b609c6020526000908152604090205481565b60009081526097602052604090205490565b611df382611ded6122b6565b836113a4565b5050565b6060611e02826122a9565b611e1e5760405162461bcd60e51b8152600401610b9e9061508f565b60d15460405163c87b56dd60e01b81526001600160a01b039091169063c87b56dd9061095e9085906004016151e2565b6000828152609960205260408120610ca3908361251b565b600054610100900460ff1680611e7f5750611e7f612c89565b80611e8d575060005460ff16155b611ec85760405162461bcd60e51b815260040180806020018281038252602e815260200180615480602e913960400191505060405180910390fd5b600054610100900460ff16158015611ef3576000805460ff1961ff0019909116610100171660011790555b611efb612c9a565b611f7085858080601f01602080910402602001604051908101604052809392919081815260200183838082843760009201919091525050604080516020601f890181900481028201810190925287815292508791508690819084018382808284376000920191909152508b9250612d43915050565b60d080546001600160a01b03808c166001600160a01b03199283161790925560d180548b841690831617905560d28054928a1692909116919091179055611fbd632270908360e11b612d73565b8015611fcf576000805461ff00191690555b505050505050505050565b611fe261421d565b60d05460405163d3ceafb960e01b81526001600160a01b039091169063d3ceafb9906120129085906004016151e2565b6101a06040518083038186803b15801561202b57600080fd5b505afa15801561203f573d6000803e3d6000fd5b505050506040513d601f19601f820116820180604052508101906109b29190614b17565b60008281526098602090815260408083206001600160a01b038516845260010190915290205492915050565b60d1546040805163e8a3d48560e01b815290516060926001600160a01b03169163e8a3d485916004808301926000929190829003018186803b1580156120d457600080fd5b505afa1580156120e8573d6000803e3d6000fd5b505050506040513d6000823e601f3d908101601f19168201604052610aab9190810190614aae565b6001600160a01b03918216600090815260696020908152604080832093909416825291909152205460ff1690565b60d05460405163ecaf82a560e01b81526060916001600160a01b03169063ecaf82a59061216f908590600401614e6d565b60006040518083038186803b15801561218757600080fd5b505afa15801561219b573d6000803e3d6000fd5b505050506040513d6000823e601f3d908101601f191682016040526109b291908101906149ca565b60006121d186868686612230565b90506121e0868683868661262d565b612227576040805162461bcd60e51b81526020600482015260136024820152723a37903737b7102b27232a2932b1b2b4bb32b960691b604482015290519081900360640190fd5b95945050505050565b600061223a6127ed565b90506122498585858486612604565b949350505050565b600082820183811015610ca3576040805162461bcd60e51b815260206004820152601b60248201527a536166654d6174683a206164646974696f6e206f766572666c6f7760281b604482015290519081900360640190fd5b60006109b2606683612df6565b3390565b600081815260686020526040902080546001600160a01b0319166001600160a01b03841690811790915581906122ef82610f95565b6001600160a01b03167f8c5be1e5ebec7d5bd14f71427d1e84f3dd0314c0f7b2291e5b200ac8c7c3b92560405160405180910390a45050565b60006109b282612e02565b600061233e826122a9565b6123795760405162461bcd60e51b815260040180806020018281038252602c8152602001806153c9602c913960400191505060405180910390fd5b600061238483610f95565b9050806001600160a01b0316846001600160a01b031614806123bf5750836001600160a01b03166123b4846107f5565b6001600160a01b0316145b8061224957506122498185612110565b826001600160a01b03166123e282610f95565b6001600160a01b0316146124275760405162461bcd60e51b81526004018080602001828103825260298152602001806154fc6029913960400191505060405180910390fd5b6001600160a01b03821661246c5760405162461bcd60e51b815260040180806020018281038252602481526020018061537f6024913960400191505060405180910390fd5b612477838383612e06565b6124826000826122ba565b6001600160a01b03831660009081526065602052604090206124a49082612e1e565b506001600160a01b03821660009081526065602052604090206124c79082612e2a565b506124d460668284612e36565b5080826001600160a01b0316846001600160a01b031660008051602061552583398151915260405160405180910390a4505050565b6000908152609c602052604090205490565b6000610ca38383612e4c565b60008281526098602090815260408083206001600160a01b03871684526001019091529020546125895760008281526098602090815260408220805460018101825590835291200180546001600160a01b0319166001600160a01b0385161790555b60008281526098602090815260408083206001600160a01b0387168085526001909101835292819020849055805184815290518593927f8a156bd946dc74ec284c5f4b365ce75ef2a5b9d9462b4cdb1d2400cabf136541928290030190a3505050565b6000818152609c6020526040812055610db281612eb0565b6126118585858585612f4a565b506000918252609c602052604080832054918352909120555050565b6000612641856001600160a01b03166132b4565b61264d57506001612227565b600061278763b382cdcd60e01b6126626122b6565b8988888860405160240180866001600160a01b03168152602001856001600160a01b0316815260200184815260200183815260200180602001828103825283818151815260200191508051906020019080838360005b838110156126d05781810151838201526020016126b8565b50505050905090810190601f1680156126fd5780820380516001836020036101000a031916815260200191505b509650505050505050604051602081830303815290604052906001600160e01b0319166020820180516001600160e01b0383818316178352505050506040518060400160405280601c81526020017b3737b7102b27232a2932b1b2b4bb32b91034b6b83632b6b2b73a32b960211b815250886001600160a01b03166132ba9092919063ffffffff16565b905060008180602001905160208110156127a057600080fd5b50516001600160e01b03191663b382cdcd60e01b149250505095945050505050565b60008080806127d186866132c9565b909450925050505b9250929050565b6000612249848484613344565b609d805463ffffffff198116600163ffffffff9283169081019092161790915590565b61282161281b6122b6565b84612333565b612871576040805162461bcd60e51b815260206004820152601c60248201527b159391950e881b9bdd081bdddb995c881b9bdc88185c1c1c9bdd995960221b604482015290519081900360640190fd5b61287a826122a9565b156128c7576040805162461bcd60e51b81526020600482015260186024820152776e657720746f6b656e20616c72656164792065786973747360401b604482015290519081900360640190fd5b6000838152609760205260409020546128e0908261340e565b6000848152609760205260408120919091556128fb84610f95565b9050612911818461290b87612509565b8561346b565b83816001600160a01b03167ff66885c33d648fcd0d97e0f2a18e30102169c22763473af0fb716f11b4a17dd68585604051808381526020018281526020019250505060405180910390a350505050565b60008061296d84610f95565b90506129c083604051806040016040528060118152602001706275726e2065786365737320756e69747360781b81525060976000888152602001908152602001600020546135039092919063ffffffff16565b6000858152609760209081526040808320939093558251828152908101869052825187936001600160a01b03861692600080516020615597833981519152929081900390910190a450505060009081526097602052604090205490565b612a288484846123cf565b612a348484848461355d565b6119c55760405162461bcd60e51b815260040180806020018281038252603281526020018061534d6032913960400191505060405180910390fd5b6000612a796127ed565b6000818152609c602052604090208490559050610ca38482858561346b565b612aa36119786122b6565b612af3576040805162461bcd60e51b815260206004820152601c60248201527b159391950e881b9bdd081bdddb995c881b9bdc88185c1c1c9bdd995960221b604482015290519081900360640190fd5b80821415612b41576040805162461bcd60e51b81526020600482015260166024820152751cd95b19881b595c99d9481b9bdd08185b1b1bddd95960521b604482015290519081900360640190fd5b612b4a81612509565b612b5383612509565b14612b95576040805162461bcd60e51b815260206004820152600d60248201526c0e6d8dee840dad2e6dac2e8c6d609b1b604482015290519081900360640190fd5b6000612ba083610f95565b9050612bab82610f95565b6001600160a01b0316816001600160a01b031614612c01576040805162461bcd60e51b815260206004820152600e60248201526d3737ba1039b0b6b29037bbb732b960911b604482015290519081900360640190fd5b60008381526097602052604080822054848352908220549185905290612c28908290612251565b600084815260976020526040902055612c4084612eb0565b8284836001600160a01b03167fb3ce851d16b3bbec3774d5631a3893dfa2a80e067cfad265dd594402ac3d6096846040518082815260200191505060405180910390a450505050565b6000612c94306132b4565b15905090565b600054610100900460ff1680612cb35750612cb3612c89565b80612cc1575060005460ff16155b612cfc5760405162461bcd60e51b815260040180806020018281038252602e815260200180615480602e913960400191505060405180910390fd5b600054610100900460ff16158015612d27576000805460ff1961ff0019909116610100171660011790555b612d2f6136c5565b8015610db2576000805461ff001916905550565b612d53612d4e6122b6565b61376b565b612d5e83838361382d565b5050609d805463ffffffff1916600117905550565b6001600160e01b03198082161415612dd1576040805162461bcd60e51b815260206004820152601c60248201527b115490cc4d8d4e881a5b9d985b1a59081a5b9d195c999858d9481a5960221b604482015290519081900360640190fd5b6001600160e01b0319166000908152603360205260409020805460ff19166001179055565b6000610ca3838361385f565b5490565b6001600160a01b038316156109285761092881613877565b6000610ca383836138f9565b6000610ca383836139bf565b600061224984846001600160a01b038516613a09565b81546000908210612e8e5760405162461bcd60e51b815260040180806020018281038252602281526020018061530b6022913960400191505060405180910390fd5b826000018281548110612e9d57fe5b9060005260206000200154905092915050565b6000612ebb82610f95565b90506000612ec883612509565b600084815260976020908152604080832054848452609990925290912091925090612ef39085612e1e565b50600084815260976020526040812055612f0c84613aa0565b604080516000808252602082018490528251879391926001600160a01b0388169260008051602061559783398151915292918290030190a450505050565b612f5383610f95565b6001600160a01b0316856001600160a01b031614612fb6576040805162461bcd60e51b815260206004820152601b60248201527a0e6deeae4c6ca40e8ded6cadc40deeedccae440dad2e6dac2e8c6d602b1b604482015290519081900360640190fd5b6001600160a01b038416613010576040805162461bcd60e51b815260206004820152601c60248201527b7472616e7366657220746f20746865207a65726f206164647265737360201b604482015290519081900360640190fd5b61301d8585858585610e25565b846001600160a01b031661302f6122b6565b6001600160a01b03161415801561304f575061304d856106a66122b6565b155b15613104576130cf816040518060400160405280602081526020017f7472616e7366657220756e697473206578636565647320616c6c6f77616e63658152506098600087815260200190815260200160002060010160006130ae6122b6565b6001600160a01b031681526020810191909152604001600020549190613503565b6000848152609860205260408120600101906130e96122b6565b6001600160a01b031681526020810191909152604001600020555b60408051808201825260158152747472616e736665722065786365737320756e69747360581b60208083019190915260008681526097909152919091205461314d918390613503565b600084815260976020526040902055613165826122a9565b6131825761317d848361317786612509565b8461346b565b61326b565b836001600160a01b031661319583610f95565b6001600160a01b0316146131ee576040805162461bcd60e51b815260206004820152601b60248201527a0e8c2e4cecae840e8ded6cadc40deeedccae440dad2e6dac2e8c6d602b1b604482015290519081900360640190fd5b6131f782612509565b61320084612509565b14613242576040805162461bcd60e51b815260206004820152600d60248201526c0e6d8dee840dad2e6dac2e8c6d609b1b604482015290519081900360640190fd5b60008281526097602052604090205461325b9082612251565b6000838152609760205260409020555b82846001600160a01b0316866001600160a01b03166000805160206155978339815191528585604051808381526020018281526020019250505060405180910390a45050505050565b3b151590565b60606122498484600085613b5b565b81546000908190831061330d5760405162461bcd60e51b81526004018080602001828103825260228152602001806154ae6022913960400191505060405180910390fd5b600084600001848154811061331e57fe5b906000526020600020906002020190508060000154816001015492509250509250929050565b600082815260018401602052604081205482816133df5760405162461bcd60e51b81526004018080602001828103825283818151815260200191508051906020019080838360005b838110156133a457818101518382015260200161338c565b50505050905090810190601f1680156133d15780820380516001836020036101000a031916815260200191505b509250505060405180910390fd5b508460000160018203815481106133f257fe5b9060005260206000209060020201600101549150509392505050565b600082821115613465576040805162461bcd60e51b815260206004820152601e60248201527f536166654d6174683a207375627472616374696f6e206f766572666c6f770000604482015290519081900360640190fd5b50900390565b613474836122a9565b61349c576134828484613cb6565b600082815260996020526040902061349a9084612e2a565b505b6000838152609760205260409020546134b59082612251565b6000848152609760209081526040808320939093558251868152908101849052825191926001600160a01b03881692849260008051602061559783398151915292908290030190a450505050565b600081848411156135555760405162461bcd60e51b81526020600482018181528351602484015283519092839260449091019190850190808383600083156133a457818101518382015260200161338c565b505050900390565b6000613571846001600160a01b03166132b4565b61357d57506001612249565b600061368b630a85bd0160e11b6135926122b6565b88878760405160240180856001600160a01b03168152602001846001600160a01b0316815260200183815260200180602001828103825283818151815260200191508051906020019080838360005b838110156135f95781810151838201526020016135e1565b50505050905090810190601f1680156136265780820380516001836020036101000a031916815260200191505b5095505050505050604051602081830303815290604052906001600160e01b0319166020820180516001600160e01b03838183161783525050505060405180606001604052806032815260200161534d603291396001600160a01b03881691906132ba565b905060008180602001905160208110156136a457600080fd5b50516001600160e01b031916630a85bd0160e11b1492505050949350505050565b600054610100900460ff16806136de57506136de612c89565b806136ec575060005460ff16155b6137275760405162461bcd60e51b815260040180806020018281038252602e815260200180615480602e913960400191505060405180910390fd5b600054610100900460ff16158015613752576000805460ff1961ff0019909116610100171660011790555b6001609e558015610db2576000805461ff001916905550565b600054610100900460ff16806137845750613784612c89565b80613792575060005460ff16155b6137cd5760405162461bcd60e51b815260040180806020018281038252602e815260200180615480602e913960400191505060405180910390fd5b600054610100900460ff161580156137f8576000805460ff1961ff0019909116610100171660011790555b609a8054610100600160a81b0319166101006001600160a01b038516021790558015611df3576000805461ff00191690555050565b6138378383613dd1565b613847634d84a7d760e11b612d73565b609a805460ff191660ff929092169190911790555050565b60009081526001919091016020526040902054151590565b6000818152609860205260408120905b8154811015610928578160010160008360000183815481106138a557fe5b60009182526020808320909101546001600160a01b0316835282019290925260400181205581548290829081106138d857fe5b600091825260209091200180546001600160a01b0319169055600101613887565b600081815260018301602052604081205480156139b5578354600019808301919081019060009087908390811061392c57fe5b906000526020600020015490508087600001848154811061394957fe5b60009182526020808320909101929092558281526001898101909252604090209084019055865487908061397957fe5b600190038181906000526020600020016000905590558660010160008781526020019081526020016000206000905560019450505050506109b2565b60009150506109b2565b60006139cb838361385f565b613a01575081546001818101845560008481526020808220909301849055845484825282860190935260409020919091556109b2565b5060006109b2565b600082815260018401602052604081205480613a6e575050604080518082018252838152602080820184815286546001818101895560008981528481209551600290930290950191825591519082015586548684528188019092529290912055610ca3565b82856000016001830381548110613a8157fe5b9060005260206000209060020201600101819055506000915050610ca3565b6000613aab82610f95565b9050613ab981600084612e06565b613ac46000836122ba565b6000828152606c60205260409020546002600019610100600184161502019091160415613b02576000828152606c60205260408120613b0291614286565b6001600160a01b0381166000908152606560205260409020613b249083612e1e565b50613b30606683613e8e565b5060405182906000906001600160a01b03841690600080516020615525833981519152908390a45050565b606082471015613b9c5760405162461bcd60e51b81526004018080602001828103825260268152602001806153a36026913960400191505060405180910390fd5b613ba5856132b4565b613bf6576040805162461bcd60e51b815260206004820152601d60248201527f416464726573733a2063616c6c20746f206e6f6e2d636f6e7472616374000000604482015290519081900360640190fd5b600080866001600160a01b031685876040518082805190602001908083835b60208310613c345780518252601f199092019160209182019101613c15565b6001836020036101000a03801982511681845116808217855250505050505090500191505060006040518083038185875af1925050503d8060008114613c96576040519150601f19603f3d011682016040523d82523d6000602084013e613c9b565b606091505b5091509150613cab828286613e9a565b979650505050505050565b6001600160a01b038216613d11576040805162461bcd60e51b815260206004820181905260248201527f4552433732313a206d696e7420746f20746865207a65726f2061646472657373604482015290519081900360640190fd5b613d1a816122a9565b15613d6b576040805162461bcd60e51b815260206004820152601c60248201527b115490cdcc8c4e881d1bdad95b88185b1c9958591e481b5a5b9d195960221b604482015290519081900360640190fd5b613d7760008383612e06565b6001600160a01b0382166000908152606560205260409020613d999082612e2a565b50613da660668284612e36565b5060405181906001600160a01b03841690600090600080516020615525833981519152908290a45050565b600054610100900460ff1680613dea5750613dea612c89565b80613df8575060005460ff16155b613e335760405162461bcd60e51b815260040180806020018281038252602e815260200180615480602e913960400191505060405180910390fd5b600054610100900460ff16158015613e5e576000805460ff1961ff0019909116610100171660011790555b613e66613f00565b613e6e613fa0565b613e78838361403d565b8015610928576000805461ff0019169055505050565b6000610ca38383614122565b60608315613ea9575081610ca3565b825115613eb95782518084602001fd5b60405162461bcd60e51b81526020600482018181528451602484015284518593919283926044019190850190808383600083156133a457818101518382015260200161338c565b600054610100900460ff1680613f195750613f19612c89565b80613f27575060005460ff16155b613f625760405162461bcd60e51b815260040180806020018281038252602e815260200180615480602e913960400191505060405180910390fd5b600054610100900460ff16158015612d2f576000805460ff1961ff0019909116610100171660011790558015610db2576000805461ff001916905550565b600054610100900460ff1680613fb95750613fb9612c89565b80613fc7575060005460ff16155b6140025760405162461bcd60e51b815260040180806020018281038252602e815260200180615480602e913960400191505060405180910390fd5b600054610100900460ff1615801561402d576000805460ff1961ff0019909116610100171660011790555b612d2f6301ffc9a760e01b612d73565b600054610100900460ff16806140565750614056612c89565b80614064575060005460ff16155b61409f5760405162461bcd60e51b815260040180806020018281038252602e815260200180615480602e913960400191505060405180910390fd5b600054610100900460ff161580156140ca576000805460ff1961ff0019909116610100171660011790555b82516140dd90606a9060208601906142ca565b5081516140f190606b9060208501906142ca565b506141026380ac58cd60e01b612d73565b614112635b5e139f60e01b612d73565b613e7863780e9d6360e01b612d73565b600081815260018301602052604081205480156139b5578354600019808301919081019060009087908390811061415557fe5b906000526020600020906002020190508087600001848154811061417557fe5b6000918252602080832084546002909302019182556001938401549184019190915583548252898301905260409020908401905586548790806141b457fe5b60008281526020808220600260001990940193840201828155600190810183905592909355888152898201909252604082209190915594506109b29350505050565b604051806060016040528061420961421d565b815260200160008152602001600081525090565b604080516101a081018252600080825260208201819052918101829052606081018290526080810182905260a0810182905260c0810182905260e08101829052906101008201908152600060208201819052604082018190526060820181905260809091015290565b50805460018160011615610100020316600290046000825580601f106142ac5750610db2565b601f016020900490600052602060002090810190610db29190614356565b828054600181600116156101000203166002900490600052602060002090601f0160209004810192826143005760008555614346565b82601f1061431957805160ff1916838001178555614346565b82800160010185558215614346579182015b8281111561434657825182559160200191906001019061432b565b50614352929150614356565b5090565b5b808211156143525760008155600101614357565b8051610716816152bd565b60008083601f840112614387578182fd5b5081356001600160401b0381111561439d578182fd5b60208301915083602080830285010111156127d957600080fd5b8051610716816152d2565b600082601f8301126143d2578081fd5b81356143e56143e082615270565b61524d565b8181528460208386010111156143f9578283fd5b816020850160208301379081016020019190915292915050565b80516002811061071657600080fd5b60008083601f840112614433578182fd5b5081356001600160401b03811115614449578182fd5b6020830191508360208285010111156127d957600080fd5b8051610716816152e0565b8051610716816152f5565b803560ff8116811461071657600080fd5b600060208284031215614499578081fd5b8135610ca3816152bd565b6000602082840312156144b5578081fd5b8151610ca3816152bd565b600080604083850312156144d2578081fd5b82356144dd816152bd565b915060208301356144ed816152bd565b809150509250929050565b60008060008060008060008060c0898b031215614513578384fd5b883561451e816152bd565b9750602089013561452e816152bd565b9650604089013561453e816152bd565b955061454c60608a01614477565b945060808901356001600160401b0380821115614567578586fd5b6145738c838d01614422565b909650945060a08b013591508082111561458b578384fd5b506145988b828c01614422565b999c989b5096995094979396929594505050565b600080600080600080600060e0888a0312156145c6578081fd5b87356145d1816152bd565b965060208801356145e1816152bd565b955060408801356145f1816152e0565b94506060880135614601816152e0565b93506080880135614611816152f5565b925060a0880135614621816152f5565b8092505060c0880135905092959891949750929550565b600080600080600080600060e0888a031215614652578081fd5b873561465d816152bd565b9650602088013561466d816152bd565b9550604088013561467d816152e0565b9450606088013561468d816152e0565b9350608088013561469d816152f5565b925060a08801356146ad816152f5565b91506146bb60c08901614477565b905092959891949750929550565b6000806000606084860312156146dd578081fd5b83356146e8816152bd565b925060208401356146f8816152bd565b929592945050506040919091013590565b6000806000806080858703121561471e578182fd5b8435614729816152bd565b93506020850135614739816152bd565b92506040850135915060608501356001600160401b0381111561475a578182fd5b614766878288016143c2565b91505092959194509250565b60008060008060808587031215614787578182fd5b8435614792816152bd565b935060208501356147a2816152bd565b93969395505050506040820135916060013590565b600080600080600060a086880312156147ce578283fd5b85356147d9816152bd565b945060208601356147e9816152bd565b9350604086013592506060860135915060808601356001600160401b03811115614811578182fd5b61481d888289016143c2565b9150509295509295909350565b600080600080600060a08688031215614841578283fd5b853561484c816152bd565b9450602086013561485c816152bd565b94979496505050506040830135926060810135926080909101359150565b60008060008060008060c08789031215614892578384fd5b863561489d816152bd565b955060208701356148ad816152bd565b945060408701359350606087013592506080870135915060a08701356001600160401b038111156148dc578182fd5b6148e889828a016143c2565b9150509295509295509295565b60008060408385031215614907578182fd5b8235614912816152bd565b915060208301356144ed816152d2565b60008060408385031215614934578182fd5b823561493f816152bd565b946020939093013593505050565b600080600060608486031215614961578081fd5b833561496c816152bd565b95602085013595506040909401359392505050565b600080600060408486031215614995578081fd5b83356001600160401b038111156149aa578182fd5b6149b686828701614376565b909790965060209590950135949350505050565b600060208083850312156149dc578182fd5b82516001600160401b03808211156149f2578384fd5b818501915085601f830112614a05578384fd5b815181811115614a1157fe5b8381029150614a2184830161524d565b8181528481019084860184860187018a1015614a3b578788fd5b8795505b83861015614a5d578051835260019590950194918601918601614a3f565b5098975050505050505050565b600060208284031215614a7b578081fd5b8151610ca3816152d2565b600060208284031215614a97578081fd5b81356001600160e01b031981168114610ca3578182fd5b600060208284031215614abf578081fd5b81516001600160401b03811115614ad4578182fd5b8201601f81018413614ae4578182fd5b8051614af26143e082615270565b818152856020838501011115614b06578384fd5b612227826020830160208601615291565b60006101a0808385031215614b2a578182fd5b614b338161524d565b9050614b3e8361436b565b8152614b4c6020840161436b565b602082015260408301516040820152614b6760608401614461565b6060820152614b7860808401614461565b6080820152614b8960a08401614461565b60a0820152614b9a60c0840161446c565b60c0820152614bab60e0840161446c565b60e0820152610100614bbe818501614413565b90820152610120614bd08482016143b7565b90820152610140614be28482016143b7565b90820152610160614bf48482016143b7565b90820152610180614c068482016143b7565b908201529392505050565b600060208284031215614c22578081fd5b5035919050565b600060208284031215614c3a578081fd5b5051919050565b60008060408385031215614c53578182fd5b8235915060208301356144ed816152bd565b600080600060608486031215614c79578081fd5b8335925060208401356146f8816152bd565b600080600060408486031215614c9f578081fd5b8335925060208401356001600160401b03811115614cbb578182fd5b614cc786828701614376565b9497909650939450505050565b60008060408385031215614ce6578182fd5b50508035926020909101359150565b60008060408385031215614d07578182fd5b505080516020909101519092909150565b6001600160a01b03169052565b15159052565b60008151808452614d43816020860160208601615291565b601f01601f19169290920160200192915050565b60028110614d6157fe5b9052565b614d70828251614d18565b6020810151614d826020840182614d18565b50604081015160408301526060810151614d9f6060840182614e53565b506080810151614db26080840182614e53565b5060a0810151614dc560a0840182614e53565b5060c0810151614dd860c0840182614e60565b5060e0810151614deb60e0840182614e60565b5061010080820151614dff82850182614d57565b505061012080820151614e1482850182614d25565b505061014080820151614e2982850182614d25565b505061016080820151614e3e82850182614d25565b5050610180808201516119c582850182614d25565b6001600160801b03169052565b6001600160401b03169052565b6001600160a01b0391909116815260200190565b6001600160a01b03988916815296881660208801529490961660408601526001600160801b039283166060860152911660808401526001600160401b0390811660a084015290921660c082015260e08101919091526101000190565b6001600160a01b03958616815293909416602084015260408301919091526060820152608081019190915260a00190565b6001600160a01b039485168152602081019390935292166040820152606081019190915260800190565b6001600160a01b039390931683526020830191909152604082015260600190565b6001600160a01b0392831681529116602082015260400190565b6001600160a01b0397881681529590961660208601526001600160801b0393841660408601529190921660608401526001600160401b0391821660808401521660a082015260ff90911660c082015260e00190565b6020808252825182820181905260009190848201906040850190845b8181101561500057835183529284019291840191600101614fe4565b50909695505050505050565b901515815260200190565b602081016003831061502557fe5b91905290565b600060208252610ca36020830184614d2b565b60208082526013908201527214dbdb1d995c8e881b9bdd08185b1b1bddd959606a1b604082015260600190565b6020808252600a90820152696f76657220636c61696d60b01b604082015260600190565b60208082526010908201526f746f6b656e206e6f742065786973747360801b604082015260600190565b60208082526022908201527f6e657744657363726970746f722063616e206e6f742062652030206164647265604082015261737360f01b606082015260800190565b6020808252600a908201526937b7363c9037bbb732b960b11b604082015260600190565b6000604082526005604083015264636c61696d60d81b606083015260806020830152610ca36080830184614d2b565b6020808252600e908201526d34b73b30b634b21039b7b63b32b960911b604082015260600190565b60006040825260046040830152631b5a5b9d60e21b606083015260806020830152610ca36080830184614d2b565b60006101e0820190506151b8828451614d65565b60208301516101a08301526040909201516101c09091015290565b6101a081016109b28284614d65565b90815260200190565b9283526001600160a01b03919091166020830152604082015260600190565b918252602082015260400190565b9283526020830191909152604082015260600190565b63ffffffff91909116815260200190565b60ff91909116815260200190565b6040518181016001600160401b038111828210171561526857fe5b604052919050565b60006001600160401b0382111561528357fe5b50601f01601f191660200190565b60005b838110156152ac578181015183820152602001615294565b838111156119c55750506000910152565b6001600160a01b0381168114610db257600080fd5b8015158114610db257600080fd5b6001600160801b0381168114610db257600080fd5b6001600160401b0381168114610db257600080fdfe456e756d657261626c655365743a20696e646578206f7574206f6620626f756e64735265656e7472616e637947756172643a207265656e7472616e742063616c6c004552433732313a207472616e7366657220746f206e6f6e20455243373231526563656976657220696d706c656d656e7465724552433732313a207472616e7366657220746f20746865207a65726f2061646472657373416464726573733a20696e73756666696369656e742062616c616e636520666f722063616c6c4552433732313a206f70657261746f7220717565727920666f72206e6f6e6578697374656e7420746f6b656e4552433732313a20617070726f76652063616c6c6572206973206e6f74206f776e6572206e6f7220617070726f76656420666f7220616c6c4552433732313a2062616c616e636520717565727920666f7220746865207a65726f20616464726573734552433732313a206f776e657220717565727920666f72206e6f6e6578697374656e7420746f6b656e496e697469616c697a61626c653a20636f6e747261637420697320616c726561647920696e697469616c697a6564456e756d657261626c654d61703a20696e646578206f7574206f6620626f756e64734552433732313a20617070726f76656420717565727920666f72206e6f6e6578697374656e7420746f6b656e4552433732313a207472616e73666572206f6620746f6b656e2074686174206973206e6f74206f776eddf252ad1be2c89b69c2b068fc378daa952ba7f163c4a11628f55a4df523b3ef4552433732313a20617070726f76616c20746f2063757272656e74206f776e65724552433732313a207472616e736665722063616c6c6572206973206e6f74206f776e6572206e6f7220617070726f766564823a343d1c899e61a4db12247636a6882bf1fefae78bef39170f8d0f5b53e456a2646970667358221220e38a0691676ecffff2feab6f1854ad19e4d32e1d3922c1d0e6ea6fa3f5a27c3c64736f6c63430007060033"
}