{
  "address": "0x8323Ff9a5F95789F43AdEb939bB3695dEF4AB0F3",
  "abi": [
    {
      "anonymous": false,
      "inputs": [
        {
          "indexed": true,
          "internalType": "address",
          "name": "voucher",
          "type": "address"
        },
        {
          "indexed": false,
          "internalType": "enum Constants.VoucherType",
          "name": "voucherType",
          "type": "uint8"
        },
        {
          "indexed": false,
          "internalType": "address",
          "name": "asset",
          "type": "address"
        },
        {
          "indexed": false,
          "internalType": "uint8",
          "name": "decimals",
          "type": "uint8"
        },
        {
          "indexed": false,
          "internalType": "uint16",
          "name": "feeRate",
          "type": "uint16"
        },
        {
          "indexed": false,
          "internalType": "bool",
          "name": "onlyManangerOffer",
          "type": "bool"
        }
      ],
      "name": "AddMarket",
      "type": "event"
    },
    {
      "anonymous": false,
      "inputs": [
        {
          "indexed": true,
          "internalType": "address",
          "name": "voucher",
          "type": "address"
        },
        {
          "indexed": true,
          "internalType": "uint24",
          "name": "offeringId",
          "type": "uint24"
        },
        {
          "indexed": false,
          "internalType": "uint128",
          "name": "highest",
          "type": "uint128"
        },
        {
          "indexed": false,
          "internalType": "uint128",
          "name": "lowest",
          "type": "uint128"
        },
        {
          "indexed": false,
          "internalType": "uint32",
          "name": "duration",
          "type": "uint32"
        },
        {
          "indexed": false,
          "internalType": "uint32",
          "name": "interval",
          "type": "uint32"
        }
      ],
      "name": "DecliningPriceSet",
      "type": "event"
    },
    {
      "anonymous": false,
      "inputs": [
        {
          "indexed": true,
          "internalType": "address",
          "name": "voucher",
          "type": "address"
        },
        {
          "indexed": true,
          "internalType": "uint24",
          "name": "offeringId",
          "type": "uint24"
        },
        {
          "indexed": false,
          "internalType": "uint8",
          "name": "priceType",
          "type": "uint8"
        },
        {
          "indexed": false,
          "internalType": "uint128",
          "name": "lastPrice",
          "type": "uint128"
        }
      ],
      "name": "FixedPriceSet",
      "type": "event"
    },
    {
      "anonymous": false,
      "inputs": [
        {
          "indexed": false,
          "internalType": "address",
          "name": "oldAdmin",
          "type": "address"
        },
        {
          "indexed": false,
          "internalType": "address",
          "name": "newAdmin",
          "type": "address"
        }
      ],
      "name": "NewAdmin",
      "type": "event"
    },
    {
      "anonymous": false,
      "inputs": [
        {
          "indexed": false,
          "internalType": "address",
          "name": "oldPendingAdmin",
          "type": "address"
        },
        {
          "indexed": false,
          "internalType": "address",
          "name": "newPendingAdmin",
          "type": "address"
        }
      ],
      "name": "NewPendingAdmin",
      "type": "event"
    },
    {
      "anonymous": false,
      "inputs": [
        {
          "indexed": false,
          "internalType": "contract IIVOSolver",
          "name": "oldSolver",
          "type": "address"
        },
        {
          "indexed": false,
          "internalType": "contract IIVOSolver",
          "name": "newSolver",
          "type": "address"
        }
      ],
      "name": "NewSolver",
      "type": "event"
    },
    {
      "anonymous": false,
      "inputs": [
        {
          "indexed": true,
          "internalType": "address",
          "name": "voucher",
          "type": "address"
        },
        {
          "indexed": true,
          "internalType": "address",
          "name": "issuer",
          "type": "address"
        },
        {
          "components": [
            {
              "internalType": "uint24",
              "name": "offeringId",
              "type": "uint24"
            },
            {
              "internalType": "uint32",
              "name": "startTime",
              "type": "uint32"
            },
            {
              "internalType": "uint32",
              "name": "endTime",
              "type": "uint32"
            },
            {
              "internalType": "enum PriceManager.PriceType",
              "name": "priceType",
              "type": "uint8"
            },
            {
              "internalType": "uint128",
              "name": "totalUnits",
              "type": "uint128"
            },
            {
              "internalType": "uint128",
              "name": "units",
              "type": "uint128"
            },
            {
              "internalType": "uint128",
              "name": "min",
              "type": "uint128"
            },
            {
              "internalType": "uint128",
              "name": "max",
              "type": "uint128"
            },
            {
              "internalType": "address",
              "name": "voucher",
              "type": "address"
            },
            {
              "internalType": "address",
              "name": "currency",
              "type": "address"
            },
            {
              "internalType": "address",
              "name": "issuer",
              "type": "address"
            },
            {
              "internalType": "bool",
              "name": "useAllowList",
              "type": "bool"
            },
            {
              "internalType": "bool",
              "name": "isValid",
              "type": "bool"
            }
          ],
          "indexed": false,
          "internalType": "struct OfferingMarketCore.Offering",
          "name": "offering",
          "type": "tuple"
        }
      ],
      "name": "Offer",
      "type": "event"
    },
    {
      "anonymous": false,
      "inputs": [
        {
          "indexed": true,
          "internalType": "address",
          "name": "issuer",
          "type": "address"
        },
        {
          "indexed": true,
          "internalType": "uint24",
          "name": "offeringId",
          "type": "uint24"
        },
        {
          "indexed": false,
          "internalType": "address",
          "name": "voucher",
          "type": "address"
        },
        {
          "indexed": false,
          "internalType": "uint128",
          "name": "total",
          "type": "uint128"
        },
        {
          "indexed": false,
          "internalType": "uint128",
          "name": "sold",
          "type": "uint128"
        }
      ],
      "name": "Remove",
      "type": "event"
    },
    {
      "anonymous": false,
      "inputs": [
        {
          "indexed": true,
          "internalType": "address",
          "name": "voucher",
          "type": "address"
        }
      ],
      "name": "RemoveMarket",
      "type": "event"
    },
    {
      "anonymous": false,
      "inputs": [
        {
          "indexed": true,
          "internalType": "address",
          "name": "currency",
          "type": "address"
        },
        {
          "indexed": false,
          "internalType": "bool",
          "name": "enable",
          "type": "bool"
        }
      ],
      "name": "SetCurrency",
      "type": "event"
    },
    {
      "anonymous": false,
      "inputs": [
        {
          "indexed": true,
          "internalType": "address",
          "name": "buyer",
          "type": "address"
        },
        {
          "indexed": true,
          "internalType": "uint24",
          "name": "offeringId",
          "type": "uint24"
        },
        {
          "indexed": true,
          "internalType": "address",
          "name": "voucher",
          "type": "address"
        },
        {
          "indexed": false,
          "internalType": "uint256",
          "name": "voucherId",
          "type": "uint256"
        },
        {
          "indexed": false,
          "internalType": "uint24",
          "name": "tradeId",
          "type": "uint24"
        },
        {
          "indexed": false,
          "internalType": "uint32",
          "name": "tradeTime",
          "type": "uint32"
        },
        {
          "indexed": false,
          "internalType": "address",
          "name": "currency",
          "type": "address"
        },
        {
          "indexed": false,
          "internalType": "uint8",
          "name": "priceType",
          "type": "uint8"
        },
        {
          "indexed": false,
          "internalType": "uint128",
          "name": "price",
          "type": "uint128"
        },
        {
          "indexed": false,
          "internalType": "uint128",
          "name": "tradedUnits",
          "type": "uint128"
        },
        {
          "indexed": false,
          "internalType": "uint256",
          "name": "tradedAmount",
          "type": "uint256"
        },
        {
          "indexed": false,
          "internalType": "uint128",
          "name": "fee",
          "type": "uint128"
        }
      ],
      "name": "Traded",
      "type": "event"
    },
    {
      "anonymous": false,
      "inputs": [
        {
          "indexed": false,
          "internalType": "address",
          "name": "voucher",
          "type": "address"
        },
        {
          "indexed": false,
          "internalType": "uint256",
          "name": "reduceAmount",
          "type": "uint256"
        }
      ],
      "name": "WithdrawFee",
      "type": "event"
    },
    {
      "inputs": [],
      "name": "_admin",
      "outputs": [
        {
          "internalType": "address",
          "name": "",
          "type": "address"
        }
      ],
      "stateMutability": "view",
      "type": "function"
    },
    {
      "inputs": [],
      "name": "acceptAdmin",
      "outputs": [],
      "stateMutability": "nonpayable",
      "type": "function"
    },
    {
      "inputs": [
        {
          "internalType": "address",
          "name": "voucher_",
          "type": "address"
        },
        {
          "internalType": "address[]",
          "name": "addresses_",
          "type": "address[]"
        },
        {
          "internalType": "bool",
          "name": "resetExisting_",
          "type": "bool"
        }
      ],
      "name": "addAllowAddress",
      "outputs": [],
      "stateMutability": "nonpayable",
      "type": "function"
    },
    {
      "inputs": [
        {
          "internalType": "address",
          "name": "voucher_",
          "type": "address"
        },
        {
          "internalType": "address",
          "name": "voucherPool_",
          "type": "address"
        },
        {
          "internalType": "enum Constants.VoucherType",
          "name": "voucherType_",
          "type": "uint8"
        },
        {
          "internalType": "address",
          "name": "asset_",
          "type": "address"
        },
        {
          "internalType": "uint8",
          "name": "decimals_",
          "type": "uint8"
        },
        {
          "internalType": "uint16",
          "name": "feeRate_",
          "type": "uint16"
        },
        {
          "internalType": "bool",
          "name": "onlyManangerOffer_",
          "type": "bool"
        }
      ],
      "name": "addMarket",
      "outputs": [],
      "stateMutability": "nonpayable",
      "type": "function"
    },
    {
      "inputs": [
        {
          "internalType": "uint24",
          "name": "offeringId_",
          "type": "uint24"
        },
        {
          "internalType": "uint128",
          "name": "units_",
          "type": "uint128"
        }
      ],
      "name": "buy",
      "outputs": [
        {
          "internalType": "uint256",
          "name": "amount_",
          "type": "uint256"
        },
        {
          "internalType": "uint128",
          "name": "fee_",
          "type": "uint128"
        }
      ],
      "stateMutability": "payable",
      "type": "function"
    },
    {
      "inputs": [
        {
          "internalType": "uint24",
          "name": "offeringId_",
          "type": "uint24"
        }
      ],
      "name": "getDecliningPrice",
      "outputs": [
        {
          "internalType": "uint128",
          "name": "highest",
          "type": "uint128"
        },
        {
          "internalType": "uint128",
          "name": "lowest",
          "type": "uint128"
        },
        {
          "internalType": "uint32",
          "name": "startTime",
          "type": "uint32"
        },
        {
          "internalType": "uint32",
          "name": "duration",
          "type": "uint32"
        },
        {
          "internalType": "uint32",
          "name": "interval",
          "type": "uint32"
        }
      ],
      "stateMutability": "view",
      "type": "function"
    },
    {
      "inputs": [
        {
          "internalType": "uint24",
          "name": "offeringId_",
          "type": "uint24"
        }
      ],
      "name": "getFixedPrice",
      "outputs": [
        {
          "internalType": "uint128",
          "name": "",
          "type": "uint128"
        }
      ],
      "stateMutability": "view",
      "type": "function"
    },
    {
      "inputs": [
        {
          "internalType": "uint24",
          "name": "offeringId_",
          "type": "uint24"
        }
      ],
      "name": "getPrice",
      "outputs": [
        {
          "internalType": "uint128",
          "name": "",
          "type": "uint128"
        }
      ],
      "stateMutability": "view",
      "type": "function"
    },
    {
      "inputs": [
        {
          "internalType": "contract IIVOSolver",
          "name": "solver_",
          "type": "address"
        }
      ],
      "name": "initialize",
      "outputs": [],
      "stateMutability": "nonpayable",
      "type": "function"
    },
    {
      "inputs": [
        {
          "internalType": "address",
          "name": "voucher_",
          "type": "address"
        },
        {
          "internalType": "address",
          "name": "buyer_",
          "type": "address"
        }
      ],
      "name": "isBuyerAllowed",
      "outputs": [
        {
          "internalType": "bool",
          "name": "",
          "type": "bool"
        }
      ],
      "stateMutability": "view",
      "type": "function"
    },
    {
      "inputs": [
        {
          "internalType": "enum Constants.VoucherType",
          "name": "voucherType_",
          "type": "uint8"
        }
      ],
      "name": "isSupportVoucherType",
      "outputs": [
        {
          "internalType": "bool",
          "name": "",
          "type": "bool"
        }
      ],
      "stateMutability": "pure",
      "type": "function"
    },
    {
      "inputs": [
        {
          "internalType": "address",
          "name": "",
          "type": "address"
        }
      ],
      "name": "markets",
      "outputs": [
        {
          "internalType": "enum Constants.VoucherType",
          "name": "voucherType",
          "type": "uint8"
        },
        {
          "internalType": "address",
          "name": "voucherPool",
          "type": "address"
        },
        {
          "internalType": "address",
          "name": "asset",
          "type": "address"
        },
        {
          "internalType": "uint8",
          "name": "decimals",
          "type": "uint8"
        },
        {
          "internalType": "uint16",
          "name": "feeRate",
          "type": "uint16"
        },
        {
          "internalType": "bool",
          "name": "onlyManangerOffer",
          "type": "bool"
        },
        {
          "internalType": "bool",
          "name": "isValid",
          "type": "bool"
        }
      ],
      "stateMutability": "view",
      "type": "function"
    },
    {
      "inputs": [
        {
          "internalType": "uint24",
          "name": "offeringId_",
          "type": "uint24"
        }
      ],
      "name": "mintParameters",
      "outputs": [
        {
          "components": [
            {
              "internalType": "uint128",
              "name": "lowestPrice",
              "type": "uint128"
            },
            {
              "internalType": "uint128",
              "name": "highestPrice",
              "type": "uint128"
            },
            {
              "internalType": "uint128",
              "name": "tokenInAmount",
              "type": "uint128"
            },
            {
              "internalType": "uint64",
              "name": "effectiveTime",
              "type": "uint64"
            },
            {
              "internalType": "uint64",
              "name": "maturity",
              "type": "uint64"
            }
          ],
          "internalType": "struct InitialConvertibleOfferingMarket.MintParameter",
          "name": "",
          "type": "tuple"
        }
      ],
      "stateMutability": "view",
      "type": "function"
    },
    {
      "inputs": [],
      "name": "nextOfferingId",
      "outputs": [
        {
          "internalType": "uint24",
          "name": "",
          "type": "uint24"
        }
      ],
      "stateMutability": "view",
      "type": "function"
    },
    {
      "inputs": [],
      "name": "nextTradeId",
      "outputs": [
        {
          "internalType": "uint24",
          "name": "",
          "type": "uint24"
        }
      ],
      "stateMutability": "view",
      "type": "function"
    },
    {
      "inputs": [
        {
          "internalType": "address",
          "name": "voucher_",
          "type": "address"
        },
        {
          "internalType": "address",
          "name": "currency_",
          "type": "address"
        },
        {
          "internalType": "uint128",
          "name": "min_",
          "type": "uint128"
        },
        {
          "internalType": "uint128",
          "name": "max_",
          "type": "uint128"
        },
        {
          "internalType": "uint32",
          "name": "startTime_",
          "type": "uint32"
        },
        {
          "internalType": "uint32",
          "name": "endTime_",
          "type": "uint32"
        },
        {
          "internalType": "bool",
          "name": "useAllowList_",
          "type": "bool"
        },
        {
          "internalType": "enum PriceManager.PriceType",
          "name": "priceType_",
          "type": "uint8"
        },
        {
          "internalType": "bytes",
          "name": "priceData_",
          "type": "bytes"
        },
        {
          "components": [
            {
              "internalType": "uint128",
              "name": "lowestPrice",
              "type": "uint128"
            },
            {
              "internalType": "uint128",
              "name": "highestPrice",
              "type": "uint128"
            },
            {
              "internalType": "uint128",
              "name": "tokenInAmount",
              "type": "uint128"
            },
            {
              "internalType": "uint64",
              "name": "effectiveTime",
              "type": "uint64"
            },
            {
              "internalType": "uint64",
              "name": "maturity",
              "type": "uint64"
            }
          ],
          "internalType": "struct InitialConvertibleOfferingMarket.MintParameter",
          "name": "mintParameter_",
          "type": "tuple"
        }
      ],
      "name": "offer",
      "outputs": [
        {
          "internalType": "uint24",
          "name": "offeringId",
          "type": "uint24"
        }
      ],
      "stateMutability": "nonpayable",
      "type": "function"
    },
    {
      "inputs": [
        {
          "internalType": "address",
          "name": "voucher_",
          "type": "address"
        },
        {
          "internalType": "uint256",
          "name": "index_",
          "type": "uint256"
        }
      ],
      "name": "offeringIdOfvoucherByIndex",
      "outputs": [
        {
          "internalType": "uint256",
          "name": "",
          "type": "uint256"
        }
      ],
      "stateMutability": "view",
      "type": "function"
    },
    {
      "inputs": [
        {
          "internalType": "uint24",
          "name": "",
          "type": "uint24"
        }
      ],
      "name": "offerings",
      "outputs": [
        {
          "internalType": "uint24",
          "name": "offeringId",
          "type": "uint24"
        },
        {
          "internalType": "uint32",
          "name": "startTime",
          "type": "uint32"
        },
        {
          "internalType": "uint32",
          "name": "endTime",
          "type": "uint32"
        },
        {
          "internalType": "enum PriceManager.PriceType",
          "name": "priceType",
          "type": "uint8"
        },
        {
          "internalType": "uint128",
          "name": "totalUnits",
          "type": "uint128"
        },
        {
          "internalType": "uint128",
          "name": "units",
          "type": "uint128"
        },
        {
          "internalType": "uint128",
          "name": "min",
          "type": "uint128"
        },
        {
          "internalType": "uint128",
          "name": "max",
          "type": "uint128"
        },
        {
          "internalType": "address",
          "name": "voucher",
          "type": "address"
        },
        {
          "internalType": "address",
          "name": "currency",
          "type": "address"
        },
        {
          "internalType": "address",
          "name": "issuer",
          "type": "address"
        },
        {
          "internalType": "bool",
          "name": "useAllowList",
          "type": "bool"
        },
        {
          "internalType": "bool",
          "name": "isValid",
          "type": "bool"
        }
      ],
      "stateMutability": "view",
      "type": "function"
    },
    {
      "inputs": [],
      "name": "pendingAdmin",
      "outputs": [
        {
          "internalType": "address",
          "name": "",
          "type": "address"
        }
      ],
      "stateMutability": "view",
      "type": "function"
    },
    {
      "inputs": [
        {
          "internalType": "uint24",
          "name": "offeringId_",
          "type": "uint24"
        },
        {
          "internalType": "address",
          "name": "buyer_",
          "type": "address"
        }
      ],
      "name": "purchasedUnits",
      "outputs": [
        {
          "internalType": "uint128",
          "name": "",
          "type": "uint128"
        }
      ],
      "stateMutability": "view",
      "type": "function"
    },
    {
      "inputs": [
        {
          "internalType": "uint24",
          "name": "offeringId_",
          "type": "uint24"
        }
      ],
      "name": "remove",
      "outputs": [],
      "stateMutability": "nonpayable",
      "type": "function"
    },
    {
      "inputs": [
        {
          "internalType": "address",
          "name": "voucher_",
          "type": "address"
        },
        {
          "internalType": "address[]",
          "name": "addresses_",
          "type": "address[]"
        }
      ],
      "name": "removeAllowAddress",
      "outputs": [],
      "stateMutability": "nonpayable",
      "type": "function"
    },
    {
      "inputs": [
        {
          "internalType": "address",
          "name": "voucher_",
          "type": "address"
        }
      ],
      "name": "removeMarket",
      "outputs": [],
      "stateMutability": "nonpayable",
      "type": "function"
    },
    {
      "inputs": [
        {
          "internalType": "address",
          "name": "currency_",
          "type": "address"
        },
        {
          "internalType": "bool",
          "name": "enable_",
          "type": "bool"
        }
      ],
      "name": "setCurrency",
      "outputs": [],
      "stateMutability": "nonpayable",
      "type": "function"
    },
    {
      "inputs": [
        {
          "internalType": "address",
          "name": "newPendingAdmin_",
          "type": "address"
        }
      ],
      "name": "setPendingAdmin",
      "outputs": [],
      "stateMutability": "nonpayable",
      "type": "function"
    },
    {
      "inputs": [
        {
          "internalType": "contract IIVOSolver",
          "name": "newSolver_",
          "type": "address"
        }
      ],
      "name": "setSolver",
      "outputs": [],
      "stateMutability": "nonpayable",
      "type": "function"
    },
    {
      "inputs": [
        {
          "internalType": "address",
          "name": "voucher_",
          "type": "address"
        },
        {
          "internalType": "address[]",
          "name": "managers_",
          "type": "address[]"
        },
        {
          "internalType": "bool",
          "name": "resetExisting_",
          "type": "bool"
        }
      ],
      "name": "setVoucherManager",
      "outputs": [],
      "stateMutability": "nonpayable",
      "type": "function"
    },
    {
      "inputs": [],
      "name": "solver",
      "outputs": [
        {
          "internalType": "contract IIVOSolver",
          "name": "",
          "type": "address"
        }
      ],
      "stateMutability": "view",
      "type": "function"
    },
    {
      "inputs": [
        {
          "internalType": "address",
          "name": "voucher_",
          "type": "address"
        }
      ],
      "name": "totalOfferingsOfvoucher",
      "outputs": [
        {
          "internalType": "uint256",
          "name": "",
          "type": "uint256"
        }
      ],
      "stateMutability": "view",
      "type": "function"
    },
    {
      "inputs": [
        {
          "internalType": "address",
          "name": "voucher_",
          "type": "address"
        }
      ],
      "name": "voucherManagers",
      "outputs": [
        {
          "internalType": "address[]",
          "name": "managers_",
          "type": "address[]"
        }
      ],
      "stateMutability": "view",
      "type": "function"
    },
    {
      "inputs": [
        {
          "internalType": "address",
          "name": "currency_",
          "type": "address"
        },
        {
          "internalType": "uint256",
          "name": "reduceAmount_",
          "type": "uint256"
        }
      ],
      "name": "withdrawFee",
      "outputs": [],
      "stateMutability": "nonpayable",
      "type": "function"
    }
  ],
  "transactionHash": "0x45493b32a80c6b116c5bee822300e551c2665c7c945b81859b2f0f092c0cda3e",
  "args": [],
  "numDeployments": 1,
  "solcInputHash": "e78a743bff7826e125c8e4489c738198",
  "bytecode": "0x608060405234801561001057600080fd5b5061573e80620000216000396000f3fe6080604052600436106101685760003560e01c806301bc45c91461016d5780630e18b68114610198578063194e1660146101af5780631d248d9a146101cf5780631d442233146101ef5780631f8794331461021c578063227845561461023c57806326782247146102695780633ac449171461027e57806341ec4ef31461029e578063423dd0dd146102bf57806349a7a26d146102ec5780634d93e679146103015780634dd18bf5146103215780635acc81071461034157806363d0019a1461036e578063813ad0831461039b5780638a31905f146103b05780638e8f294b146103d05780639627d763146104035780639ca24f34146104235780639cfb2ab014610443578063b63c47bb1461047c578063bb21b32a1461049c578063c39333ab146104b1578063c4d66de8146104de578063c569a8f2146104fe578063d88ee8a91461051e578063db9132361461053e578063e0cc5f5a1461055e578063fd9be5221461058f575b600080fd5b34801561017957600080fd5b506101826105af565b60405161018f91906149ee565b60405180910390f35b3480156101a457600080fd5b506101ad6105be565b005b3480156101bb57600080fd5b506101ad6101ca366004614723565b610695565b3480156101db57600080fd5b506101ad6101ea366004614723565b6107c4565b3480156101fb57600080fd5b5061020f61020a366004614517565b6108ce565b60405161018f9190614c77565b34801561022857600080fd5b506101ad6102373660046144fb565b6108f9565b34801561024857600080fd5b5061025c6102573660046145ed565b610a49565b60405161018f9190615377565b34801561027557600080fd5b50610182610c81565b34801561028a57600080fd5b506101ad610299366004614788565b610c90565b6102b16102ac3660046148d6565b610d55565b60405161018f929190615479565b3480156102cb57600080fd5b506102df6102da3660046148a1565b61104d565b60405161018f91906152fa565b3480156102f857600080fd5b5061018261107e565b34801561030d57600080fd5b506101ad61031c36600461454f565b61108d565b34801561032d57600080fd5b506101ad61033c3660046144fb565b61128a565b34801561034d57600080fd5b5061036161035c3660046144fb565b611350565b60405161018f9190614c2a565b34801561037a57600080fd5b5061038e6103893660046147b5565b611435565b60405161018f9190615470565b3480156103a757600080fd5b5061025c611457565b3480156103bc57600080fd5b506102df6103cb3660046148bb565b611469565b3480156103dc57600080fd5b506103f06103eb3660046144fb565b6114a1565b60405161018f9796959493929190614c9c565b34801561040f57600080fd5b5061020f61041e3660046147fc565b6114fd565b34801561042f57600080fd5b506102df61043e3660046148a1565b611514565b34801561044f57600080fd5b5061046361045e3660046148a1565b611534565b60405161018f9d9c9b9a999897969594939291906153c6565b34801561048857600080fd5b5061038e6104973660046144fb565b6115dc565b3480156104a857600080fd5b5061025c6115fd565b3480156104bd57600080fd5b506104d16104cc3660046148a1565b61160f565b60405161018f919061519e565b3480156104ea57600080fd5b506101ad6104f93660046144fb565b61168b565b34801561050a57600080fd5b506101ad6105193660046148a1565b61176e565b34801561052a57600080fd5b506101ad6105393660046146d1565b611b16565b34801561054a57600080fd5b506101ad6105593660046144fb565b611c02565b34801561056a57600080fd5b5061057e6105793660046148a1565b611cca565b60405161018f95949392919061533f565b34801561059b57600080fd5b506101ad6105aa3660046147b5565b611d1c565b6035546001600160a01b031681565b6036546001600160a01b03166105d2611dc1565b6001600160a01b031614610622576040805162461bcd60e51b815260206004820152601260248201527137b7363c903832b73234b7339030b236b4b760711b604482015290519081900360640190fd5b603554603654604080516001600160a01b03938416815292909116602083015280517ff9ffabca9c8276e99321725bcb43fb076a6c66a54b7f21c4e8146d8519b417dc9281900390910190a160368054603580546001600160a01b03199081166001600160a01b03841617909155169055565b60355484906001600160a01b03163314806106cd57506001600160a01b03811660009081526071602052604090206106cd9033611dc5565b6106f25760405162461bcd60e51b81526004016106e990614ee6565b60405180910390fd5b6001600160a01b0385166000908152606a6020526040902060010154600160c01b900460ff166107345760405162461bcd60e51b81526004016106e990614e94565b6001600160a01b0385166000908152607060205260409020821561077c575b61075c81611dda565b1561077c5761077661076f826000611de5565b8290611df1565b50610753565b60005b848110156107bb576107b286868381811061079657fe5b90506020020160208101906107ab91906144fb565b8390611e06565b5060010161077f565b50505050505050565b6035546001600160a01b03166107d8611dc1565b6001600160a01b031614610820576040805162461bcd60e51b815260206004820152600a60248201526937b7363c9030b236b4b760b11b604482015290519081900360640190fd5b6001600160a01b0384166000908152606a6020526040902060010154600160c01b900460ff166108625760405162461bcd60e51b81526004016106e990614e94565b6001600160a01b038416600090815260716020526040902081156108a3575b61088a81611dda565b156108a35761089d61076f826000611de5565b50610881565b60005b838110156108c6576108bd85858381811061079657fe5b506001016108a6565b505050505050565b6001600160a01b03821660009081526070602052604081206108f09083611dc5565b90505b92915050565b6035546001600160a01b031661090d611dc1565b6001600160a01b031614610955576040805162461bcd60e51b815260206004820152600a60248201526937b7363c9030b236b4b760b11b604482015290519081900360640190fd5b60735460408051630305538f60e11b815290516001600160a01b039283169284169163060aa71e916004808301926020929190829003018186803b15801561099c57600080fd5b505afa1580156109b0573d6000803e3d6000fd5b505050506040513d601f19601f820116820180604052508101906109d491906147e0565b6109f05760405162461bcd60e51b81526004016106e990615147565b607380546001600160a01b0319166001600160a01b0384161790556040517f75d88007781bda78ca68e333bfe4f9e91473720b4be5c63ee715949839afe7c790610a3d9083908590614c82565b60405180910390a15050565b6001600160a01b038b166000908152606a6020526040808220815160e08101909252805483929190829060ff166002811115610a8157fe5b6002811115610a8c57fe5b815281546001600160a01b036101009091048116602080840191909152600190930154808216604084015260ff600160a01b82048116606085015261ffff600160a81b8304166080850152600160b81b82048116151560a0850152600160c01b90910416151560c09092019190915282820151929350919091169063dd3cb01f9033908f90610b1d90880188614816565b610b2d6040890160208a01614816565b610b3d60808a0160608b0161493c565b610b4d60a08b0160808c0161493c565b60006040518863ffffffff1660e01b8152600401610b719796959493929190614a02565b60006040518083038186803b158015610b8957600080fd5b505afa158015610b9d573d6000803e3d6000fd5b5060009250610bd59150610bb690506020860186614816565b610bc66060870160408801614816565b6001600160801b031690611e1b565b9050610c01826040015133866040016020810190610bf39190614816565b6001600160801b0316611e95565b50610c4a8e8e838f8f8f8f8f8f8f8f8080601f01602080910402602001604051908101604052809392919081815260200183838082843760009201919091525061226092505050565b62ffffff811660009081526074602052604090209093508490610c6d8282615514565b90505050509b9a5050505050505050505050565b6036546001600160a01b031681565b6035546001600160a01b0316610ca4611dc1565b6001600160a01b031614610cec576040805162461bcd60e51b815260206004820152600a60248201526937b7363c9030b236b4b760b11b604482015290519081900360640190fd5b8015610d0357610cfd606b83611e06565b50610d10565b610d0e606b83611df1565b505b816001600160a01b03167f98c0c4bde5f642566cdaebfb7cd2cdc72a98bc7f3440e38c19e1d58d92388d3482604051610d499190614c77565b60405180910390a25050565b60008060026037541415610d9e576040805162461bcd60e51b815260206004820152601f6024820152600080516020615677833981519152604482015290519081900360640190fd5b6002603755336000610daf8661104d565b62ffffff87166000908152606960205260409020600581015491925090600160a81b900460ff16610df25760405162461bcd60e51b81526004016106e9906150c2565b60038101546001600160a01b03166000908152606a6020526040808220815160e081019092528054829060ff166002811115610e2a57fe5b6002811115610e3557fe5b815281546001600160a01b0361010090910481166020830152600190920154918216604082015260ff600160a01b83048116606083015261ffff600160a81b8404166080830152600160b81b83048116151560a0830152600160c01b909204909116151560c091820152810151909150610ec15760405162461bcd60e51b81526004016106e990614dbd565b6060810151610eec9060ff16600a0a610ee66001600160801b038a8116908716612a28565b90612a81565b6003830154909650610f07906001600160a01b031687612ae5565b60735460038401546040519297506000926001600160a01b039283169263a4888f1792610f43929116908d908a908d908f908c90602001614bcb565b6040516020818303038152906040526040518263ffffffff1660e01b8152600401610f6e9190614fd9565b602060405180830381600087803b158015610f8857600080fd5b505af1158015610f9c573d6000803e3d6000fd5b505050506040513d601f19601f82011682018060405250810190610fc09190614901565b90508015610fe05760405162461bcd60e51b81526004016106e990614e3b565b60006040518060a00160405280876001600160a01b031681526020018981526020018a6001600160801b03168152602001866001600160801b03168152602001886001600160801b031681525090506110398482612b53565b505050505050600160375590939092509050565b62ffffff811660009081526069602052604081205461107690600160581b900460ff16836130d4565b90505b919050565b6073546001600160a01b031681565b6035546001600160a01b03166110a1611dc1565b6001600160a01b0316146110e9576040805162461bcd60e51b815260206004820152600a60248201526937b7363c9030b236b4b760b11b604482015290519081900360640190fd5b6110f4606d88611dc5565b156111115760405162461bcd60e51b81526004016106e990614f2e565b61111a856114fd565b6111365760405162461bcd60e51b81526004016106e990614d61565b61271061ffff8316111561115c5760405162461bcd60e51b81526004016106e990615036565b6001600160a01b038781166000908152606a602052604090208054610100600160a81b031916610100928916929092029190911780825560018083018054600160c01b60ff60c01b199091161760ff60a01b1916600160a01b60ff8916021761ffff60a81b1916600160a81b61ffff88160217905587929160ff1916908360028111156111e557fe5b02179055506001600160a01b038781166000908152606a6020526040902060010180546001600160a01b0319169186169190911760ff60b81b1916600160b81b83151502179055611237606d88611e06565b50866001600160a01b03167f4726a3debe773e4dc7b92dcafbff82d7a6498ac37767a4551768687b986e7ac38686868686604051611279959493929190614cf1565b60405180910390a250505050505050565b6035546001600160a01b031661129e611dc1565b6001600160a01b0316146112e6576040805162461bcd60e51b815260206004820152600a60248201526937b7363c9030b236b4b760b11b604482015290519081900360640190fd5b603654604080516001600160a01b039283168152918316602083015280517fca4f2f25d0898edd99413412fb94012f9e54ec8142f9b093e7720646a95b16a99281900390910190a1603680546001600160a01b0319166001600160a01b0392909216919091179055565b6001600160a01b038116600090815260716020526040902060609061137490611dda565b6001600160401b038111801561138957600080fd5b506040519080825280602002602001820160405280156113b3578160200160208202803683370190505b50905060005b6001600160a01b03831660009081526071602052604090206113da90611dda565b81101561142f576001600160a01b03831660009081526071602052604090206114039082611de5565b82828151811061140f57fe5b6001600160a01b03909216602092830291909101909101526001016113b9565b50919050565b6001600160a01b0382166000908152606f602052604081206108f09083611de5565b607354600160b81b900462ffffff1681565b62ffffff821660009081526072602090815260408083206001600160a01b03851684529091529020546001600160801b031692915050565b606a602052600090815260409020805460019091015460ff808316926001600160a01b0361010090910481169290811691600160a01b820481169161ffff600160a81b82041691600160b81b8204811691600160c01b90041687565b6000600282600281111561150d57fe5b1492915050565b62ffffff166000908152600160205260409020546001600160801b031690565b60696020526000908152604090208054600182015460028301546003840154600485015460059095015462ffffff85169563ffffffff63010000008704811696600160381b81049091169560ff600160581b83048116966001600160801b03600160601b90940484169683851696600160801b90940485169591909416936001600160a01b03908116939181169290821691600160a01b8104821691600160a81b909104168d565b6001600160a01b0381166000908152606f6020526040812061107690611dda565b607354600160a01b900462ffffff1681565b6116176143d4565b5062ffffff16600090815260746020908152604091829020825160a08101845281546001600160801b038082168352600160801b918290048116948301949094526001909201549283169381019390935281046001600160401b039081166060840152600160c01b90910416608082015290565b600254610100900460ff16806116a457506116a46132ee565b806116b2575060025460ff16155b6116ed5760405162461bcd60e51b815260040180806020018281038252602e8152602001806156ba602e913960400191505060405180910390fd5b600254610100900460ff16158015611718576002805460ff1961ff0019909116610100171660011790555b6117206132ff565b611729336133a9565b6073805462ffffff60b81b1962ffffff60a01b19909116600160a01b1716600160b81b179055611758826108f9565b801561176a576002805461ff00191690555b5050565b600260375414156117b4576040805162461bcd60e51b815260206004820152601f6024820152600080516020615677833981519152604482015290519081900360640190fd5b600260375562ffffff808216600090815260696020908152604080832081516101a0810183528154958616815263ffffffff63010000008704811694820194909452600160381b8604909316918301919091529192909190606083019060ff600160581b90910416600181111561182757fe5b600181111561183257fe5b815281546001600160801b03600160601b9091048116602083015260018301548082166040840152600160801b900481166060830152600283015416608082015260038201546001600160a01b0390811660a08301526004830154811660c083015260059092015491821660e082015260ff600160a01b830481161515610100830152600160a81b9092049091161515610120909101526101808101519091506118ee5760405162461bcd60e51b81526004016106e9906150c2565b6101408101516001600160a01b0316331461191b5760405162461bcd60e51b81526004016106e990614ec1565b806020015163ffffffff1642108061193c5750806040015163ffffffff1642115b6119585760405162461bcd60e51b81526004016106e99061511a565b60735461010082015182516101408401516040516000946001600160a01b03169363a4888f1793611990939192909190602001614ba3565b6040516020818303038152906040526040518263ffffffff1660e01b81526004016119bb9190615060565b602060405180830381600087803b1580156119d557600080fd5b505af11580156119e9573d6000803e3d6000fd5b505050506040513d601f19601f82011682018060405250810190611a0d9190614901565b90508015611a2d5760405162461bcd60e51b81526004016106e990614e3b565b611a3b838360a00151613466565b816000015162ffffff168261014001516001600160a01b03167fbb370dc13b0902f591e63a63b13cbda9ce623e87fac2b5de368df00fc2f9cafb84610100015185608001518660a00151876080015103604051611a9a93929190614b5b565b60405180910390a3505062ffffff16600090815260696020526040812080546001600160e01b03191681556001808201929092556002810180546001600160801b03191690556003810180546001600160a01b0319908116909155600482018054909116905560050180546001600160b01b0319169055603755565b60355483906001600160a01b0316331480611b4e57506001600160a01b0381166000908152607160205260409020611b4e9033611dc5565b611b6a5760405162461bcd60e51b81526004016106e990614ee6565b6001600160a01b0384166000908152606a6020526040902060010154600160c01b900460ff16611bac5760405162461bcd60e51b81526004016106e990614e94565b6001600160a01b0384166000908152607060205260408120905b838110156108c657611bf9858583818110611bdd57fe5b9050602002016020810190611bf291906144fb565b8390611df1565b50600101611bc6565b6035546001600160a01b0316611c16611dc1565b6001600160a01b031614611c5e576040805162461bcd60e51b815260206004820152600a60248201526937b7363c9030b236b4b760b11b604482015290519081900360640190fd5b611c69606d82611df1565b506001600160a01b0381166000818152606a602052604080822080546001600160a81b031916815560010180546001600160c81b0319169055517fc14aef421d4ad67b24691f0e51a4706ba86588e0a70f137686bffee5e0b0b5089190a250565b62ffffff16600090815260208190526040902080546001909101546001600160801b0380831693600160801b909304169163ffffffff80831692600160201b8104821692600160401b90910490911690565b6035546001600160a01b0316611d30611dc1565b6001600160a01b031614611d78576040805162461bcd60e51b815260206004820152600a60248201526937b7363c9030b236b4b760b11b604482015290519081900360640190fd5b603554611d909083906001600160a01b03168361368e565b7f66bf9186b00db666fc37aaffbb95a050c66e599e000c785c1dff0467d868f1b18282604051610a3d929190614c11565b3390565b60006108f0836001600160a01b0384166138f7565b60006110768261390f565b60006108f08383613913565b60006108f0836001600160a01b038416613977565b60006108f0836001600160a01b038416613a3d565b60006001600160801b038316611e33575060006108f3565b8282026001600160801b038084169080861690831681611e4f57fe5b046001600160801b0316146108f05760405162461bcd60e51b81526004018080602001828103825260218152602001806156e86021913960400191505060405180910390fd5b60006001600160a01b03841673eeeeeeeeeeeeeeeeeeeeeeeeeeeeeeeeeeeeeeee1415611f6a57326001600160a01b0384161480611edb5750336001600160a01b038416145b611f1e576040805162461bcd60e51b815260206004820152600f60248201526e0e6cadcc8cae440dad2e6dac2e8c6d608b1b604482015290519081900360640190fd5b813414611f63576040805162461bcd60e51b815260206004820152600e60248201526d0ecc2d8eaca40dad2e6dac2e8c6d60931b604482015290519081900360640190fd5b5080612259565b3415611fb7576040805162461bcd60e51b8152602060048201526017602482015276646f6e277420737570706f7274206d73672e76616c756560481b604482015290519081900360640190fd5b6000846001600160a01b03166370a08231306040518263ffffffff1660e01b815260040180826001600160a01b0316815260200191505060206040518083038186803b15801561200657600080fd5b505afa15801561201a573d6000803e3d6000fd5b505050506040513d602081101561203057600080fd5b5051604080516001600160a01b038781166024830152306044830152606480830188905283518084039091018152608490920183526020820180516001600160e01b03166323b872dd60e01b178152925182519495506000948594928b16939282918083835b602083106120b55780518252601f199092019160209182019101612096565b6001836020036101000a0380198251168184511680821785525050505050509050019150506000604051808303816000865af19150503d8060008114612117576040519150601f19603f3d011682016040523d82523d6000602084013e61211c565b606091505b509150915081801561214a57508051158061214a575080806020019051602081101561214757600080fd5b50515b612181576040805162461bcd60e51b815260206004820152600360248201526229aa2360e91b604482015290519081900360640190fd5b6000876001600160a01b03166370a08231306040518263ffffffff1660e01b815260040180826001600160a01b0316815260200191505060206040518083038186803b1580156121d057600080fd5b505afa1580156121e4573d6000803e3d6000fd5b505050506040513d60208110156121fa57600080fd5b5051905083811015612250576040805162461bcd60e51b815260206004820152601a602482015279544f4b454e5f5452414e534645525f494e5f4f564552464c4f5760301b604482015290519081900360640190fd5b92909203925050505b9392505050565b6000600260375414156122a8576040805162461bcd60e51b815260206004820152601f6024820152600080516020615677833981519152604482015290519081900360640190fd5b60026037556001600160a01b038b16158015906122cd57506001600160a01b038a1615155b6122e95760405162461bcd60e51b81526004016106e990614d34565b6001600160a01b038b166000908152606a6020526040808220815160e081019092528054829060ff16600281111561231d57fe5b600281111561232857fe5b815281546001600160a01b0361010090910481166020830152600190920154918216604082015260ff600160a01b83048116606083015261ffff600160a81b8404166080830152600160b81b83048116151560a0830152600160c01b909204909116151560c0918201528101519091506123b45760405162461bcd60e51b81526004016106e990614e94565b6123bf606b8c611dc5565b6123db5760405162461bcd60e51b81526004016106e9906150ec565b8663ffffffff168663ffffffff16116124065760405162461bcd60e51b81526004016106e990614f81565b8060a001511561244e576001600160a01b038c1660009081526071602052604090206124329033611dc5565b61244e5760405162461bcd60e51b81526004016106e990614ee6565b6001600160801b0388161561248f57876001600160801b0316896001600160801b0316111561248f5760405162461bcd60e51b81526004016106e990614fb6565b6000607360009054906101000a90046001600160a01b03166001600160a01b031663a4888f178e338f8f8f8f8f8f8f8f8f6040516020016124da9b9a99989796959493929190614a57565b6040516020818303038152906040526040518263ffffffff1660e01b8152600401612505919061516f565b602060405180830381600087803b15801561251f57600080fd5b505af1158015612533573d6000803e3d6000fd5b505050506040513d601f19601f820116820180604052508101906125579190614901565b905080156125775760405162461bcd60e51b81526004016106e990614f55565b61257f613a87565b9250604051806101a001604052808462ffffff1681526020018963ffffffff1681526020018863ffffffff1681526020018660018111156125bc57fe5b81526020018c6001600160801b031681526020018c6001600160801b031681526020018b6001600160801b031681526020018a6001600160801b031681526020018e6001600160a01b031681526020018d6001600160a01b03168152602001336001600160a01b03168152602001871515815260200160011515815250606960008562ffffff1662ffffff16815260200190815260200160002060008201518160000160006101000a81548162ffffff021916908362ffffff16021790555060208201518160000160036101000a81548163ffffffff021916908363ffffffff16021790555060408201518160000160076101000a81548163ffffffff021916908363ffffffff160217905550606082015181600001600b6101000a81548160ff021916908360018111156126ed57fe5b0217905550608082015181546001600160801b03918216600160601b02600160601b600160e01b031990911617825560a08301516001808401805460c08701518516600160801b029385166001600160801b031991821617851693909317905560e0850151600285018054919094169216919091179091556101008301516003830180546001600160a01b039283166001600160a01b03199182161790915561012085015160048501805491841691831691909117905561014085015160059094018054610160870151610180909701511515600160a81b0260ff60a81b19971515600160a01b0260ff60a01b1997909516919093161794909416919091179390931692909217905562ffffff808516600090815260696020908152604080832081516101a0810183528154958616815263ffffffff63010000008704811694820194909452600160381b860490931691830191909152919390926060840191600160581b90910460ff169081111561286257fe5b600181111561286d57fe5b815281546001600160801b03600160601b9091048116602083015260018301548082166040840152600160801b900481166060830152600283015416608082015260038201546001600160a01b0390811660a08301526004830154811660c083015260059092015491821660e082015260ff600160a01b830481161515610100830152600160a81b9092049091161515610120909101529050612911818787613ab6565b60735461010082015182516040516001600160a01b0390931692635e9d02539261293f929091602001614b85565b6040516020818303038152906040526040518263ffffffff1660e01b815260040161296a919061516f565b602060405180830381600087803b15801561298457600080fd5b505af1158015612998573d6000803e3d6000fd5b505050506040513d601f19601f820116820180604052508101906129bc9190614901565b508061014001516001600160a01b03168161010001516001600160a01b03167f11e21d4c53b5f1e70b770c9195d73d66e48ac66695686c9022be6f6acaeb74dd83604051612a0a91906151f2565b60405180910390a350505060016037559a9950505050505050505050565b600082612a37575060006108f3565b82820282848281612a4457fe5b04146108f05760405162461bcd60e51b81526004018080602001828103825260218152602001806156e86021913960400191505060405180910390fd5b6000808211612ad4576040805162461bcd60e51b815260206004820152601a602482015279536166654d6174683a206469766973696f6e206279207a65726f60301b604482015290519081900360640190fd5b818381612add57fe5b049392505050565b6001600160a01b0382166000908152606a6020526040812060018101548290612b229061271090610ee6908790600160a81b900461ffff16612a28565b90506001600160801b03811115612b4b5760405162461bcd60e51b81526004016106e990615090565b949350505050565b6005820154600160a81b900460ff16612b7e5760405162461bcd60e51b81526004016106e990614d93565b60018201546001600160801b0316612ba85760405162461bcd60e51b81526004016106e990614f0c565b81546301000000900463ffffffff164210801590612bd457508154600160381b900463ffffffff164211155b612bf05760405162461bcd60e51b81526004016106e990614de5565b6005820154600160a01b900460ff1615612c4757805160038301546001600160a01b03166000908152607060205260409020612c2b91611dc5565b612c475760405162461bcd60e51b81526004016106e990614e10565b60018201546001600160801b03600160801b82048116911610612ca057600182015460408201516001600160801b03600160801b909204821691161015612ca05760405162461bcd60e51b81526004016106e990614e68565b60028201546001600160801b031615612d7457604080820151835462ffffff1660009081526072602090815283822085516001600160a01b03168352905291822054612cf7916001600160801b0390911690613bea565b60028401549091506001600160801b039081169082161115612d2b5760405162461bcd60e51b81526004016106e990615006565b825462ffffff16600090815260726020908152604080832085516001600160a01b03168452909152902080546001600160801b0319166001600160801b03929092169190911790555b6040808201518151808301909252601b82527a696e73756666696369656e7420756e69747320666f722073616c6560281b60208301526001840154612dc5926001600160801b039091169190613c4e565b6001830180546001600160801b0319166001600160801b0392909216919091179055612def614402565b602080830180518352608084015160408051808201909152601281527119995948195e18d959591cc8185b5bdd5b9d60721b938101939093529051612e3f9290916001600160801b031690613cf8565b602080830191909152604080516101a081018252855462ffffff8116825263ffffffff63010000008204811694830194909452600160381b810490931691810191909152600091612f6c91908690606083019060ff600160581b909104166001811115612ea857fe5b6001811115612eb357fe5b815281546001600160801b03600160601b90910481166020808401919091526001840154808316604080860191909152600160801b909104831660608501526002850154909216608084015260038401546001600160a01b0390811660a08501526004850154811660c085015260059094015493841660e084015260ff600160a01b850481161515610100850152600160a81b909404909316151561012090920191909152865186519188015192870151909290613d4a565b607354855485516020808801516040808a015160808b015191519798506001600160a01b0390961696635e9d025396612faf9662ffffff16959490929101615387565b6040516020818303038152906040526040518263ffffffff1660e01b8152600401612fda9190614fd9565b602060405180830381600087803b158015612ff457600080fd5b505af1158015613008573d6000803e3d6000fd5b505050506040513d601f19601f8201168201806040525081019061302c9190614901565b506003840154845484516001600160a01b039283169262ffffff90921691167f6652b98f9bca9e2eb651f3f44cab9bc07d80b17367ee7e958466c79e9e67f75284613075613d99565b60048a01548a5442916001600160a01b031690600160581b900460ff16600181111561309d57fe5b8b606001518c604001518d602001518e608001516040516130c699989796959493929190615490565b60405180910390a450505050565b6000808360018111156130e357fe5b141561310d575062ffffff81166000908152600160205260409020546001600160801b03166108f3565b600183600181111561311b57fe5b14156132a95762ffffff82166000908152602081905260409020600181015463ffffffff808216600160201b90920481169190910116421061316f5754600160801b90046001600160801b031690506108f3565b600181015463ffffffff16421161319157546001600160801b031690506108f3565b6001810154815460009163ffffffff600160201b8204811692600160401b909204166001600160801b03600160801b83048116928116929092030216816131d457fe5b60018401549190046001600160801b031690600160401b810463ffffffff908116911642038161320057fe5b8454919004919091026001600160801b03808316919091039250600091600160801b90041682106132315781613244565b8254600160801b90046001600160801b03165b90506001600160801b0381111561329f576040805162461bcd60e51b815260206004820152601a6024820152790e0e4d2c6ca7440caf0c6cacac8e640ead2dce862647040dac2f60331b604482015290519081900360640190fd5b92506108f3915050565b6040805162461bcd60e51b8152602060048201526015602482015274756e737570706f727465642070726963655479706560581b604482015290519081900360640190fd5b60006132f930613dc8565b15905090565b600254610100900460ff168061331857506133186132ee565b80613326575060025460ff16155b6133615760405162461bcd60e51b815260040180806020018281038252602e8152602001806156ba602e913960400191505060405180910390fd5b600254610100900460ff1615801561338c576002805460ff1961ff0019909116610100171660011790555b613394613dce565b80156133a6576002805461ff00191690555b50565b600254610100900460ff16806133c257506133c26132ee565b806133d0575060025460ff16155b61340b5760405162461bcd60e51b815260040180806020018281038252602e8152602001806156ba602e913960400191505060405180910390fd5b600254610100900460ff16158015613436576002805460ff1961ff0019909116610100171660011790555b603580546001600160a01b0319166001600160a01b038416179055801561176a576002805461ff00191690555050565b62ffffff808316600090815260696020908152604080832081516101a0810183528154958616815263ffffffff63010000008704811694820194909452600160381b8604909316918301919091529192909190606083019060ff600160581b9091041660018111156134d457fe5b60018111156134df57fe5b815281546001600160801b03600160601b9091048116602080840191909152600180850154808416604080870191909152600160801b909104841660608601526002860154909316608085015260038501546001600160a01b0390811660a0860152600480870154821660c087015260059096015480821660e087015260ff600160a01b82048116151561010080890191909152600160a81b909204161515610120909601959095529386015184166000908152606a909252828220015491516370a0823160e01b8152949550911692909183916370a08231916135c5913091016149ee565b60206040518083038186803b1580156135dd57600080fd5b505afa1580156135f1573d6000803e3d6000fd5b505050506040513d601f19601f820116820180604052508101906136159190614901565b62ffffff861660009081526074602052604081205491925090613644906001600160801b038781169116613e74565b6001600160801b031690508181111561365a5750805b6101008401516001600160a01b039081166000908152606a60205260409020600101546101408601516108c6929190911690835b6001600160a01b03831673eeeeeeeeeeeeeeeeeeeeeeeeeeeeeeeeeeeeeeee14156137a857604080516000808252602082019092526001600160a01b0384169083906040518082805190602001908083835b602083106136ff5780518252601f1990920191602091820191016136e0565b6001836020036101000a03801982511681845116808217855250505050505090500191505060006040518083038185875af1925050503d8060008114613761576040519150601f19603f3d011682016040523d82523d6000602084013e613766565b606091505b50509050806137a2576040805162461bcd60e51b815260206004820152600360248201526253544560e81b604482015290519081900360640190fd5b506138f2565b604080516001600160a01b038481166024830152604480830185905283518084039091018152606490920183526020820180516001600160e01b031663a9059cbb60e01b1781529251825160009485949389169392918291908083835b602083106138245780518252601f199092019160209182019101613805565b6001836020036101000a0380198251168184511680821785525050505050509050019150506000604051808303816000865af19150503d8060008114613886576040519150601f19603f3d011682016040523d82523d6000602084013e61388b565b606091505b50915091508180156138b95750805115806138b957508080602001905160208110156138b657600080fd5b50515b6138ef576040805162461bcd60e51b815260206004820152600260248201526114d560f21b604482015290519081900360640190fd5b50505b505050565b60009081526001919091016020526040902054151590565b5490565b815460009082106139555760405162461bcd60e51b81526004018080602001828103825260228152602001806156556022913960400191505060405180910390fd5b82600001828154811061396457fe5b9060005260206000200154905092915050565b60008181526001830160205260408120548015613a3357835460001980830191908101906000908790839081106139aa57fe5b90600052602060002001549050808760000184815481106139c757fe5b6000918252602080832090910192909255828152600189810190925260409020908401905586548790806139f757fe5b600190038181906000526020600020016000905590558660010160008781526020019081526020016000206000905560019450505050506108f3565b60009150506108f3565b6000613a4983836138f7565b613a7f575081546001818101845560008481526020808220909301849055845484825282860190935260409020919091556108f3565b5060006108f3565b6073805462ffffff60a01b198116600160a01b9182900462ffffff908116600181019091169092021790915590565b6000826001811115613ac457fe5b1415613b5357600081806020019051810190613ae09190614832565b9050613af0846000015182613eeb565b836000015162ffffff168461010001516001600160a01b03167fdb309e75ed206bcf93ed0bb2cb6bfac9fb3e900bd97d454a342100e5fee8cc98856001811115613b3657fe5b84604051613b459291906154f8565b60405180910390a3506138f2565b60008060008084806020019051810190613b6d919061484e565b9350935093509350613b8b8760000151886020015186868686613f20565b866000015162ffffff168761010001516001600160a01b03167fa1129f336ddb4d6d6b397fffdf78e9a43ff20e0420bdf3d7244c98278de92f6886868686604051613bd9949392919061530e565b60405180910390a350505050505050565b60008282016001600160801b0380851690821610156108f0576040805162461bcd60e51b815260206004820152601b60248201527a536166654d6174683a206164646974696f6e206f766572666c6f7760281b604482015290519081900360640190fd5b6000836001600160801b0316836001600160801b031611158290613cf05760405162461bcd60e51b81526004018080602001828103825283818151815260200191508051906020019080838360005b83811015613cb5578181015183820152602001613c9d565b50505050905090810190601f168015613ce25780820380516001836020036101000a031916815260200191505b509250505060405180910390fd5b505050900390565b60008184841115613cf05760405162461bcd60e51b8152602060048201818152835160248401528351909283926044909101919085019080838360008315613cb5578181015183820152602001613c9d565b6000613d5c8661012001518686611e95565b508551613d699084614062565b9050613d7b866101000151868361435e565b613d908661012001518761014001518461368e565b95945050505050565b6073805462ffffff60b81b198116600160b81b9182900462ffffff908116600181019091169092021790915590565b3b151590565b600254610100900460ff1680613de75750613de76132ee565b80613df5575060025460ff16155b613e305760405162461bcd60e51b815260040180806020018281038252602e8152602001806156ba602e913960400191505060405180910390fd5b600254610100900460ff16158015613e5b576002805460ff1961ff0019909116610100171660011790555b600160375580156133a6576002805461ff001916905550565b600080826001600160801b031611613ed0576040805162461bcd60e51b815260206004820152601a602482015279536166654d6174683a206469766973696f6e206279207a65726f60301b604482015290519081900360640190fd5b816001600160801b0316836001600160801b031681612add57fe5b62ffffff91909116600090815260016020526040902080546001600160801b0319166001600160801b03909216919091179055565b826001600160801b0316846001600160801b031611613f86576040805162461bcd60e51b815260206004820181905260248201527f68696768657374206d7573742067726561746572207468616e206c6f77657374604482015290519081900360640190fd5b8063ffffffff168263ffffffff161015613fd15760405162461bcd60e51b81526004018080602001828103825260238152602001806156976023913960400191505060405180910390fd5b62ffffff95909516600090815260208190526040902060018101805482546001600160801b0319166001600160801b03968716178616600160801b959096169490940294909417905563ffffffff1990911663ffffffff9384161763ffffffff60201b1916600160201b918416919091021763ffffffff60401b1916600160401b9290931691909102919091179055565b62ffffff808316600090815260696020908152604080832081516101a0810183528154958616815263ffffffff63010000008704811694820194909452600160381b8604909316918301919091529192839290606083019060ff600160581b9091041660018111156140d057fe5b60018111156140db57fe5b815281546001600160801b03600160601b9091048116602080840191909152600180850154808416604080870191909152600160801b9182900485166060808801919091526002880154861660808089019190915260038901546001600160a01b0390811660a0808b019190915260048b0154821660c08b01526005909a015490811660e08a015260ff600160a01b8204811615156101008b0152600160a81b9091041615156101209098019790975262ffffff8d166000908152607486528281208351998a0184528054808916808c52908690048916978b019790975290940154808716928901929092526001600160401b03928204831690880152600160c01b90041693850193909352939450919290916141fb9190871690613e74565b61010080850180516001600160a01b039081166000908152606a6020526040808220600101549351831682529081902054905163095ea7b360e01b81529495509181169363095ea7b3936142589304909116908590600401614b39565b602060405180830381600087803b15801561427257600080fd5b505af1158015614286573d6000803e3d6000fd5b505050506040513d601f19601f820116820180604052508101906142aa91906147e0565b508261010001516001600160a01b031663b9dacaf38461014001518561012001518560000151866020015187606001518860800151886040518863ffffffff1660e01b81526004016143029796959493929190614ae7565b6040805180830381600087803b15801561431b57600080fd5b505af115801561432f573d6000803e3d6000fd5b505050506040513d601f19601f820116820180604052508101906143539190614919565b979650505050505050565b604080516323b872dd60e01b81523060048201526001600160a01b03848116602483015260448201849052915185928316916323b872dd91606480830192600092919082900301818387803b1580156143b657600080fd5b505af11580156143ca573d6000803e3d6000fd5b5050505050505050565b6040805160a08101825260008082526020820181905291810182905260608101829052608081019190915290565b604051806040016040528060008152602001600081525090565b60008083601f84011261442d578182fd5b5081356001600160401b03811115614443578182fd5b602083019150836020808302850101111561445d57600080fd5b9250929050565b80356110798161560a565b60008083601f840112614480578182fd5b5081356001600160401b03811115614496578182fd5b60208301915083602082850101111561445d57600080fd5b80356002811061107957600080fd5b80356003811061107957600080fd5b600060a0828403121561142f578081fd5b803562ffffff8116811461107957600080fd5b80356110798161562d565b60006020828403121561450c578081fd5b81356108f0816155f5565b60008060408385031215614529578081fd5b8235614534816155f5565b91506020830135614544816155f5565b809150509250929050565b600080600080600080600060e0888a031215614569578283fd5b8735614574816155f5565b96506020880135614584816155f5565b9550614592604089016144bd565b945060608801356145a2816155f5565b9350608088013560ff811681146145b7578384fd5b925060a088013561ffff811681146145cd578283fd5b915060c08801356145dd8161560a565b8091505092959891949750929550565b60008060008060008060008060008060006101c08c8e03121561460e578384fd5b8b35614619816155f5565b9a5060208c0135614629816155f5565b995060408c013561463981615618565b985060608c013561464981615618565b975060808c01356146598161562d565b965061466760a08d016144f0565b955061467560c08d01614464565b945061468360e08d016144ae565b93506101008c01356001600160401b0381111561469e578384fd5b6146aa8e828f0161446f565b90945092506146bf90508d6101208e016144cc565b90509295989b509295989b9093969950565b6000806000604084860312156146e5578283fd5b83356146f0816155f5565b925060208401356001600160401b0381111561470a578283fd5b6147168682870161441c565b9497909650939450505050565b60008060008060608587031215614738578182fd5b8435614743816155f5565b935060208501356001600160401b0381111561475d578283fd5b6147698782880161441c565b909450925050604085013561477d8161560a565b939692955090935050565b6000806040838503121561479a578182fd5b82356147a5816155f5565b915060208301356145448161560a565b600080604083850312156147c7578182fd5b82356147d2816155f5565b946020939093013593505050565b6000602082840312156147f1578081fd5b81516108f08161560a565b60006020828403121561480d578081fd5b6108f0826144bd565b600060208284031215614827578081fd5b81356108f081615618565b600060208284031215614843578081fd5b81516108f081615618565b60008060008060808587031215614863578182fd5b845161486e81615618565b602086015190945061487f81615618565b60408601519093506148908161562d565b606086015190925061477d8161562d565b6000602082840312156148b2578081fd5b6108f0826144dd565b600080604083850312156148cd578182fd5b614534836144dd565b600080604083850312156148e8578182fd5b6148f1836144dd565b9150602083013561454481615618565b600060208284031215614912578081fd5b5051919050565b6000806040838503121561492b578182fd5b505080516020909101519092909150565b60006020828403121561494d578081fd5b81356108f08161563f565b6001600160a01b03169052565b15159052565b60008151808452815b8181101561499057602081850181015186830182015201614974565b818111156149a15782602083870101525b50601f01601f19169290920160200192915050565b600281106149c057fe5b9052565b600381106149c057fe5b6001600160801b03169052565b62ffffff169052565b63ffffffff169052565b6001600160a01b0391909116815260200190565b6001600160a01b0397881681529590961660208601526001600160801b0393841660408601529190921660608401526001600160401b0391821660808401521660a082015260ff90911660c082015260e00190565b6001600160a01b038c811682528b811660208301528a1660408201526001600160801b0389811660608301528881166080830152871660a082015263ffffffff86811660c0830152851660e08201528315156101008201526000610160614ac26101208401866149b6565b80610140840152614ad58184018561496b565b9e9d5050505050505050505050505050565b6001600160a01b0397881681529590961660208601526001600160801b03938416604086015291831660608501526001600160401b0390811660808501521660a083015290911660c082015260e00190565b6001600160a01b039290921682526001600160801b0316602082015260400190565b6001600160a01b039390931683526001600160801b03918216602084015216604082015260600190565b6001600160a01b0392909216825262ffffff16602082015260400190565b6001600160a01b03938416815262ffffff929092166020830152909116604082015260600190565b6001600160a01b03968716815262ffffff95909516602086015292909416604084015260608301526001600160801b03928316608083015290911660a082015260c00190565b6001600160a01b03929092168252602082015260400190565b6020808252825182820181905260009190848201906040850190845b81811015614c6b5783516001600160a01b031683529284019291840191600101614c46565b50909695505050505050565b901515815260200190565b6001600160a01b0392831681529116602082015260400190565b60e08101614caa828a6149c4565b6001600160a01b03978816602083015295909616604087015260ff93909316606086015261ffff919091166080850152151560a0840152151560c090920191909152919050565b60a08101614cff82886149c4565b6001600160a01b0395909516602082015260ff93909316604084015261ffff9190911660608301521515608090910152919050565b6020808252601390820152720616464726573732063616e6e6f74206265203606c1b604082015260600190565b602080825260189082015277756e737570706f7274656420766f7563686572207479706560401b604082015260600190565b60208082526010908201526f1bd999995c9a5b99c81a5b9d985b1a5960821b604082015260600190565b6020808252600e908201526d1a5b9d985b1a59081b585c9ad95d60921b604082015260600190565b6020808252601190820152706e6f74206f66666572696e672074696d6560781b604082015260600190565b6020808252601190820152701b9bdd081a5b88185b1b1bddc81b1a5cdd607a1b604082015260600190565b60208082526013908201527214dbdb1d995c8e881b9bdd08185b1b1bddd959606a1b604082015260600190565b6020808252601290820152711b5a5b88185b5bdd5b9d081b9bdd081b595d60721b604082015260600190565b6020808252601390820152723ab739bab83837b93a32b2103b37bab1b432b960691b604082015260600190565b6020808252600b908201526a37b7363c9034b9b9bab2b960a91b604082015260600190565b6020808252600c908201526b37b7363c9036b0b730b3b2b960a11b604082015260600190565b6020808252600890820152671cdbdb19081bdd5d60c21b604082015260600190565b6020808252600d908201526c185b1c9958591e481859191959609a1b604082015260600190565b6020808252601290820152711cdbdb1d995c881b9bdd08185b1b1bddd95960721b604082015260600190565b6020808252601b908201527a656e6454696d65206c657373207468616e20737461727454696d6560281b604082015260600190565b6020808252600990820152680dad2dc407c40dac2f60bb1b604082015260600190565b600060408252600360408301526242757960e81b6060830152608060208301526108f0608083018461496b565b602080825260169082015275195e18d959591cc81c1d5c98da185cd9481b1a5b5a5d60521b604082015260600190565b60208082526010908201526f696e76616c696420666565207261746560801b604082015260600190565b600060408252600660408301526552656d6f766560d01b6060830152608060208301526108f0608083018461496b565b60208082526018908201527708ccaca7440caf0c6cacac8e640ead2dce862647040dac2f60431b604082015260600190565b60208082526010908201526f696e76616c6964206f66666572696e6760801b604082015260600190565b602080825260149082015273756e737570706f727465642063757272656e637960601b604082015260600190565b6020808252601390820152726f66666572696e672070726f63657373696e6760681b604082015260600190565b6020808252600e908201526d34b73b30b634b21039b7b63b32b960911b604082015260600190565b600060408252600560408301526427b33332b960d91b6060830152608060208301526108f0608083018461496b565b81516001600160801b039081168252602080840151821690830152604080840151909116908201526060808301516001600160401b0390811691830191909152608092830151169181019190915260a00190565b60006101a0820190506152068284516149db565b602083015161521860208401826149e4565b50604083015161522b60408401826149e4565b50606083015161523e60608401826149b6565b50608083015161525160808401826149ce565b5060a083015161526460a08401826149ce565b5060c083015161527760c08401826149ce565b5060e083015161528a60e08401826149ce565b506101008084015161529e82850182614958565b5050610120808401516152b382850182614958565b5050610140808401516152c882850182614958565b5050610160808401516152dd82850182614965565b5050610180808401516152f282850182614965565b505092915050565b6001600160801b0391909116815260200190565b6001600160801b03948516815292909316602083015263ffffffff9081166040830152909116606082015260800190565b6001600160801b03958616815293909416602084015263ffffffff918216604084015281166060830152909116608082015260a00190565b62ffffff91909116815260200190565b62ffffff9590951685526001600160a01b0393909316602085015260408401919091526001600160801b03908116606084015216608082015260a00190565b62ffffff8e16815263ffffffff8d811660208301528c1660408201526101a081016153f4606083018d6149b6565b6001600160801b038b16608083015261541060a083018b6149ce565b61541d60c083018a6149ce565b61542a60e08301896149ce565b615438610100830188614958565b615446610120830187614958565b615454610140830186614958565b615462610160830185614965565b614ad5610180830184614965565b90815260200190565b9182526001600160801b0316602082015260400190565b98895262ffffff97909716602089015263ffffffff9590951660408801526001600160a01b0393909316606087015260ff9190911660808601526001600160801b0390811660a086015290811660c085015260e0840191909152166101008201526101200190565b60ff9290921682526001600160801b0316602082015260400190565b813561551f81615618565b61552981836155d5565b50602082013561553881615618565b81546001600160801b031660809190911b6001600160801b03191617815560018101604083013561556881615618565b61557281836155d5565b5060608301356155818161563f565b8154600160801b600160c01b031916608091821b600160801b600160c01b031617808355908401356155b28161563f565b6001600160c01b039190911660c09190911b6001600160c01b0319161790555050565b80546001600160801b0319166001600160801b0392909216919091179055565b6001600160a01b03811681146133a657600080fd5b80151581146133a657600080fd5b6001600160801b03811681146133a657600080fd5b63ffffffff811681146133a657600080fd5b6001600160401b03811681146133a657600080fdfe456e756d657261626c655365743a20696e646578206f7574206f6620626f756e64735265656e7472616e637947756172643a207265656e7472616e742063616c6c006475726174696f6e206d7573742067726561746572207468616e20696e74657276616c496e697469616c697a61626c653a20636f6e747261637420697320616c726561647920696e697469616c697a6564536166654d6174683a206d756c7469706c69636174696f6e206f766572666c6f77a2646970667358221220372434c3d56370ed8c0b3e829e7b254b0f8aa055696fdb687a8f9656087cc4d164736f6c63430007060033"
}