{
  "address": "0x6B3a1dba1b30399fd9a71c7f6e5BC3f4861DfCcF",
  "abi": [
    {
      "anonymous": false,
      "inputs": [
        {
          "indexed": true,
          "internalType": "address",
          "name": "voucher",
          "type": "address"
        },
        {
          "indexed": false,
          "internalType": "enum Constants.VoucherType",
          "name": "voucherType",
          "type": "uint8"
        },
        {
          "indexed": false,
          "internalType": "address",
          "name": "asset",
          "type": "address"
        },
        {
          "indexed": false,
          "internalType": "uint8",
          "name": "decimals",
          "type": "uint8"
        },
        {
          "indexed": false,
          "internalType": "uint16",
          "name": "feeRate",
          "type": "uint16"
        },
        {
          "indexed": false,
          "internalType": "bool",
          "name": "onlyManangerOffer",
          "type": "bool"
        }
      ],
      "name": "AddMarket",
      "type": "event"
    },
    {
      "anonymous": false,
      "inputs": [
        {
          "indexed": true,
          "internalType": "address",
          "name": "voucher",
          "type": "address"
        },
        {
          "indexed": true,
          "internalType": "uint24",
          "name": "offeringId",
          "type": "uint24"
        },
        {
          "indexed": false,
          "internalType": "uint128",
          "name": "highest",
          "type": "uint128"
        },
        {
          "indexed": false,
          "internalType": "uint128",
          "name": "lowest",
          "type": "uint128"
        },
        {
          "indexed": false,
          "internalType": "uint32",
          "name": "duration",
          "type": "uint32"
        },
        {
          "indexed": false,
          "internalType": "uint32",
          "name": "interval",
          "type": "uint32"
        }
      ],
      "name": "DecliningPriceSet",
      "type": "event"
    },
    {
      "anonymous": false,
      "inputs": [
        {
          "indexed": true,
          "internalType": "address",
          "name": "voucher",
          "type": "address"
        },
        {
          "indexed": true,
          "internalType": "uint24",
          "name": "offeringId",
          "type": "uint24"
        },
        {
          "indexed": false,
          "internalType": "uint8",
          "name": "priceType",
          "type": "uint8"
        },
        {
          "indexed": false,
          "internalType": "uint128",
          "name": "lastPrice",
          "type": "uint128"
        }
      ],
      "name": "FixedPriceSet",
      "type": "event"
    },
    {
      "anonymous": false,
      "inputs": [
        {
          "indexed": false,
          "internalType": "address",
          "name": "oldAdmin",
          "type": "address"
        },
        {
          "indexed": false,
          "internalType": "address",
          "name": "newAdmin",
          "type": "address"
        }
      ],
      "name": "NewAdmin",
      "type": "event"
    },
    {
      "anonymous": false,
      "inputs": [
        {
          "indexed": false,
          "internalType": "address",
          "name": "oldPendingAdmin",
          "type": "address"
        },
        {
          "indexed": false,
          "internalType": "address",
          "name": "newPendingAdmin",
          "type": "address"
        }
      ],
      "name": "NewPendingAdmin",
      "type": "event"
    },
    {
      "anonymous": false,
      "inputs": [
        {
          "indexed": false,
          "internalType": "contract IIVOSolver",
          "name": "oldSolver",
          "type": "address"
        },
        {
          "indexed": false,
          "internalType": "contract IIVOSolver",
          "name": "newSolver",
          "type": "address"
        }
      ],
      "name": "NewSolver",
      "type": "event"
    },
    {
      "anonymous": false,
      "inputs": [
        {
          "indexed": true,
          "internalType": "address",
          "name": "voucher",
          "type": "address"
        },
        {
          "indexed": true,
          "internalType": "address",
          "name": "issuer",
          "type": "address"
        },
        {
          "components": [
            {
              "internalType": "uint24",
              "name": "offeringId",
              "type": "uint24"
            },
            {
              "internalType": "uint32",
              "name": "startTime",
              "type": "uint32"
            },
            {
              "internalType": "uint32",
              "name": "endTime",
              "type": "uint32"
            },
            {
              "internalType": "enum PriceManager.PriceType",
              "name": "priceType",
              "type": "uint8"
            },
            {
              "internalType": "uint128",
              "name": "totalUnits",
              "type": "uint128"
            },
            {
              "internalType": "uint128",
              "name": "units",
              "type": "uint128"
            },
            {
              "internalType": "uint128",
              "name": "min",
              "type": "uint128"
            },
            {
              "internalType": "uint128",
              "name": "max",
              "type": "uint128"
            },
            {
              "internalType": "address",
              "name": "voucher",
              "type": "address"
            },
            {
              "internalType": "address",
              "name": "currency",
              "type": "address"
            },
            {
              "internalType": "address",
              "name": "issuer",
              "type": "address"
            },
            {
              "internalType": "bool",
              "name": "useAllowList",
              "type": "bool"
            },
            {
              "internalType": "bool",
              "name": "isValid",
              "type": "bool"
            }
          ],
          "indexed": false,
          "internalType": "struct OfferingMarketCore.Offering",
          "name": "offering",
          "type": "tuple"
        }
      ],
      "name": "Offer",
      "type": "event"
    },
    {
      "anonymous": false,
      "inputs": [
        {
          "indexed": true,
          "internalType": "address",
          "name": "issuer",
          "type": "address"
        },
        {
          "indexed": true,
          "internalType": "uint24",
          "name": "offeringId",
          "type": "uint24"
        },
        {
          "indexed": false,
          "internalType": "address",
          "name": "voucher",
          "type": "address"
        },
        {
          "indexed": false,
          "internalType": "uint128",
          "name": "total",
          "type": "uint128"
        },
        {
          "indexed": false,
          "internalType": "uint128",
          "name": "sold",
          "type": "uint128"
        }
      ],
      "name": "Remove",
      "type": "event"
    },
    {
      "anonymous": false,
      "inputs": [
        {
          "indexed": true,
          "internalType": "address",
          "name": "voucher",
          "type": "address"
        }
      ],
      "name": "RemoveMarket",
      "type": "event"
    },
    {
      "anonymous": false,
      "inputs": [
        {
          "indexed": true,
          "internalType": "address",
          "name": "currency",
          "type": "address"
        },
        {
          "indexed": false,
          "internalType": "bool",
          "name": "enable",
          "type": "bool"
        }
      ],
      "name": "SetCurrency",
      "type": "event"
    },
    {
      "anonymous": false,
      "inputs": [
        {
          "indexed": true,
          "internalType": "address",
          "name": "buyer",
          "type": "address"
        },
        {
          "indexed": true,
          "internalType": "uint24",
          "name": "offeringId",
          "type": "uint24"
        },
        {
          "indexed": true,
          "internalType": "address",
          "name": "voucher",
          "type": "address"
        },
        {
          "indexed": false,
          "internalType": "uint256",
          "name": "voucherId",
          "type": "uint256"
        },
        {
          "indexed": false,
          "internalType": "uint24",
          "name": "tradeId",
          "type": "uint24"
        },
        {
          "indexed": false,
          "internalType": "uint32",
          "name": "tradeTime",
          "type": "uint32"
        },
        {
          "indexed": false,
          "internalType": "address",
          "name": "currency",
          "type": "address"
        },
        {
          "indexed": false,
          "internalType": "uint8",
          "name": "priceType",
          "type": "uint8"
        },
        {
          "indexed": false,
          "internalType": "uint128",
          "name": "price",
          "type": "uint128"
        },
        {
          "indexed": false,
          "internalType": "uint128",
          "name": "tradedUnits",
          "type": "uint128"
        },
        {
          "indexed": false,
          "internalType": "uint256",
          "name": "tradedAmount",
          "type": "uint256"
        },
        {
          "indexed": false,
          "internalType": "uint128",
          "name": "fee",
          "type": "uint128"
        }
      ],
      "name": "Traded",
      "type": "event"
    },
    {
      "anonymous": false,
      "inputs": [
        {
          "indexed": false,
          "internalType": "address",
          "name": "voucher",
          "type": "address"
        },
        {
          "indexed": false,
          "internalType": "uint256",
          "name": "reduceAmount",
          "type": "uint256"
        }
      ],
      "name": "WithdrawFee",
      "type": "event"
    },
    {
      "inputs": [],
      "name": "_admin",
      "outputs": [
        {
          "internalType": "address",
          "name": "",
          "type": "address"
        }
      ],
      "stateMutability": "view",
      "type": "function"
    },
    {
      "inputs": [],
      "name": "acceptAdmin",
      "outputs": [],
      "stateMutability": "nonpayable",
      "type": "function"
    },
    {
      "inputs": [
        {
          "internalType": "address",
          "name": "voucher_",
          "type": "address"
        },
        {
          "internalType": "address[]",
          "name": "addresses_",
          "type": "address[]"
        },
        {
          "internalType": "bool",
          "name": "resetExisting_",
          "type": "bool"
        }
      ],
      "name": "addAllowAddress",
      "outputs": [],
      "stateMutability": "nonpayable",
      "type": "function"
    },
    {
      "inputs": [
        {
          "internalType": "address",
          "name": "voucher_",
          "type": "address"
        },
        {
          "internalType": "address",
          "name": "voucherPool_",
          "type": "address"
        },
        {
          "internalType": "enum Constants.VoucherType",
          "name": "voucherType_",
          "type": "uint8"
        },
        {
          "internalType": "address",
          "name": "asset_",
          "type": "address"
        },
        {
          "internalType": "uint8",
          "name": "decimals_",
          "type": "uint8"
        },
        {
          "internalType": "uint16",
          "name": "feeRate_",
          "type": "uint16"
        },
        {
          "internalType": "bool",
          "name": "onlyManangerOffer_",
          "type": "bool"
        }
      ],
      "name": "addMarket",
      "outputs": [],
      "stateMutability": "nonpayable",
      "type": "function"
    },
    {
      "inputs": [
        {
          "internalType": "uint24",
          "name": "offeringId_",
          "type": "uint24"
        },
        {
          "internalType": "uint128",
          "name": "units_",
          "type": "uint128"
        }
      ],
      "name": "buy",
      "outputs": [
        {
          "internalType": "uint256",
          "name": "amount_",
          "type": "uint256"
        },
        {
          "internalType": "uint128",
          "name": "fee_",
          "type": "uint128"
        }
      ],
      "stateMutability": "payable",
      "type": "function"
    },
    {
      "inputs": [
        {
          "internalType": "uint24",
          "name": "offeringId_",
          "type": "uint24"
        }
      ],
      "name": "getDecliningPrice",
      "outputs": [
        {
          "internalType": "uint128",
          "name": "highest",
          "type": "uint128"
        },
        {
          "internalType": "uint128",
          "name": "lowest",
          "type": "uint128"
        },
        {
          "internalType": "uint32",
          "name": "startTime",
          "type": "uint32"
        },
        {
          "internalType": "uint32",
          "name": "duration",
          "type": "uint32"
        },
        {
          "internalType": "uint32",
          "name": "interval",
          "type": "uint32"
        }
      ],
      "stateMutability": "view",
      "type": "function"
    },
    {
      "inputs": [
        {
          "internalType": "uint24",
          "name": "offeringId_",
          "type": "uint24"
        }
      ],
      "name": "getFixedPrice",
      "outputs": [
        {
          "internalType": "uint128",
          "name": "",
          "type": "uint128"
        }
      ],
      "stateMutability": "view",
      "type": "function"
    },
    {
      "inputs": [
        {
          "internalType": "uint24",
          "name": "offeringId_",
          "type": "uint24"
        }
      ],
      "name": "getPrice",
      "outputs": [
        {
          "internalType": "uint128",
          "name": "",
          "type": "uint128"
        }
      ],
      "stateMutability": "view",
      "type": "function"
    },
    {
      "inputs": [
        {
          "internalType": "contract IIVOSolver",
          "name": "solver_",
          "type": "address"
        }
      ],
      "name": "initialize",
      "outputs": [],
      "stateMutability": "nonpayable",
      "type": "function"
    },
    {
      "inputs": [
        {
          "internalType": "address",
          "name": "voucher_",
          "type": "address"
        },
        {
          "internalType": "address",
          "name": "buyer_",
          "type": "address"
        }
      ],
      "name": "isBuyerAllowed",
      "outputs": [
        {
          "internalType": "bool",
          "name": "",
          "type": "bool"
        }
      ],
      "stateMutability": "view",
      "type": "function"
    },
    {
      "inputs": [
        {
          "internalType": "enum Constants.VoucherType",
          "name": "voucherType_",
          "type": "uint8"
        }
      ],
      "name": "isSupportVoucherType",
      "outputs": [
        {
          "internalType": "bool",
          "name": "",
          "type": "bool"
        }
      ],
      "stateMutability": "pure",
      "type": "function"
    },
    {
      "inputs": [
        {
          "internalType": "address",
          "name": "",
          "type": "address"
        }
      ],
      "name": "markets",
      "outputs": [
        {
          "internalType": "enum Constants.VoucherType",
          "name": "voucherType",
          "type": "uint8"
        },
        {
          "internalType": "address",
          "name": "voucherPool",
          "type": "address"
        },
        {
          "internalType": "address",
          "name": "asset",
          "type": "address"
        },
        {
          "internalType": "uint8",
          "name": "decimals",
          "type": "uint8"
        },
        {
          "internalType": "uint16",
          "name": "feeRate",
          "type": "uint16"
        },
        {
          "internalType": "bool",
          "name": "onlyManangerOffer",
          "type": "bool"
        },
        {
          "internalType": "bool",
          "name": "isValid",
          "type": "bool"
        }
      ],
      "stateMutability": "view",
      "type": "function"
    },
    {
      "inputs": [
        {
          "internalType": "uint24",
          "name": "offeringId_",
          "type": "uint24"
        }
      ],
      "name": "mintParameters",
      "outputs": [
        {
          "components": [
            {
              "internalType": "enum Constants.ClaimType",
              "name": "claimType",
              "type": "uint8"
            },
            {
              "internalType": "uint64",
              "name": "latestStartTime",
              "type": "uint64"
            },
            {
              "internalType": "enum InitialVestingOfferingMarket.TimeType",
              "name": "timeType",
              "type": "uint8"
            },
            {
              "internalType": "uint64[]",
              "name": "terms",
              "type": "uint64[]"
            },
            {
              "internalType": "uint32[]",
              "name": "percentages",
              "type": "uint32[]"
            }
          ],
          "internalType": "struct InitialVestingOfferingMarket.MintParameter",
          "name": "",
          "type": "tuple"
        }
      ],
      "stateMutability": "view",
      "type": "function"
    },
    {
      "inputs": [],
      "name": "nextOfferingId",
      "outputs": [
        {
          "internalType": "uint24",
          "name": "",
          "type": "uint24"
        }
      ],
      "stateMutability": "view",
      "type": "function"
    },
    {
      "inputs": [],
      "name": "nextTradeId",
      "outputs": [
        {
          "internalType": "uint24",
          "name": "",
          "type": "uint24"
        }
      ],
      "stateMutability": "view",
      "type": "function"
    },
    {
      "inputs": [
        {
          "internalType": "address",
          "name": "voucher_",
          "type": "address"
        },
        {
          "internalType": "address",
          "name": "currency_",
          "type": "address"
        },
        {
          "internalType": "uint128",
          "name": "units_",
          "type": "uint128"
        },
        {
          "internalType": "uint128",
          "name": "min_",
          "type": "uint128"
        },
        {
          "internalType": "uint128",
          "name": "max_",
          "type": "uint128"
        },
        {
          "internalType": "uint32",
          "name": "startTime_",
          "type": "uint32"
        },
        {
          "internalType": "uint32",
          "name": "endTime_",
          "type": "uint32"
        },
        {
          "internalType": "bool",
          "name": "useAllowList_",
          "type": "bool"
        },
        {
          "internalType": "enum PriceManager.PriceType",
          "name": "priceType_",
          "type": "uint8"
        },
        {
          "internalType": "bytes",
          "name": "priceData_",
          "type": "bytes"
        },
        {
          "components": [
            {
              "internalType": "enum Constants.ClaimType",
              "name": "claimType",
              "type": "uint8"
            },
            {
              "internalType": "uint64",
              "name": "latestStartTime",
              "type": "uint64"
            },
            {
              "internalType": "enum InitialVestingOfferingMarket.TimeType",
              "name": "timeType",
              "type": "uint8"
            },
            {
              "internalType": "uint64[]",
              "name": "terms",
              "type": "uint64[]"
            },
            {
              "internalType": "uint32[]",
              "name": "percentages",
              "type": "uint32[]"
            }
          ],
          "internalType": "struct InitialVestingOfferingMarket.MintParameter",
          "name": "mintParameter_",
          "type": "tuple"
        }
      ],
      "name": "offer",
      "outputs": [
        {
          "internalType": "uint24",
          "name": "offeringId",
          "type": "uint24"
        }
      ],
      "stateMutability": "nonpayable",
      "type": "function"
    },
    {
      "inputs": [
        {
          "internalType": "address",
          "name": "voucher_",
          "type": "address"
        },
        {
          "internalType": "uint256",
          "name": "index_",
          "type": "uint256"
        }
      ],
      "name": "offeringIdOfvoucherByIndex",
      "outputs": [
        {
          "internalType": "uint256",
          "name": "",
          "type": "uint256"
        }
      ],
      "stateMutability": "view",
      "type": "function"
    },
    {
      "inputs": [
        {
          "internalType": "uint24",
          "name": "",
          "type": "uint24"
        }
      ],
      "name": "offerings",
      "outputs": [
        {
          "internalType": "uint24",
          "name": "offeringId",
          "type": "uint24"
        },
        {
          "internalType": "uint32",
          "name": "startTime",
          "type": "uint32"
        },
        {
          "internalType": "uint32",
          "name": "endTime",
          "type": "uint32"
        },
        {
          "internalType": "enum PriceManager.PriceType",
          "name": "priceType",
          "type": "uint8"
        },
        {
          "internalType": "uint128",
          "name": "totalUnits",
          "type": "uint128"
        },
        {
          "internalType": "uint128",
          "name": "units",
          "type": "uint128"
        },
        {
          "internalType": "uint128",
          "name": "min",
          "type": "uint128"
        },
        {
          "internalType": "uint128",
          "name": "max",
          "type": "uint128"
        },
        {
          "internalType": "address",
          "name": "voucher",
          "type": "address"
        },
        {
          "internalType": "address",
          "name": "currency",
          "type": "address"
        },
        {
          "internalType": "address",
          "name": "issuer",
          "type": "address"
        },
        {
          "internalType": "bool",
          "name": "useAllowList",
          "type": "bool"
        },
        {
          "internalType": "bool",
          "name": "isValid",
          "type": "bool"
        }
      ],
      "stateMutability": "view",
      "type": "function"
    },
    {
      "inputs": [],
      "name": "pendingAdmin",
      "outputs": [
        {
          "internalType": "address",
          "name": "",
          "type": "address"
        }
      ],
      "stateMutability": "view",
      "type": "function"
    },
    {
      "inputs": [
        {
          "internalType": "uint24",
          "name": "offeringId_",
          "type": "uint24"
        },
        {
          "internalType": "address",
          "name": "buyer_",
          "type": "address"
        }
      ],
      "name": "purchasedUnits",
      "outputs": [
        {
          "internalType": "uint128",
          "name": "",
          "type": "uint128"
        }
      ],
      "stateMutability": "view",
      "type": "function"
    },
    {
      "inputs": [
        {
          "internalType": "uint24",
          "name": "offeringId_",
          "type": "uint24"
        }
      ],
      "name": "remove",
      "outputs": [],
      "stateMutability": "nonpayable",
      "type": "function"
    },
    {
      "inputs": [
        {
          "internalType": "address",
          "name": "voucher_",
          "type": "address"
        },
        {
          "internalType": "address[]",
          "name": "addresses_",
          "type": "address[]"
        }
      ],
      "name": "removeAllowAddress",
      "outputs": [],
      "stateMutability": "nonpayable",
      "type": "function"
    },
    {
      "inputs": [
        {
          "internalType": "address",
          "name": "voucher_",
          "type": "address"
        }
      ],
      "name": "removeMarket",
      "outputs": [],
      "stateMutability": "nonpayable",
      "type": "function"
    },
    {
      "inputs": [
        {
          "internalType": "address",
          "name": "currency_",
          "type": "address"
        },
        {
          "internalType": "bool",
          "name": "enable_",
          "type": "bool"
        }
      ],
      "name": "setCurrency",
      "outputs": [],
      "stateMutability": "nonpayable",
      "type": "function"
    },
    {
      "inputs": [
        {
          "internalType": "address",
          "name": "newPendingAdmin_",
          "type": "address"
        }
      ],
      "name": "setPendingAdmin",
      "outputs": [],
      "stateMutability": "nonpayable",
      "type": "function"
    },
    {
      "inputs": [
        {
          "internalType": "contract IIVOSolver",
          "name": "newSolver_",
          "type": "address"
        }
      ],
      "name": "setSolver",
      "outputs": [],
      "stateMutability": "nonpayable",
      "type": "function"
    },
    {
      "inputs": [
        {
          "internalType": "address",
          "name": "voucher_",
          "type": "address"
        },
        {
          "internalType": "address[]",
          "name": "managers_",
          "type": "address[]"
        },
        {
          "internalType": "bool",
          "name": "resetExisting_",
          "type": "bool"
        }
      ],
      "name": "setVoucherManager",
      "outputs": [],
      "stateMutability": "nonpayable",
      "type": "function"
    },
    {
      "inputs": [],
      "name": "solver",
      "outputs": [
        {
          "internalType": "contract IIVOSolver",
          "name": "",
          "type": "address"
        }
      ],
      "stateMutability": "view",
      "type": "function"
    },
    {
      "inputs": [
        {
          "internalType": "address",
          "name": "voucher_",
          "type": "address"
        }
      ],
      "name": "totalOfferingsOfvoucher",
      "outputs": [
        {
          "internalType": "uint256",
          "name": "",
          "type": "uint256"
        }
      ],
      "stateMutability": "view",
      "type": "function"
    },
    {
      "inputs": [
        {
          "internalType": "address",
          "name": "voucher_",
          "type": "address"
        }
      ],
      "name": "voucherManagers",
      "outputs": [
        {
          "internalType": "address[]",
          "name": "managers_",
          "type": "address[]"
        }
      ],
      "stateMutability": "view",
      "type": "function"
    },
    {
      "inputs": [
        {
          "internalType": "address",
          "name": "currency_",
          "type": "address"
        },
        {
          "internalType": "uint256",
          "name": "reduceAmount_",
          "type": "uint256"
        }
      ],
      "name": "withdrawFee",
      "outputs": [],
      "stateMutability": "nonpayable",
      "type": "function"
    }
  ],
  "transactionHash": "0x0b3797ea52a545e67de35b18938fba865ac93dbf53eba3e3862294d389e904c5",
  "args": [],
  "numDeployments": 1,
  "solcInputHash": "7db2b7e89ba5fa966f16692695ec978a",
  "bytecode": "0x608060405234801561001057600080fd5b50615f1880620000216000396000f3fe6080604052600436106101675760003560e01c80623f85411461016c57806301bc45c9146101a25780630e18b681146101c4578063194e1660146101db5780631d248d9a146101fb5780631d4422331461021b5780631f8794331461024857806326782247146102685780633ac449171461027d57806341ec4ef31461029d578063423dd0dd146102be57806349a7a26d146102eb5780634d93e679146103005780634dd18bf5146103205780635acc81071461034057806363d0019a1461036d578063813ad0831461039a5780638a31905f146103af5780638e8f294b146103cf5780639627d763146104025780639ca24f34146104225780639cfb2ab014610442578063b63c47bb1461047b578063bb21b32a1461049b578063c39333ab146104b0578063c4d66de8146104dd578063c569a8f2146104fd578063d88ee8a91461051d578063db9132361461053d578063e0cc5f5a1461055d578063fd9be5221461058e575b600080fd5b34801561017857600080fd5b5061018c61018736600461493e565b6105ae565b60405161019991906158a5565b60405180910390f35b3480156101ae57600080fd5b506101b76109e0565b6040516101999190614dd2565b3480156101d057600080fd5b506101d96109ef565b005b3480156101e757600080fd5b506101d96101f6366004614a97565b610ac6565b34801561020757600080fd5b506101d9610216366004614a97565b610bec565b34801561022757600080fd5b5061023b610236366004614866565b610cf6565b604051610199919061501e565b34801561025457600080fd5b506101d961026336600461484a565b610d21565b34801561027457600080fd5b506101b7610e71565b34801561028957600080fd5b506101d9610298366004614afc565b610e80565b6102b06102ab366004614c30565b610f45565b6040516101999291906159a7565b3480156102ca57600080fd5b506102de6102d9366004614bfb565b61123d565b6040516101999190615828565b3480156102f757600080fd5b506101b761126e565b34801561030c57600080fd5b506101d961031b36600461489e565b61127d565b34801561032c57600080fd5b506101d961033b36600461484a565b61147a565b34801561034c57600080fd5b5061036061035b36600461484a565b611540565b6040516101999190614fd1565b34801561037957600080fd5b5061038d610388366004614b29565b611625565b604051610199919061599e565b3480156103a657600080fd5b5061018c611647565b3480156103bb57600080fd5b506102de6103ca366004614c15565b611659565b3480156103db57600080fd5b506103ef6103ea36600461484a565b611691565b6040516101999796959493929190615043565b34801561040e57600080fd5b5061023b61041d366004614b70565b6116ed565b34801561042e57600080fd5b506102de61043d366004614bfb565b611719565b34801561044e57600080fd5b5061046261045d366004614bfb565b611739565b6040516101999d9c9b9a999897969594939291906158f4565b34801561048757600080fd5b5061038d61049636600461484a565b6117e1565b3480156104a757600080fd5b5061018c611802565b3480156104bc57600080fd5b506104d06104cb366004614bfb565b611814565b60405161019991906156b3565b3480156104e957600080fd5b506101d96104f836600461484a565b6119ae565b34801561050957600080fd5b506101d9610518366004614bfb565b611a91565b34801561052957600080fd5b506101d9610538366004614a45565b611e39565b34801561054957600080fd5b506101d961055836600461484a565b611f25565b34801561056957600080fd5b5061057d610578366004614bfb565b611fed565b60405161019995949392919061586d565b34801561059a57600080fd5b506101d96105a9366004614b29565b61203f565b6001600160a01b038c166000908152606a6020526040808220815160e08101909252805483929190829060ff1660028111156105e657fe5b60028111156105f157fe5b815281546001600160a01b0361010090910481166020830152600190920154918216604082015260ff600160a01b83048116606083015261ffff600160a81b8404166080830152600160b81b83048116151560a0830152600160c01b909204909116151560c0909101529050600261066f6060850160408601614b70565b600281111561067a57fe5b14156106b55760018151600281111561068f57fe5b146106b55760405162461bcd60e51b81526004016106ac906152ed565b60405180910390fd5b6106c26080840184615ab0565b90506106d16060850185615ab0565b9050146106f05760405162461bcd60e51b81526004016106ac9061567c565b63f485e6806107056040850160208601614cb2565b6001600160401b03161061072b5760405162461bcd60e51b81526004016106ac90615267565b603261073a6080850185615ab0565b9050111561075a5760405162461bcd60e51b81526004016106ac90615438565b6000805b61076b6080860186615ab0565b905081101561085e576312cc03006107866060870187615ab0565b8381811061079057fe5b90506020020160208101906107a59190614cb2565b6001600160401b031611156107cc5760405162461bcd60e51b81526004016106ac906154e8565b6127106107dc6080870187615ab0565b838181106107e657fe5b90506020020160208101906107fb9190614c96565b63ffffffff16111561081f5760405162461bcd60e51b81526004016106ac90615233565b61082c6080860186615ab0565b8281811061083657fe5b905060200201602081019061084b9190614c96565b63ffffffff16919091019060010161075e565b5061271081146108805760405162461bcd60e51b81526004016106ac906153b3565b600061088f6020860186614b70565b600281111561089a57fe5b1480156108b557506108af6080850185615ab0565b90506001145b806108f0575060016108ca6020860186614b70565b60028111156108d557fe5b1480156108f057506108ea6080850185615ab0565b90506001145b8061092b575060026109056020860186614b70565b600281111561091057fe5b14801561092b575060016109276080860186615ab0565b9050115b6109475760405162461bcd60e51b81526004016106ac90615516565b61095f8260400151338f6001600160801b03166120e4565b506109a88f8f8f8f8f8f8f8f8f8f8f8080601f0160208091040260200160405190810160405280939291908181526020018383808284376000920191909152506124af92505050565b62ffffff8116600090815260746020526040902090935084906109cb8282615ca5565b90505050509c9b505050505050505050505050565b6035546001600160a01b031681565b6036546001600160a01b0316610a03612c77565b6001600160a01b031614610a53576040805162461bcd60e51b815260206004820152601260248201527137b7363c903832b73234b7339030b236b4b760711b604482015290519081900360640190fd5b603554603654604080516001600160a01b03938416815292909116602083015280517ff9ffabca9c8276e99321725bcb43fb076a6c66a54b7f21c4e8146d8519b417dc9281900390910190a160368054603580546001600160a01b03199081166001600160a01b03841617909155169055565b60355484906001600160a01b0316331480610afe57506001600160a01b0381166000908152607160205260409020610afe9033612c7b565b610b1a5760405162461bcd60e51b81526004016106ac90615318565b6001600160a01b0385166000908152606a6020526040902060010154600160c01b900460ff16610b5c5760405162461bcd60e51b81526004016106ac9061529b565b6001600160a01b03851660009081526070602052604090208215610ba4575b610b8481612c90565b15610ba457610b9e610b97826000612c9b565b8290612ca7565b50610b7b565b60005b84811015610be357610bda868683818110610bbe57fe5b9050602002016020810190610bd3919061484a565b8390612cbc565b50600101610ba7565b50505050505050565b6035546001600160a01b0316610c00612c77565b6001600160a01b031614610c48576040805162461bcd60e51b815260206004820152600a60248201526937b7363c9030b236b4b760b11b604482015290519081900360640190fd5b6001600160a01b0384166000908152606a6020526040902060010154600160c01b900460ff16610c8a5760405162461bcd60e51b81526004016106ac9061529b565b6001600160a01b03841660009081526071602052604090208115610ccb575b610cb281612c90565b15610ccb57610cc5610b97826000612c9b565b50610ca9565b60005b83811015610cee57610ce5858583818110610bbe57fe5b50600101610cce565b505050505050565b6001600160a01b0382166000908152607060205260408120610d189083612c7b565b90505b92915050565b6035546001600160a01b0316610d35612c77565b6001600160a01b031614610d7d576040805162461bcd60e51b815260206004820152600a60248201526937b7363c9030b236b4b760b11b604482015290519081900360640190fd5b60735460408051630305538f60e11b815290516001600160a01b039283169284169163060aa71e916004808301926020929190829003018186803b158015610dc457600080fd5b505afa158015610dd8573d6000803e3d6000fd5b505050506040513d601f19601f82011682018060405250810190610dfc9190614b54565b610e185760405162461bcd60e51b81526004016106ac90615625565b607380546001600160a01b0319166001600160a01b0384161790556040517f75d88007781bda78ca68e333bfe4f9e91473720b4be5c63ee715949839afe7c790610e659083908590615029565b60405180910390a15050565b6036546001600160a01b031681565b6035546001600160a01b0316610e94612c77565b6001600160a01b031614610edc576040805162461bcd60e51b815260206004820152600a60248201526937b7363c9030b236b4b760b11b604482015290519081900360640190fd5b8015610ef357610eed606b83612cbc565b50610f00565b610efe606b83612ca7565b505b816001600160a01b03167f98c0c4bde5f642566cdaebfb7cd2cdc72a98bc7f3440e38c19e1d58d92388d3482604051610f39919061501e565b60405180910390a25050565b60008060026037541415610f8e576040805162461bcd60e51b815260206004820152601f6024820152600080516020615e51833981519152604482015290519081900360640190fd5b6002603755336000610f9f8661123d565b62ffffff87166000908152606960205260409020600581015491925090600160a81b900460ff16610fe25760405162461bcd60e51b81526004016106ac906155a0565b60038101546001600160a01b03166000908152606a6020526040808220815160e081019092528054829060ff16600281111561101a57fe5b600281111561102557fe5b815281546001600160a01b0361010090910481166020830152600190920154918216604082015260ff600160a01b83048116606083015261ffff600160a81b8404166080830152600160b81b83048116151560a0830152600160c01b909204909116151560c0918201528101519091506110b15760405162461bcd60e51b81526004016106ac9061515c565b60608101516110dc9060ff16600a0a6110d66001600160801b038a8116908716612cd1565b90612d2a565b60038301549096506110f7906001600160a01b031687612d8e565b60735460038401546040519297506000926001600160a01b039283169263a4888f1792611133929116908d908a908d908f908c90602001614f08565b6040516020818303038152906040526040518263ffffffff1660e01b815260040161115e9190615461565b602060405180830381600087803b15801561117857600080fd5b505af115801561118c573d6000803e3d6000fd5b505050506040513d601f19601f820116820180604052508101906111b09190614c5b565b905080156111d05760405162461bcd60e51b81526004016106ac906151da565b60006040518060a00160405280876001600160a01b031681526020018981526020018a6001600160801b03168152602001866001600160801b03168152602001886001600160801b031681525090506112298482612dfc565b505050505050600160375590939092509050565b62ffffff811660009081526069602052604081205461126690600160581b900460ff168361337d565b90505b919050565b6073546001600160a01b031681565b6035546001600160a01b0316611291612c77565b6001600160a01b0316146112d9576040805162461bcd60e51b815260206004820152600a60248201526937b7363c9030b236b4b760b11b604482015290519081900360640190fd5b6112e4606d88612c7b565b156113015760405162461bcd60e51b81526004016106ac90615360565b61130a856116ed565b6113265760405162461bcd60e51b81526004016106ac90615100565b61271061ffff8316111561134c5760405162461bcd60e51b81526004016106ac906154be565b6001600160a01b038781166000908152606a602052604090208054610100600160a81b031916610100928916929092029190911780825560018083018054600160c01b60ff60c01b199091161760ff60a01b1916600160a01b60ff8916021761ffff60a81b1916600160a81b61ffff88160217905587929160ff1916908360028111156113d557fe5b02179055506001600160a01b038781166000908152606a6020526040902060010180546001600160a01b0319169186169190911760ff60b81b1916600160b81b83151502179055611427606d88612cbc565b50866001600160a01b03167f4726a3debe773e4dc7b92dcafbff82d7a6498ac37767a4551768687b986e7ac38686868686604051611469959493929190615093565b60405180910390a250505050505050565b6035546001600160a01b031661148e612c77565b6001600160a01b0316146114d6576040805162461bcd60e51b815260206004820152600a60248201526937b7363c9030b236b4b760b11b604482015290519081900360640190fd5b603654604080516001600160a01b039283168152918316602083015280517fca4f2f25d0898edd99413412fb94012f9e54ec8142f9b093e7720646a95b16a99281900390910190a1603680546001600160a01b0319166001600160a01b0392909216919091179055565b6001600160a01b038116600090815260716020526040902060609061156490612c90565b6001600160401b038111801561157957600080fd5b506040519080825280602002602001820160405280156115a3578160200160208202803683370190505b50905060005b6001600160a01b03831660009081526071602052604090206115ca90612c90565b81101561161f576001600160a01b03831660009081526071602052604090206115f39082612c9b565b8282815181106115ff57fe5b6001600160a01b03909216602092830291909101909101526001016115a9565b50919050565b6001600160a01b0382166000908152606f60205260408120610d189083612c9b565b607354600160b81b900462ffffff1681565b62ffffff821660009081526072602090815260408083206001600160a01b03851684529091529020546001600160801b031692915050565b606a602052600090815260409020805460019091015460ff808316926001600160a01b0361010090910481169290811691600160a01b820481169161ffff600160a81b82041691600160b81b8204811691600160c01b90041687565b600060018260028111156116fd57fe5b14806112665750600082600281111561171257fe5b1492915050565b62ffffff166000908152600160205260409020546001600160801b031690565b60696020526000908152604090208054600182015460028301546003840154600485015460059095015462ffffff85169563ffffffff63010000008704811696600160381b81049091169560ff600160581b83048116966001600160801b03600160601b90940484169683851696600160801b90940485169591909416936001600160a01b03908116939181169290821691600160a01b8104821691600160a81b909104168d565b6001600160a01b0381166000908152606f6020526040812061126690612c90565b607354600160a01b900462ffffff1681565b61181c61471d565b62ffffff821660009081526074602052604090819020815160a081019092528054829060ff16600281111561184d57fe5b600281111561185857fe5b8152815461010081046001600160401b03166020830152604090910190600160481b900460ff16600281111561188a57fe5b600281111561189557fe5b81526020016001820180548060200260200160405190810160405280929190818152602001828054801561191a57602002820191906000526020600020906000905b82829054906101000a90046001600160401b03166001600160401b0316815260200190600801906020826007010492830192600103820291508084116118d75790505b505050505081526020016002820180548060200260200160405190810160405280929190818152602001828054801561199e57602002820191906000526020600020906000905b82829054906101000a900463ffffffff1663ffffffff16815260200190600401906020826003010492830192600103820291508084116119615790505b5050505050815250509050919050565b600254610100900460ff16806119c757506119c7613597565b806119d5575060025460ff16155b611a105760405162461bcd60e51b815260040180806020018281038252602e815260200180615e94602e913960400191505060405180910390fd5b600254610100900460ff16158015611a3b576002805460ff1961ff0019909116610100171660011790555b611a436135a8565b611a4c33613652565b6073805462ffffff60b81b1962ffffff60a01b19909116600160a01b1716600160b81b179055611a7b82610d21565b8015611a8d576002805461ff00191690555b5050565b60026037541415611ad7576040805162461bcd60e51b815260206004820152601f6024820152600080516020615e51833981519152604482015290519081900360640190fd5b600260375562ffffff808216600090815260696020908152604080832081516101a0810183528154958616815263ffffffff63010000008704811694820194909452600160381b8604909316918301919091529192909190606083019060ff600160581b909104166001811115611b4a57fe5b6001811115611b5557fe5b815281546001600160801b03600160601b9091048116602083015260018301548082166040840152600160801b900481166060830152600283015416608082015260038201546001600160a01b0390811660a08301526004830154811660c083015260059092015491821660e082015260ff600160a01b830481161515610100830152600160a81b909204909116151561012090910152610180810151909150611c115760405162461bcd60e51b81526004016106ac906155a0565b6101408101516001600160a01b03163314611c3e5760405162461bcd60e51b81526004016106ac906152c8565b806020015163ffffffff16421080611c5f5750806040015163ffffffff1642115b611c7b5760405162461bcd60e51b81526004016106ac906155f8565b60735461010082015182516101408401516040516000946001600160a01b03169363a4888f1793611cb3939192909190602001614ee0565b6040516020818303038152906040526040518263ffffffff1660e01b8152600401611cde919061553e565b602060405180830381600087803b158015611cf857600080fd5b505af1158015611d0c573d6000803e3d6000fd5b505050506040513d601f19601f82011682018060405250810190611d309190614c5b565b90508015611d505760405162461bcd60e51b81526004016106ac906151da565b611d5e838360a0015161370f565b816000015162ffffff168261014001516001600160a01b03167fbb370dc13b0902f591e63a63b13cbda9ce623e87fac2b5de368df00fc2f9cafb84610100015185608001518660a00151876080015103604051611dbd93929190614e98565b60405180910390a3505062ffffff16600090815260696020526040812080546001600160e01b03191681556001808201929092556002810180546001600160801b03191690556003810180546001600160a01b0319908116909155600482018054909116905560050180546001600160b01b0319169055603755565b60355483906001600160a01b0316331480611e7157506001600160a01b0381166000908152607160205260409020611e719033612c7b565b611e8d5760405162461bcd60e51b81526004016106ac90615318565b6001600160a01b0384166000908152606a6020526040902060010154600160c01b900460ff16611ecf5760405162461bcd60e51b81526004016106ac9061529b565b6001600160a01b0384166000908152607060205260408120905b83811015610cee57611f1c858583818110611f0057fe5b9050602002016020810190611f15919061484a565b8390612ca7565b50600101611ee9565b6035546001600160a01b0316611f39612c77565b6001600160a01b031614611f81576040805162461bcd60e51b815260206004820152600a60248201526937b7363c9030b236b4b760b11b604482015290519081900360640190fd5b611f8c606d82612ca7565b506001600160a01b0381166000818152606a602052604080822080546001600160a81b031916815560010180546001600160c81b0319169055517fc14aef421d4ad67b24691f0e51a4706ba86588e0a70f137686bffee5e0b0b5089190a250565b62ffffff16600090815260208190526040902080546001909101546001600160801b0380831693600160801b909304169163ffffffff80831692600160201b8104821692600160401b90910490911690565b6035546001600160a01b0316612053612c77565b6001600160a01b03161461209b576040805162461bcd60e51b815260206004820152600a60248201526937b7363c9030b236b4b760b11b604482015290519081900360640190fd5b6035546120b39083906001600160a01b031683613763565b7f66bf9186b00db666fc37aaffbb95a050c66e599e000c785c1dff0467d868f1b18282604051610e65929190614f4e565b60006001600160a01b03841673eeeeeeeeeeeeeeeeeeeeeeeeeeeeeeeeeeeeeeee14156121b957326001600160a01b038416148061212a5750336001600160a01b038416145b61216d576040805162461bcd60e51b815260206004820152600f60248201526e0e6cadcc8cae440dad2e6dac2e8c6d608b1b604482015290519081900360640190fd5b8134146121b2576040805162461bcd60e51b815260206004820152600e60248201526d0ecc2d8eaca40dad2e6dac2e8c6d60931b604482015290519081900360640190fd5b50806124a8565b3415612206576040805162461bcd60e51b8152602060048201526017602482015276646f6e277420737570706f7274206d73672e76616c756560481b604482015290519081900360640190fd5b6000846001600160a01b03166370a08231306040518263ffffffff1660e01b815260040180826001600160a01b0316815260200191505060206040518083038186803b15801561225557600080fd5b505afa158015612269573d6000803e3d6000fd5b505050506040513d602081101561227f57600080fd5b5051604080516001600160a01b038781166024830152306044830152606480830188905283518084039091018152608490920183526020820180516001600160e01b03166323b872dd60e01b178152925182519495506000948594928b16939282918083835b602083106123045780518252601f1990920191602091820191016122e5565b6001836020036101000a0380198251168184511680821785525050505050509050019150506000604051808303816000865af19150503d8060008114612366576040519150601f19603f3d011682016040523d82523d6000602084013e61236b565b606091505b5091509150818015612399575080511580612399575080806020019051602081101561239657600080fd5b50515b6123d0576040805162461bcd60e51b815260206004820152600360248201526229aa2360e91b604482015290519081900360640190fd5b6000876001600160a01b03166370a08231306040518263ffffffff1660e01b815260040180826001600160a01b0316815260200191505060206040518083038186803b15801561241f57600080fd5b505afa158015612433573d6000803e3d6000fd5b505050506040513d602081101561244957600080fd5b505190508381101561249f576040805162461bcd60e51b815260206004820152601a602482015279544f4b454e5f5452414e534645525f494e5f4f564552464c4f5760301b604482015290519081900360640190fd5b92909203925050505b9392505050565b6000600260375414156124f7576040805162461bcd60e51b815260206004820152601f6024820152600080516020615e51833981519152604482015290519081900360640190fd5b60026037556001600160a01b038b161580159061251c57506001600160a01b038a1615155b6125385760405162461bcd60e51b81526004016106ac906150d3565b6001600160a01b038b166000908152606a6020526040808220815160e081019092528054829060ff16600281111561256c57fe5b600281111561257757fe5b815281546001600160a01b0361010090910481166020830152600190920154918216604082015260ff600160a01b83048116606083015261ffff600160a81b8404166080830152600160b81b83048116151560a0830152600160c01b909204909116151560c0918201528101519091506126035760405162461bcd60e51b81526004016106ac9061529b565b61260e606b8c612c7b565b61262a5760405162461bcd60e51b81526004016106ac906155ca565b8663ffffffff168663ffffffff16116126555760405162461bcd60e51b81526004016106ac906153e0565b8060a001511561269d576001600160a01b038c1660009081526071602052604090206126819033612c7b565b61269d5760405162461bcd60e51b81526004016106ac90615318565b6001600160801b038816156126de57876001600160801b0316896001600160801b031611156126de5760405162461bcd60e51b81526004016106ac90615415565b6000607360009054906101000a90046001600160a01b03166001600160a01b031663a4888f178e338f8f8f8f8f8f8f8f8f6040516020016127299b9a99989796959493929190614de6565b6040516020818303038152906040526040518263ffffffff1660e01b8152600401612754919061564d565b602060405180830381600087803b15801561276e57600080fd5b505af1158015612782573d6000803e3d6000fd5b505050506040513d601f19601f820116820180604052508101906127a69190614c5b565b905080156127c65760405162461bcd60e51b81526004016106ac90615387565b6127ce6139cc565b9250604051806101a001604052808462ffffff1681526020018963ffffffff1681526020018863ffffffff16815260200186600181111561280b57fe5b81526020018c6001600160801b031681526020018c6001600160801b031681526020018b6001600160801b031681526020018a6001600160801b031681526020018e6001600160a01b031681526020018d6001600160a01b03168152602001336001600160a01b03168152602001871515815260200160011515815250606960008562ffffff1662ffffff16815260200190815260200160002060008201518160000160006101000a81548162ffffff021916908362ffffff16021790555060208201518160000160036101000a81548163ffffffff021916908363ffffffff16021790555060408201518160000160076101000a81548163ffffffff021916908363ffffffff160217905550606082015181600001600b6101000a81548160ff0219169083600181111561293c57fe5b0217905550608082015181546001600160801b03918216600160601b02600160601b600160e01b031990911617825560a08301516001808401805460c08701518516600160801b029385166001600160801b031991821617851693909317905560e0850151600285018054919094169216919091179091556101008301516003830180546001600160a01b039283166001600160a01b03199182161790915561012085015160048501805491841691831691909117905561014085015160059094018054610160870151610180909701511515600160a81b0260ff60a81b19971515600160a01b0260ff60a01b1997909516919093161794909416919091179390931692909217905562ffffff808516600090815260696020908152604080832081516101a0810183528154958616815263ffffffff63010000008704811694820194909452600160381b860490931691830191909152919390926060840191600160581b90910460ff1690811115612ab157fe5b6001811115612abc57fe5b815281546001600160801b03600160601b9091048116602083015260018301548082166040840152600160801b900481166060830152600283015416608082015260038201546001600160a01b0390811660a08301526004830154811660c083015260059092015491821660e082015260ff600160a01b830481161515610100830152600160a81b9092049091161515610120909101529050612b608187876139fb565b60735461010082015182516040516001600160a01b0390931692635e9d025392612b8e929091602001614ec2565b6040516020818303038152906040526040518263ffffffff1660e01b8152600401612bb9919061564d565b602060405180830381600087803b158015612bd357600080fd5b505af1158015612be7573d6000803e3d6000fd5b505050506040513d601f19601f82011682018060405250810190612c0b9190614c5b565b508061014001516001600160a01b03168161010001516001600160a01b03167f11e21d4c53b5f1e70b770c9195d73d66e48ac66695686c9022be6f6acaeb74dd83604051612c599190615728565b60405180910390a350505060016037559a9950505050505050505050565b3390565b6000610d18836001600160a01b038416613b2f565b600061126682613b47565b6000610d188383613b4b565b6000610d18836001600160a01b038416613baf565b6000610d18836001600160a01b038416613c75565b600082612ce057506000610d1b565b82820282848281612ced57fe5b0414610d185760405162461bcd60e51b8152600401808060200182810382526021815260200180615ec26021913960400191505060405180910390fd5b6000808211612d7d576040805162461bcd60e51b815260206004820152601a602482015279536166654d6174683a206469766973696f6e206279207a65726f60301b604482015290519081900360640190fd5b818381612d8657fe5b049392505050565b6001600160a01b0382166000908152606a6020526040812060018101548290612dcb90612710906110d6908790600160a81b900461ffff16612cd1565b90506001600160801b03811115612df45760405162461bcd60e51b81526004016106ac9061556e565b949350505050565b6005820154600160a81b900460ff16612e275760405162461bcd60e51b81526004016106ac90615132565b60018201546001600160801b0316612e515760405162461bcd60e51b81526004016106ac9061533e565b81546301000000900463ffffffff164210801590612e7d57508154600160381b900463ffffffff164211155b612e995760405162461bcd60e51b81526004016106ac90615184565b6005820154600160a01b900460ff1615612ef057805160038301546001600160a01b03166000908152607060205260409020612ed491612c7b565b612ef05760405162461bcd60e51b81526004016106ac906151af565b60018201546001600160801b03600160801b82048116911610612f4957600182015460408201516001600160801b03600160801b909204821691161015612f495760405162461bcd60e51b81526004016106ac90615207565b60028201546001600160801b03161561301d57604080820151835462ffffff1660009081526072602090815283822085516001600160a01b03168352905291822054612fa0916001600160801b0390911690613cbf565b60028401549091506001600160801b039081169082161115612fd45760405162461bcd60e51b81526004016106ac9061548e565b825462ffffff16600090815260726020908152604080832085516001600160a01b03168452909152902080546001600160801b0319166001600160801b03929092169190911790555b6040808201518151808301909252601b82527a696e73756666696369656e7420756e69747320666f722073616c6560281b6020830152600184015461306e926001600160801b039091169190613d23565b6001830180546001600160801b0319166001600160801b039290921691909117905561309861474a565b602080830180518352608084015160408051808201909152601281527119995948195e18d959591cc8185b5bdd5b9d60721b9381019390935290516130e89290916001600160801b031690613dcd565b602080830191909152604080516101a081018252855462ffffff8116825263ffffffff63010000008204811694830194909452600160381b81049093169181019190915260009161321591908690606083019060ff600160581b90910416600181111561315157fe5b600181111561315c57fe5b815281546001600160801b03600160601b90910481166020808401919091526001840154808316604080860191909152600160801b909104831660608501526002850154909216608084015260038401546001600160a01b0390811660a08501526004850154811660c085015260059094015493841660e084015260ff600160a01b850481161515610100850152600160a81b909404909316151561012090920191909152865186519188015192870151909290613e1f565b607354855485516020808801516040808a015160808b015191519798506001600160a01b0390961696635e9d0253966132589662ffffff169594909291016158b5565b6040516020818303038152906040526040518263ffffffff1660e01b81526004016132839190615461565b602060405180830381600087803b15801561329d57600080fd5b505af11580156132b1573d6000803e3d6000fd5b505050506040513d601f19601f820116820180604052508101906132d59190614c5b565b506003840154845484516001600160a01b039283169262ffffff90921691167f6652b98f9bca9e2eb651f3f44cab9bc07d80b17367ee7e958466c79e9e67f7528461331e613e6e565b60048a01548a5442916001600160a01b031690600160581b900460ff16600181111561334657fe5b8b606001518c604001518d602001518e6080015160405161336f999897969594939291906159be565b60405180910390a450505050565b60008083600181111561338c57fe5b14156133b6575062ffffff81166000908152600160205260409020546001600160801b0316610d1b565b60018360018111156133c457fe5b14156135525762ffffff82166000908152602081905260409020600181015463ffffffff808216600160201b9092048116919091011642106134185754600160801b90046001600160801b03169050610d1b565b600181015463ffffffff16421161343a57546001600160801b03169050610d1b565b6001810154815460009163ffffffff600160201b8204811692600160401b909204166001600160801b03600160801b830481169281169290920302168161347d57fe5b60018401549190046001600160801b031690600160401b810463ffffffff90811691164203816134a957fe5b8454919004919091026001600160801b03808316919091039250600091600160801b90041682106134da57816134ed565b8254600160801b90046001600160801b03165b90506001600160801b03811115613548576040805162461bcd60e51b815260206004820152601a6024820152790e0e4d2c6ca7440caf0c6cacac8e640ead2dce862647040dac2f60331b604482015290519081900360640190fd5b9250610d1b915050565b6040805162461bcd60e51b8152602060048201526015602482015274756e737570706f727465642070726963655479706560581b604482015290519081900360640190fd5b60006135a230613e9d565b15905090565b600254610100900460ff16806135c157506135c1613597565b806135cf575060025460ff16155b61360a5760405162461bcd60e51b815260040180806020018281038252602e815260200180615e94602e913960400191505060405180910390fd5b600254610100900460ff16158015613635576002805460ff1961ff0019909116610100171660011790555b61363d613ea3565b801561364f576002805461ff00191690555b50565b600254610100900460ff168061366b575061366b613597565b80613679575060025460ff16155b6136b45760405162461bcd60e51b815260040180806020018281038252602e815260200180615e94602e913960400191505060405180910390fd5b600254610100900460ff161580156136df576002805460ff1961ff0019909116610100171660011790555b603580546001600160a01b0319166001600160a01b0384161790558015611a8d576002805461ff00191690555050565b62ffffff8216600081815260696020818152604080842060038101546001600160a01b039081168652606a84529185206001015495909452919052600590910154611a8d92821691166001600160801b0384165b6001600160a01b03831673eeeeeeeeeeeeeeeeeeeeeeeeeeeeeeeeeeeeeeee141561387d57604080516000808252602082019092526001600160a01b0384169083906040518082805190602001908083835b602083106137d45780518252601f1990920191602091820191016137b5565b6001836020036101000a03801982511681845116808217855250505050505090500191505060006040518083038185875af1925050503d8060008114613836576040519150601f19603f3d011682016040523d82523d6000602084013e61383b565b606091505b5050905080613877576040805162461bcd60e51b815260206004820152600360248201526253544560e81b604482015290519081900360640190fd5b506139c7565b604080516001600160a01b038481166024830152604480830185905283518084039091018152606490920183526020820180516001600160e01b031663a9059cbb60e01b1781529251825160009485949389169392918291908083835b602083106138f95780518252601f1990920191602091820191016138da565b6001836020036101000a0380198251168184511680821785525050505050509050019150506000604051808303816000865af19150503d806000811461395b576040519150601f19603f3d011682016040523d82523d6000602084013e613960565b606091505b509150915081801561398e57508051158061398e575080806020019051602081101561398b57600080fd5b50515b6139c4576040805162461bcd60e51b815260206004820152600260248201526114d560f21b604482015290519081900360640190fd5b50505b505050565b6073805462ffffff60a01b198116600160a01b9182900462ffffff908116600181019091169092021790915590565b6000826001811115613a0957fe5b1415613a9857600081806020019051810190613a259190614b8c565b9050613a35846000015182613f49565b836000015162ffffff168461010001516001600160a01b03167fdb309e75ed206bcf93ed0bb2cb6bfac9fb3e900bd97d454a342100e5fee8cc98856001811115613a7b57fe5b84604051613a8a929190615a94565b60405180910390a3506139c7565b60008060008084806020019051810190613ab29190614ba8565b9350935093509350613ad08760000151886020015186868686613f7e565b866000015162ffffff168761010001516001600160a01b03167fa1129f336ddb4d6d6b397fffdf78e9a43ff20e0420bdf3d7244c98278de92f6886868686604051613b1e949392919061583c565b60405180910390a350505050505050565b60009081526001919091016020526040902054151590565b5490565b81546000908210613b8d5760405162461bcd60e51b8152600401808060200182810382526022815260200180615e2f6022913960400191505060405180910390fd5b826000018281548110613b9c57fe5b9060005260206000200154905092915050565b60008181526001830160205260408120548015613c6b5783546000198083019190810190600090879083908110613be257fe5b9060005260206000200154905080876000018481548110613bff57fe5b600091825260208083209091019290925582815260018981019092526040902090840190558654879080613c2f57fe5b60019003818190600052602060002001600090559055866001016000878152602001908152602001600020600090556001945050505050610d1b565b6000915050610d1b565b6000613c818383613b2f565b613cb757508154600181810184556000848152602080822090930184905584548482528286019093526040902091909155610d1b565b506000610d1b565b60008282016001600160801b038085169082161015610d18576040805162461bcd60e51b815260206004820152601b60248201527a536166654d6174683a206164646974696f6e206f766572666c6f7760281b604482015290519081900360640190fd5b6000836001600160801b0316836001600160801b031611158290613dc55760405162461bcd60e51b81526004018080602001828103825283818151815260200191508051906020019080838360005b83811015613d8a578181015183820152602001613d72565b50505050905090810190601f168015613db75780820380516001836020036101000a031916815260200191505b509250505060405180910390fd5b505050900390565b60008184841115613dc55760405162461bcd60e51b8152602060048201818152835160248401528351909283926044909101919085019080838360008315613d8a578181015183820152602001613d72565b6000613e3186610120015186866120e4565b508551613e3e90846140c0565b9050613e5086610100015186836146a7565b613e6586610120015187610140015184613763565b95945050505050565b6073805462ffffff60b81b198116600160b81b9182900462ffffff908116600181019091169092021790915590565b3b151590565b600254610100900460ff1680613ebc5750613ebc613597565b80613eca575060025460ff16155b613f055760405162461bcd60e51b815260040180806020018281038252602e815260200180615e94602e913960400191505060405180910390fd5b600254610100900460ff16158015613f30576002805460ff1961ff0019909116610100171660011790555b6001603755801561364f576002805461ff001916905550565b62ffffff91909116600090815260016020526040902080546001600160801b0319166001600160801b03909216919091179055565b826001600160801b0316846001600160801b031611613fe4576040805162461bcd60e51b815260206004820181905260248201527f68696768657374206d7573742067726561746572207468616e206c6f77657374604482015290519081900360640190fd5b8063ffffffff168263ffffffff16101561402f5760405162461bcd60e51b8152600401808060200182810382526023815260200180615e716023913960400191505060405180910390fd5b62ffffff95909516600090815260208190526040902060018101805482546001600160801b0319166001600160801b03968716178616600160801b959096169490940294909417905563ffffffff1990911663ffffffff9384161763ffffffff60201b1916600160201b918416919091021763ffffffff60401b1916600160401b9290931691909102919091179055565b62ffffff808316600090815260696020908152604080832081516101a0810183528154958616815263ffffffff63010000008704811694820194909452600160381b8604909316918301919091529192839290606083019060ff600160581b90910416600181111561412e57fe5b600181111561413957fe5b815281546001600160801b03600160601b90910481166020808401919091526001840154808316604080860191909152600160801b90910483166060850152600280860154909316608085015260038501546001600160a01b0390811660a0808701919091526004870154821660c087015260059096015490811660e086015260ff600160a01b820481161515610100870152600160a81b909104811615156101209095019490945262ffffff8a16600090815260749092528082208151958601909152805495965090949092849291169081111561421457fe5b600281111561421f57fe5b8152815461010081046001600160401b03166020830152604090910190600160481b900460ff16600281111561425157fe5b600281111561425c57fe5b8152602001600182018054806020026020016040519081016040528092919081815260200182805480156142e157602002820191906000526020600020906000905b82829054906101000a90046001600160401b03166001600160401b03168152602001906008019060208260070104928301926001038202915080841161429e5790505b505050505081526020016002820180548060200260200160405190810160405280929190818152602001828054801561436557602002820191906000526020600020906000905b82829054906101000a900463ffffffff1663ffffffff16815260200190600401906020826003010492830192600103820291508084116143285790505b5050509190925250505061010080840180516001600160a01b039081166000908152606a6020526040808220600101549351831682529081902054905163095ea7b360e01b81529495509181169363095ea7b3936143cc9304909116908890600401614e76565b602060405180830381600087803b1580156143e657600080fd5b505af11580156143fa573d6000803e3d6000fd5b505050506040513d601f19601f8201168201806040525081019061441e9190614b54565b5060028160400151600281111561443157fe5b146145ee576000808260600151516001600160401b038111801561445457600080fd5b5060405190808252806020026020018201604052801561447e578160200160208202803683370190505b506101008501519091506000808560400151600281111561449b57fe5b146144a657426144ac565b84602001515b905060005b85606001515181101561450957856060015181815181106144ce57fe5b6020026020010151850194508482018482815181106144e957fe5b6001600160401b03909216602092830291909101909101526001016144b1565b5060028551600281111561451957fe5b141561454157846060015160008151811061453057fe5b60200260200101518403935061455b565b60018551600281111561455057fe5b141561455b57600093505b60808501516040516305d4e2b160e31b81526001600160a01b03841691632ea71588916145909188918d918991600401615a26565b6040805180830381600087803b1580156145a957600080fd5b505af11580156145bd573d6000803e3d6000fd5b505050506040513d601f19601f820116820180604052508101906145e19190614c73565b975061469f945050505050565b61010082015161014083015182516001600160a01b03831691637964bce391600281111561461857fe5b8560200151866060015187608001518b6040518763ffffffff1660e01b815260040161464996959493929190614f67565b6040805180830381600087803b15801561466257600080fd5b505af1158015614676573d6000803e3d6000fd5b505050506040513d601f19601f8201168201806040525081019061469a9190614c73565b945050505b505092915050565b604080516323b872dd60e01b81523060048201526001600160a01b03848116602483015260448201849052915185928316916323b872dd91606480830192600092919082900301818387803b1580156146ff57600080fd5b505af1158015614713573d6000803e3d6000fd5b5050505050505050565b6040805160a081018252600080825260208201819052918101919091526060808201819052608082015290565b604051806040016040528060008152602001600081525090565b803561126981615dc2565b60008083601f840112614780578182fd5b5081356001600160401b03811115614796578182fd5b60208301915083602080830285010111156147b057600080fd5b9250929050565b803561126981615dd7565b60008083601f8401126147d3578182fd5b5081356001600160401b038111156147e9578182fd5b6020830191508360208285010111156147b057600080fd5b80356002811061126957600080fd5b600060a0828403121561161f578081fd5b803561126981615df2565b803562ffffff8116811461126957600080fd5b803561126981615e07565b60006020828403121561485b578081fd5b8135610d1881615dc2565b60008060408385031215614878578081fd5b823561488381615dc2565b9150602083013561489381615dc2565b809150509250929050565b600080600080600080600060e0888a0312156148b8578283fd5b87356148c381615dc2565b965060208801356148d381615dc2565b955060408801356148e381615de5565b945060608801356148f381615dc2565b9350608088013560ff81168114614908578384fd5b925060a088013561ffff8116811461491e578283fd5b915060c088013561492e81615dd7565b8091505092959891949750929550565b6000806000806000806000806000806000806101608d8f031215614960578485fd5b6149698d614764565b9b5061497760208e01614764565b9a5061498560408e01614821565b995061499360608e01614821565b98506149a160808e01614821565b97506149af60a08e0161483f565b96506149bd60c08e0161483f565b95506149cb60e08e016147b7565b94506149da6101008e01614801565b93506001600160401b036101208e013511156149f4578283fd5b614a058e6101208f01358f016147c2565b90935091506001600160401b036101408e01351115614a22578081fd5b614a338e6101408f01358f01614810565b90509295989b509295989b509295989b565b600080600060408486031215614a59578081fd5b8335614a6481615dc2565b925060208401356001600160401b03811115614a7e578182fd5b614a8a8682870161476f565b9497909650939450505050565b60008060008060608587031215614aac578182fd5b8435614ab781615dc2565b935060208501356001600160401b03811115614ad1578283fd5b614add8782880161476f565b9094509250506040850135614af181615dd7565b939692955090935050565b60008060408385031215614b0e578182fd5b8235614b1981615dc2565b9150602083013561489381615dd7565b60008060408385031215614b3b578182fd5b8235614b4681615dc2565b946020939093013593505050565b600060208284031215614b65578081fd5b8151610d1881615dd7565b600060208284031215614b81578081fd5b8135610d1881615de5565b600060208284031215614b9d578081fd5b8151610d1881615df2565b60008060008060808587031215614bbd578182fd5b8451614bc881615df2565b6020860151909450614bd981615df2565b6040860151909350614bea81615e07565b6060860151909250614af181615e07565b600060208284031215614c0c578081fd5b610d188261482c565b60008060408385031215614c27578182fd5b6148838361482c565b60008060408385031215614c42578182fd5b614c4b8361482c565b9150602083013561489381615df2565b600060208284031215614c6c578081fd5b5051919050565b60008060408385031215614c85578182fd5b505080516020909101519092909150565b600060208284031215614ca7578081fd5b8135610d1881615e07565b600060208284031215614cc3578081fd5b8135610d1881615e19565b6001600160a01b03169052565b6000815180845260208085019450808401835b83811015614d1057815163ffffffff1687529582019590820190600101614cee565b509495945050505050565b6000815180845260208085019450808401835b83811015614d105781516001600160401b031687529582019590820190600101614d2e565b15159052565b60008151808452815b81811015614d7e57602081850181015186830182015201614d62565b81811115614d8f5782602083870101525b50601f01601f19169290920160200192915050565b60028110614dae57fe5b9052565b6001600160801b03169052565b62ffffff169052565b63ffffffff169052565b6001600160a01b0391909116815260200190565b6001600160a01b038c811682528b811660208301528a1660408201526001600160801b0389811660608301528881166080830152871660a082015263ffffffff86811660c0830152851660e08201528315156101008201526000610160614e51610120840186614da4565b80610140840152614e6481840185614d59565b9e9d5050505050505050505050505050565b6001600160a01b039290921682526001600160801b0316602082015260400190565b6001600160a01b039390931683526001600160801b03918216602084015216604082015260600190565b6001600160a01b0392909216825262ffffff16602082015260400190565b6001600160a01b03938416815262ffffff929092166020830152909116604082015260600190565b6001600160a01b03968716815262ffffff95909516602086015292909416604084015260608301526001600160801b03928316608083015290911660a082015260c00190565b6001600160a01b03929092168252602082015260400190565b6001600160a01b038716815260ff861660208201526001600160401b038516604082015260c060608201819052600090614fa390830186614d1b565b8281036080840152614fb58186614cdb565b91505060018060801b03831660a0830152979650505050505050565b6020808252825182820181905260009190848201906040850190845b818110156150125783516001600160a01b031683529284019291840191600101614fed565b50909695505050505050565b901515815260200190565b6001600160a01b0392831681529116602082015260400190565b60e0810161505089615db8565b9781526001600160a01b03968716602082015294909516604085015260ff92909216606084015261ffff166080830152151560a082015290151560c09091015290565b60a081016150a087615db8565b9581526001600160a01b0394909416602085015260ff92909216604084015261ffff166060830152151560809091015290565b6020808252601390820152720616464726573732063616e6e6f74206265203606c1b604082015260600190565b602080825260189082015277756e737570706f7274656420766f7563686572207479706560401b604082015260600190565b60208082526010908201526f1bd999995c9a5b99c81a5b9d985b1a5960821b604082015260600190565b6020808252600e908201526d1a5b9d985b1a59081b585c9ad95d60921b604082015260600190565b6020808252601190820152706e6f74206f66666572696e672074696d6560781b604082015260600190565b6020808252601190820152701b9bdd081a5b88185b1b1bddc81b1a5cdd607a1b604082015260600190565b60208082526013908201527214dbdb1d995c8e881b9bdd08185b1b1bddd959606a1b604082015260600190565b6020808252601290820152711b5a5b88185b5bdd5b9d081b9bdd081b595d60721b604082015260600190565b6020808252601a908201527970657263656e746167652076616c756520746f6f206c6172676560301b604082015260600190565b6020808252601a90820152796c61746573742073746172742074696d6520746f6f206c61746560301b604082015260600190565b6020808252601390820152723ab739bab83837b93a32b2103b37bab1b432b960691b604082015260600190565b6020808252600b908201526a37b7363c9034b9b9bab2b960a91b604082015260600190565b602080825260119082015270696e76616c69642074696d65207479706560781b604082015260600190565b6020808252600c908201526b37b7363c9036b0b730b3b2b960a11b604082015260600190565b6020808252600890820152671cdbdb19081bdd5d60c21b604082015260600190565b6020808252600d908201526c185b1c9958591e481859191959609a1b604082015260600190565b6020808252601290820152711cdbdb1d995c881b9bdd08185b1b1bddd95960721b604082015260600190565b6020808252601390820152726e6f742066756c6c2070657263656e7461676560681b604082015260600190565b6020808252601b908201527a656e6454696d65206c657373207468616e20737461727454696d6560281b604082015260600190565b6020808252600990820152680dad2dc407c40dac2f60bb1b604082015260600190565b6020808252600f908201526e746f6f206d616e792073746167657360881b604082015260600190565b600060408252600360408301526242757960e81b606083015260806020830152610d186080830184614d59565b602080825260169082015275195e18d959591cc81c1d5c98da185cd9481b1a5b5a5d60521b604082015260600190565b60208082526010908201526f696e76616c696420666565207261746560801b604082015260600190565b6020808252601490820152737465726d2076616c756520746f6f206c6172676560601b604082015260600190565b6020808252600e908201526d696e76616c696420706172616d7360901b604082015260600190565b600060408252600660408301526552656d6f766560d01b606083015260806020830152610d186080830184614d59565b60208082526018908201527708ccaca7440caf0c6cacac8e640ead2dce862647040dac2f60431b604082015260600190565b60208082526010908201526f696e76616c6964206f66666572696e6760801b604082015260600190565b602080825260149082015273756e737570706f727465642063757272656e637960601b604082015260600190565b6020808252601390820152726f66666572696e672070726f63657373696e6760681b604082015260600190565b6020808252600e908201526d34b73b30b634b21039b7b63b32b960911b604082015260600190565b600060408252600560408301526427b33332b960d91b606083015260806020830152610d186080830184614d59565b6020808252601d908201527f696e76616c6964207465726d7320616e642070657263656e7461676573000000604082015260600190565b60006020825282516156c481615db8565b8060208401525060018060401b03602084015116604083015260408301516156eb81615db8565b80606084015250606083015160a0608084015261570b60c0840182614d1b565b90506080840151601f198483030160a0850152613e658282614cdb565b60006101a08201905061573c828451614dbf565b602083015161574e6020840182614dc8565b5060408301516157616040840182614dc8565b5060608301516157746060840182614da4565b5060808301516157876080840182614db2565b5060a083015161579a60a0840182614db2565b5060c08301516157ad60c0840182614db2565b5060e08301516157c060e0840182614db2565b50610100808401516157d482850182614cce565b5050610120808401516157e982850182614cce565b5050610140808401516157fe82850182614cce565b50506101608084015161581382850182614d53565b50506101808084015161469f82850182614d53565b6001600160801b0391909116815260200190565b6001600160801b03948516815292909316602083015263ffffffff9081166040830152909116606082015260800190565b6001600160801b03958616815293909416602084015263ffffffff918216604084015281166060830152909116608082015260a00190565b62ffffff91909116815260200190565b62ffffff9590951685526001600160a01b0393909316602085015260408401919091526001600160801b03908116606084015216608082015260a00190565b62ffffff8e16815263ffffffff8d811660208301528c1660408201526101a08101615922606083018d614da4565b6001600160801b038b16608083015261593e60a083018b614db2565b61594b60c083018a614db2565b61595860e0830189614db2565b615966610100830188614cce565b615974610120830187614cce565b615982610140830186614cce565b615990610160830185614d53565b614e64610180830184614d53565b90815260200190565b9182526001600160801b0316602082015260400190565b98895262ffffff97909716602089015263ffffffff9590951660408801526001600160a01b0393909316606087015260ff9190911660808601526001600160801b0390811660a086015290811660c085015260e0840191909152166101008201526101200190565b6001600160401b03851681526001600160801b038416602082015260a060408201819052600090615a5990830185614d1b565b8281036060840152615a6b8185614cdb565b8381036080909401939093525050600381526249564f60e81b6020820152604001949350505050565b60ff9290921682526001600160801b0316602082015260400190565b6000808335601e19843603018112615ac6578283fd5b8301803591506001600160401b03821115615adf578283fd5b60209081019250810236038213156147b057600080fd5b60009081526020902090565b5b81811015611a8d5760008155600101615b03565b600160401b831115615b2557fe5b805483825580841015615b7557816000526020600020600860078601048101600460078716028015615b5f57615b5f816000198401615c77565b50615b7260086007850104830182615b02565b50505b5081615b8082615af6565b6000805b86811015610be357615b9f615b9885615c8b565b8385615d69565b602084019350600482019150601c821115615bbf57600091506001830192505b600101615b84565b600160401b831115615bd557fe5b805483825580841015615c2557816000526020600020600460038601048101600860038716028015615c0f57615c0f816000198401615c77565b50615c2260046003850104830182615b02565b50505b5081615c3082615af6565b6000805b86811015610be357615c4f615c4885615c98565b8385615d8e565b6020840193506008820191506018821115615c6f57600091506001830192505b600101615c34565b8054600019836020036008021c1681555050565b60008135610d1b81615e07565b60008135610d1b81615e19565b8135615cb081615de5565b615cb981615db8565b60ff1982541660ff821681179150508082556020830135615cd981615e19565b610100600160481b03199190911660089190911b610100600160481b0316178082556040830135615d0981615de5565b615d1281615db8565b60ff60481b199190911660489190911b60ff60481b16178155615d386060830183615ab0565b615d46818360018601615bc7565b5050615d556080830183615ab0565b615d63818360028601615b17565b50505050565b63ffffffff81546008840282811b80848816831b168119841617855550505050505050565b80546001600160401b0360089390930283811b80199092169490931690921b909116919091179055565b6003811061364f57fe5b6001600160a01b038116811461364f57600080fd5b801515811461364f57600080fd5b6003811061364f57600080fd5b6001600160801b038116811461364f57600080fd5b63ffffffff8116811461364f57600080fd5b6001600160401b038116811461364f57600080fdfe456e756d657261626c655365743a20696e646578206f7574206f6620626f756e64735265656e7472616e637947756172643a207265656e7472616e742063616c6c006475726174696f6e206d7573742067726561746572207468616e20696e74657276616c496e697469616c697a61626c653a20636f6e747261637420697320616c726561647920696e697469616c697a6564536166654d6174683a206d756c7469706c69636174696f6e206f766572666c6f77a2646970667358221220253fc223fce490ee1c17793222d81e4c61a69d5683fd34306e239f57dce8049f64736f6c63430007060033"
}